{
  "contractName": "AuxiunNFT",
  "abi": [
    {
      "inputs": [],
      "stateMutability": "nonpayable",
      "type": "constructor"
    },
    {
      "anonymous": false,
      "inputs": [
        {
          "indexed": true,
          "internalType": "address",
          "name": "owner",
          "type": "address"
        },
        {
          "indexed": true,
          "internalType": "address",
          "name": "approved",
          "type": "address"
        },
        {
          "indexed": true,
          "internalType": "uint256",
          "name": "tokenId",
          "type": "uint256"
        }
      ],
      "name": "Approval",
      "type": "event"
    },
    {
      "anonymous": false,
      "inputs": [
        {
          "indexed": true,
          "internalType": "address",
          "name": "owner",
          "type": "address"
        },
        {
          "indexed": true,
          "internalType": "address",
          "name": "operator",
          "type": "address"
        },
        {
          "indexed": false,
          "internalType": "bool",
          "name": "approved",
          "type": "bool"
        }
      ],
      "name": "ApprovalForAll",
      "type": "event"
    },
    {
      "anonymous": false,
      "inputs": [
        {
          "indexed": true,
          "internalType": "address",
          "name": "previousOwner",
          "type": "address"
        },
        {
          "indexed": true,
          "internalType": "address",
          "name": "newOwner",
          "type": "address"
        }
      ],
      "name": "OwnershipTransferred",
      "type": "event"
    },
    {
      "anonymous": false,
      "inputs": [
        {
          "indexed": true,
          "internalType": "address",
          "name": "from",
          "type": "address"
        },
        {
          "indexed": true,
          "internalType": "address",
          "name": "to",
          "type": "address"
        },
        {
          "indexed": true,
          "internalType": "uint256",
          "name": "tokenId",
          "type": "uint256"
        }
      ],
      "name": "Transfer",
      "type": "event"
    },
    {
      "inputs": [
        {
          "internalType": "address",
          "name": "to",
          "type": "address"
        },
        {
          "internalType": "uint256",
          "name": "tokenId",
          "type": "uint256"
        }
      ],
      "name": "approve",
      "outputs": [],
      "stateMutability": "nonpayable",
      "type": "function"
    },
    {
      "inputs": [
        {
          "internalType": "address",
          "name": "owner",
          "type": "address"
        }
      ],
      "name": "balanceOf",
      "outputs": [
        {
          "internalType": "uint256",
          "name": "",
          "type": "uint256"
        }
      ],
      "stateMutability": "view",
      "type": "function"
    },
    {
      "inputs": [
        {
          "internalType": "uint256",
          "name": "tokenId",
          "type": "uint256"
        }
      ],
      "name": "getApproved",
      "outputs": [
        {
          "internalType": "address",
          "name": "",
          "type": "address"
        }
      ],
      "stateMutability": "view",
      "type": "function"
    },
    {
      "inputs": [
        {
          "internalType": "address",
          "name": "owner",
          "type": "address"
        },
        {
          "internalType": "address",
          "name": "operator",
          "type": "address"
        }
      ],
      "name": "isApprovedForAll",
      "outputs": [
        {
          "internalType": "bool",
          "name": "",
          "type": "bool"
        }
      ],
      "stateMutability": "view",
      "type": "function"
    },
    {
      "inputs": [],
      "name": "name",
      "outputs": [
        {
          "internalType": "string",
          "name": "",
          "type": "string"
        }
      ],
      "stateMutability": "view",
      "type": "function"
    },
    {
      "inputs": [],
      "name": "owner",
      "outputs": [
        {
          "internalType": "address",
          "name": "",
          "type": "address"
        }
      ],
      "stateMutability": "view",
      "type": "function"
    },
    {
      "inputs": [
        {
          "internalType": "uint256",
          "name": "tokenId",
          "type": "uint256"
        }
      ],
      "name": "ownerOf",
      "outputs": [
        {
          "internalType": "address",
          "name": "",
          "type": "address"
        }
      ],
      "stateMutability": "view",
      "type": "function"
    },
    {
      "inputs": [],
      "name": "renounceOwnership",
      "outputs": [],
      "stateMutability": "nonpayable",
      "type": "function"
    },
    {
      "inputs": [
        {
          "internalType": "address",
          "name": "from",
          "type": "address"
        },
        {
          "internalType": "address",
          "name": "to",
          "type": "address"
        },
        {
          "internalType": "uint256",
          "name": "tokenId",
          "type": "uint256"
        }
      ],
      "name": "safeTransferFrom",
      "outputs": [],
      "stateMutability": "nonpayable",
      "type": "function"
    },
    {
      "inputs": [
        {
          "internalType": "address",
          "name": "from",
          "type": "address"
        },
        {
          "internalType": "address",
          "name": "to",
          "type": "address"
        },
        {
          "internalType": "uint256",
          "name": "tokenId",
          "type": "uint256"
        },
        {
          "internalType": "bytes",
          "name": "_data",
          "type": "bytes"
        }
      ],
      "name": "safeTransferFrom",
      "outputs": [],
      "stateMutability": "nonpayable",
      "type": "function"
    },
    {
      "inputs": [
        {
          "internalType": "address",
          "name": "operator",
          "type": "address"
        },
        {
          "internalType": "bool",
          "name": "approved",
          "type": "bool"
        }
      ],
      "name": "setApprovalForAll",
      "outputs": [],
      "stateMutability": "nonpayable",
      "type": "function"
    },
    {
      "inputs": [
        {
          "internalType": "bytes4",
          "name": "interfaceId",
          "type": "bytes4"
        }
      ],
      "name": "supportsInterface",
      "outputs": [
        {
          "internalType": "bool",
          "name": "",
          "type": "bool"
        }
      ],
      "stateMutability": "view",
      "type": "function"
    },
    {
      "inputs": [],
      "name": "symbol",
      "outputs": [
        {
          "internalType": "string",
          "name": "",
          "type": "string"
        }
      ],
      "stateMutability": "view",
      "type": "function"
    },
    {
      "inputs": [
        {
          "internalType": "address",
          "name": "from",
          "type": "address"
        },
        {
          "internalType": "address",
          "name": "to",
          "type": "address"
        },
        {
          "internalType": "uint256",
          "name": "tokenId",
          "type": "uint256"
        }
      ],
      "name": "transferFrom",
      "outputs": [],
      "stateMutability": "nonpayable",
      "type": "function"
    },
    {
      "inputs": [
        {
          "internalType": "address",
          "name": "newOwner",
          "type": "address"
        }
      ],
      "name": "transferOwnership",
      "outputs": [],
      "stateMutability": "nonpayable",
      "type": "function"
    },
    {
      "inputs": [
        {
          "internalType": "string",
          "name": "inputbaseURI",
          "type": "string"
        }
      ],
      "name": "setBaseURI",
      "outputs": [],
      "stateMutability": "nonpayable",
      "type": "function"
    },
    {
      "inputs": [
        {
          "internalType": "uint256",
          "name": "tokenId",
          "type": "uint256"
        }
      ],
      "name": "tokenURI",
      "outputs": [
        {
          "internalType": "string",
          "name": "",
          "type": "string"
        }
      ],
      "stateMutability": "view",
      "type": "function"
    },
    {
      "inputs": [
        {
          "internalType": "string",
          "name": "game_id",
          "type": "string"
        },
        {
          "internalType": "string",
          "name": "item_id",
          "type": "string"
        }
      ],
      "name": "mint",
      "outputs": [],
      "stateMutability": "nonpayable",
      "type": "function"
    },
    {
      "inputs": [],
      "name": "kill",
      "outputs": [],
      "stateMutability": "nonpayable",
      "type": "function"
    }
  ],
  "bytecode": "0x608060405260006009553480156200001657600080fd5b506040518060400160405280600981526020017f41757869756e4e465400000000000000000000000000000000000000000000008152506040518060400160405280600481526020017f4155584e00000000000000000000000000000000000000000000000000000000815250620000a3620000976200012b60201b60201c565b6200013360201b60201c565b8160019080519060200190620000bb929190620001f7565b508060029080519060200190620000d4929190620001f7565b5050506040518060400160405280600d81526020017f68747470733a2f2f746f646f2f000000000000000000000000000000000000008152506008908051906020019062000124929190620001f7565b506200030c565b600033905090565b60008060009054906101000a900473ffffffffffffffffffffffffffffffffffffffff169050816000806101000a81548173ffffffffffffffffffffffffffffffffffffffff021916908373ffffffffffffffffffffffffffffffffffffffff1602179055508173ffffffffffffffffffffffffffffffffffffffff168173ffffffffffffffffffffffffffffffffffffffff167f8be0079c531659141344cd1fd0a4f28419497f9722a3daafe3b4186f6b6457e060405160405180910390a35050565b8280546200020590620002a7565b90600052602060002090601f01602090048101928262000229576000855562000275565b82601f106200024457805160ff191683800117855562000275565b8280016001018555821562000275579182015b828111156200027457825182559160200191906001019062000257565b5b50905062000284919062000288565b5090565b5b80821115620002a357600081600090555060010162000289565b5090565b60006002820490506001821680620002c057607f821691505b60208210811415620002d757620002d6620002dd565b5b50919050565b7f4e487b7100000000000000000000000000000000000000000000000000000000600052602260045260246000fd5b6131fe806200031c6000396000f3fe608060405234801561001057600080fd5b50600436106101215760003560e01c806370a08231116100ad578063a22cb46511610071578063a22cb465146102e0578063b88d4fde146102fc578063c87b56dd14610318578063e985e9c514610348578063f2fde38b1461037857610121565b806370a082311461024e578063715018a61461027e5780638aa0fdad146102885780638da5cb5b146102a457806395d89b41146102c257610121565b806323b872dd116100f457806323b872dd146101c057806341c0e1b5146101dc57806342842e0e146101e657806355f804b3146102025780636352211e1461021e57610121565b806301ffc9a71461012657806306fdde0314610156578063081812fc14610174578063095ea7b3146101a4575b600080fd5b610140600480360381019061013b91906123fc565b610394565b60405161014d9190612bf2565b60405180910390f35b61015e610476565b60405161016b9190612c0d565b60405180910390f35b61018e600480360381019061018991906124fb565b610508565b60405161019b9190612b8b565b60405180910390f35b6101be60048036038101906101b991906123c0565b61058d565b005b6101da60048036038101906101d591906122ba565b6106a5565b005b6101e4610705565b005b61020060048036038101906101fb91906122ba565b6107a1565b005b61021c6004803603810190610217919061244e565b6107c1565b005b610238600480360381019061023391906124fb565b610857565b6040516102459190612b8b565b60405180910390f35b61026860048036038101906102639190612255565b610909565b6040516102759190612e2f565b60405180910390f35b6102866109c1565b005b6102a2600480360381019061029d919061248f565b610a49565b005b6102ac610adc565b6040516102b99190612b8b565b60405180910390f35b6102ca610b05565b6040516102d79190612c0d565b60405180910390f35b6102fa60048036038101906102f59190612384565b610b97565b005b61031660048036038101906103119190612309565b610d18565b005b610332600480360381019061032d91906124fb565b610d7a565b60405161033f9190612c0d565b60405180910390f35b610362600480360381019061035d919061227e565b610f5f565b60405161036f9190612bf2565b60405180910390f35b610392600480360381019061038d9190612255565b610ff3565b005b60007f80ac58cd000000000000000000000000000000000000000000000000000000007bffffffffffffffffffffffffffffffffffffffffffffffffffffffff1916827bffffffffffffffffffffffffffffffffffffffffffffffffffffffff1916148061045f57507f5b5e139f000000000000000000000000000000000000000000000000000000007bffffffffffffffffffffffffffffffffffffffffffffffffffffffff1916827bffffffffffffffffffffffffffffffffffffffffffffffffffffffff1916145b8061046f575061046e826110eb565b5b9050919050565b60606001805461048590613053565b80601f01602080910402602001604051908101604052809291908181526020018280546104b190613053565b80156104fe5780601f106104d3576101008083540402835291602001916104fe565b820191906000526020600020905b8154815290600101906020018083116104e157829003601f168201915b5050505050905090565b600061051382611155565b610552576040517f08c379a000000000000000000000000000000000000000000000000000000000815260040161054990612d6f565b60405180910390fd5b6005600083815260200190815260200160002060009054906101000a900473ffffffffffffffffffffffffffffffffffffffff169050919050565b600061059882610857565b90508073ffffffffffffffffffffffffffffffffffffffff168373ffffffffffffffffffffffffffffffffffffffff161415610609576040517f08c379a000000000000000000000000000000000000000000000000000000000815260040161060090612def565b60405180910390fd5b8073ffffffffffffffffffffffffffffffffffffffff166106286111c1565b73ffffffffffffffffffffffffffffffffffffffff1614806106575750610656816106516111c1565b610f5f565b5b610696576040517f08c379a000000000000000000000000000000000000000000000000000000000815260040161068d90612cef565b60405180910390fd5b6106a083836111c9565b505050565b6106b66106b06111c1565b82611282565b6106f5576040517f08c379a00000000000000000000000000000000000000000000000000000000081526004016106ec90612e0f565b60405180910390fd5b610700838383611360565b505050565b61070d6111c1565b73ffffffffffffffffffffffffffffffffffffffff1661072b610adc565b73ffffffffffffffffffffffffffffffffffffffff1614610781576040517f08c379a000000000000000000000000000000000000000000000000000000000815260040161077890612d8f565b60405180910390fd5b610789610adc565b73ffffffffffffffffffffffffffffffffffffffff16ff5b6107bc83838360405180602001604052806000815250610d18565b505050565b6107c96111c1565b73ffffffffffffffffffffffffffffffffffffffff166107e7610adc565b73ffffffffffffffffffffffffffffffffffffffff161461083d576040517f08c379a000000000000000000000000000000000000000000000000000000000815260040161083490612d8f565b60405180910390fd5b8060089080519060200190610853929190612079565b5050565b6000806003600084815260200190815260200160002060009054906101000a900473ffffffffffffffffffffffffffffffffffffffff169050600073ffffffffffffffffffffffffffffffffffffffff168173ffffffffffffffffffffffffffffffffffffffff161415610900576040517f08c379a00000000000000000000000000000000000000000000000000000000081526004016108f790612d2f565b60405180910390fd5b80915050919050565b60008073ffffffffffffffffffffffffffffffffffffffff168273ffffffffffffffffffffffffffffffffffffffff16141561097a576040517f08c379a000000000000000000000000000000000000000000000000000000000815260040161097190612d0f565b60405180910390fd5b600460008373ffffffffffffffffffffffffffffffffffffffff1673ffffffffffffffffffffffffffffffffffffffff168152602001908152602001600020549050919050565b6109c96111c1565b73ffffffffffffffffffffffffffffffffffffffff166109e7610adc565b73ffffffffffffffffffffffffffffffffffffffff1614610a3d576040517f08c379a0000000000000000000000000000000000000000000000000000000008152600401610a3490612d8f565b60405180910390fd5b610a4760006115bc565b565b6000600954905060096000815480929190610a6390613085565b9190505550604051806040016040528084815260200183815250600760008381526020019081526020016000206000820151816000019080519060200190610aac929190612079565b506020820151816001019080519060200190610ac9929190612079565b50905050610ad73382611680565b505050565b60008060009054906101000a900473ffffffffffffffffffffffffffffffffffffffff16905090565b606060028054610b1490613053565b80601f0160208091040260200160405190810160405280929190818152602001828054610b4090613053565b8015610b8d5780601f10610b6257610100808354040283529160200191610b8d565b820191906000526020600020905b815481529060010190602001808311610b7057829003601f168201915b5050505050905090565b610b9f6111c1565b73ffffffffffffffffffffffffffffffffffffffff168273ffffffffffffffffffffffffffffffffffffffff161415610c0d576040517f08c379a0000000000000000000000000000000000000000000000000000000008152600401610c0490612caf565b60405180910390fd5b8060066000610c1a6111c1565b73ffffffffffffffffffffffffffffffffffffffff1673ffffffffffffffffffffffffffffffffffffffff16815260200190815260200160002060008473ffffffffffffffffffffffffffffffffffffffff1673ffffffffffffffffffffffffffffffffffffffff16815260200190815260200160002060006101000a81548160ff0219169083151502179055508173ffffffffffffffffffffffffffffffffffffffff16610cc76111c1565b73ffffffffffffffffffffffffffffffffffffffff167f17307eab39ab6107e8899845ad3d59bd9653f200f220920489ca2b5937696c3183604051610d0c9190612bf2565b60405180910390a35050565b610d29610d236111c1565b83611282565b610d68576040517f08c379a0000000000000000000000000000000000000000000000000000000008152600401610d5f90612e0f565b60405180910390fd5b610d748484848461169e565b50505050565b6060610d8582611155565b610dc4576040517f08c379a0000000000000000000000000000000000000000000000000000000008152600401610dbb90612dcf565b60405180910390fd5b610f58610dcf6116fa565b600760008581526020019081526020016000206000018054610df090613053565b80601f0160208091040260200160405190810160405280929190818152602001828054610e1c90613053565b8015610e695780601f10610e3e57610100808354040283529160200191610e69565b820191906000526020600020905b815481529060010190602001808311610e4c57829003601f168201915b50505050506040518060400160405280600181526020017f2f00000000000000000000000000000000000000000000000000000000000000815250600760008781526020019081526020016000206001018054610ec590613053565b80601f0160208091040260200160405190810160405280929190818152602001828054610ef190613053565b8015610f3e5780601f10610f1357610100808354040283529160200191610f3e565b820191906000526020600020905b815481529060010190602001808311610f2157829003601f168201915b50505050506040518060200160405280600081525061178c565b9050919050565b6000600660008473ffffffffffffffffffffffffffffffffffffffff1673ffffffffffffffffffffffffffffffffffffffff16815260200190815260200160002060008373ffffffffffffffffffffffffffffffffffffffff1673ffffffffffffffffffffffffffffffffffffffff16815260200190815260200160002060009054906101000a900460ff16905092915050565b610ffb6111c1565b73ffffffffffffffffffffffffffffffffffffffff16611019610adc565b73ffffffffffffffffffffffffffffffffffffffff161461106f576040517f08c379a000000000000000000000000000000000000000000000000000000000815260040161106690612d8f565b60405180910390fd5b600073ffffffffffffffffffffffffffffffffffffffff168173ffffffffffffffffffffffffffffffffffffffff1614156110df576040517f08c379a00000000000000000000000000000000000000000000000000000000081526004016110d690612c4f565b60405180910390fd5b6110e8816115bc565b50565b60007f01ffc9a7000000000000000000000000000000000000000000000000000000007bffffffffffffffffffffffffffffffffffffffffffffffffffffffff1916827bffffffffffffffffffffffffffffffffffffffffffffffffffffffff1916149050919050565b60008073ffffffffffffffffffffffffffffffffffffffff166003600084815260200190815260200160002060009054906101000a900473ffffffffffffffffffffffffffffffffffffffff1673ffffffffffffffffffffffffffffffffffffffff1614159050919050565b600033905090565b816005600083815260200190815260200160002060006101000a81548173ffffffffffffffffffffffffffffffffffffffff021916908373ffffffffffffffffffffffffffffffffffffffff160217905550808273ffffffffffffffffffffffffffffffffffffffff1661123c83610857565b73ffffffffffffffffffffffffffffffffffffffff167f8c5be1e5ebec7d5bd14f71427d1e84f3dd0314c0f7b2291e5b200ac8c7c3b92560405160405180910390a45050565b600061128d82611155565b6112cc576040517f08c379a00000000000000000000000000000000000000000000000000000000081526004016112c390612ccf565b60405180910390fd5b60006112d783610857565b90508073ffffffffffffffffffffffffffffffffffffffff168473ffffffffffffffffffffffffffffffffffffffff16148061134657508373ffffffffffffffffffffffffffffffffffffffff1661132e84610508565b73ffffffffffffffffffffffffffffffffffffffff16145b8061135757506113568185610f5f565b5b91505092915050565b8273ffffffffffffffffffffffffffffffffffffffff1661138082610857565b73ffffffffffffffffffffffffffffffffffffffff16146113d6576040517f08c379a00000000000000000000000000000000000000000000000000000000081526004016113cd90612daf565b60405180910390fd5b600073ffffffffffffffffffffffffffffffffffffffff168273ffffffffffffffffffffffffffffffffffffffff161415611446576040517f08c379a000000000000000000000000000000000000000000000000000000000815260040161143d90612c8f565b60405180910390fd5b611451838383611ca1565b61145c6000826111c9565b6001600460008573ffffffffffffffffffffffffffffffffffffffff1673ffffffffffffffffffffffffffffffffffffffff16815260200190815260200160002060008282546114ac9190612f69565b925050819055506001600460008473ffffffffffffffffffffffffffffffffffffffff1673ffffffffffffffffffffffffffffffffffffffff16815260200190815260200160002060008282546115039190612f13565b92505081905550816003600083815260200190815260200160002060006101000a81548173ffffffffffffffffffffffffffffffffffffffff021916908373ffffffffffffffffffffffffffffffffffffffff160217905550808273ffffffffffffffffffffffffffffffffffffffff168473ffffffffffffffffffffffffffffffffffffffff167fddf252ad1be2c89b69c2b068fc378daa952ba7f163c4a11628f55a4df523b3ef60405160405180910390a4505050565b60008060009054906101000a900473ffffffffffffffffffffffffffffffffffffffff169050816000806101000a81548173ffffffffffffffffffffffffffffffffffffffff021916908373ffffffffffffffffffffffffffffffffffffffff1602179055508173ffffffffffffffffffffffffffffffffffffffff168173ffffffffffffffffffffffffffffffffffffffff167f8be0079c531659141344cd1fd0a4f28419497f9722a3daafe3b4186f6b6457e060405160405180910390a35050565b61169a828260405180602001604052806000815250611ca6565b5050565b6116a9848484611360565b6116b584848484611d01565b6116f4576040517f08c379a00000000000000000000000000000000000000000000000000000000081526004016116eb90612c2f565b60405180910390fd5b50505050565b60606008805461170990613053565b80601f016020809104026020016040519081016040528092919081815260200182805461173590613053565b80156117825780601f1061175757610100808354040283529160200191611782565b820191906000526020600020905b81548152906001019060200180831161176557829003601f168201915b5050505050905090565b6060600086905060008690506000869050600086905060008690506000815183518551875189516117bd9190612f13565b6117c79190612f13565b6117d19190612f13565b6117db9190612f13565b67ffffffffffffffff81111561181a577f4e487b7100000000000000000000000000000000000000000000000000000000600052604160045260246000fd5b6040519080825280601f01601f19166020018201604052801561184c5781602001600182028036833780820191505090505b50905060008190506000805b885181101561192c5788818151811061189a577f4e487b7100000000000000000000000000000000000000000000000000000000600052603260045260246000fd5b602001015160f81c60f81b8383806118b190613085565b9450815181106118ea577f4e487b7100000000000000000000000000000000000000000000000000000000600052603260045260246000fd5b60200101907effffffffffffffffffffffffffffffffffffffffffffffffffffffffffffff1916908160001a905350808061192490613085565b915050611858565b5060005b8751811015611a0457878181518110611972577f4e487b7100000000000000000000000000000000000000000000000000000000600052603260045260246000fd5b602001015160f81c60f81b83838061198990613085565b9450815181106119c2577f4e487b7100000000000000000000000000000000000000000000000000000000600052603260045260246000fd5b60200101907effffffffffffffffffffffffffffffffffffffffffffffffffffffffffffff1916908160001a90535080806119fc90613085565b915050611930565b5060005b8651811015611adc57868181518110611a4a577f4e487b7100000000000000000000000000000000000000000000000000000000600052603260045260246000fd5b602001015160f81c60f81b838380611a6190613085565b945081518110611a9a577f4e487b7100000000000000000000000000000000000000000000000000000000600052603260045260246000fd5b60200101907effffffffffffffffffffffffffffffffffffffffffffffffffffffffffffff1916908160001a9053508080611ad490613085565b915050611a08565b5060005b8551811015611bb457858181518110611b22577f4e487b7100000000000000000000000000000000000000000000000000000000600052603260045260246000fd5b602001015160f81c60f81b838380611b3990613085565b945081518110611b72577f4e487b7100000000000000000000000000000000000000000000000000000000600052603260045260246000fd5b60200101907effffffffffffffffffffffffffffffffffffffffffffffffffffffffffffff1916908160001a9053508080611bac90613085565b915050611ae0565b5060005b8451811015611c8c57848181518110611bfa577f4e487b7100000000000000000000000000000000000000000000000000000000600052603260045260246000fd5b602001015160f81c60f81b838380611c1190613085565b945081518110611c4a577f4e487b7100000000000000000000000000000000000000000000000000000000600052603260045260246000fd5b60200101907effffffffffffffffffffffffffffffffffffffffffffffffffffffffffffff1916908160001a9053508080611c8490613085565b915050611bb8565b50819850505050505050505095945050505050565b505050565b611cb08383611e98565b611cbd6000848484611d01565b611cfc576040517f08c379a0000000000000000000000000000000000000000000000000000000008152600401611cf390612c2f565b60405180910390fd5b505050565b6000611d228473ffffffffffffffffffffffffffffffffffffffff16612066565b15611e8b578373ffffffffffffffffffffffffffffffffffffffff1663150b7a02611d4b6111c1565b8786866040518563ffffffff1660e01b8152600401611d6d9493929190612ba6565b602060405180830381600087803b158015611d8757600080fd5b505af1925050508015611db857506040513d601f19601f82011682018060405250810190611db59190612425565b60015b611e3b573d8060008114611de8576040519150601f19603f3d011682016040523d82523d6000602084013e611ded565b606091505b50600081511415611e33576040517f08c379a0000000000000000000000000000000000000000000000000000000008152600401611e2a90612c2f565b60405180910390fd5b805181602001fd5b63150b7a0260e01b7bffffffffffffffffffffffffffffffffffffffffffffffffffffffff1916817bffffffffffffffffffffffffffffffffffffffffffffffffffffffff191614915050611e90565b600190505b949350505050565b600073ffffffffffffffffffffffffffffffffffffffff168273ffffffffffffffffffffffffffffffffffffffff161415611f08576040517f08c379a0000000000000000000000000000000000000000000000000000000008152600401611eff90612d4f565b60405180910390fd5b611f1181611155565b15611f51576040517f08c379a0000000000000000000000000000000000000000000000000000000008152600401611f4890612c6f565b60405180910390fd5b611f5d60008383611ca1565b6001600460008473ffffffffffffffffffffffffffffffffffffffff1673ffffffffffffffffffffffffffffffffffffffff1681526020019081526020016000206000828254611fad9190612f13565b92505081905550816003600083815260200190815260200160002060006101000a81548173ffffffffffffffffffffffffffffffffffffffff021916908373ffffffffffffffffffffffffffffffffffffffff160217905550808273ffffffffffffffffffffffffffffffffffffffff16600073ffffffffffffffffffffffffffffffffffffffff167fddf252ad1be2c89b69c2b068fc378daa952ba7f163c4a11628f55a4df523b3ef60405160405180910390a45050565b600080823b905060008111915050919050565b82805461208590613053565b90600052602060002090601f0160209004810192826120a757600085556120ee565b82601f106120c057805160ff19168380011785556120ee565b828001600101855582156120ee579182015b828111156120ed5782518255916020019190600101906120d2565b5b5090506120fb91906120ff565b5090565b5b80821115612118576000816000905550600101612100565b5090565b600061212f61212a84612e7b565b612e4a565b90508281526020810184848401111561214757600080fd5b612152848285613011565b509392505050565b600061216d61216884612eab565b612e4a565b90508281526020810184848401111561218557600080fd5b612190848285613011565b509392505050565b6000813590506121a78161316c565b92915050565b6000813590506121bc81613183565b92915050565b6000813590506121d18161319a565b92915050565b6000815190506121e68161319a565b92915050565b600082601f8301126121fd57600080fd5b813561220d84826020860161211c565b91505092915050565b600082601f83011261222757600080fd5b813561223784826020860161215a565b91505092915050565b60008135905061224f816131b1565b92915050565b60006020828403121561226757600080fd5b600061227584828501612198565b91505092915050565b6000806040838503121561229157600080fd5b600061229f85828601612198565b92505060206122b085828601612198565b9150509250929050565b6000806000606084860312156122cf57600080fd5b60006122dd86828701612198565b93505060206122ee86828701612198565b92505060406122ff86828701612240565b9150509250925092565b6000806000806080858703121561231f57600080fd5b600061232d87828801612198565b945050602061233e87828801612198565b935050604061234f87828801612240565b925050606085013567ffffffffffffffff81111561236c57600080fd5b612378878288016121ec565b91505092959194509250565b6000806040838503121561239757600080fd5b60006123a585828601612198565b92505060206123b6858286016121ad565b9150509250929050565b600080604083850312156123d357600080fd5b60006123e185828601612198565b92505060206123f285828601612240565b9150509250929050565b60006020828403121561240e57600080fd5b600061241c848285016121c2565b91505092915050565b60006020828403121561243757600080fd5b6000612445848285016121d7565b91505092915050565b60006020828403121561246057600080fd5b600082013567ffffffffffffffff81111561247a57600080fd5b61248684828501612216565b91505092915050565b600080604083850312156124a257600080fd5b600083013567ffffffffffffffff8111156124bc57600080fd5b6124c885828601612216565b925050602083013567ffffffffffffffff8111156124e557600080fd5b6124f185828601612216565b9150509250929050565b60006020828403121561250d57600080fd5b600061251b84828501612240565b91505092915050565b61252d81612f9d565b82525050565b61253c81612faf565b82525050565b600061254d82612edb565b6125578185612ef1565b9350612567818560208601613020565b6125708161315b565b840191505092915050565b600061258682612ee6565b6125908185612f02565b93506125a0818560208601613020565b6125a98161315b565b840191505092915050565b60006125c1603283612f02565b91507f4552433732313a207472616e7366657220746f206e6f6e20455243373231526560008301527f63656976657220696d706c656d656e74657200000000000000000000000000006020830152604082019050919050565b6000612627602683612f02565b91507f4f776e61626c653a206e6577206f776e657220697320746865207a65726f206160008301527f64647265737300000000000000000000000000000000000000000000000000006020830152604082019050919050565b600061268d601c83612f02565b91507f4552433732313a20746f6b656e20616c7265616479206d696e746564000000006000830152602082019050919050565b60006126cd602483612f02565b91507f4552433732313a207472616e7366657220746f20746865207a65726f2061646460008301527f72657373000000000000000000000000000000000000000000000000000000006020830152604082019050919050565b6000612733601983612f02565b91507f4552433732313a20617070726f766520746f2063616c6c6572000000000000006000830152602082019050919050565b6000612773602c83612f02565b91507f4552433732313a206f70657261746f7220717565727920666f72206e6f6e657860008301527f697374656e7420746f6b656e00000000000000000000000000000000000000006020830152604082019050919050565b60006127d9603883612f02565b91507f4552433732313a20617070726f76652063616c6c6572206973206e6f74206f7760008301527f6e6572206e6f7220617070726f76656420666f7220616c6c00000000000000006020830152604082019050919050565b600061283f602a83612f02565b91507f4552433732313a2062616c616e636520717565727920666f7220746865207a6560008301527f726f2061646472657373000000000000000000000000000000000000000000006020830152604082019050919050565b60006128a5602983612f02565b91507f4552433732313a206f776e657220717565727920666f72206e6f6e657869737460008301527f656e7420746f6b656e00000000000000000000000000000000000000000000006020830152604082019050919050565b600061290b602083612f02565b91507f4552433732313a206d696e7420746f20746865207a65726f20616464726573736000830152602082019050919050565b600061294b602c83612f02565b91507f4552433732313a20617070726f76656420717565727920666f72206e6f6e657860008301527f697374656e7420746f6b656e00000000000000000000000000000000000000006020830152604082019050919050565b60006129b1602083612f02565b91507f4f776e61626c653a2063616c6c6572206973206e6f7420746865206f776e65726000830152602082019050919050565b60006129f1602983612f02565b91507f4552433732313a207472616e73666572206f6620746f6b656e2074686174206960008301527f73206e6f74206f776e00000000000000000000000000000000000000000000006020830152604082019050919050565b6000612a57602f83612f02565b91507f4552433732314d657461646174613a2055524920717565727920666f72206e6f60008301527f6e6578697374656e7420746f6b656e00000000000000000000000000000000006020830152604082019050919050565b6000612abd602183612f02565b91507f4552433732313a20617070726f76616c20746f2063757272656e74206f776e6560008301527f72000000000000000000000000000000000000000000000000000000000000006020830152604082019050919050565b6000612b23603183612f02565b91507f4552433732313a207472616e736665722063616c6c6572206973206e6f74206f60008301527f776e6572206e6f7220617070726f7665640000000000000000000000000000006020830152604082019050919050565b612b8581613007565b82525050565b6000602082019050612ba06000830184612524565b92915050565b6000608082019050612bbb6000830187612524565b612bc86020830186612524565b612bd56040830185612b7c565b8181036060830152612be78184612542565b905095945050505050565b6000602082019050612c076000830184612533565b92915050565b60006020820190508181036000830152612c27818461257b565b905092915050565b60006020820190508181036000830152612c48816125b4565b9050919050565b60006020820190508181036000830152612c688161261a565b9050919050565b60006020820190508181036000830152612c8881612680565b9050919050565b60006020820190508181036000830152612ca8816126c0565b9050919050565b60006020820190508181036000830152612cc881612726565b9050919050565b60006020820190508181036000830152612ce881612766565b9050919050565b60006020820190508181036000830152612d08816127cc565b9050919050565b60006020820190508181036000830152612d2881612832565b9050919050565b60006020820190508181036000830152612d4881612898565b9050919050565b60006020820190508181036000830152612d68816128fe565b9050919050565b60006020820190508181036000830152612d888161293e565b9050919050565b60006020820190508181036000830152612da8816129a4565b9050919050565b60006020820190508181036000830152612dc8816129e4565b9050919050565b60006020820190508181036000830152612de881612a4a565b9050919050565b60006020820190508181036000830152612e0881612ab0565b9050919050565b60006020820190508181036000830152612e2881612b16565b9050919050565b6000602082019050612e446000830184612b7c565b92915050565b6000604051905081810181811067ffffffffffffffff82111715612e7157612e7061312c565b5b8060405250919050565b600067ffffffffffffffff821115612e9657612e9561312c565b5b601f19601f8301169050602081019050919050565b600067ffffffffffffffff821115612ec657612ec561312c565b5b601f19601f8301169050602081019050919050565b600081519050919050565b600081519050919050565b600082825260208201905092915050565b600082825260208201905092915050565b6000612f1e82613007565b9150612f2983613007565b9250827fffffffffffffffffffffffffffffffffffffffffffffffffffffffffffffffff03821115612f5e57612f5d6130ce565b5b828201905092915050565b6000612f7482613007565b9150612f7f83613007565b925082821015612f9257612f916130ce565b5b828203905092915050565b6000612fa882612fe7565b9050919050565b60008115159050919050565b60007fffffffff0000000000000000000000000000000000000000000000000000000082169050919050565b600073ffffffffffffffffffffffffffffffffffffffff82169050919050565b6000819050919050565b82818337600083830152505050565b60005b8381101561303e578082015181840152602081019050613023565b8381111561304d576000848401525b50505050565b6000600282049050600182168061306b57607f821691505b6020821081141561307f5761307e6130fd565b5b50919050565b600061309082613007565b91507fffffffffffffffffffffffffffffffffffffffffffffffffffffffffffffffff8214156130c3576130c26130ce565b5b600182019050919050565b7f4e487b7100000000000000000000000000000000000000000000000000000000600052601160045260246000fd5b7f4e487b7100000000000000000000000000000000000000000000000000000000600052602260045260246000fd5b7f4e487b7100000000000000000000000000000000000000000000000000000000600052604160045260246000fd5b6000601f19601f8301169050919050565b61317581612f9d565b811461318057600080fd5b50565b61318c81612faf565b811461319757600080fd5b50565b6131a381612fbb565b81146131ae57600080fd5b50565b6131ba81613007565b81146131c557600080fd5b5056fea2646970667358221220a8611b1838c118e117b83beba9da9bf6fdd98d73f0b7cb232912c07ee244fc3c64736f6c63430008000033",
  "immutableReferences": {},
  "source": "// SPDX-License-Identifier: MIT\n\npragma solidity ^0.8.0;\n\nimport \"@openzeppelin/contracts/access/Ownable.sol\";\nimport \"@openzeppelin/contracts/token/ERC721/ERC721.sol\";\n\ncontract AuxiunNFT is Ownable, ERC721 {\n    struct Metadata {\n        string game_id;\n        string item_id;\n    }\n\n    // mapping of tokenId to metadata\n    mapping(uint256 => Metadata) id_to_metadata;\n\n    // Base URI, aka API link to fetch further metadata of the token\n    string private baseURI;\n\n    // Used as tokenId for a newly minted token and increases by 1\n    uint256 private tokenIdCounter = 0;\n\n    constructor() ERC721(\"AuxiunNFT\", \"AUXN\") {\n        // TODO: Setup database api server and set the link here, remember to add the \"/\" at the end of the uri\n        baseURI = \"https://todo/\";\n    }\n\n    function _baseURI() internal view virtual override returns (string memory) {\n        return baseURI;\n    }\n\n    function setBaseURI(string memory inputbaseURI) public onlyOwner {\n        baseURI = inputbaseURI;\n    }\n\n    // function standard called by NFT marketplaces such as OpenSea\n    function tokenURI(uint256 tokenId)\n        public\n        view\n        virtual\n        override\n        returns (string memory)\n    {\n        require(_exists(tokenId), \"ERC721Metadata: URI query for nonexistent token\");\n\n        return strConcat(_baseURI(), id_to_metadata[tokenId].game_id, \"/\", id_to_metadata[tokenId].item_id, \"\");\n    }\n\n    function mint(\n        string memory game_id,\n        string memory item_id\n    ) external {\n        uint256 tokenId = tokenIdCounter;\n        tokenIdCounter++;\n        id_to_metadata[tokenId] = Metadata(game_id, item_id);\n\n        _safeMint(msg.sender, tokenId);\n    }\n\n    // String concatenation function\n    // original source: https://github.com/provable-things/ethereum-api/blob/master/oraclizeAPI_0.5.sol\n    // stack overflow topic: https://ethereum.stackexchange.com/questions/729/how-to-concatenate-strings-in-solidity\n    // Notes: reduce the parameters if necessary\n    function strConcat(string memory _a, string memory _b, string memory _c, string memory _d, string memory _e) internal pure returns (string memory){\n        bytes memory _ba = bytes(_a);\n        bytes memory _bb = bytes(_b);\n        bytes memory _bc = bytes(_c);\n        bytes memory _bd = bytes(_d);\n        bytes memory _be = bytes(_e);\n        string memory abcde = new string(_ba.length + _bb.length + _bc.length + _bd.length + _be.length);\n        bytes memory babcde = bytes(abcde);\n        uint k = 0;\n        for (uint i = 0; i < _ba.length; i++) babcde[k++] = _ba[i];\n        for (uint i = 0; i < _bb.length; i++) babcde[k++] = _bb[i];\n        for (uint i = 0; i < _bc.length; i++) babcde[k++] = _bc[i];\n        for (uint i = 0; i < _bd.length; i++) babcde[k++] = _bd[i];\n        for (uint i = 0; i < _be.length; i++) babcde[k++] = _be[i];\n        return string(babcde);\n    }\n\n    function kill() public onlyOwner {\n        selfdestruct(payable(owner()));\n    }\n}\n",
  "sourcePath": "/home/daem0n/capstone/Axiun-contracts/contracts/AuxiunNFT.sol",
  "compiler": {
    "name": "solc",
    "version": "0.8.0+commit.c7dfd78e.Emscripten.clang"
  },
  "schemaVersion": "3.4.2",
  "updatedAt": "2021-07-30T05:20:16.489Z",
  "devdoc": {
    "kind": "dev",
    "methods": {
      "approve(address,uint256)": {
        "details": "See {IERC721-approve}."
      },
      "balanceOf(address)": {
        "details": "See {IERC721-balanceOf}."
      },
      "getApproved(uint256)": {
        "details": "See {IERC721-getApproved}."
      },
      "isApprovedForAll(address,address)": {
        "details": "See {IERC721-isApprovedForAll}."
      },
      "name()": {
        "details": "See {IERC721Metadata-name}."
      },
      "owner()": {
        "details": "Returns the address of the current owner."
      },
      "ownerOf(uint256)": {
        "details": "See {IERC721-ownerOf}."
      },
      "renounceOwnership()": {
        "details": "Leaves the contract without owner. It will not be possible to call `onlyOwner` functions anymore. Can only be called by the current owner. NOTE: Renouncing ownership will leave the contract without an owner, thereby removing any functionality that is only available to the owner."
      },
      "safeTransferFrom(address,address,uint256)": {
        "details": "See {IERC721-safeTransferFrom}."
      },
      "safeTransferFrom(address,address,uint256,bytes)": {
        "details": "See {IERC721-safeTransferFrom}."
      },
      "setApprovalForAll(address,bool)": {
        "details": "See {IERC721-setApprovalForAll}."
      },
      "supportsInterface(bytes4)": {
        "details": "See {IERC165-supportsInterface}."
      },
      "symbol()": {
        "details": "See {IERC721Metadata-symbol}."
      },
      "tokenURI(uint256)": {
        "details": "See {IERC721Metadata-tokenURI}."
      },
      "transferFrom(address,address,uint256)": {
        "details": "See {IERC721-transferFrom}."
      },
      "transferOwnership(address)": {
        "details": "Transfers ownership of the contract to a new account (`newOwner`). Can only be called by the current owner."
      }
    },
    "version": 1
  },
  "userdoc": {
    "kind": "user",
    "methods": {},
    "version": 1
  }
}