{
  "contractName": "AuxiunNFTMulticall",
  "abi": [
    {
      "inputs": [
        {
          "internalType": "address",
          "name": "_address",
          "type": "address"
        }
      ],
      "name": "setNFTContractAddress",
      "outputs": [],
      "stateMutability": "nonpayable",
      "type": "function"
    },
    {
      "inputs": [
        {
          "internalType": "address",
          "name": "_address",
          "type": "address"
        }
      ],
      "name": "multiCallNFTsOwnedByAddress",
      "outputs": [
        {
          "internalType": "uint256[]",
          "name": "",
          "type": "uint256[]"
        },
        {
          "internalType": "string[]",
          "name": "",
          "type": "string[]"
        }
      ],
      "stateMutability": "view",
      "type": "function",
      "constant": true
    },
    {
      "inputs": [
        {
          "internalType": "address",
          "name": "seller",
          "type": "address"
        }
      ],
      "name": "multiCallNFTsOnMarket",
      "outputs": [
        {
          "internalType": "uint256[]",
          "name": "",
          "type": "uint256[]"
        },
        {
          "internalType": "string[]",
          "name": "",
          "type": "string[]"
        },
        {
          "internalType": "uint256[]",
          "name": "",
          "type": "uint256[]"
        },
        {
          "internalType": "address[]",
          "name": "",
          "type": "address[]"
        }
      ],
      "stateMutability": "view",
      "type": "function",
      "constant": true
    },
    {
      "inputs": [],
      "name": "multiCallNFTsOnMarket",
      "outputs": [
        {
          "internalType": "uint256[]",
          "name": "",
          "type": "uint256[]"
        },
        {
          "internalType": "string[]",
          "name": "",
          "type": "string[]"
        },
        {
          "internalType": "uint256[]",
          "name": "",
          "type": "uint256[]"
        },
        {
          "internalType": "address[]",
          "name": "",
          "type": "address[]"
        }
      ],
      "stateMutability": "view",
      "type": "function",
      "constant": true
    },
    {
      "inputs": [
        {
          "internalType": "address",
          "name": "user",
          "type": "address"
        }
      ],
      "name": "multiCallTransactionDataByUser",
      "outputs": [
        {
          "internalType": "uint256[]",
          "name": "",
          "type": "uint256[]"
        },
        {
          "internalType": "string[]",
          "name": "",
          "type": "string[]"
        },
        {
          "internalType": "address[]",
          "name": "",
          "type": "address[]"
        },
        {
          "internalType": "address[]",
          "name": "",
          "type": "address[]"
        },
        {
          "internalType": "uint256[]",
          "name": "",
          "type": "uint256[]"
        },
        {
          "internalType": "uint256[]",
          "name": "",
          "type": "uint256[]"
        },
        {
          "internalType": "bool[]",
          "name": "",
          "type": "bool[]"
        }
      ],
      "stateMutability": "view",
      "type": "function",
      "constant": true
    }
  ],
  "bytecode": "0x608060405234801561001057600080fd5b50613ffd806100206000396000f3fe608060405234801561001057600080fd5b50600436106100575760003560e01c806323949cd11461005c5780637bb73563146100785780637e20b6ea146100ab57806399eca17d146100cc578063fc510fab14610102575b600080fd5b6100766004803603810190610071919061371e565b610133565b005b610092600480360381019061008d919061371e565b610176565b6040516100a29493929190613c41565b60405180910390f35b6100b3610b90565b6040516100c39493929190613c41565b60405180910390f35b6100e660048036038101906100e1919061371e565b6113a0565b6040516100f99796959493929190613ba1565b60405180910390f35b61011c6004803603810190610117919061371e565b611403565b60405161012a929190613b6a565b60405180910390f35b806000806101000a81548173ffffffffffffffffffffffffffffffffffffffff021916908373ffffffffffffffffffffffffffffffffffffffff16021790555050565b60608060608060008060009054906101000a900473ffffffffffffffffffffffffffffffffffffffff1673ffffffffffffffffffffffffffffffffffffffff16636e0668306040518163ffffffff1660e01b815260040160206040518083038186803b1580156101e557600080fd5b505afa1580156101f9573d6000803e3d6000fd5b505050506040513d601f19601f8201168201806040525081019061021d9190613800565b67ffffffffffffffff81111561025c577f4e487b7100000000000000000000000000000000000000000000000000000000600052604160045260246000fd5b60405190808252806020026020018201604052801561028a5781602001602082028036833780820191505090505b509050610295611a19565b905060008060009054906101000a900473ffffffffffffffffffffffffffffffffffffffff1673ffffffffffffffffffffffffffffffffffffffff1663c4e2152b886040518263ffffffff1660e01b81526004016102f39190613b4f565b60206040518083038186803b15801561030b57600080fd5b505afa15801561031f573d6000803e3d6000fd5b505050506040513d601f19601f820116820180604052508101906103439190613800565b67ffffffffffffffff811115610382577f4e487b7100000000000000000000000000000000000000000000000000000000600052604160045260246000fd5b6040519080825280602002602001820160405280156103b05781602001602082028036833780820191505090505b50905060008060009054906101000a900473ffffffffffffffffffffffffffffffffffffffff1673ffffffffffffffffffffffffffffffffffffffff1663c4e2152b896040518263ffffffff1660e01b815260040161040f9190613b4f565b60206040518083038186803b15801561042757600080fd5b505afa15801561043b573d6000803e3d6000fd5b505050506040513d601f19601f8201168201806040525081019061045f9190613800565b67ffffffffffffffff81111561049e577f4e487b7100000000000000000000000000000000000000000000000000000000600052604160045260246000fd5b6040519080825280602002602001820160405280156104d157816020015b60608152602001906001900390816104bc5790505b50905060008060009054906101000a900473ffffffffffffffffffffffffffffffffffffffff1673ffffffffffffffffffffffffffffffffffffffff1663c4e2152b8a6040518263ffffffff1660e01b81526004016105309190613b4f565b60206040518083038186803b15801561054857600080fd5b505afa15801561055c573d6000803e3d6000fd5b505050506040513d601f19601f820116820180604052508101906105809190613800565b67ffffffffffffffff8111156105bf577f4e487b7100000000000000000000000000000000000000000000000000000000600052604160045260246000fd5b6040519080825280602002602001820160405280156105ed5781602001602082028036833780820191505090505b50905060008060009054906101000a900473ffffffffffffffffffffffffffffffffffffffff1673ffffffffffffffffffffffffffffffffffffffff1663c4e2152b8b6040518263ffffffff1660e01b815260040161064c9190613b4f565b60206040518083038186803b15801561066457600080fd5b505afa158015610678573d6000803e3d6000fd5b505050506040513d601f19601f8201168201806040525081019061069c9190613800565b67ffffffffffffffff8111156106db577f4e487b7100000000000000000000000000000000000000000000000000000000600052604160045260246000fd5b6040519080825280602002602001820160405280156107095781602001602082028036833780820191505090505b5090506000805b60008054906101000a900473ffffffffffffffffffffffffffffffffffffffff1673ffffffffffffffffffffffffffffffffffffffff16636e0668306040518163ffffffff1660e01b815260040160206040518083038186803b15801561077657600080fd5b505afa15801561078a573d6000803e3d6000fd5b505050506040513d601f19601f820116820180604052508101906107ae9190613800565b811015610b765760008060008054906101000a900473ffffffffffffffffffffffffffffffffffffffff1673ffffffffffffffffffffffffffffffffffffffff166311e6820a8a858151811061082d577f4e487b7100000000000000000000000000000000000000000000000000000000600052603260045260246000fd5b60200260200101516040518263ffffffff1660e01b81526004016108519190613cc2565b60606040518083038186803b15801561086957600080fd5b505afa15801561087d573d6000803e3d6000fd5b505050506040513d601f19601f820116820180604052508101906108a19190613770565b90915080925081935050508073ffffffffffffffffffffffffffffffffffffffff168e73ffffffffffffffffffffffffffffffffffffffff161415610b6157888381518110610919577f4e487b7100000000000000000000000000000000000000000000000000000000600052603260045260246000fd5b602002602001015188858151811061095a577f4e487b7100000000000000000000000000000000000000000000000000000000600052603260045260246000fd5b60200260200101818152505060008054906101000a900473ffffffffffffffffffffffffffffffffffffffff1673ffffffffffffffffffffffffffffffffffffffff1663c87b56dd8a85815181106109db577f4e487b7100000000000000000000000000000000000000000000000000000000600052603260045260246000fd5b60200260200101516040518263ffffffff1660e01b81526004016109ff9190613cc2565b60006040518083038186803b158015610a1757600080fd5b505afa158015610a2b573d6000803e3d6000fd5b505050506040513d6000823e3d601f19601f82011682018060405250810190610a5491906137bf565b878581518110610a8d577f4e487b7100000000000000000000000000000000000000000000000000000000600052603260045260246000fd5b602002602001018190525081868581518110610ad2577f4e487b7100000000000000000000000000000000000000000000000000000000600052603260045260246000fd5b60200260200101818152505080858581518110610b18577f4e487b7100000000000000000000000000000000000000000000000000000000600052603260045260246000fd5b602002602001019073ffffffffffffffffffffffffffffffffffffffff16908173ffffffffffffffffffffffffffffffffffffffff16815250508380610b5d90613eca565b9450505b50508080610b6e90613eca565b915050610710565b508484848499509950995099505050505050509193509193565b60608060608060008060009054906101000a900473ffffffffffffffffffffffffffffffffffffffff1673ffffffffffffffffffffffffffffffffffffffff16636e0668306040518163ffffffff1660e01b815260040160206040518083038186803b158015610bff57600080fd5b505afa158015610c13573d6000803e3d6000fd5b505050506040513d601f19601f82011682018060405250810190610c379190613800565b67ffffffffffffffff811115610c76577f4e487b7100000000000000000000000000000000000000000000000000000000600052604160045260246000fd5b604051908082528060200260200182016040528015610ca45781602001602082028036833780820191505090505b509050610caf611a19565b905060008060009054906101000a900473ffffffffffffffffffffffffffffffffffffffff1673ffffffffffffffffffffffffffffffffffffffff16636e0668306040518163ffffffff1660e01b815260040160206040518083038186803b158015610d1a57600080fd5b505afa158015610d2e573d6000803e3d6000fd5b505050506040513d601f19601f82011682018060405250810190610d529190613800565b67ffffffffffffffff811115610d91577f4e487b7100000000000000000000000000000000000000000000000000000000600052604160045260246000fd5b604051908082528060200260200182016040528015610dc457816020015b6060815260200190600190039081610daf5790505b50905060008060009054906101000a900473ffffffffffffffffffffffffffffffffffffffff1673ffffffffffffffffffffffffffffffffffffffff16636e0668306040518163ffffffff1660e01b815260040160206040518083038186803b158015610e3057600080fd5b505afa158015610e44573d6000803e3d6000fd5b505050506040513d601f19601f82011682018060405250810190610e689190613800565b67ffffffffffffffff811115610ea7577f4e487b7100000000000000000000000000000000000000000000000000000000600052604160045260246000fd5b604051908082528060200260200182016040528015610ed55781602001602082028036833780820191505090505b50905060008060009054906101000a900473ffffffffffffffffffffffffffffffffffffffff1673ffffffffffffffffffffffffffffffffffffffff16636e0668306040518163ffffffff1660e01b815260040160206040518083038186803b158015610f4157600080fd5b505afa158015610f55573d6000803e3d6000fd5b505050506040513d601f19601f82011682018060405250810190610f799190613800565b67ffffffffffffffff811115610fb8577f4e487b7100000000000000000000000000000000000000000000000000000000600052604160045260246000fd5b604051908082528060200260200182016040528015610fe65781602001602082028036833780820191505090505b50905060005b60008054906101000a900473ffffffffffffffffffffffffffffffffffffffff1673ffffffffffffffffffffffffffffffffffffffff16636e0668306040518163ffffffff1660e01b815260040160206040518083038186803b15801561105257600080fd5b505afa158015611066573d6000803e3d6000fd5b505050506040513d601f19601f8201168201806040525081019061108a9190613800565b8110156113895760008060008054906101000a900473ffffffffffffffffffffffffffffffffffffffff1673ffffffffffffffffffffffffffffffffffffffff166311e6820a888581518110611109577f4e487b7100000000000000000000000000000000000000000000000000000000600052603260045260246000fd5b60200260200101516040518263ffffffff1660e01b815260040161112d9190613cc2565b60606040518083038186803b15801561114557600080fd5b505afa158015611159573d6000803e3d6000fd5b505050506040513d601f19601f8201168201806040525081019061117d9190613770565b909150809250819350505060008054906101000a900473ffffffffffffffffffffffffffffffffffffffff1673ffffffffffffffffffffffffffffffffffffffff1663c87b56dd8885815181106111fd577f4e487b7100000000000000000000000000000000000000000000000000000000600052603260045260246000fd5b60200260200101516040518263ffffffff1660e01b81526004016112219190613cc2565b60006040518083038186803b15801561123957600080fd5b505afa15801561124d573d6000803e3d6000fd5b505050506040513d6000823e3d601f19601f8201168201806040525081019061127691906137bf565b8684815181106112af577f4e487b7100000000000000000000000000000000000000000000000000000000600052603260045260246000fd5b6020026020010181905250818584815181106112f4577f4e487b7100000000000000000000000000000000000000000000000000000000600052603260045260246000fd5b6020026020010181815250508084848151811061133a577f4e487b7100000000000000000000000000000000000000000000000000000000600052603260045260246000fd5b602002602001019073ffffffffffffffffffffffffffffffffffffffff16908173ffffffffffffffffffffffffffffffffffffffff16815250505050808061138190613eca565b915050610fec565b508383838397509750975097505050505090919293565b60608060608060608060606113b488611d00565b6113bd89612065565b6113c68a61247b565b6113cf8b61280e565b6113d88c612ba1565b6113e18d612f09565b6113ea8e613272565b9650965096509650965096509650919395979092949650565b60608060008060009054906101000a900473ffffffffffffffffffffffffffffffffffffffff1673ffffffffffffffffffffffffffffffffffffffff166398bdf6f56040518163ffffffff1660e01b815260040160206040518083038186803b15801561146f57600080fd5b505afa158015611483573d6000803e3d6000fd5b505050506040513d601f19601f820116820180604052508101906114a79190613800565b116114e7576040517f08c379a00000000000000000000000000000000000000000000000000000000081526004016114de90613ca2565b60405180910390fd5b60008060009054906101000a900473ffffffffffffffffffffffffffffffffffffffff1673ffffffffffffffffffffffffffffffffffffffff166370a08231856040518263ffffffff1660e01b81526004016115439190613b4f565b60206040518083038186803b15801561155b57600080fd5b505afa15801561156f573d6000803e3d6000fd5b505050506040513d601f19601f820116820180604052508101906115939190613800565b67ffffffffffffffff8111156115d2577f4e487b7100000000000000000000000000000000000000000000000000000000600052604160045260246000fd5b6040519080825280602002602001820160405280156116005781602001602082028036833780820191505090505b50905060008060009054906101000a900473ffffffffffffffffffffffffffffffffffffffff1673ffffffffffffffffffffffffffffffffffffffff166370a08231866040518263ffffffff1660e01b815260040161165f9190613b4f565b60206040518083038186803b15801561167757600080fd5b505afa15801561168b573d6000803e3d6000fd5b505050506040513d601f19601f820116820180604052508101906116af9190613800565b67ffffffffffffffff8111156116ee577f4e487b7100000000000000000000000000000000000000000000000000000000600052604160045260246000fd5b60405190808252806020026020018201604052801561172157816020015b606081526020019060019003908161170c5790505b50905060008060009054906101000a900473ffffffffffffffffffffffffffffffffffffffff1673ffffffffffffffffffffffffffffffffffffffff166398bdf6f56040518163ffffffff1660e01b815260040160206040518083038186803b15801561178d57600080fd5b505afa1580156117a1573d6000803e3d6000fd5b505050506040513d601f19601f820116820180604052508101906117c59190613800565b90506000805b82811015611a095760008054906101000a900473ffffffffffffffffffffffffffffffffffffffff1673ffffffffffffffffffffffffffffffffffffffff16636352211e826040518263ffffffff1660e01b815260040161182c9190613cc2565b60206040518083038186803b15801561184457600080fd5b505afa158015611858573d6000803e3d6000fd5b505050506040513d601f19601f8201168201806040525081019061187c9190613747565b73ffffffffffffffffffffffffffffffffffffffff168873ffffffffffffffffffffffffffffffffffffffff1614156119f657808583815181106118e9577f4e487b7100000000000000000000000000000000000000000000000000000000600052603260045260246000fd5b60200260200101818152505060008054906101000a900473ffffffffffffffffffffffffffffffffffffffff1673ffffffffffffffffffffffffffffffffffffffff1663c87b56dd826040518263ffffffff1660e01b815260040161194e9190613cc2565b60006040518083038186803b15801561196657600080fd5b505afa15801561197a573d6000803e3d6000fd5b505050506040513d6000823e3d601f19601f820116820180604052508101906119a391906137bf565b8483815181106119dc577f4e487b7100000000000000000000000000000000000000000000000000000000600052603260045260246000fd5b602002602001018190525081806119f290613eca565b9250505b8080611a0190613eca565b9150506117cb565b5083839550955050505050915091565b606060008060009054906101000a900473ffffffffffffffffffffffffffffffffffffffff1673ffffffffffffffffffffffffffffffffffffffff16636e0668306040518163ffffffff1660e01b815260040160206040518083038186803b158015611a8457600080fd5b505afa158015611a98573d6000803e3d6000fd5b505050506040513d601f19601f82011682018060405250810190611abc9190613800565b67ffffffffffffffff811115611afb577f4e487b7100000000000000000000000000000000000000000000000000000000600052604160045260246000fd5b604051908082528060200260200182016040528015611b295781602001602082028036833780820191505090505b5090506000805b60008054906101000a900473ffffffffffffffffffffffffffffffffffffffff1673ffffffffffffffffffffffffffffffffffffffff166398bdf6f56040518163ffffffff1660e01b815260040160206040518083038186803b158015611b9657600080fd5b505afa158015611baa573d6000803e3d6000fd5b505050506040513d601f19601f82011682018060405250810190611bce9190613800565b811015611cf75760008060009054906101000a900473ffffffffffffffffffffffffffffffffffffffff1673ffffffffffffffffffffffffffffffffffffffff166311e6820a836040518263ffffffff1660e01b8152600401611c319190613cc2565b60606040518083038186803b158015611c4957600080fd5b505afa158015611c5d573d6000803e3d6000fd5b505050506040513d601f19601f82011682018060405250810190611c819190613770565b905050809150508015611ce35781848481518110611cc8577f4e487b7100000000000000000000000000000000000000000000000000000000600052603260045260246000fd5b6020026020010181815250508280611cdf90613eca565b9350505b508080611cef90613eca565b915050611b30565b50819250505090565b606060008060009054906101000a900473ffffffffffffffffffffffffffffffffffffffff1673ffffffffffffffffffffffffffffffffffffffff1663b7cde641846040518263ffffffff1660e01b8152600401611d5e9190613b4f565b60206040518083038186803b158015611d7657600080fd5b505afa158015611d8a573d6000803e3d6000fd5b505050506040513d601f19601f82011682018060405250810190611dae9190613800565b67ffffffffffffffff811115611ded577f4e487b7100000000000000000000000000000000000000000000000000000000600052604160045260246000fd5b604051908082528060200260200182016040528015611e1b5781602001602082028036833780820191505090505b5090506000805b60008054906101000a900473ffffffffffffffffffffffffffffffffffffffff1673ffffffffffffffffffffffffffffffffffffffff16639f71c3c96040518163ffffffff1660e01b815260040160206040518083038186803b158015611e8857600080fd5b505afa158015611e9c573d6000803e3d6000fd5b505050506040513d601f19601f82011682018060405250810190611ec09190613800565b81101561205a5760008060008060009054906101000a900473ffffffffffffffffffffffffffffffffffffffff1673ffffffffffffffffffffffffffffffffffffffff1663243e7a87856040518263ffffffff1660e01b8152600401611f269190613cc2565b60a06040518083038186803b158015611f3e57600080fd5b505afa158015611f52573d6000803e3d6000fd5b505050506040513d601f19601f82011682018060405250810190611f769190613829565b9050508093508194508295505050508173ffffffffffffffffffffffffffffffffffffffff168873ffffffffffffffffffffffffffffffffffffffff161480611fea57508073ffffffffffffffffffffffffffffffffffffffff168873ffffffffffffffffffffffffffffffffffffffff16145b156120445782868681518110612029577f4e487b7100000000000000000000000000000000000000000000000000000000600052603260045260246000fd5b602002602001018181525050848061204090613eca565b9550505b505050808061205290613eca565b915050611e22565b508192505050919050565b606060008060009054906101000a900473ffffffffffffffffffffffffffffffffffffffff1673ffffffffffffffffffffffffffffffffffffffff1663b7cde641846040518263ffffffff1660e01b81526004016120c39190613b4f565b60206040518083038186803b1580156120db57600080fd5b505afa1580156120ef573d6000803e3d6000fd5b505050506040513d601f19601f820116820180604052508101906121139190613800565b67ffffffffffffffff811115612152577f4e487b7100000000000000000000000000000000000000000000000000000000600052604160045260246000fd5b60405190808252806020026020018201604052801561218557816020015b60608152602001906001900390816121705790505b5090506000805b60008054906101000a900473ffffffffffffffffffffffffffffffffffffffff1673ffffffffffffffffffffffffffffffffffffffff16639f71c3c96040518163ffffffff1660e01b815260040160206040518083038186803b1580156121f257600080fd5b505afa158015612206573d6000803e3d6000fd5b505050506040513d601f19601f8201168201806040525081019061222a9190613800565b8110156124705760008060008060009054906101000a900473ffffffffffffffffffffffffffffffffffffffff1673ffffffffffffffffffffffffffffffffffffffff1663243e7a87856040518263ffffffff1660e01b81526004016122909190613cc2565b60a06040518083038186803b1580156122a857600080fd5b505afa1580156122bc573d6000803e3d6000fd5b505050506040513d601f19601f820116820180604052508101906122e09190613829565b9050508093508194508295505050508173ffffffffffffffffffffffffffffffffffffffff168873ffffffffffffffffffffffffffffffffffffffff16148061235457508073ffffffffffffffffffffffffffffffffffffffff168873ffffffffffffffffffffffffffffffffffffffff16145b1561245a5760008054906101000a900473ffffffffffffffffffffffffffffffffffffffff1673ffffffffffffffffffffffffffffffffffffffff1663c87b56dd846040518263ffffffff1660e01b81526004016123b29190613cc2565b60006040518083038186803b1580156123ca57600080fd5b505afa1580156123de573d6000803e3d6000fd5b505050506040513d6000823e3d601f19601f8201168201806040525081019061240791906137bf565b868681518110612440577f4e487b7100000000000000000000000000000000000000000000000000000000600052603260045260246000fd5b6020026020010181905250848061245690613eca565b9550505b505050808061246890613eca565b91505061218c565b508192505050919050565b606060008060009054906101000a900473ffffffffffffffffffffffffffffffffffffffff1673ffffffffffffffffffffffffffffffffffffffff1663b7cde641846040518263ffffffff1660e01b81526004016124d99190613b4f565b60206040518083038186803b1580156124f157600080fd5b505afa158015612505573d6000803e3d6000fd5b505050506040513d601f19601f820116820180604052508101906125299190613800565b67ffffffffffffffff811115612568577f4e487b7100000000000000000000000000000000000000000000000000000000600052604160045260246000fd5b6040519080825280602002602001820160405280156125965781602001602082028036833780820191505090505b5090506000805b60008054906101000a900473ffffffffffffffffffffffffffffffffffffffff1673ffffffffffffffffffffffffffffffffffffffff16639f71c3c96040518163ffffffff1660e01b815260040160206040518083038186803b15801561260357600080fd5b505afa158015612617573d6000803e3d6000fd5b505050506040513d601f19601f8201168201806040525081019061263b9190613800565b8110156128035760008060008060009054906101000a900473ffffffffffffffffffffffffffffffffffffffff1673ffffffffffffffffffffffffffffffffffffffff1663243e7a87856040518263ffffffff1660e01b81526004016126a19190613cc2565b60a06040518083038186803b1580156126b957600080fd5b505afa1580156126cd573d6000803e3d6000fd5b505050506040513d601f19601f820116820180604052508101906126f19190613829565b9050508093508194508295505050508173ffffffffffffffffffffffffffffffffffffffff168873ffffffffffffffffffffffffffffffffffffffff16148061276557508073ffffffffffffffffffffffffffffffffffffffff168873ffffffffffffffffffffffffffffffffffffffff16145b156127ed57818686815181106127a4577f4e487b7100000000000000000000000000000000000000000000000000000000600052603260045260246000fd5b602002602001019073ffffffffffffffffffffffffffffffffffffffff16908173ffffffffffffffffffffffffffffffffffffffff168152505084806127e990613eca565b9550505b50505080806127fb90613eca565b91505061259d565b508192505050919050565b606060008060009054906101000a900473ffffffffffffffffffffffffffffffffffffffff1673ffffffffffffffffffffffffffffffffffffffff1663b7cde641846040518263ffffffff1660e01b815260040161286c9190613b4f565b60206040518083038186803b15801561288457600080fd5b505afa158015612898573d6000803e3d6000fd5b505050506040513d601f19601f820116820180604052508101906128bc9190613800565b67ffffffffffffffff8111156128fb577f4e487b7100000000000000000000000000000000000000000000000000000000600052604160045260246000fd5b6040519080825280602002602001820160405280156129295781602001602082028036833780820191505090505b5090506000805b60008054906101000a900473ffffffffffffffffffffffffffffffffffffffff1673ffffffffffffffffffffffffffffffffffffffff16639f71c3c96040518163ffffffff1660e01b815260040160206040518083038186803b15801561299657600080fd5b505afa1580156129aa573d6000803e3d6000fd5b505050506040513d601f19601f820116820180604052508101906129ce9190613800565b811015612b965760008060008060009054906101000a900473ffffffffffffffffffffffffffffffffffffffff1673ffffffffffffffffffffffffffffffffffffffff1663243e7a87856040518263ffffffff1660e01b8152600401612a349190613cc2565b60a06040518083038186803b158015612a4c57600080fd5b505afa158015612a60573d6000803e3d6000fd5b505050506040513d601f19601f82011682018060405250810190612a849190613829565b9050508093508194508295505050508173ffffffffffffffffffffffffffffffffffffffff168873ffffffffffffffffffffffffffffffffffffffff161480612af857508073ffffffffffffffffffffffffffffffffffffffff168873ffffffffffffffffffffffffffffffffffffffff16145b15612b805780868681518110612b37577f4e487b7100000000000000000000000000000000000000000000000000000000600052603260045260246000fd5b602002602001019073ffffffffffffffffffffffffffffffffffffffff16908173ffffffffffffffffffffffffffffffffffffffff16815250508480612b7c90613eca565b9550505b5050508080612b8e90613eca565b915050612930565b508192505050919050565b606060008060009054906101000a900473ffffffffffffffffffffffffffffffffffffffff1673ffffffffffffffffffffffffffffffffffffffff1663b7cde641846040518263ffffffff1660e01b8152600401612bff9190613b4f565b60206040518083038186803b158015612c1757600080fd5b505afa158015612c2b573d6000803e3d6000fd5b505050506040513d601f19601f82011682018060405250810190612c4f9190613800565b67ffffffffffffffff811115612c8e577f4e487b7100000000000000000000000000000000000000000000000000000000600052604160045260246000fd5b604051908082528060200260200182016040528015612cbc5781602001602082028036833780820191505090505b5090506000805b60008054906101000a900473ffffffffffffffffffffffffffffffffffffffff1673ffffffffffffffffffffffffffffffffffffffff16639f71c3c96040518163ffffffff1660e01b815260040160206040518083038186803b158015612d2957600080fd5b505afa158015612d3d573d6000803e3d6000fd5b505050506040513d601f19601f82011682018060405250810190612d619190613800565b811015612efe5760008060008060009054906101000a900473ffffffffffffffffffffffffffffffffffffffff1673ffffffffffffffffffffffffffffffffffffffff1663243e7a87856040518263ffffffff1660e01b8152600401612dc79190613cc2565b60a06040518083038186803b158015612ddf57600080fd5b505afa158015612df3573d6000803e3d6000fd5b505050506040513d601f19601f82011682018060405250810190612e179190613829565b9091929350508093508194508295505050508273ffffffffffffffffffffffffffffffffffffffff168873ffffffffffffffffffffffffffffffffffffffff161480612e8e57508173ffffffffffffffffffffffffffffffffffffffff168873ffffffffffffffffffffffffffffffffffffffff16145b15612ee85780868681518110612ecd577f4e487b7100000000000000000000000000000000000000000000000000000000600052603260045260246000fd5b6020026020010181815250508480612ee490613eca565b9550505b5050508080612ef690613eca565b915050612cc3565b508192505050919050565b606060008060009054906101000a900473ffffffffffffffffffffffffffffffffffffffff1673ffffffffffffffffffffffffffffffffffffffff1663b7cde641846040518263ffffffff1660e01b8152600401612f679190613b4f565b60206040518083038186803b158015612f7f57600080fd5b505afa158015612f93573d6000803e3d6000fd5b505050506040513d601f19601f82011682018060405250810190612fb79190613800565b67ffffffffffffffff811115612ff6577f4e487b7100000000000000000000000000000000000000000000000000000000600052604160045260246000fd5b6040519080825280602002602001820160405280156130245781602001602082028036833780820191505090505b5090506000805b60008054906101000a900473ffffffffffffffffffffffffffffffffffffffff1673ffffffffffffffffffffffffffffffffffffffff16639f71c3c96040518163ffffffff1660e01b815260040160206040518083038186803b15801561309157600080fd5b505afa1580156130a5573d6000803e3d6000fd5b505050506040513d601f19601f820116820180604052508101906130c99190613800565b8110156132675760008060008060009054906101000a900473ffffffffffffffffffffffffffffffffffffffff1673ffffffffffffffffffffffffffffffffffffffff1663243e7a87856040518263ffffffff1660e01b815260040161312f9190613cc2565b60a06040518083038186803b15801561314757600080fd5b505afa15801561315b573d6000803e3d6000fd5b505050506040513d601f19601f8201168201806040525081019061317f9190613829565b909192935090508093508194508295505050508273ffffffffffffffffffffffffffffffffffffffff168873ffffffffffffffffffffffffffffffffffffffff1614806131f757508173ffffffffffffffffffffffffffffffffffffffff168873ffffffffffffffffffffffffffffffffffffffff16145b156132515780868681518110613236577f4e487b7100000000000000000000000000000000000000000000000000000000600052603260045260246000fd5b602002602001018181525050848061324d90613eca565b9550505b505050808061325f90613eca565b91505061302b565b508192505050919050565b606060008060009054906101000a900473ffffffffffffffffffffffffffffffffffffffff1673ffffffffffffffffffffffffffffffffffffffff1663b7cde641846040518263ffffffff1660e01b81526004016132d09190613b4f565b60206040518083038186803b1580156132e857600080fd5b505afa1580156132fc573d6000803e3d6000fd5b505050506040513d601f19601f820116820180604052508101906133209190613800565b67ffffffffffffffff81111561335f577f4e487b7100000000000000000000000000000000000000000000000000000000600052604160045260246000fd5b60405190808252806020026020018201604052801561338d5781602001602082028036833780820191505090505b5090506000805b60008054906101000a900473ffffffffffffffffffffffffffffffffffffffff1673ffffffffffffffffffffffffffffffffffffffff16639f71c3c96040518163ffffffff1660e01b815260040160206040518083038186803b1580156133fa57600080fd5b505afa15801561340e573d6000803e3d6000fd5b505050506040513d601f19601f820116820180604052508101906134329190613800565b8110156136575760008060008054906101000a900473ffffffffffffffffffffffffffffffffffffffff1673ffffffffffffffffffffffffffffffffffffffff1663243e7a87846040518263ffffffff1660e01b81526004016134959190613cc2565b60a06040518083038186803b1580156134ad57600080fd5b505afa1580156134c1573d6000803e3d6000fd5b505050506040513d601f19601f820116820180604052508101906134e59190613829565b909192935090505080925081935050508173ffffffffffffffffffffffffffffffffffffffff168773ffffffffffffffffffffffffffffffffffffffff16148061355a57508073ffffffffffffffffffffffffffffffffffffffff168773ffffffffffffffffffffffffffffffffffffffff16145b15613642578173ffffffffffffffffffffffffffffffffffffffff168773ffffffffffffffffffffffffffffffffffffffff1614156135e55760018585815181106135ce577f4e487b7100000000000000000000000000000000000000000000000000000000600052603260045260246000fd5b602002602001019015159081151581525050613633565b6000858581518110613620577f4e487b7100000000000000000000000000000000000000000000000000000000600052603260045260246000fd5b6020026020010190151590811515815250505b838061363e90613eca565b9450505b5050808061364f90613eca565b915050613394565b508192505050919050565b600061367561367084613d0e565b613cdd565b90508281526020810184848401111561368d57600080fd5b613698848285613e97565b509392505050565b6000813590506136af81613f82565b92915050565b6000815190506136c481613f82565b92915050565b6000815190506136d981613f99565b92915050565b600082601f8301126136f057600080fd5b8151613700848260208601613662565b91505092915050565b60008151905061371881613fb0565b92915050565b60006020828403121561373057600080fd5b600061373e848285016136a0565b91505092915050565b60006020828403121561375957600080fd5b6000613767848285016136b5565b91505092915050565b60008060006060848603121561378557600080fd5b6000613793868287016136ca565b93505060206137a486828701613709565b92505060406137b5868287016136b5565b9150509250925092565b6000602082840312156137d157600080fd5b600082015167ffffffffffffffff8111156137eb57600080fd5b6137f7848285016136df565b91505092915050565b60006020828403121561381257600080fd5b600061382084828501613709565b91505092915050565b600080600080600060a0868803121561384157600080fd5b600061384f88828901613709565b9550506020613860888289016136b5565b9450506040613871888289016136b5565b935050606061388288828901613709565b925050608061389388828901613709565b9150509295509295909350565b60006138ac83836138fc565b60208301905092915050565b60006138c48383613aa9565b60208301905092915050565b60006138dc8383613ab8565b905092915050565b60006138f08383613b31565b60208301905092915050565b61390581613e4f565b82525050565b61391481613e4f565b82525050565b600061392582613d7e565b61392f8185613de9565b935061393a83613d3e565b8060005b8381101561396b57815161395288826138a0565b975061395d83613db5565b92505060018101905061393e565b5085935050505092915050565b600061398382613d89565b61398d8185613dfa565b935061399883613d4e565b8060005b838110156139c95781516139b088826138b8565b97506139bb83613dc2565b92505060018101905061399c565b5085935050505092915050565b60006139e182613d94565b6139eb8185613e0b565b9350836020820285016139fd85613d5e565b8060005b85811015613a395784840389528151613a1a85826138d0565b9450613a2583613dcf565b925060208a01995050600181019050613a01565b50829750879550505050505092915050565b6000613a5682613d9f565b613a608185613e1c565b9350613a6b83613d6e565b8060005b83811015613a9c578151613a8388826138e4565b9750613a8e83613ddc565b925050600181019050613a6f565b5085935050505092915050565b613ab281613e61565b82525050565b6000613ac382613daa565b613acd8185613e2d565b9350613add818560208601613e97565b613ae681613f71565b840191505092915050565b6000613afe600d83613e3e565b91507f4e6f204e465473206578697374000000000000000000000000000000000000006000830152602082019050919050565b613b3a81613e8d565b82525050565b613b4981613e8d565b82525050565b6000602082019050613b64600083018461390b565b92915050565b60006040820190508181036000830152613b848185613a4b565b90508181036020830152613b9881846139d6565b90509392505050565b600060e0820190508181036000830152613bbb818a613a4b565b90508181036020830152613bcf81896139d6565b90508181036040830152613be3818861391a565b90508181036060830152613bf7818761391a565b90508181036080830152613c0b8186613a4b565b905081810360a0830152613c1f8185613a4b565b905081810360c0830152613c338184613978565b905098975050505050505050565b60006080820190508181036000830152613c5b8187613a4b565b90508181036020830152613c6f81866139d6565b90508181036040830152613c838185613a4b565b90508181036060830152613c97818461391a565b905095945050505050565b60006020820190508181036000830152613cbb81613af1565b9050919050565b6000602082019050613cd76000830184613b40565b92915050565b6000604051905081810181811067ffffffffffffffff82111715613d0457613d03613f42565b5b8060405250919050565b600067ffffffffffffffff821115613d2957613d28613f42565b5b601f19601f8301169050602081019050919050565b6000819050602082019050919050565b6000819050602082019050919050565b6000819050602082019050919050565b6000819050602082019050919050565b600081519050919050565b600081519050919050565b600081519050919050565b600081519050919050565b600081519050919050565b6000602082019050919050565b6000602082019050919050565b6000602082019050919050565b6000602082019050919050565b600082825260208201905092915050565b600082825260208201905092915050565b600082825260208201905092915050565b600082825260208201905092915050565b600082825260208201905092915050565b600082825260208201905092915050565b6000613e5a82613e6d565b9050919050565b60008115159050919050565b600073ffffffffffffffffffffffffffffffffffffffff82169050919050565b6000819050919050565b60005b83811015613eb5578082015181840152602081019050613e9a565b83811115613ec4576000848401525b50505050565b6000613ed582613e8d565b91507fffffffffffffffffffffffffffffffffffffffffffffffffffffffffffffffff821415613f0857613f07613f13565b5b600182019050919050565b7f4e487b7100000000000000000000000000000000000000000000000000000000600052601160045260246000fd5b7f4e487b7100000000000000000000000000000000000000000000000000000000600052604160045260246000fd5b6000601f19601f8301169050919050565b613f8b81613e4f565b8114613f9657600080fd5b50565b613fa281613e61565b8114613fad57600080fd5b50565b613fb981613e8d565b8114613fc457600080fd5b5056fea264697066735822122032af1fcdd428586d8174f56f9696f139997547b968c5f20dad4d34ed7c0af95464736f6c63430008000033",
  "immutableReferences": {},
  "source": "// SPDX-License-Identifier: MIT\r\n\r\npragma solidity ^0.8.0;\r\n\r\nimport \"@openzeppelin/contracts/access/Ownable.sol\";\r\nimport \"@openzeppelin/contracts/token/ERC721/ERC721.sol\";\r\nimport \"@openzeppelin/contracts/token/ERC721/IERC721Receiver.sol\";\r\n\r\ncontract AuxiunNFT is Ownable, ERC721, IERC721Receiver {\r\n\r\n    struct Metadata {\r\n        string game_id;\r\n        string item_id;\r\n    }\r\n\r\n    struct MarketDetails {\r\n        bool forSale;\r\n        uint256 price;\r\n        address seller;\r\n    }\r\n\r\n    struct TransactionHistory {\r\n        uint256 tokenId;\r\n        address buyer;\r\n        address seller;\r\n        uint256 price;\r\n        uint256 timestamp;\r\n    }\r\n\r\n    // mapping of tokenId to market details\r\n    mapping(uint256 => MarketDetails) public id_to_marketDetails;\r\n\r\n    // mapping of tokenId to metadata\r\n    mapping(uint256 => Metadata) public id_to_metadata;\r\n\r\n    // array which stores all transaction data\r\n    TransactionHistory[] public transactionHistory;\r\n\r\n    // transactionHistory counter for addresses to determine the multicall memory array size\r\n    mapping(address => uint256) public transactionHistoryCount;\r\n\r\n    // list of admin addresses authorized to mint tokens\r\n    mapping(address => bool) public admins;\r\n\r\n    // Base URI, aka API link to fetch further metadata of the token\r\n    string private baseURI;\r\n\r\n    // Used as tokenId for a newly minted token and increases by 1\r\n    uint256 public tokenIdCounter = 0;\r\n\r\n    // Number of NFTs on market (Maybe for future use)\r\n    uint256 public NFTsOnMarket = 0;\r\n\r\n    // Number of NFTs on market by address\r\n    mapping(address => uint256) public NFTsOnMarketByAddress;\r\n \r\n    constructor() ERC721(\"AuxiunNFT\", \"AUXN\") {\r\n        // TODO: Setup database api server and set the link here, remember to add the \"/\" at the end of the uri\r\n        baseURI = \"http://54.153.182.13:3998/api/nft/\";\r\n    }\r\n\r\n    function _baseURI() internal view virtual override returns (string memory) {\r\n        return baseURI;\r\n    }\r\n\r\n    function setBaseURI(string memory inputbaseURI) public onlyOwner {\r\n        baseURI = inputbaseURI;\r\n    }\r\n\r\n    // function standard called by NFT marketplaces such as OpenSea\r\n    function tokenURI(uint256 tokenId)\r\n        public\r\n        view\r\n        virtual\r\n        override\r\n        returns (string memory)\r\n    {\r\n        require(_exists(tokenId), \"ERC721Metadata: URI query for nonexistent token\");\r\n        return strConcat(_baseURI(), id_to_metadata[tokenId].game_id, \"/\", id_to_metadata[tokenId].item_id, \"\");\r\n    } \r\n\r\n    function mint(address to, string memory game_id, string memory item_id) external {\r\n        require(admins[msg.sender], \"Not authorized to call this function.\");\r\n        uint256 tokenId = tokenIdCounter;\r\n        tokenIdCounter++;\r\n        id_to_metadata[tokenId] = Metadata(game_id, item_id);\r\n        _safeMint(to, tokenId);\r\n    }\r\n\r\n    // get transactionHistory length for multicall function\r\n    function getTransactionHistoryLength() public view returns (uint256) {\r\n        return transactionHistory.length;\r\n    }\r\n\r\n    // functions to handle admins array\r\n    function addAdminAddress(address _address) external {\r\n        require(admins[msg.sender], \"Not authorized to call this function.\");\r\n        admins[_address] = true;\r\n    }\r\n\r\n    function removeAdminAddress(address _address) external {\r\n        require(admins[msg.sender], \"Not authorized to call this function.\");\r\n        admins[_address] = false;\r\n    }\r\n\r\n    function isAdminAddress(address _address) external view returns (bool) {\r\n        return admins[_address];\r\n    }\r\n\r\n    // String concatenation function\r\n    // original source: https://github.com/provable-things/ethereum-api/blob/master/oraclizeAPI_0.5.sol\r\n    // stack overflow topic: https://ethereum.stackexchange.com/questions/729/how-to-concatenate-strings-in-solidity\r\n    // Notes: reduce the parameters if necessary\r\n    function strConcat(string memory _a, string memory _b, string memory _c, string memory _d, string memory _e) internal pure returns (string memory){\r\n        bytes memory _ba = bytes(_a);\r\n        bytes memory _bb = bytes(_b);\r\n        bytes memory _bc = bytes(_c);\r\n        bytes memory _bd = bytes(_d);\r\n        bytes memory _be = bytes(_e);\r\n        string memory abcde = new string(_ba.length + _bb.length + _bc.length + _bd.length + _be.length);\r\n        bytes memory babcde = bytes(abcde);\r\n        uint k = 0;\r\n        for (uint i = 0; i < _ba.length; i++) babcde[k++] = _ba[i];\r\n        for (uint i = 0; i < _bb.length; i++) babcde[k++] = _bb[i];\r\n        for (uint i = 0; i < _bc.length; i++) babcde[k++] = _bc[i];\r\n        for (uint i = 0; i < _bd.length; i++) babcde[k++] = _bd[i];\r\n        for (uint i = 0; i < _be.length; i++) babcde[k++] = _be[i];\r\n        return string(babcde);\r\n    }\r\n\r\n    // Modifers\r\n    modifier tokenExists(uint256 tokenId) {\r\n        require(_exists(tokenId), \"Token ID does not exist.\");\r\n        _;\r\n    }\r\n\r\n    modifier belongsToSender(uint256 tokenId){\r\n        require(ownerOf(tokenId) == msg.sender, \"Token does not belong to sender.\");\r\n        _;\r\n    }\r\n\r\n    // Helper Functions for NFTs on the market.\r\n    function _removeNFTfromMarket(uint tokenId, address _address) private tokenExists(tokenId) {\r\n        id_to_marketDetails[tokenId] = MarketDetails(false, 0, address(0));\r\n        // decrease the number of NFTs on market of the user\r\n        NFTsOnMarketByAddress[_address]--;\r\n        NFTsOnMarket--;\r\n    }\r\n  \r\n\r\n    // Functions for market place interactions.\r\n    function listNFTOnMarket(uint256 tokenId, uint256 price) external payable tokenExists(tokenId) belongsToSender(tokenId){\r\n        id_to_marketDetails[tokenId] = MarketDetails(true, price, msg.sender);\r\n        // increase the number of NFTs on market of the user\r\n        NFTsOnMarketByAddress[msg.sender]++;\r\n        NFTsOnMarket++;\r\n\r\n        // transfer ownership of tokenId to this contract\r\n        _safeTransfer(msg.sender, address(this), tokenId, \"\");\r\n    }\r\n\r\n    function removeNFTFromMarket(uint256 tokenId) external tokenExists(tokenId) {\r\n        require(id_to_marketDetails[tokenId].seller == msg.sender, \"Not the original owner of this NFT.\");\r\n        _removeNFTfromMarket(tokenId, msg.sender);\r\n\r\n        // transfer token back to owner\r\n        _safeTransfer(address(this), msg.sender, tokenId, \"\");\r\n    }\r\n\r\n\r\n   // Source: https://ethereum.stackexchange.com/questions/19341/address-send-vs-address-transfer-best-practice-usage/74007#74007\r\n    function purchaseNFT(uint256 tokenId) public payable tokenExists(tokenId) {\r\n        require(id_to_marketDetails[tokenId].seller != msg.sender, \"Can not purchase your own NFTs.\");\r\n        require(id_to_marketDetails[tokenId].forSale, \"NFT not for sale\");\r\n        require(id_to_marketDetails[tokenId].price <= msg.value, \"Insufficient funds for purchase.\");\r\n\r\n        // Get seller Id\r\n        address seller = id_to_marketDetails[tokenId].seller;\r\n\r\n        // get price\r\n        uint256 price = id_to_marketDetails[tokenId].price;\r\n\r\n        // Remove NFT from market - do this before transferring ETH to prevent reentrancy\r\n        _removeNFTfromMarket(tokenId, id_to_marketDetails[tokenId].seller);\r\n\r\n        // Transfer fund from NFT buyer to NFT Seller\r\n        (bool success, ) =  seller.call{value: msg.value}(\"\");\r\n        require(success, \"Failed to send ETH to Seller\");\r\n\r\n        // Transfer token to buyer\r\n        _safeTransfer(address(this), msg.sender, tokenId, \"\");\r\n\r\n        // push transaction data into transactionHistory\r\n        transactionHistory.push(TransactionHistory(tokenId, msg.sender, seller, price, block.timestamp));\r\n\r\n        // increase transactionHistoryCount for both buyer and seller\r\n        transactionHistoryCount[msg.sender]++;\r\n        transactionHistoryCount[seller]++;\r\n    }\r\n\r\n    // fetch by order: tokenURI, token price, token seller's address\r\n    function fetchNFTDataById(uint256 tokenId) external view returns(string memory, uint256, address) {\r\n        return (tokenURI(tokenId), id_to_marketDetails[tokenId].price, id_to_marketDetails[tokenId].seller);\r\n    }\r\n\r\n    function kill() public onlyOwner {\r\n        selfdestruct(payable(owner()));\r\n    }\r\n\r\n    receive() external payable {\r\n        // this function enables the contract to receive funds\r\n        // Nothing needed here\r\n    }\r\n\r\n    /** Needed for calling safeTransferFrom */\r\n    function onERC721Received(address, address, uint256, bytes memory) public virtual override returns (bytes4) {\r\n        return this.onERC721Received.selector;\r\n    }\r\n}\r\n\r\ncontract AuxiunNFTMulticall {\r\n    AuxiunNFT auxiunNFTContract;\r\n\r\n    function setNFTContractAddress(address _address) public {\r\n        auxiunNFTContract = AuxiunNFT(payable(_address));\r\n    }\r\n\r\n    // returns an array of token ids which are listed as forSale\r\n    function _fetchTokenIdsOnMarket() internal view returns(uint256[] memory) {\r\n        // initialize result's array length\r\n        uint256[] memory result = new uint256[](auxiunNFTContract.NFTsOnMarket());\r\n        // for loop to fetch all tokenIds where id_to_marketDetails[i].forSale == true\r\n        uint256 counter = 0;\r\n        for (uint256 i = 0; i < auxiunNFTContract.tokenIdCounter(); i++) {\r\n            // only tokenIds which are for sale will be pushed into the result array\r\n            bool forSale;\r\n            (forSale,,) = auxiunNFTContract.id_to_marketDetails(i);\r\n            if (forSale) {\r\n                result[counter] = i;\r\n                counter++;\r\n            }\r\n        }\r\n        return result;\r\n    }\r\n\r\n    /**\r\n    * Multicall function to fetch all NFTs owned by an address\r\n    * Returns 2 arrays which are:\r\n    * 1. array of tokenIds owned by the address\r\n    * 2. array of tokenURIs of the respective tokenIds\r\n    */\r\n    function multiCallNFTsOwnedByAddress(address _address) external view returns(uint256[] memory, string[] memory) {\r\n        require(auxiunNFTContract.tokenIdCounter() > 0, \"No NFTs exist\");\r\n\r\n        // initialize array lengths\r\n        uint256[] memory tokenIds = new uint256[](auxiunNFTContract.balanceOf(_address));\r\n        string[] memory tokenURIs = new string[](auxiunNFTContract.balanceOf(_address));\r\n\r\n        // since tokenIdCounter increments after each new mint we don't need to + 1\r\n        uint256 totalNumberOfNFTs = auxiunNFTContract.tokenIdCounter();\r\n\r\n        uint256 counter = 0;\r\n\r\n        // for loop to fetch all data of tokenIds and push into the 3 arrays\r\n        for (uint256 i = 0; i < totalNumberOfNFTs; i++) {\r\n            if (_address == auxiunNFTContract.ownerOf(i)) {\r\n                tokenIds[counter] = i;\r\n                tokenURIs[counter] = auxiunNFTContract.tokenURI(i);\r\n                counter++;\r\n            }\r\n        }\r\n        \r\n        return (tokenIds, tokenURIs);\r\n    }\r\n\r\n    /**\r\n    * Multicall function to fetch all NFTs listed for sale on the market\r\n    * Returns 4 arrays which are:\r\n    * 1. array of tokenIds\r\n    * 2. array of tokenURIs\r\n    * 3. array of token prices\r\n    * 4. array of token sellers\r\n    */\r\n    function multiCallNFTsOnMarket() external view returns(uint256[] memory, string[] memory, uint256[] memory, address[] memory) {\r\n        // initialize tokenIds' array length\r\n        uint256[] memory tokenIds = new uint256[](auxiunNFTContract.NFTsOnMarket());\r\n        // fetch the tokenIds on the market\r\n        tokenIds = _fetchTokenIdsOnMarket();\r\n\r\n        // initialize array for tokenURIs, prices and sellers\r\n        string[] memory tokenURIs = new string[](auxiunNFTContract.NFTsOnMarket());\r\n        uint256[] memory tokenPrices = new uint256[](auxiunNFTContract.NFTsOnMarket());\r\n        address[] memory tokenSellers = new address[](auxiunNFTContract.NFTsOnMarket());\r\n\r\n        // for loop to fetch all data of tokenIds and push into the 3 arrays\r\n        for (uint256 i = 0; i < auxiunNFTContract.NFTsOnMarket(); i++) {\r\n            uint256 _price;\r\n            address _seller;\r\n            (,_price, _seller) = auxiunNFTContract.id_to_marketDetails(tokenIds[i]);\r\n            tokenURIs[i] = auxiunNFTContract.tokenURI(tokenIds[i]);\r\n            tokenPrices[i] = _price;\r\n            tokenSellers[i] = _seller;\r\n        }\r\n        \r\n        return (tokenIds, tokenURIs, tokenPrices, tokenSellers);\r\n    }\r\n\r\n    // overloaded Multicall function to fetch NFTs listed on sale for a specific user's address\r\n    function multiCallNFTsOnMarket(address seller) external view returns(uint256[] memory, string[] memory, uint256[] memory, address[] memory) {\r\n        // initialize tokenIds' array length\r\n        uint256[] memory tokenIdsOnMarket = new uint256[](auxiunNFTContract.NFTsOnMarket());\r\n        // fetch the tokenIds on the market\r\n        tokenIdsOnMarket = _fetchTokenIdsOnMarket();\r\n\r\n        // initialize array for tokenIdsSeller, tokenURIs, prices and sellers\r\n        uint256[] memory tokenIds = new uint256[](auxiunNFTContract.NFTsOnMarketByAddress(seller));\r\n        string[] memory tokenURIs = new string[](auxiunNFTContract.NFTsOnMarketByAddress(seller));\r\n        uint256[] memory tokenPrices = new uint256[](auxiunNFTContract.NFTsOnMarketByAddress(seller));\r\n        address[] memory tokenSellers = new address[](auxiunNFTContract.NFTsOnMarketByAddress(seller));\r\n\r\n        // for loop to fetch all data of tokenIdsOnMarket and push into the 3 arrays\r\n        uint256 counter = 0;\r\n        for (uint256 i = 0; i < auxiunNFTContract.NFTsOnMarket(); i++) {\r\n            uint256 _price;\r\n            address _seller;\r\n            (,_price, _seller) = auxiunNFTContract.id_to_marketDetails(tokenIdsOnMarket[i]);\r\n            if (seller == _seller) {\r\n                tokenIds[counter] = tokenIdsOnMarket[i];\r\n                tokenURIs[counter] = auxiunNFTContract.tokenURI(tokenIdsOnMarket[i]);\r\n                tokenPrices[counter] = _price;\r\n                tokenSellers[counter] = _seller;\r\n                counter++;\r\n            }\r\n        }\r\n        return (tokenIds, tokenURIs, tokenPrices, tokenSellers);\r\n    }\r\n\r\n  \r\n\r\n    function multiCallTransactionDataByUser(address user) external view \r\n    returns(uint256[] memory, string[] memory, address[] memory, address[] memory,\r\n             uint256[] memory, uint256[] memory, bool[] memory) {\r\n        return (singleCallTransactionDataByUserTokenIds(user),\r\n                singleCallTransactionDataByUserTokenURIs(user),\r\n                singleCallTransactionDataByUserBuyers(user), \r\n                singleTransactionDataByUserSellers(user), \r\n                singleCallTransactionDataByUserPrices(user), \r\n                singleCallTransactionDataByUserTimestamps(user), \r\n                singleCallTransactionDataByUserTransactionType(user));\r\n    }\r\n\r\n    // single functions to be combined in the multiCallTransactionDataByUser() multicall function\r\n    function singleCallTransactionDataByUserTokenIds(address user) internal view returns(uint256[] memory) {\r\n        // initialize return array\r\n        uint256[] memory tokenIds = new uint256[](auxiunNFTContract.transactionHistoryCount(user));\r\n\r\n        // for loop to fetch all data of tokenIds and push into the arrays\r\n        uint256 counter = 0;\r\n        for (uint256 i = 0; i < auxiunNFTContract.getTransactionHistoryLength(); i++) {\r\n            uint256 _tokenId;\r\n            address _buyer;\r\n            address _seller;\r\n            (_tokenId, _buyer, _seller,,) = auxiunNFTContract.transactionHistory(i);\r\n            if (user == _buyer|| user == _seller) {\r\n                tokenIds[counter] = _tokenId;\r\n                counter++;\r\n            }\r\n        }\r\n        return tokenIds;\r\n    }\r\n\r\n    function singleCallTransactionDataByUserTokenURIs(address user) internal view returns(string[] memory) {\r\n        // initialize return array\r\n        string[] memory tokenURIs = new string[](auxiunNFTContract.transactionHistoryCount(user));\r\n\r\n        // for loop to fetch all data of tokenIds and push into the arrays\r\n        uint256 counter = 0;\r\n        for (uint256 i = 0; i < auxiunNFTContract.getTransactionHistoryLength(); i++) {\r\n            uint256 _tokenId;\r\n            address _buyer;\r\n            address _seller;\r\n            (_tokenId, _buyer, _seller,,) = auxiunNFTContract.transactionHistory(i);\r\n            if (user == _buyer|| user == _seller) {\r\n                tokenURIs[counter] = auxiunNFTContract.tokenURI(_tokenId);\r\n                counter++;\r\n            }\r\n        }\r\n        return tokenURIs;\r\n    }\r\n\r\n    function singleCallTransactionDataByUserBuyers(address user) internal view returns(address[] memory) {\r\n        // initialize return array\r\n        address[] memory buyers = new address[](auxiunNFTContract.transactionHistoryCount(user));\r\n\r\n        // for loop to fetch all data of tokenIds and push into the arrays\r\n        uint256 counter = 0;\r\n        for (uint256 i = 0; i < auxiunNFTContract.getTransactionHistoryLength(); i++) {\r\n            uint256 _tokenId;\r\n            address _buyer;\r\n            address _seller;\r\n            (_tokenId, _buyer, _seller,,) = auxiunNFTContract.transactionHistory(i);\r\n            if (user == _buyer|| user == _seller) {\r\n                buyers[counter] = _buyer;\r\n                counter++;\r\n            }\r\n        }\r\n        return buyers;\r\n    }\r\n\r\n    function singleTransactionDataByUserSellers(address user) internal view returns(address[] memory) {\r\n        // initialize return array\r\n        address[] memory sellers = new address[](auxiunNFTContract.transactionHistoryCount(user));\r\n\r\n        // for loop to fetch all data of tokenIds and push into the arrays\r\n        uint256 counter = 0;\r\n        for (uint256 i = 0; i < auxiunNFTContract.getTransactionHistoryLength(); i++) {\r\n            uint256 _tokenId;\r\n            address _buyer;\r\n            address _seller;\r\n            (_tokenId, _buyer, _seller,,) = auxiunNFTContract.transactionHistory(i);\r\n            if (user == _buyer|| user == _seller) {\r\n                sellers[counter] = _seller;\r\n                counter++;\r\n            }\r\n        }\r\n        return sellers;\r\n    }\r\n\r\n    function singleCallTransactionDataByUserPrices(address user) internal view returns(uint256[] memory) {\r\n        // initialize return arrays\r\n        uint256[] memory prices = new uint256[](auxiunNFTContract.transactionHistoryCount(user));\r\n\r\n        // for loop to fetch all data of tokenIds and push into the arrays\r\n        uint256 counter = 0;\r\n        for (uint256 i = 0; i < auxiunNFTContract.getTransactionHistoryLength(); i++) {\r\n            address _buyer;\r\n            address _seller;\r\n            uint256 _price;\r\n            (, _buyer, _seller, _price,) = auxiunNFTContract.transactionHistory(i);\r\n            if (user == _buyer|| user == _seller) {\r\n                prices[counter] = _price;\r\n                counter++;\r\n            }\r\n        }\r\n        return (prices);\r\n    }\r\n\r\n    function singleCallTransactionDataByUserTimestamps(address user) internal view returns(uint256[] memory) {\r\n        // initialize return array\r\n        uint256[] memory timestamps = new uint256[](auxiunNFTContract.transactionHistoryCount(user));\r\n\r\n        // for loop to fetch all data of tokenIds and push into the arrays\r\n        uint256 counter = 0;\r\n        for (uint256 i = 0; i < auxiunNFTContract.getTransactionHistoryLength(); i++) {\r\n            address _buyer;\r\n            address _seller;\r\n            uint256 _timestamp;\r\n            (, _buyer, _seller,, _timestamp) = auxiunNFTContract.transactionHistory(i);\r\n            if (user == _buyer|| user == _seller) {\r\n                timestamps[counter] = _timestamp;\r\n                counter++;\r\n            }\r\n        }\r\n        return timestamps;\r\n    }\r\n\r\n    function singleCallTransactionDataByUserTransactionType(address user) internal view returns(bool[] memory) {\r\n        // initialize return array\r\n        // transactionType = true: it is a buy transaction for the user\r\n        // transacitonType = false: it is a sell transaction for the user\r\n        bool[] memory transactionType = new bool[](auxiunNFTContract.transactionHistoryCount(user));\r\n\r\n        // for loop to fetch all data of tokenIds and push into the arrays\r\n        uint256 counter = 0;\r\n        for (uint256 i = 0; i < auxiunNFTContract.getTransactionHistoryLength(); i++) {\r\n            address _buyer;\r\n            address _seller;\r\n            (, _buyer, _seller,,) = auxiunNFTContract.transactionHistory(i);\r\n            if (user == _buyer|| user == _seller) {\r\n                // determine transactionType\r\n                if (user == _buyer) {\r\n                    transactionType[counter] = true;\r\n                }\r\n                else {\r\n                    transactionType[counter] = false;\r\n                }\r\n                counter++;\r\n            }\r\n        }\r\n        return transactionType;\r\n    }\r\n}\r\n\r\n  /**\r\n    * Multicall functions to fetch transaction data\r\n    * fetch transaction data by user's address\r\n    * Returns 6 arrays sale which are:\r\n    * 1. array of tokenIds\r\n    * 2. array of buyers\r\n    * 3. array of sellers\r\n    * 4. array of prices\r\n    * 5. array of timestamps\r\n    * 6. array of transacitonType - true: buy ; false: sell\r\n    */\r\n    // function multiCallTransactionDataByUser(address user) external view returns(uint256[] memory, address[] memory, address[] memory, uint256[] memory, uint256[] memory, bool[] memory) {\r\n    //     // initialize return arrays\r\n    //     uint256[] memory tokenIds = new uint256[](auxiunNFTContract.transactionHistoryCount(user));\r\n    //     address[] memory buyers = new address[](auxiunNFTContract.transactionHistoryCount(user));\r\n    //     address[] memory sellers = new address[](auxiunNFTContract.transactionHistoryCount(user));\r\n    //     uint256[] memory prices = new uint256[](auxiunNFTContract.transactionHistoryCount(user));\r\n    //     uint256[] memory timestamps = new uint256[](auxiunNFTContract.transactionHistoryCount(user));\r\n    //     // transactionType = true: it is a buy transaction for the user\r\n    //     // transacitonType = false: it is a sell transaction for the user\r\n    //     bool[] memory transactionType = new bool[](auxiunNFTContract.transactionHistoryCount(user));\r\n\r\n    //     // for loop to fetch all data of tokenIds and push into the arrays\r\n    //     uint256 counter = 0;\r\n    //     for (uint256 i = 0; i < auxiunNFTContract.getTransactionHistoryLength(); i++) {\r\n    //         uint256 _tokenId;\r\n    //         address _buyer;\r\n    //         address _seller;\r\n    //         uint256 _price;\r\n    //         uint256 _timestamp;\r\n    //         (_tokenId, _buyer, _seller, _price, _timestamp) = auxiunNFTContract.transactionHistory(i);\r\n    //         if (user == _buyer|| user == _seller) {\r\n    //             tokenIds[counter] = _tokenId;\r\n    //             buyers[counter] = _buyer;\r\n    //             sellers[counter] = _seller;\r\n    //             prices[counter] = _price;\r\n    //             timestamps[counter] = _timestamp;\r\n\r\n    //             // determine transactionType\r\n    //             if (user == _buyer) {\r\n    //                 transactionType[counter] = true;\r\n    //             }\r\n    //             else {\r\n    //                 transactionType[counter] = false;\r\n    //             }\r\n    //             counter++;\r\n    //         }\r\n    //     }\r\n        \r\n    //     return (tokenIds, buyers, sellers, prices, timestamps, transactionType);\r\n    // }\r\n\r\n\r\n    // function multiCallTransactionDataByUserPartA(address user) internal view returns(uint256[] memory,  address[] memory, address[] memory) {\r\n    //     // initialize return arrays\r\n    //     uint256[] memory tokenIds = new uint256[](auxiunNFTContract.transactionHistoryCount(user));\r\n    //     address[] memory buyers = new address[](auxiunNFTContract.transactionHistoryCount(user));\r\n    //     address[] memory sellers = new address[](auxiunNFTContract.transactionHistoryCount(user));\r\n\r\n    //     // for loop to fetch all data of tokenIds and push into the arrays\r\n    //     uint256 counter = 0;\r\n    //     for (uint256 i = 0; i < auxiunNFTContract.getTransactionHistoryLength(); i++) {\r\n    //         uint256 _tokenId;\r\n    //         address _buyer;\r\n    //         address _seller;\r\n    //         (_tokenId, _buyer, _seller,,) = auxiunNFTContract.transactionHistory(i);\r\n    //         if (user == _buyer|| user == _seller) {\r\n    //             tokenIds[counter] = _tokenId;\r\n    //             buyers[counter] = _buyer;\r\n    //             sellers[counter] = _seller;\r\n    //             counter++;\r\n    //         }\r\n    //     }\r\n    //     return (tokenIds, buyers, sellers);\r\n    // }\r\n\r\n    // function multiCallTransactionDataByUserPartB(address user) internal view returns(uint256[] memory, uint256[] memory, bool[] memory) {\r\n    //     // initialize return arrays\r\n    //     uint256[] memory prices = new uint256[](auxiunNFTContract.transactionHistoryCount(user));\r\n    //     uint256[] memory timestamps = new uint256[](auxiunNFTContract.transactionHistoryCount(user));\r\n    //     // transactionType = true: it is a buy transaction for the user\r\n    //     // transacitonType = false: it is a sell transaction for the user\r\n    //     bool[] memory transactionType = new bool[](auxiunNFTContract.transactionHistoryCount(user));\r\n\r\n    //     // for loop to fetch all data of tokenIds and push into the arrays\r\n    //     uint256 counter = 0;\r\n    //     for (uint256 i = 0; i < auxiunNFTContract.getTransactionHistoryLength(); i++) {\r\n    //         address _buyer;\r\n    //         address _seller;\r\n    //         uint256 _price;\r\n    //         uint256 _timestamp;\r\n    //         (, _buyer, _seller, _price, _timestamp) = auxiunNFTContract.transactionHistory(i);\r\n    //         if (user == _buyer|| user == _seller) {\r\n    //             prices[counter] = _price;\r\n    //             timestamps[counter] = _timestamp;\r\n\r\n    //             // determine transactionType\r\n    //             if (user == _buyer) {\r\n    //                 transactionType[counter] = true;\r\n    //             }\r\n    //             else {\r\n    //                 transactionType[counter] = false;\r\n    //             }\r\n    //             counter++;\r\n    //         }\r\n    //     }\r\n    //     return (prices, timestamps, transactionType);\r\n    // }",
  "sourcePath": "C:/Users/flooofy/sem_2_2021/PP1/axiun-contracts/contracts/AuxiunNFT.sol",
  "compiler": {
    "name": "solc",
    "version": "0.8.0+commit.c7dfd78e.Emscripten.clang"
  },
  "schemaVersion": "3.4.1",
  "updatedAt": "2021-09-21T10:49:39.917Z",
  "networkType": "ethereum",
  "devdoc": {
    "kind": "dev",
    "methods": {},
    "version": 1
  },
  "userdoc": {
    "kind": "user",
    "methods": {
      "multiCallNFTsOnMarket()": {
        "notice": "Multicall function to fetch all NFTs listed for sale on the market Returns 4 arrays which are: 1. array of tokenIds 2. array of tokenURIs 3. array of token prices 4. array of token sellers"
      },
      "multiCallNFTsOwnedByAddress(address)": {
        "notice": "Multicall function to fetch all NFTs owned by an address Returns 2 arrays which are: 1. array of tokenIds owned by the address 2. array of tokenURIs of the respective tokenIds"
      }
    },
    "version": 1
  }
}