{
  "contractName": "AuxiunNFT",
  "abi": [
    {
      "inputs": [],
      "stateMutability": "nonpayable",
      "type": "constructor"
    },
    {
      "anonymous": false,
      "inputs": [
        {
          "indexed": true,
          "internalType": "address",
          "name": "owner",
          "type": "address"
        },
        {
          "indexed": true,
          "internalType": "address",
          "name": "approved",
          "type": "address"
        },
        {
          "indexed": true,
          "internalType": "uint256",
          "name": "tokenId",
          "type": "uint256"
        }
      ],
      "name": "Approval",
      "type": "event"
    },
    {
      "anonymous": false,
      "inputs": [
        {
          "indexed": true,
          "internalType": "address",
          "name": "owner",
          "type": "address"
        },
        {
          "indexed": true,
          "internalType": "address",
          "name": "operator",
          "type": "address"
        },
        {
          "indexed": false,
          "internalType": "bool",
          "name": "approved",
          "type": "bool"
        }
      ],
      "name": "ApprovalForAll",
      "type": "event"
    },
    {
      "anonymous": false,
      "inputs": [
        {
          "indexed": true,
          "internalType": "address",
          "name": "previousOwner",
          "type": "address"
        },
        {
          "indexed": true,
          "internalType": "address",
          "name": "newOwner",
          "type": "address"
        }
      ],
      "name": "OwnershipTransferred",
      "type": "event"
    },
    {
      "anonymous": false,
      "inputs": [
        {
          "indexed": true,
          "internalType": "address",
          "name": "from",
          "type": "address"
        },
        {
          "indexed": true,
          "internalType": "address",
          "name": "to",
          "type": "address"
        },
        {
          "indexed": true,
          "internalType": "uint256",
          "name": "tokenId",
          "type": "uint256"
        }
      ],
      "name": "Transfer",
      "type": "event"
    },
    {
      "inputs": [
        {
          "internalType": "address",
          "name": "to",
          "type": "address"
        },
        {
          "internalType": "uint256",
          "name": "tokenId",
          "type": "uint256"
        }
      ],
      "name": "approve",
      "outputs": [],
      "stateMutability": "nonpayable",
      "type": "function"
    },
    {
      "inputs": [
        {
          "internalType": "address",
          "name": "owner",
          "type": "address"
        }
      ],
      "name": "balanceOf",
      "outputs": [
        {
          "internalType": "uint256",
          "name": "",
          "type": "uint256"
        }
      ],
      "stateMutability": "view",
      "type": "function"
    },
    {
      "inputs": [
        {
          "internalType": "uint256",
          "name": "tokenId",
          "type": "uint256"
        }
      ],
      "name": "getApproved",
      "outputs": [
        {
          "internalType": "address",
          "name": "",
          "type": "address"
        }
      ],
      "stateMutability": "view",
      "type": "function"
    },
    {
      "inputs": [
        {
          "internalType": "address",
          "name": "owner",
          "type": "address"
        },
        {
          "internalType": "address",
          "name": "operator",
          "type": "address"
        }
      ],
      "name": "isApprovedForAll",
      "outputs": [
        {
          "internalType": "bool",
          "name": "",
          "type": "bool"
        }
      ],
      "stateMutability": "view",
      "type": "function"
    },
    {
      "inputs": [],
      "name": "name",
      "outputs": [
        {
          "internalType": "string",
          "name": "",
          "type": "string"
        }
      ],
      "stateMutability": "view",
      "type": "function"
    },
    {
      "inputs": [],
      "name": "owner",
      "outputs": [
        {
          "internalType": "address",
          "name": "",
          "type": "address"
        }
      ],
      "stateMutability": "view",
      "type": "function"
    },
    {
      "inputs": [
        {
          "internalType": "uint256",
          "name": "tokenId",
          "type": "uint256"
        }
      ],
      "name": "ownerOf",
      "outputs": [
        {
          "internalType": "address",
          "name": "",
          "type": "address"
        }
      ],
      "stateMutability": "view",
      "type": "function"
    },
    {
      "inputs": [],
      "name": "renounceOwnership",
      "outputs": [],
      "stateMutability": "nonpayable",
      "type": "function"
    },
    {
      "inputs": [
        {
          "internalType": "address",
          "name": "from",
          "type": "address"
        },
        {
          "internalType": "address",
          "name": "to",
          "type": "address"
        },
        {
          "internalType": "uint256",
          "name": "tokenId",
          "type": "uint256"
        }
      ],
      "name": "safeTransferFrom",
      "outputs": [],
      "stateMutability": "nonpayable",
      "type": "function"
    },
    {
      "inputs": [
        {
          "internalType": "address",
          "name": "from",
          "type": "address"
        },
        {
          "internalType": "address",
          "name": "to",
          "type": "address"
        },
        {
          "internalType": "uint256",
          "name": "tokenId",
          "type": "uint256"
        },
        {
          "internalType": "bytes",
          "name": "_data",
          "type": "bytes"
        }
      ],
      "name": "safeTransferFrom",
      "outputs": [],
      "stateMutability": "nonpayable",
      "type": "function"
    },
    {
      "inputs": [
        {
          "internalType": "address",
          "name": "operator",
          "type": "address"
        },
        {
          "internalType": "bool",
          "name": "approved",
          "type": "bool"
        }
      ],
      "name": "setApprovalForAll",
      "outputs": [],
      "stateMutability": "nonpayable",
      "type": "function"
    },
    {
      "inputs": [
        {
          "internalType": "bytes4",
          "name": "interfaceId",
          "type": "bytes4"
        }
      ],
      "name": "supportsInterface",
      "outputs": [
        {
          "internalType": "bool",
          "name": "",
          "type": "bool"
        }
      ],
      "stateMutability": "view",
      "type": "function"
    },
    {
      "inputs": [],
      "name": "symbol",
      "outputs": [
        {
          "internalType": "string",
          "name": "",
          "type": "string"
        }
      ],
      "stateMutability": "view",
      "type": "function"
    },
    {
      "inputs": [
        {
          "internalType": "address",
          "name": "from",
          "type": "address"
        },
        {
          "internalType": "address",
          "name": "to",
          "type": "address"
        },
        {
          "internalType": "uint256",
          "name": "tokenId",
          "type": "uint256"
        }
      ],
      "name": "transferFrom",
      "outputs": [],
      "stateMutability": "nonpayable",
      "type": "function"
    },
    {
      "inputs": [
        {
          "internalType": "address",
          "name": "newOwner",
          "type": "address"
        }
      ],
      "name": "transferOwnership",
      "outputs": [],
      "stateMutability": "nonpayable",
      "type": "function"
    },
    {
      "stateMutability": "payable",
      "type": "receive"
    },
    {
      "inputs": [
        {
          "internalType": "string",
          "name": "inputbaseURI",
          "type": "string"
        }
      ],
      "name": "setBaseURI",
      "outputs": [],
      "stateMutability": "nonpayable",
      "type": "function"
    },
    {
      "inputs": [
        {
          "internalType": "uint256",
          "name": "tokenId",
          "type": "uint256"
        }
      ],
      "name": "tokenURI",
      "outputs": [
        {
          "internalType": "string",
          "name": "",
          "type": "string"
        }
      ],
      "stateMutability": "view",
      "type": "function"
    },
    {
      "inputs": [
        {
          "internalType": "address",
          "name": "to",
          "type": "address"
        },
        {
          "internalType": "string",
          "name": "game_id",
          "type": "string"
        },
        {
          "internalType": "string",
          "name": "item_id",
          "type": "string"
        }
      ],
      "name": "mint",
      "outputs": [],
      "stateMutability": "nonpayable",
      "type": "function"
    },
    {
      "inputs": [
        {
          "internalType": "address",
          "name": "_address",
          "type": "address"
        }
      ],
      "name": "addAdminAddress",
      "outputs": [],
      "stateMutability": "nonpayable",
      "type": "function"
    },
    {
      "inputs": [
        {
          "internalType": "address",
          "name": "_address",
          "type": "address"
        }
      ],
      "name": "removeAdminAddress",
      "outputs": [],
      "stateMutability": "nonpayable",
      "type": "function"
    },
    {
      "inputs": [
        {
          "internalType": "address",
          "name": "_address",
          "type": "address"
        }
      ],
      "name": "isAdminAddress",
      "outputs": [
        {
          "internalType": "bool",
          "name": "",
          "type": "bool"
        }
      ],
      "stateMutability": "view",
      "type": "function"
    },
    {
      "inputs": [
        {
          "internalType": "uint256",
          "name": "tokenId",
          "type": "uint256"
        },
        {
          "internalType": "uint256",
          "name": "price",
          "type": "uint256"
        }
      ],
      "name": "listNFTOnMarket",
      "outputs": [],
      "stateMutability": "payable",
      "type": "function"
    },
    {
      "inputs": [
        {
          "internalType": "uint256",
          "name": "tokenId",
          "type": "uint256"
        }
      ],
      "name": "removeNFTFromMarket",
      "outputs": [],
      "stateMutability": "nonpayable",
      "type": "function"
    },
    {
      "inputs": [
        {
          "internalType": "uint256",
          "name": "tokenId",
          "type": "uint256"
        }
      ],
      "name": "purchaseNFT",
      "outputs": [
        {
          "internalType": "address",
          "name": "",
          "type": "address"
        },
        {
          "internalType": "address",
          "name": "",
          "type": "address"
        },
        {
          "internalType": "uint256",
          "name": "",
          "type": "uint256"
        },
        {
          "internalType": "uint256",
          "name": "",
          "type": "uint256"
        }
      ],
      "stateMutability": "payable",
      "type": "function"
    },
    {
      "inputs": [
        {
          "internalType": "uint256",
          "name": "tokenId",
          "type": "uint256"
        }
      ],
      "name": "fetchNFTDataById",
      "outputs": [
        {
          "internalType": "string",
          "name": "",
          "type": "string"
        },
        {
          "internalType": "uint256",
          "name": "",
          "type": "uint256"
        },
        {
          "internalType": "address",
          "name": "",
          "type": "address"
        }
      ],
      "stateMutability": "view",
      "type": "function"
    },
    {
      "inputs": [
        {
          "internalType": "address",
          "name": "seller",
          "type": "address"
        }
      ],
      "name": "multiCallNFTsOnMarket",
      "outputs": [
        {
          "internalType": "uint256[]",
          "name": "",
          "type": "uint256[]"
        },
        {
          "internalType": "string[]",
          "name": "",
          "type": "string[]"
        },
        {
          "internalType": "uint256[]",
          "name": "",
          "type": "uint256[]"
        },
        {
          "internalType": "address[]",
          "name": "",
          "type": "address[]"
        }
      ],
      "stateMutability": "view",
      "type": "function"
    },
    {
      "inputs": [],
      "name": "multiCallNFTsOnMarket",
      "outputs": [
        {
          "internalType": "uint256[]",
          "name": "",
          "type": "uint256[]"
        },
        {
          "internalType": "string[]",
          "name": "",
          "type": "string[]"
        },
        {
          "internalType": "uint256[]",
          "name": "",
          "type": "uint256[]"
        },
        {
          "internalType": "address[]",
          "name": "",
          "type": "address[]"
        }
      ],
      "stateMutability": "view",
      "type": "function"
    },
    {
      "inputs": [
        {
          "internalType": "address",
          "name": "user",
          "type": "address"
        }
      ],
      "name": "multiCallTransactionDataByUser",
      "outputs": [
        {
          "internalType": "uint256[]",
          "name": "",
          "type": "uint256[]"
        },
        {
          "internalType": "uint256[]",
          "name": "",
          "type": "uint256[]"
        },
        {
          "internalType": "address[]",
          "name": "",
          "type": "address[]"
        },
        {
          "internalType": "address[]",
          "name": "",
          "type": "address[]"
        },
        {
          "internalType": "uint256[]",
          "name": "",
          "type": "uint256[]"
        },
        {
          "internalType": "uint256[]",
          "name": "",
          "type": "uint256[]"
        }
      ],
      "stateMutability": "view",
      "type": "function"
    },
    {
      "inputs": [],
      "name": "kill",
      "outputs": [],
      "stateMutability": "nonpayable",
      "type": "function"
    },
    {
      "inputs": [
        {
          "internalType": "address",
          "name": "",
          "type": "address"
        },
        {
          "internalType": "address",
          "name": "",
          "type": "address"
        },
        {
          "internalType": "uint256",
          "name": "",
          "type": "uint256"
        },
        {
          "internalType": "bytes",
          "name": "",
          "type": "bytes"
        }
      ],
      "name": "onERC721Received",
      "outputs": [
        {
          "internalType": "bytes4",
          "name": "",
          "type": "bytes4"
        }
      ],
      "stateMutability": "nonpayable",
      "type": "function"
    }
  ],
  "bytecode": "0x60806040526000600d556000600e553480156200001b57600080fd5b506040518060400160405280600981526020017f41757869756e4e465400000000000000000000000000000000000000000000008152506040518060400160405280600481526020017f4155584e00000000000000000000000000000000000000000000000000000000815250620000a86200009c6200011460201b60201c565b6200011c60201b60201c565b8160019080519060200190620000c0929190620001e0565b508060029080519060200190620000d9929190620001e0565b5050506040518060600160405280602281526020016200607860229139600c90805190602001906200010d929190620001e0565b50620002f5565b600033905090565b60008060009054906101000a900473ffffffffffffffffffffffffffffffffffffffff169050816000806101000a81548173ffffffffffffffffffffffffffffffffffffffff021916908373ffffffffffffffffffffffffffffffffffffffff1602179055508173ffffffffffffffffffffffffffffffffffffffff168173ffffffffffffffffffffffffffffffffffffffff167f8be0079c531659141344cd1fd0a4f28419497f9722a3daafe3b4186f6b6457e060405160405180910390a35050565b828054620001ee9062000290565b90600052602060002090601f0160209004810192826200021257600085556200025e565b82601f106200022d57805160ff19168380011785556200025e565b828001600101855582156200025e579182015b828111156200025d57825182559160200191906001019062000240565b5b5090506200026d919062000271565b5090565b5b808211156200028c57600081600090555060010162000272565b5090565b60006002820490506001821680620002a957607f821691505b60208210811415620002c057620002bf620002c6565b5b50919050565b7f4e487b7100000000000000000000000000000000000000000000000000000000600052602260045260246000fd5b615d7380620003056000396000f3fe6080604052600436106101d05760003560e01c8063715018a6116100f75780639907119011610095578063b88d4fde11610064578063b88d4fde146106a8578063c87b56dd146106d1578063e985e9c51461070e578063f2fde38b1461074b576101d7565b806399071190146105d557806399eca17d146105fe5780639a81930314610640578063a22cb4651461067f576101d7565b80637e20b6ea116100d15780637e20b6ea146105285780638da5cb5b14610556578063951011811461058157806395d89b41146105aa576101d7565b8063715018a6146104b5578063741e0320146104cc5780637bb73563146104e8576101d7565b8063150bde031161016f57806342842e0e1161013e57806342842e0e146103e957806355f804b3146104125780636352211e1461043b57806370a0823114610478576101d7565b8063150bde031461034d5780631684fd241461038057806323b872dd146103a957806341c0e1b5146103d2576101d7565b806306fdde03116101ab57806306fdde031461027f578063081812fc146102aa578063095ea7b3146102e7578063150b7a0214610310576101d7565b80624fba00146101dc57806301ffc9a7146102055780630236bb5a14610242576101d7565b366101d757005b600080fd5b3480156101e857600080fd5b5061020360048036038101906101fe91906145aa565b610774565b005b34801561021157600080fd5b5061022c600480360381019061022791906147d0565b61084b565b604051610239919061551d565b60405180910390f35b34801561024e57600080fd5b50610269600480360381019061026491906145aa565b61092d565b604051610276919061551d565b60405180910390f35b34801561028b57600080fd5b50610294610983565b6040516102a19190615553565b60405180910390f35b3480156102b657600080fd5b506102d160048036038101906102cc9190614863565b610a15565b6040516102de9190615385565b60405180910390f35b3480156102f357600080fd5b5061030e60048036038101906103099190614794565b610a9a565b005b34801561031c57600080fd5b506103376004803603810190610332919061465e565b610bb2565b6040516103449190615538565b60405180910390f35b61036760048036038101906103629190614863565b610bc6565b60405161037794939291906153ec565b60405180910390f35b34801561038c57600080fd5b506103a760048036038101906103a29190614863565b611095565b005b3480156103b557600080fd5b506103d060048036038101906103cb919061460f565b6111aa565b005b3480156103de57600080fd5b506103e761120a565b005b3480156103f557600080fd5b50610410600480360381019061040b919061460f565b6112a6565b005b34801561041e57600080fd5b5061043960048036038101906104349190614822565b6112c6565b005b34801561044757600080fd5b50610462600480360381019061045d9190614863565b61135c565b60405161046f9190615385565b60405180910390f35b34801561048457600080fd5b5061049f600480360381019061049a91906145aa565b61140e565b6040516104ac91906158b3565b60405180910390f35b3480156104c157600080fd5b506104ca6114c6565b005b6104e660048036038101906104e1919061488c565b61154e565b005b3480156104f457600080fd5b5061050f600480360381019061050a91906145aa565b611702565b60405161051f9493929190615431565b60405180910390f35b34801561053457600080fd5b5061053d611bdb565b60405161054d9493929190615431565b60405180910390f35b34801561056257600080fd5b5061056b61200e565b6040516105789190615385565b60405180910390f35b34801561058d57600080fd5b506105a860048036038101906105a391906145aa565b612037565b005b3480156105b657600080fd5b506105bf61210e565b6040516105cc9190615553565b60405180910390f35b3480156105e157600080fd5b506105fc60048036038101906105f79190614715565b6121a0565b005b34801561060a57600080fd5b50610625600480360381019061062091906145aa565b6122c0565b60405161063796959493929190615492565b60405180910390f35b34801561064c57600080fd5b5061066760048036038101906106629190614863565b612c42565b60405161067693929190615575565b60405180910390f35b34801561068b57600080fd5b506106a660048036038101906106a191906146d9565b612cab565b005b3480156106b457600080fd5b506106cf60048036038101906106ca919061465e565b612e2c565b005b3480156106dd57600080fd5b506106f860048036038101906106f39190614863565b612e8e565b6040516107059190615553565b60405180910390f35b34801561071a57600080fd5b50610735600480360381019061073091906145d3565b613073565b604051610742919061551d565b60405180910390f35b34801561075757600080fd5b50610772600480360381019061076d91906145aa565b613107565b005b61077c6131ff565b73ffffffffffffffffffffffffffffffffffffffff1661079a61200e565b73ffffffffffffffffffffffffffffffffffffffff16146107f0576040517f08c379a00000000000000000000000000000000000000000000000000000000081526004016107e790615793565b60405180910390fd5b6001600b60008373ffffffffffffffffffffffffffffffffffffffff1673ffffffffffffffffffffffffffffffffffffffff16815260200190815260200160002060006101000a81548160ff02191690831515021790555050565b60007f80ac58cd000000000000000000000000000000000000000000000000000000007bffffffffffffffffffffffffffffffffffffffffffffffffffffffff1916827bffffffffffffffffffffffffffffffffffffffffffffffffffffffff1916148061091657507f5b5e139f000000000000000000000000000000000000000000000000000000007bffffffffffffffffffffffffffffffffffffffffffffffffffffffff1916827bffffffffffffffffffffffffffffffffffffffffffffffffffffffff1916145b80610926575061092582613207565b5b9050919050565b6000600b60008373ffffffffffffffffffffffffffffffffffffffff1673ffffffffffffffffffffffffffffffffffffffff16815260200190815260200160002060009054906101000a900460ff169050919050565b60606001805461099290615bc8565b80601f01602080910402602001604051908101604052809291908181526020018280546109be90615bc8565b8015610a0b5780601f106109e057610100808354040283529160200191610a0b565b820191906000526020600020905b8154815290600101906020018083116109ee57829003601f168201915b5050505050905090565b6000610a2082613271565b610a5f576040517f08c379a0000000000000000000000000000000000000000000000000000000008152600401610a5690615773565b60405180910390fd5b6005600083815260200190815260200160002060009054906101000a900473ffffffffffffffffffffffffffffffffffffffff169050919050565b6000610aa58261135c565b90508073ffffffffffffffffffffffffffffffffffffffff168373ffffffffffffffffffffffffffffffffffffffff161415610b16576040517f08c379a0000000000000000000000000000000000000000000000000000000008152600401610b0d90615813565b60405180910390fd5b8073ffffffffffffffffffffffffffffffffffffffff16610b356131ff565b73ffffffffffffffffffffffffffffffffffffffff161480610b645750610b6381610b5e6131ff565b613073565b5b610ba3576040517f08c379a0000000000000000000000000000000000000000000000000000000008152600401610b9a906156f3565b60405180910390fd5b610bad83836132dd565b505050565b600063150b7a0260e01b9050949350505050565b60008060008084610bd681613271565b610c15576040517f08c379a0000000000000000000000000000000000000000000000000000000008152600401610c0c90615873565b60405180910390fd5b3373ffffffffffffffffffffffffffffffffffffffff166007600088815260200190815260200160002060020160009054906101000a900473ffffffffffffffffffffffffffffffffffffffff1673ffffffffffffffffffffffffffffffffffffffff161415610cba576040517f08c379a0000000000000000000000000000000000000000000000000000000008152600401610cb1906155b3565b60405180910390fd5b6007600087815260200190815260200160002060000160009054906101000a900460ff16610d1d576040517f08c379a0000000000000000000000000000000000000000000000000000000008152600401610d14906157f3565b60405180910390fd5b3460076000888152602001908152602001600020600101541115610d76576040517f08c379a0000000000000000000000000000000000000000000000000000000008152600401610d6d90615853565b60405180910390fd5b60006007600088815260200190815260200160002060020160009054906101000a900473ffffffffffffffffffffffffffffffffffffffff169050600034905060003390506000600760008b8152602001908152602001600020600101549050610ddf8a613396565b60008473ffffffffffffffffffffffffffffffffffffffff1634604051610e0590615370565b60006040518083038185875af1925050503d8060008114610e42576040519150601f19603f3d011682016040523d82523d6000602084013e610e47565b606091505b5050905080610e8b576040517f08c379a0000000000000000000000000000000000000000000000000000000008152600401610e8290615893565b60405180910390fd5b610ea630338d604051806020016040528060008152506134b8565b60096040518060a001604052808d81526020013373ffffffffffffffffffffffffffffffffffffffff1681526020018773ffffffffffffffffffffffffffffffffffffffff1681526020018481526020014281525090806001815401808255809150506001900390600052602060002090600502016000909190919091506000820151816000015560208201518160010160006101000a81548173ffffffffffffffffffffffffffffffffffffffff021916908373ffffffffffffffffffffffffffffffffffffffff16021790555060408201518160020160006101000a81548173ffffffffffffffffffffffffffffffffffffffff021916908373ffffffffffffffffffffffffffffffffffffffff16021790555060608201518160030155608082015181600401555050600a60003373ffffffffffffffffffffffffffffffffffffffff1673ffffffffffffffffffffffffffffffffffffffff168152602001908152602001600020600081548092919061102290615bfa565b9190505550600a60008673ffffffffffffffffffffffffffffffffffffffff1673ffffffffffffffffffffffffffffffffffffffff168152602001908152602001600020600081548092919061107790615bfa565b919050555082858c8699509950995099505050505050509193509193565b8061109f81613271565b6110de576040517f08c379a00000000000000000000000000000000000000000000000000000000081526004016110d590615873565b60405180910390fd5b3373ffffffffffffffffffffffffffffffffffffffff166007600084815260200190815260200160002060020160009054906101000a900473ffffffffffffffffffffffffffffffffffffffff1673ffffffffffffffffffffffffffffffffffffffff1614611182576040517f08c379a0000000000000000000000000000000000000000000000000000000008152600401611179906156b3565b60405180910390fd5b61118b82613396565b6111a6303384604051806020016040528060008152506134b8565b5050565b6111bb6111b56131ff565b82613514565b6111fa576040517f08c379a00000000000000000000000000000000000000000000000000000000081526004016111f190615833565b60405180910390fd5b6112058383836135f2565b505050565b6112126131ff565b73ffffffffffffffffffffffffffffffffffffffff1661123061200e565b73ffffffffffffffffffffffffffffffffffffffff1614611286576040517f08c379a000000000000000000000000000000000000000000000000000000000815260040161127d90615793565b60405180910390fd5b61128e61200e565b73ffffffffffffffffffffffffffffffffffffffff16ff5b6112c183838360405180602001604052806000815250612e2c565b505050565b6112ce6131ff565b73ffffffffffffffffffffffffffffffffffffffff166112ec61200e565b73ffffffffffffffffffffffffffffffffffffffff1614611342576040517f08c379a000000000000000000000000000000000000000000000000000000000815260040161133990615793565b60405180910390fd5b80600c90805190602001906113589291906143ce565b5050565b6000806003600084815260200190815260200160002060009054906101000a900473ffffffffffffffffffffffffffffffffffffffff169050600073ffffffffffffffffffffffffffffffffffffffff168173ffffffffffffffffffffffffffffffffffffffff161415611405576040517f08c379a00000000000000000000000000000000000000000000000000000000081526004016113fc90615733565b60405180910390fd5b80915050919050565b60008073ffffffffffffffffffffffffffffffffffffffff168273ffffffffffffffffffffffffffffffffffffffff16141561147f576040517f08c379a000000000000000000000000000000000000000000000000000000000815260040161147690615713565b60405180910390fd5b600460008373ffffffffffffffffffffffffffffffffffffffff1673ffffffffffffffffffffffffffffffffffffffff168152602001908152602001600020549050919050565b6114ce6131ff565b73ffffffffffffffffffffffffffffffffffffffff166114ec61200e565b73ffffffffffffffffffffffffffffffffffffffff1614611542576040517f08c379a000000000000000000000000000000000000000000000000000000000815260040161153990615793565b60405180910390fd5b61154c600061384e565b565b8161155881613271565b611597576040517f08c379a000000000000000000000000000000000000000000000000000000000815260040161158e90615873565b60405180910390fd5b823373ffffffffffffffffffffffffffffffffffffffff166115b88261135c565b73ffffffffffffffffffffffffffffffffffffffff161461160e576040517f08c379a0000000000000000000000000000000000000000000000000000000008152600401611605906155d3565b60405180910390fd5b60405180606001604052806001151581526020018481526020013373ffffffffffffffffffffffffffffffffffffffff168152506007600086815260200190815260200160002060008201518160000160006101000a81548160ff0219169083151502179055506020820151816001015560408201518160020160006101000a81548173ffffffffffffffffffffffffffffffffffffffff021916908373ffffffffffffffffffffffffffffffffffffffff160217905550905050600e60008154809291906116dc90615bfa565b91905055506116fc333086604051806020016040528060008152506134b8565b50505050565b60608060608060006117138661140e565b67ffffffffffffffff811115611752577f4e487b7100000000000000000000000000000000000000000000000000000000600052604160045260246000fd5b6040519080825280602002602001820160405280156117805781602001602082028036833780820191505090505b50905061178b613912565b905060006117988761140e565b67ffffffffffffffff8111156117d7577f4e487b7100000000000000000000000000000000000000000000000000000000600052604160045260246000fd5b60405190808252806020026020018201604052801561180a57816020015b60608152602001906001900390816117f55790505b50905060006118188861140e565b67ffffffffffffffff811115611857577f4e487b7100000000000000000000000000000000000000000000000000000000600052604160045260246000fd5b6040519080825280602002602001820160405280156118855781602001602082028036833780820191505090505b50905060006118938961140e565b67ffffffffffffffff8111156118d2577f4e487b7100000000000000000000000000000000000000000000000000000000600052604160045260246000fd5b6040519080825280602002602001820160405280156119005781602001602082028036833780820191505090505b5090506000805b600e54811015611bc25761195a86828151811061194d577f4e487b7100000000000000000000000000000000000000000000000000000000600052603260045260246000fd5b602002602001015161135c565b73ffffffffffffffffffffffffffffffffffffffff168b73ffffffffffffffffffffffffffffffffffffffff161415611baf576119d68682815181106119c9577f4e487b7100000000000000000000000000000000000000000000000000000000600052603260045260246000fd5b6020026020010151612e8e565b858381518110611a0f577f4e487b7100000000000000000000000000000000000000000000000000000000600052603260045260246000fd5b602002602001018190525060076000878381518110611a57577f4e487b7100000000000000000000000000000000000000000000000000000000600052603260045260246000fd5b6020026020010151815260200190815260200160002060010154848381518110611aaa577f4e487b7100000000000000000000000000000000000000000000000000000000600052603260045260246000fd5b60200260200101818152505060076000878381518110611af3577f4e487b7100000000000000000000000000000000000000000000000000000000600052603260045260246000fd5b6020026020010151815260200190815260200160002060020160009054906101000a900473ffffffffffffffffffffffffffffffffffffffff16838381518110611b66577f4e487b7100000000000000000000000000000000000000000000000000000000600052603260045260246000fd5b602002602001019073ffffffffffffffffffffffffffffffffffffffff16908173ffffffffffffffffffffffffffffffffffffffff16815250508180611bab90615bfa565b9250505b8080611bba90615bfa565b915050611907565b5084848484985098509850985050505050509193509193565b6060806060806000600e5467ffffffffffffffff811115611c25577f4e487b7100000000000000000000000000000000000000000000000000000000600052604160045260246000fd5b604051908082528060200260200182016040528015611c535781602001602082028036833780820191505090505b509050611c5e613912565b90506000600e5467ffffffffffffffff811115611ca4577f4e487b7100000000000000000000000000000000000000000000000000000000600052604160045260246000fd5b604051908082528060200260200182016040528015611cd757816020015b6060815260200190600190039081611cc25790505b5090506000600e5467ffffffffffffffff811115611d1e577f4e487b7100000000000000000000000000000000000000000000000000000000600052604160045260246000fd5b604051908082528060200260200182016040528015611d4c5781602001602082028036833780820191505090505b5090506000600e5467ffffffffffffffff811115611d93577f4e487b7100000000000000000000000000000000000000000000000000000000600052604160045260246000fd5b604051908082528060200260200182016040528015611dc15781602001602082028036833780820191505090505b50905060005b600e54811015611ff757611e1a858281518110611e0d577f4e487b7100000000000000000000000000000000000000000000000000000000600052603260045260246000fd5b6020026020010151612e8e565b848281518110611e53577f4e487b7100000000000000000000000000000000000000000000000000000000600052603260045260246000fd5b602002602001018190525060076000868381518110611e9b577f4e487b7100000000000000000000000000000000000000000000000000000000600052603260045260246000fd5b6020026020010151815260200190815260200160002060010154838281518110611eee577f4e487b7100000000000000000000000000000000000000000000000000000000600052603260045260246000fd5b60200260200101818152505060076000868381518110611f37577f4e487b7100000000000000000000000000000000000000000000000000000000600052603260045260246000fd5b6020026020010151815260200190815260200160002060020160009054906101000a900473ffffffffffffffffffffffffffffffffffffffff16828281518110611faa577f4e487b7100000000000000000000000000000000000000000000000000000000600052603260045260246000fd5b602002602001019073ffffffffffffffffffffffffffffffffffffffff16908173ffffffffffffffffffffffffffffffffffffffff16815250508080611fef90615bfa565b915050611dc7565b508383838397509750975097505050505090919293565b60008060009054906101000a900473ffffffffffffffffffffffffffffffffffffffff16905090565b61203f6131ff565b73ffffffffffffffffffffffffffffffffffffffff1661205d61200e565b73ffffffffffffffffffffffffffffffffffffffff16146120b3576040517f08c379a00000000000000000000000000000000000000000000000000000000081526004016120aa90615793565b60405180910390fd5b6000600b60008373ffffffffffffffffffffffffffffffffffffffff1673ffffffffffffffffffffffffffffffffffffffff16815260200190815260200160002060006101000a81548160ff02191690831515021790555050565b60606002805461211d90615bc8565b80601f016020809104026020016040519081016040528092919081815260200182805461214990615bc8565b80156121965780601f1061216b57610100808354040283529160200191612196565b820191906000526020600020905b81548152906001019060200180831161217957829003601f168201915b5050505050905090565b600b60003373ffffffffffffffffffffffffffffffffffffffff1673ffffffffffffffffffffffffffffffffffffffff16815260200190815260200160002060009054906101000a900460ff1661222c576040517f08c379a000000000000000000000000000000000000000000000000000000000815260040161222390615653565b60405180910390fd5b6000600d549050600d600081548092919061224690615bfa565b919050555060405180604001604052808481526020018381525060086000838152602001908152602001600020600082015181600001908051906020019061228f9291906143ce565b5060208201518160010190805190602001906122ac9291906143ce565b509050506122ba8482613a31565b50505050565b6060806060806060806000600a60008973ffffffffffffffffffffffffffffffffffffffff1673ffffffffffffffffffffffffffffffffffffffff1681526020019081526020016000205467ffffffffffffffff81111561234a577f4e487b7100000000000000000000000000000000000000000000000000000000600052604160045260246000fd5b6040519080825280602002602001820160405280156123785781602001602082028036833780820191505090505b5090506000600a60008a73ffffffffffffffffffffffffffffffffffffffff1673ffffffffffffffffffffffffffffffffffffffff1681526020019081526020016000205467ffffffffffffffff8111156123fc577f4e487b7100000000000000000000000000000000000000000000000000000000600052604160045260246000fd5b60405190808252806020026020018201604052801561242a5781602001602082028036833780820191505090505b5090506000600a60008b73ffffffffffffffffffffffffffffffffffffffff1673ffffffffffffffffffffffffffffffffffffffff1681526020019081526020016000205467ffffffffffffffff8111156124ae577f4e487b7100000000000000000000000000000000000000000000000000000000600052604160045260246000fd5b6040519080825280602002602001820160405280156124dc5781602001602082028036833780820191505090505b5090506000600a60008c73ffffffffffffffffffffffffffffffffffffffff1673ffffffffffffffffffffffffffffffffffffffff1681526020019081526020016000205467ffffffffffffffff811115612560577f4e487b7100000000000000000000000000000000000000000000000000000000600052604160045260246000fd5b60405190808252806020026020018201604052801561258e5781602001602082028036833780820191505090505b5090506000600a60008d73ffffffffffffffffffffffffffffffffffffffff1673ffffffffffffffffffffffffffffffffffffffff1681526020019081526020016000205467ffffffffffffffff811115612612577f4e487b7100000000000000000000000000000000000000000000000000000000600052604160045260246000fd5b6040519080825280602002602001820160405280156126405781602001602082028036833780820191505090505b5090506000600a60008e73ffffffffffffffffffffffffffffffffffffffff1673ffffffffffffffffffffffffffffffffffffffff1681526020019081526020016000205467ffffffffffffffff8111156126c4577f4e487b7100000000000000000000000000000000000000000000000000000000600052604160045260246000fd5b6040519080825280602002602001820160405280156126f25781602001602082028036833780820191505090505b5090506000805b600980549050811015612c1f5760098181548110612740577f4e487b7100000000000000000000000000000000000000000000000000000000600052603260045260246000fd5b906000526020600020906005020160010160009054906101000a900473ffffffffffffffffffffffffffffffffffffffff1673ffffffffffffffffffffffffffffffffffffffff168f73ffffffffffffffffffffffffffffffffffffffff1614806128415750600981815481106127e0577f4e487b7100000000000000000000000000000000000000000000000000000000600052603260045260246000fd5b906000526020600020906005020160020160009054906101000a900473ffffffffffffffffffffffffffffffffffffffff1673ffffffffffffffffffffffffffffffffffffffff168f73ffffffffffffffffffffffffffffffffffffffff16145b15612c0c5780888381518110612880577f4e487b7100000000000000000000000000000000000000000000000000000000600052603260045260246000fd5b602002602001018181525050600981815481106128c6577f4e487b7100000000000000000000000000000000000000000000000000000000600052603260045260246000fd5b906000526020600020906005020160000154878381518110612911577f4e487b7100000000000000000000000000000000000000000000000000000000600052603260045260246000fd5b60200260200101818152505060098181548110612957577f4e487b7100000000000000000000000000000000000000000000000000000000600052603260045260246000fd5b906000526020600020906005020160010160009054906101000a900473ffffffffffffffffffffffffffffffffffffffff168683815181106129c2577f4e487b7100000000000000000000000000000000000000000000000000000000600052603260045260246000fd5b602002602001019073ffffffffffffffffffffffffffffffffffffffff16908173ffffffffffffffffffffffffffffffffffffffff168152505060098181548110612a36577f4e487b7100000000000000000000000000000000000000000000000000000000600052603260045260246000fd5b906000526020600020906005020160020160009054906101000a900473ffffffffffffffffffffffffffffffffffffffff16858381518110612aa1577f4e487b7100000000000000000000000000000000000000000000000000000000600052603260045260246000fd5b602002602001019073ffffffffffffffffffffffffffffffffffffffff16908173ffffffffffffffffffffffffffffffffffffffff168152505060098181548110612b15577f4e487b7100000000000000000000000000000000000000000000000000000000600052603260045260246000fd5b906000526020600020906005020160030154848381518110612b60577f4e487b7100000000000000000000000000000000000000000000000000000000600052603260045260246000fd5b60200260200101818152505060098181548110612ba6577f4e487b7100000000000000000000000000000000000000000000000000000000600052603260045260246000fd5b906000526020600020906005020160040154838381518110612bf1577f4e487b7100000000000000000000000000000000000000000000000000000000600052603260045260246000fd5b6020026020010181815250508180612c0890615bfa565b9250505b8080612c1790615bfa565b9150506126f9565b508686868686869c509c509c509c509c509c505050505050505091939550919395565b6060600080612c5084612e8e565b60076000868152602001908152602001600020600101546007600087815260200190815260200160002060020160009054906101000a900473ffffffffffffffffffffffffffffffffffffffff169250925092509193909250565b612cb36131ff565b73ffffffffffffffffffffffffffffffffffffffff168273ffffffffffffffffffffffffffffffffffffffff161415612d21576040517f08c379a0000000000000000000000000000000000000000000000000000000008152600401612d1890615693565b60405180910390fd5b8060066000612d2e6131ff565b73ffffffffffffffffffffffffffffffffffffffff1673ffffffffffffffffffffffffffffffffffffffff16815260200190815260200160002060008473ffffffffffffffffffffffffffffffffffffffff1673ffffffffffffffffffffffffffffffffffffffff16815260200190815260200160002060006101000a81548160ff0219169083151502179055508173ffffffffffffffffffffffffffffffffffffffff16612ddb6131ff565b73ffffffffffffffffffffffffffffffffffffffff167f17307eab39ab6107e8899845ad3d59bd9653f200f220920489ca2b5937696c3183604051612e20919061551d565b60405180910390a35050565b612e3d612e376131ff565b83613514565b612e7c576040517f08c379a0000000000000000000000000000000000000000000000000000000008152600401612e7390615833565b60405180910390fd5b612e88848484846134b8565b50505050565b6060612e9982613271565b612ed8576040517f08c379a0000000000000000000000000000000000000000000000000000000008152600401612ecf906157d3565b60405180910390fd5b61306c612ee3613a4f565b600860008581526020019081526020016000206000018054612f0490615bc8565b80601f0160208091040260200160405190810160405280929190818152602001828054612f3090615bc8565b8015612f7d5780601f10612f5257610100808354040283529160200191612f7d565b820191906000526020600020905b815481529060010190602001808311612f6057829003601f168201915b50505050506040518060400160405280600181526020017f2f00000000000000000000000000000000000000000000000000000000000000815250600860008781526020019081526020016000206001018054612fd990615bc8565b80601f016020809104026020016040519081016040528092919081815260200182805461300590615bc8565b80156130525780601f1061302757610100808354040283529160200191613052565b820191906000526020600020905b81548152906001019060200180831161303557829003601f168201915b505050505060405180602001604052806000815250613ae1565b9050919050565b6000600660008473ffffffffffffffffffffffffffffffffffffffff1673ffffffffffffffffffffffffffffffffffffffff16815260200190815260200160002060008373ffffffffffffffffffffffffffffffffffffffff1673ffffffffffffffffffffffffffffffffffffffff16815260200190815260200160002060009054906101000a900460ff16905092915050565b61310f6131ff565b73ffffffffffffffffffffffffffffffffffffffff1661312d61200e565b73ffffffffffffffffffffffffffffffffffffffff1614613183576040517f08c379a000000000000000000000000000000000000000000000000000000000815260040161317a90615793565b60405180910390fd5b600073ffffffffffffffffffffffffffffffffffffffff168173ffffffffffffffffffffffffffffffffffffffff1614156131f3576040517f08c379a00000000000000000000000000000000000000000000000000000000081526004016131ea90615613565b60405180910390fd5b6131fc8161384e565b50565b600033905090565b60007f01ffc9a7000000000000000000000000000000000000000000000000000000007bffffffffffffffffffffffffffffffffffffffffffffffffffffffff1916827bffffffffffffffffffffffffffffffffffffffffffffffffffffffff1916149050919050565b60008073ffffffffffffffffffffffffffffffffffffffff166003600084815260200190815260200160002060009054906101000a900473ffffffffffffffffffffffffffffffffffffffff1673ffffffffffffffffffffffffffffffffffffffff1614159050919050565b816005600083815260200190815260200160002060006101000a81548173ffffffffffffffffffffffffffffffffffffffff021916908373ffffffffffffffffffffffffffffffffffffffff160217905550808273ffffffffffffffffffffffffffffffffffffffff166133508361135c565b73ffffffffffffffffffffffffffffffffffffffff167f8c5be1e5ebec7d5bd14f71427d1e84f3dd0314c0f7b2291e5b200ac8c7c3b92560405160405180910390a45050565b806133a081613271565b6133df576040517f08c379a00000000000000000000000000000000000000000000000000000000081526004016133d690615873565b60405180910390fd5b604051806060016040528060001515815260200160008152602001600073ffffffffffffffffffffffffffffffffffffffff168152506007600084815260200190815260200160002060008201518160000160006101000a81548160ff0219169083151502179055506020820151816001015560408201518160020160006101000a81548173ffffffffffffffffffffffffffffffffffffffff021916908373ffffffffffffffffffffffffffffffffffffffff160217905550905050600e60008154809291906134af90615b9e565b91905055505050565b6134c38484846135f2565b6134cf84848484613ff6565b61350e576040517f08c379a0000000000000000000000000000000000000000000000000000000008152600401613505906155f3565b60405180910390fd5b50505050565b600061351f82613271565b61355e576040517f08c379a0000000000000000000000000000000000000000000000000000000008152600401613555906156d3565b60405180910390fd5b60006135698361135c565b90508073ffffffffffffffffffffffffffffffffffffffff168473ffffffffffffffffffffffffffffffffffffffff1614806135d857508373ffffffffffffffffffffffffffffffffffffffff166135c084610a15565b73ffffffffffffffffffffffffffffffffffffffff16145b806135e957506135e88185613073565b5b91505092915050565b8273ffffffffffffffffffffffffffffffffffffffff166136128261135c565b73ffffffffffffffffffffffffffffffffffffffff1614613668576040517f08c379a000000000000000000000000000000000000000000000000000000000815260040161365f906157b3565b60405180910390fd5b600073ffffffffffffffffffffffffffffffffffffffff168273ffffffffffffffffffffffffffffffffffffffff1614156136d8576040517f08c379a00000000000000000000000000000000000000000000000000000000081526004016136cf90615673565b60405180910390fd5b6136e383838361418d565b6136ee6000826132dd565b6001600460008573ffffffffffffffffffffffffffffffffffffffff1673ffffffffffffffffffffffffffffffffffffffff168152602001908152602001600020600082825461373e9190615ab4565b925050819055506001600460008473ffffffffffffffffffffffffffffffffffffffff1673ffffffffffffffffffffffffffffffffffffffff16815260200190815260200160002060008282546137959190615a5e565b92505081905550816003600083815260200190815260200160002060006101000a81548173ffffffffffffffffffffffffffffffffffffffff021916908373ffffffffffffffffffffffffffffffffffffffff160217905550808273ffffffffffffffffffffffffffffffffffffffff168473ffffffffffffffffffffffffffffffffffffffff167fddf252ad1be2c89b69c2b068fc378daa952ba7f163c4a11628f55a4df523b3ef60405160405180910390a4505050565b60008060009054906101000a900473ffffffffffffffffffffffffffffffffffffffff169050816000806101000a81548173ffffffffffffffffffffffffffffffffffffffff021916908373ffffffffffffffffffffffffffffffffffffffff1602179055508173ffffffffffffffffffffffffffffffffffffffff168173ffffffffffffffffffffffffffffffffffffffff167f8be0079c531659141344cd1fd0a4f28419497f9722a3daafe3b4186f6b6457e060405160405180910390a35050565b60606000600e5467ffffffffffffffff811115613958577f4e487b7100000000000000000000000000000000000000000000000000000000600052604160045260246000fd5b6040519080825280602002602001820160405280156139865781602001602082028036833780820191505090505b5090506000805b600d54811015613a28576007600082815260200190815260200160002060000160009054906101000a900460ff1615613a1557808383815181106139fa577f4e487b7100000000000000000000000000000000000000000000000000000000600052603260045260246000fd5b6020026020010181815250508180613a1190615bfa565b9250505b8080613a2090615bfa565b91505061398d565b50819250505090565b613a4b828260405180602001604052806000815250614192565b5050565b6060600c8054613a5e90615bc8565b80601f0160208091040260200160405190810160405280929190818152602001828054613a8a90615bc8565b8015613ad75780601f10613aac57610100808354040283529160200191613ad7565b820191906000526020600020905b815481529060010190602001808311613aba57829003601f168201915b5050505050905090565b606060008690506000869050600086905060008690506000869050600081518351855187518951613b129190615a5e565b613b1c9190615a5e565b613b269190615a5e565b613b309190615a5e565b67ffffffffffffffff811115613b6f577f4e487b7100000000000000000000000000000000000000000000000000000000600052604160045260246000fd5b6040519080825280601f01601f191660200182016040528015613ba15781602001600182028036833780820191505090505b50905060008190506000805b8851811015613c8157888181518110613bef577f4e487b7100000000000000000000000000000000000000000000000000000000600052603260045260246000fd5b602001015160f81c60f81b838380613c0690615bfa565b945081518110613c3f577f4e487b7100000000000000000000000000000000000000000000000000000000600052603260045260246000fd5b60200101907effffffffffffffffffffffffffffffffffffffffffffffffffffffffffffff1916908160001a9053508080613c7990615bfa565b915050613bad565b5060005b8751811015613d5957878181518110613cc7577f4e487b7100000000000000000000000000000000000000000000000000000000600052603260045260246000fd5b602001015160f81c60f81b838380613cde90615bfa565b945081518110613d17577f4e487b7100000000000000000000000000000000000000000000000000000000600052603260045260246000fd5b60200101907effffffffffffffffffffffffffffffffffffffffffffffffffffffffffffff1916908160001a9053508080613d5190615bfa565b915050613c85565b5060005b8651811015613e3157868181518110613d9f577f4e487b7100000000000000000000000000000000000000000000000000000000600052603260045260246000fd5b602001015160f81c60f81b838380613db690615bfa565b945081518110613def577f4e487b7100000000000000000000000000000000000000000000000000000000600052603260045260246000fd5b60200101907effffffffffffffffffffffffffffffffffffffffffffffffffffffffffffff1916908160001a9053508080613e2990615bfa565b915050613d5d565b5060005b8551811015613f0957858181518110613e77577f4e487b7100000000000000000000000000000000000000000000000000000000600052603260045260246000fd5b602001015160f81c60f81b838380613e8e90615bfa565b945081518110613ec7577f4e487b7100000000000000000000000000000000000000000000000000000000600052603260045260246000fd5b60200101907effffffffffffffffffffffffffffffffffffffffffffffffffffffffffffff1916908160001a9053508080613f0190615bfa565b915050613e35565b5060005b8451811015613fe157848181518110613f4f577f4e487b7100000000000000000000000000000000000000000000000000000000600052603260045260246000fd5b602001015160f81c60f81b838380613f6690615bfa565b945081518110613f9f577f4e487b7100000000000000000000000000000000000000000000000000000000600052603260045260246000fd5b60200101907effffffffffffffffffffffffffffffffffffffffffffffffffffffffffffff1916908160001a9053508080613fd990615bfa565b915050613f0d565b50819850505050505050505095945050505050565b60006140178473ffffffffffffffffffffffffffffffffffffffff166141ed565b15614180578373ffffffffffffffffffffffffffffffffffffffff1663150b7a026140406131ff565b8786866040518563ffffffff1660e01b815260040161406294939291906153a0565b602060405180830381600087803b15801561407c57600080fd5b505af19250505080156140ad57506040513d601f19601f820116820180604052508101906140aa91906147f9565b60015b614130573d80600081146140dd576040519150601f19603f3d011682016040523d82523d6000602084013e6140e2565b606091505b50600081511415614128576040517f08c379a000000000000000000000000000000000000000000000000000000000815260040161411f906155f3565b60405180910390fd5b805181602001fd5b63150b7a0260e01b7bffffffffffffffffffffffffffffffffffffffffffffffffffffffff1916817bffffffffffffffffffffffffffffffffffffffffffffffffffffffff191614915050614185565b600190505b949350505050565b505050565b61419c8383614200565b6141a96000848484613ff6565b6141e8576040517f08c379a00000000000000000000000000000000000000000000000000000000081526004016141df906155f3565b60405180910390fd5b505050565b600080823b905060008111915050919050565b600073ffffffffffffffffffffffffffffffffffffffff168273ffffffffffffffffffffffffffffffffffffffff161415614270576040517f08c379a000000000000000000000000000000000000000000000000000000000815260040161426790615753565b60405180910390fd5b61427981613271565b156142b9576040517f08c379a00000000000000000000000000000000000000000000000000000000081526004016142b090615633565b60405180910390fd5b6142c56000838361418d565b6001600460008473ffffffffffffffffffffffffffffffffffffffff1673ffffffffffffffffffffffffffffffffffffffff16815260200190815260200160002060008282546143159190615a5e565b92505081905550816003600083815260200190815260200160002060006101000a81548173ffffffffffffffffffffffffffffffffffffffff021916908373ffffffffffffffffffffffffffffffffffffffff160217905550808273ffffffffffffffffffffffffffffffffffffffff16600073ffffffffffffffffffffffffffffffffffffffff167fddf252ad1be2c89b69c2b068fc378daa952ba7f163c4a11628f55a4df523b3ef60405160405180910390a45050565b8280546143da90615bc8565b90600052602060002090601f0160209004810192826143fc5760008555614443565b82601f1061441557805160ff1916838001178555614443565b82800160010185558215614443579182015b82811115614442578251825591602001919060010190614427565b5b5090506144509190614454565b5090565b5b8082111561446d576000816000905550600101614455565b5090565b600061448461447f846158ff565b6158ce565b90508281526020810184848401111561449c57600080fd5b6144a7848285615b5c565b509392505050565b60006144c26144bd8461592f565b6158ce565b9050828152602081018484840111156144da57600080fd5b6144e5848285615b5c565b509392505050565b6000813590506144fc81615ce1565b92915050565b60008135905061451181615cf8565b92915050565b60008135905061452681615d0f565b92915050565b60008151905061453b81615d0f565b92915050565b600082601f83011261455257600080fd5b8135614562848260208601614471565b91505092915050565b600082601f83011261457c57600080fd5b813561458c8482602086016144af565b91505092915050565b6000813590506145a481615d26565b92915050565b6000602082840312156145bc57600080fd5b60006145ca848285016144ed565b91505092915050565b600080604083850312156145e657600080fd5b60006145f4858286016144ed565b9250506020614605858286016144ed565b9150509250929050565b60008060006060848603121561462457600080fd5b6000614632868287016144ed565b9350506020614643868287016144ed565b925050604061465486828701614595565b9150509250925092565b6000806000806080858703121561467457600080fd5b6000614682878288016144ed565b9450506020614693878288016144ed565b93505060406146a487828801614595565b925050606085013567ffffffffffffffff8111156146c157600080fd5b6146cd87828801614541565b91505092959194509250565b600080604083850312156146ec57600080fd5b60006146fa858286016144ed565b925050602061470b85828601614502565b9150509250929050565b60008060006060848603121561472a57600080fd5b6000614738868287016144ed565b935050602084013567ffffffffffffffff81111561475557600080fd5b6147618682870161456b565b925050604084013567ffffffffffffffff81111561477e57600080fd5b61478a8682870161456b565b9150509250925092565b600080604083850312156147a757600080fd5b60006147b5858286016144ed565b92505060206147c685828601614595565b9150509250929050565b6000602082840312156147e257600080fd5b60006147f084828501614517565b91505092915050565b60006020828403121561480b57600080fd5b60006148198482850161452c565b91505092915050565b60006020828403121561483457600080fd5b600082013567ffffffffffffffff81111561484e57600080fd5b61485a8482850161456b565b91505092915050565b60006020828403121561487557600080fd5b600061488384828501614595565b91505092915050565b6000806040838503121561489f57600080fd5b60006148ad85828601614595565b92505060206148be85828601614595565b9150509250929050565b60006148d4838361490c565b60208301905092915050565b60006148ec8383614ab2565b905092915050565b60006149008383615352565b60208301905092915050565b61491581615ae8565b82525050565b61492481615ae8565b82525050565b60006149358261598f565b61493f81856159ed565b935061494a8361595f565b8060005b8381101561497b57815161496288826148c8565b975061496d836159c6565b92505060018101905061494e565b5085935050505092915050565b60006149938261599a565b61499d81856159fe565b9350836020820285016149af8561596f565b8060005b858110156149eb57848403895281516149cc85826148e0565b94506149d7836159d3565b925060208a019950506001810190506149b3565b50829750879550505050505092915050565b6000614a08826159a5565b614a128185615a0f565b9350614a1d8361597f565b8060005b83811015614a4e578151614a3588826148f4565b9750614a40836159e0565b925050600181019050614a21565b5085935050505092915050565b614a6481615afa565b82525050565b614a7381615b06565b82525050565b6000614a84826159b0565b614a8e8185615a20565b9350614a9e818560208601615b6b565b614aa781615cd0565b840191505092915050565b6000614abd826159bb565b614ac78185615a3c565b9350614ad7818560208601615b6b565b614ae081615cd0565b840191505092915050565b6000614af6826159bb565b614b008185615a4d565b9350614b10818560208601615b6b565b614b1981615cd0565b840191505092915050565b6000614b31601f83615a4d565b91507f43616e206e6f7420707572636861736520796f7572206f776e204e4654732e006000830152602082019050919050565b6000614b71602083615a4d565b91507f546f6b656e20646f6573206e6f742062656c6f6e6720746f2073656e6465722e6000830152602082019050919050565b6000614bb1603283615a4d565b91507f4552433732313a207472616e7366657220746f206e6f6e20455243373231526560008301527f63656976657220696d706c656d656e74657200000000000000000000000000006020830152604082019050919050565b6000614c17602683615a4d565b91507f4f776e61626c653a206e6577206f776e657220697320746865207a65726f206160008301527f64647265737300000000000000000000000000000000000000000000000000006020830152604082019050919050565b6000614c7d601c83615a4d565b91507f4552433732313a20746f6b656e20616c7265616479206d696e746564000000006000830152602082019050919050565b6000614cbd602583615a4d565b91507f4e6f7420617574686f72697a656420746f2063616c6c20746869732066756e6360008301527f74696f6e2e0000000000000000000000000000000000000000000000000000006020830152604082019050919050565b6000614d23602483615a4d565b91507f4552433732313a207472616e7366657220746f20746865207a65726f2061646460008301527f72657373000000000000000000000000000000000000000000000000000000006020830152604082019050919050565b6000614d89601983615a4d565b91507f4552433732313a20617070726f766520746f2063616c6c6572000000000000006000830152602082019050919050565b6000614dc9602383615a4d565b91507f4e6f7420746865206f726967696e616c206f776e6572206f662074686973204e60008301527f46542e00000000000000000000000000000000000000000000000000000000006020830152604082019050919050565b6000614e2f602c83615a4d565b91507f4552433732313a206f70657261746f7220717565727920666f72206e6f6e657860008301527f697374656e7420746f6b656e00000000000000000000000000000000000000006020830152604082019050919050565b6000614e95603883615a4d565b91507f4552433732313a20617070726f76652063616c6c6572206973206e6f74206f7760008301527f6e6572206e6f7220617070726f76656420666f7220616c6c00000000000000006020830152604082019050919050565b6000614efb602a83615a4d565b91507f4552433732313a2062616c616e636520717565727920666f7220746865207a6560008301527f726f2061646472657373000000000000000000000000000000000000000000006020830152604082019050919050565b6000614f61602983615a4d565b91507f4552433732313a206f776e657220717565727920666f72206e6f6e657869737460008301527f656e7420746f6b656e00000000000000000000000000000000000000000000006020830152604082019050919050565b6000614fc7602083615a4d565b91507f4552433732313a206d696e7420746f20746865207a65726f20616464726573736000830152602082019050919050565b6000615007602c83615a4d565b91507f4552433732313a20617070726f76656420717565727920666f72206e6f6e657860008301527f697374656e7420746f6b656e00000000000000000000000000000000000000006020830152604082019050919050565b600061506d602083615a4d565b91507f4f776e61626c653a2063616c6c6572206973206e6f7420746865206f776e65726000830152602082019050919050565b60006150ad602983615a4d565b91507f4552433732313a207472616e73666572206f6620746f6b656e2074686174206960008301527f73206e6f74206f776e00000000000000000000000000000000000000000000006020830152604082019050919050565b6000615113602f83615a4d565b91507f4552433732314d657461646174613a2055524920717565727920666f72206e6f60008301527f6e6578697374656e7420746f6b656e00000000000000000000000000000000006020830152604082019050919050565b6000615179601083615a4d565b91507f4e4654206e6f7420666f722073616c65000000000000000000000000000000006000830152602082019050919050565b60006151b9602183615a4d565b91507f4552433732313a20617070726f76616c20746f2063757272656e74206f776e6560008301527f72000000000000000000000000000000000000000000000000000000000000006020830152604082019050919050565b600061521f600083615a31565b9150600082019050919050565b6000615239603183615a4d565b91507f4552433732313a207472616e736665722063616c6c6572206973206e6f74206f60008301527f776e6572206e6f7220617070726f7665640000000000000000000000000000006020830152604082019050919050565b600061529f602083615a4d565b91507f496e73756666696369656e742066756e647320666f722070757263686173652e6000830152602082019050919050565b60006152df601883615a4d565b91507f546f6b656e20494420646f6573206e6f742065786973742e00000000000000006000830152602082019050919050565b600061531f601c83615a4d565b91507f4661696c656420746f2073656e642045544820746f2053656c6c6572000000006000830152602082019050919050565b61535b81615b52565b82525050565b61536a81615b52565b82525050565b600061537b82615212565b9150819050919050565b600060208201905061539a600083018461491b565b92915050565b60006080820190506153b5600083018761491b565b6153c2602083018661491b565b6153cf6040830185615361565b81810360608301526153e18184614a79565b905095945050505050565b6000608082019050615401600083018761491b565b61540e602083018661491b565b61541b6040830185615361565b6154286060830184615361565b95945050505050565b6000608082019050818103600083015261544b81876149fd565b9050818103602083015261545f8186614988565b9050818103604083015261547381856149fd565b90508181036060830152615487818461492a565b905095945050505050565b600060c08201905081810360008301526154ac81896149fd565b905081810360208301526154c081886149fd565b905081810360408301526154d4818761492a565b905081810360608301526154e8818661492a565b905081810360808301526154fc81856149fd565b905081810360a083015261551081846149fd565b9050979650505050505050565b60006020820190506155326000830184614a5b565b92915050565b600060208201905061554d6000830184614a6a565b92915050565b6000602082019050818103600083015261556d8184614aeb565b905092915050565b6000606082019050818103600083015261558f8186614aeb565b905061559e6020830185615361565b6155ab604083018461491b565b949350505050565b600060208201905081810360008301526155cc81614b24565b9050919050565b600060208201905081810360008301526155ec81614b64565b9050919050565b6000602082019050818103600083015261560c81614ba4565b9050919050565b6000602082019050818103600083015261562c81614c0a565b9050919050565b6000602082019050818103600083015261564c81614c70565b9050919050565b6000602082019050818103600083015261566c81614cb0565b9050919050565b6000602082019050818103600083015261568c81614d16565b9050919050565b600060208201905081810360008301526156ac81614d7c565b9050919050565b600060208201905081810360008301526156cc81614dbc565b9050919050565b600060208201905081810360008301526156ec81614e22565b9050919050565b6000602082019050818103600083015261570c81614e88565b9050919050565b6000602082019050818103600083015261572c81614eee565b9050919050565b6000602082019050818103600083015261574c81614f54565b9050919050565b6000602082019050818103600083015261576c81614fba565b9050919050565b6000602082019050818103600083015261578c81614ffa565b9050919050565b600060208201905081810360008301526157ac81615060565b9050919050565b600060208201905081810360008301526157cc816150a0565b9050919050565b600060208201905081810360008301526157ec81615106565b9050919050565b6000602082019050818103600083015261580c8161516c565b9050919050565b6000602082019050818103600083015261582c816151ac565b9050919050565b6000602082019050818103600083015261584c8161522c565b9050919050565b6000602082019050818103600083015261586c81615292565b9050919050565b6000602082019050818103600083015261588c816152d2565b9050919050565b600060208201905081810360008301526158ac81615312565b9050919050565b60006020820190506158c86000830184615361565b92915050565b6000604051905081810181811067ffffffffffffffff821117156158f5576158f4615ca1565b5b8060405250919050565b600067ffffffffffffffff82111561591a57615919615ca1565b5b601f19601f8301169050602081019050919050565b600067ffffffffffffffff82111561594a57615949615ca1565b5b601f19601f8301169050602081019050919050565b6000819050602082019050919050565b6000819050602082019050919050565b6000819050602082019050919050565b600081519050919050565b600081519050919050565b600081519050919050565b600081519050919050565b600081519050919050565b6000602082019050919050565b6000602082019050919050565b6000602082019050919050565b600082825260208201905092915050565b600082825260208201905092915050565b600082825260208201905092915050565b600082825260208201905092915050565b600081905092915050565b600082825260208201905092915050565b600082825260208201905092915050565b6000615a6982615b52565b9150615a7483615b52565b9250827fffffffffffffffffffffffffffffffffffffffffffffffffffffffffffffffff03821115615aa957615aa8615c43565b5b828201905092915050565b6000615abf82615b52565b9150615aca83615b52565b925082821015615add57615adc615c43565b5b828203905092915050565b6000615af382615b32565b9050919050565b60008115159050919050565b60007fffffffff0000000000000000000000000000000000000000000000000000000082169050919050565b600073ffffffffffffffffffffffffffffffffffffffff82169050919050565b6000819050919050565b82818337600083830152505050565b60005b83811015615b89578082015181840152602081019050615b6e565b83811115615b98576000848401525b50505050565b6000615ba982615b52565b91506000821415615bbd57615bbc615c43565b5b600182039050919050565b60006002820490506001821680615be057607f821691505b60208210811415615bf457615bf3615c72565b5b50919050565b6000615c0582615b52565b91507fffffffffffffffffffffffffffffffffffffffffffffffffffffffffffffffff821415615c3857615c37615c43565b5b600182019050919050565b7f4e487b7100000000000000000000000000000000000000000000000000000000600052601160045260246000fd5b7f4e487b7100000000000000000000000000000000000000000000000000000000600052602260045260246000fd5b7f4e487b7100000000000000000000000000000000000000000000000000000000600052604160045260246000fd5b6000601f19601f8301169050919050565b615cea81615ae8565b8114615cf557600080fd5b50565b615d0181615afa565b8114615d0c57600080fd5b50565b615d1881615b06565b8114615d2357600080fd5b50565b615d2f81615b52565b8114615d3a57600080fd5b5056fea264697066735822122071633db495b18fe054042c9de1143acabd6d536a29c2c8ba81257b02077b86de64736f6c63430008000033687474703a2f2f35342e3135332e3138322e31333a333939382f6170692f6e66742f",
  "immutableReferences": {},
  "source": "// SPDX-License-Identifier: MIT\n\npragma solidity ^0.8.0;\n\nimport \"@openzeppelin/contracts/access/Ownable.sol\";\nimport \"@openzeppelin/contracts/token/ERC721/ERC721.sol\";\nimport \"@openzeppelin/contracts/token/ERC721/IERC721Receiver.sol\";\n\ncontract AuxiunNFT is Ownable, ERC721, IERC721Receiver {\n\n    struct Metadata {\n        string game_id;\n        string item_id;\n    }\n\n    struct MarketDetails {\n        bool forSale;\n        uint256 price;\n        address seller;\n    }\n\n    struct TransactionHistory {\n        uint256 tokenId;\n        address buyer;\n        address seller;\n        uint256 price;\n        uint256 timestamp;\n    }\n\n    // mapping of tokenId to market details\n    mapping(uint256 => MarketDetails) id_to_marketDetails;\n\n    // mapping of tokenId to metadata\n    mapping(uint256 => Metadata) id_to_metadata;\n\n    // array which stores all transaction data\n    TransactionHistory[] transactionHistory;\n\n    // transactionHistory counter for addresses to determine the multicall memory array size\n    mapping(address => uint256) transactionHistoryCount;\n\n    // list of admin addresses authorized to mint tokens\n    mapping(address => bool) admins;\n\n    // Base URI, aka API link to fetch further metadata of the token\n    string private baseURI;\n\n    // Used as tokenId for a newly minted token and increases by 1\n    uint256 private tokenIdCounter = 0;\n\n    // Number of NFTs on market (Maybe for future use)\n    uint256 NFTsOnMarket = 0;\n\n \n    constructor() ERC721(\"AuxiunNFT\", \"AUXN\") {\n        // TODO: Setup database api server and set the link here, remember to add the \"/\" at the end of the uri\n        baseURI = \"http://54.153.182.13:3998/api/nft/\";\n    }\n\n    function _baseURI() internal view virtual override returns (string memory) {\n        return baseURI;\n    }\n\n    function setBaseURI(string memory inputbaseURI) public onlyOwner {\n        baseURI = inputbaseURI;\n    }\n\n    // function standard called by NFT marketplaces such as OpenSea\n    function tokenURI(uint256 tokenId)\n        public\n        view\n        virtual\n        override\n        returns (string memory)\n    {\n        require(_exists(tokenId), \"ERC721Metadata: URI query for nonexistent token\");\n        return strConcat(_baseURI(), id_to_metadata[tokenId].game_id, \"/\", id_to_metadata[tokenId].item_id, \"\");\n    }\n\n    function mint(address to, string memory game_id, string memory item_id) external {\n        require(admins[msg.sender], \"Not authorized to call this function.\");\n        uint256 tokenId = tokenIdCounter;\n        tokenIdCounter++;\n        id_to_metadata[tokenId] = Metadata(game_id, item_id);\n        _safeMint(to, tokenId);\n    }\n\n    // functions to handle admins array\n    function addAdminAddress(address _address) external onlyOwner() {\n        admins[_address] = true;\n    }\n\n    function removeAdminAddress(address _address) external onlyOwner() {\n        admins[_address] = false;\n    }\n\n    function isAdminAddress(address _address) external view returns (bool) {\n        return admins[_address];\n    }\n\n    // String concatenation function\n    // original source: https://github.com/provable-things/ethereum-api/blob/master/oraclizeAPI_0.5.sol\n    // stack overflow topic: https://ethereum.stackexchange.com/questions/729/how-to-concatenate-strings-in-solidity\n    // Notes: reduce the parameters if necessary\n    function strConcat(string memory _a, string memory _b, string memory _c, string memory _d, string memory _e) internal pure returns (string memory){\n        bytes memory _ba = bytes(_a);\n        bytes memory _bb = bytes(_b);\n        bytes memory _bc = bytes(_c);\n        bytes memory _bd = bytes(_d);\n        bytes memory _be = bytes(_e);\n        string memory abcde = new string(_ba.length + _bb.length + _bc.length + _bd.length + _be.length);\n        bytes memory babcde = bytes(abcde);\n        uint k = 0;\n        for (uint i = 0; i < _ba.length; i++) babcde[k++] = _ba[i];\n        for (uint i = 0; i < _bb.length; i++) babcde[k++] = _bb[i];\n        for (uint i = 0; i < _bc.length; i++) babcde[k++] = _bc[i];\n        for (uint i = 0; i < _bd.length; i++) babcde[k++] = _bd[i];\n        for (uint i = 0; i < _be.length; i++) babcde[k++] = _be[i];\n        return string(babcde);\n    }\n\n    // Modifers\n    modifier tokenExists(uint256 tokenId) {\n        require(_exists(tokenId), \"Token ID does not exist.\");\n        _;\n    }\n\n    modifier belongsToSender(uint256 tokenId){\n        require(ownerOf(tokenId) == msg.sender, \"Token does not belong to sender.\");\n        _;\n    }\n\n    // Helper Functions for NFTs on the market.\n    function _removeNFTfromMarket(uint tokenId) private tokenExists(tokenId) {\n        id_to_marketDetails[tokenId] = MarketDetails(false, 0, address(0));\n        NFTsOnMarket--;\n    }\n  \n\n    // Functions for market place interactions.\n    function listNFTOnMarket(uint256 tokenId, uint256 price) external payable tokenExists(tokenId) belongsToSender(tokenId){\n        id_to_marketDetails[tokenId] = MarketDetails(true, price, msg.sender);\n        NFTsOnMarket++;\n\n        // transfer ownership of tokenId to this contract\n        _safeTransfer(msg.sender, address(this), tokenId, \"\");\n    }\n\n    function removeNFTFromMarket(uint256 tokenId) external tokenExists(tokenId) {\n        require(id_to_marketDetails[tokenId].seller == msg.sender, \"Not the original owner of this NFT.\");\n        _removeNFTfromMarket(tokenId);\n\n        // transfer token back to owner\n        _safeTransfer(address(this), msg.sender, tokenId, \"\");\n    }\n\n\n   // Source: https://ethereum.stackexchange.com/questions/19341/address-send-vs-address-transfer-best-practice-usage/74007#74007\n    function purchaseNFT(uint256 tokenId) public payable tokenExists(tokenId) returns(address, address, uint256, uint256) {\n        require(id_to_marketDetails[tokenId].seller != msg.sender, \"Can not purchase your own NFTs.\");\n        require(id_to_marketDetails[tokenId].forSale, \"NFT not for sale\");\n        require(id_to_marketDetails[tokenId].price <= msg.value, \"Insufficient funds for purchase.\");\n\n        // Get seller Id\n        address seller = id_to_marketDetails[tokenId].seller;\n\n        // Get amount sent\n        uint256 amount = msg.value;\n\n        // Get buyer address\n        address buyer = msg.sender;\n        \n        // get price\n        uint256 price = id_to_marketDetails[tokenId].price;\n\n\n        // Remove NFT from market - do this before transferring ETH to prevent reentrancy\n        _removeNFTfromMarket(tokenId);\n\n        // Transfer fund from NFT buyer to NFT Seller\n        (bool success, ) =  seller.call{value: msg.value}(\"\");\n        require(success, \"Failed to send ETH to Seller\");\n\n        // Transfer token to buyer\n        _safeTransfer(address(this), msg.sender, tokenId, \"\");\n\n        // push transaction data into transactionHistory\n        transactionHistory.push(TransactionHistory(tokenId, msg.sender, seller, price, block.timestamp));\n\n        // increase transactionHistoryCount for both buyer and seller\n        transactionHistoryCount[msg.sender]++;\n        transactionHistoryCount[seller]++;\n        \n        // Return some info about the transfer\n        return (buyer, seller, tokenId, amount);\n    }\n \n    // returns an array of token ids which are listed as forSale\n    function _fetchTokenIdsOnMarket() internal view returns(uint256[] memory) {\n        // initialize result's array length\n        uint256[] memory result = new uint256[](NFTsOnMarket);\n        // for loop to fetch all tokenIds where id_to_marketDetails[i].forSale == true\n        uint256 counter = 0;\n        for (uint256 i = 0; i < tokenIdCounter; i++) {\n            // only tokenIds which are for sale will be pushed into the result array\n            if (id_to_marketDetails[i].forSale) {\n                result[counter] = i;\n                counter++;\n            }\n        }\n        return result;\n    }\n\n    // fetch by order: tokenURI, token price, token seller's address\n    function fetchNFTDataById(uint256 tokenId) external view returns(string memory, uint256, address) {\n        return (tokenURI(tokenId), id_to_marketDetails[tokenId].price, id_to_marketDetails[tokenId].seller);\n    }\n\n    /**\n    * Multicall function to fetch all NFTs listed for sale on the market\n    * Returns 4 arrays of all tokens for sale which are:\n    * 1. array of tokenIds\n    * 2. array of tokenURIs\n    * 3. array of token prices\n    * 4. array of token sellers\n    */\n    function multiCallNFTsOnMarket() external view returns(uint256[] memory, string[] memory, uint256[] memory, address[] memory) {\n        // initialize tokenIds' array length\n        uint256[] memory tokenIds = new uint256[](NFTsOnMarket);\n        // fetch the tokenIds on the market\n        tokenIds = _fetchTokenIdsOnMarket();\n\n        // initialize array for tokenURIs, prices and sellers\n        string[] memory tokenURIs = new string[](NFTsOnMarket);\n        uint256[] memory tokenPrices = new uint256[](NFTsOnMarket);\n        address[] memory tokenSellers = new address[](NFTsOnMarket);\n\n        // for loop to fetch all data of tokenIds and push into the 3 arrays\n        for (uint256 i = 0; i < NFTsOnMarket; i++) {\n            tokenURIs[i] = tokenURI(tokenIds[i]);\n            tokenPrices[i] = id_to_marketDetails[tokenIds[i]].price;\n            tokenSellers[i] = id_to_marketDetails[tokenIds[i]].seller;\n        }\n        \n        return (tokenIds, tokenURIs, tokenPrices, tokenSellers);\n    }\n\n    // overloaded Multicall function to fetch NFTs listed on sale for a specific user's address\n    function multiCallNFTsOnMarket(address seller) external view returns(uint256[] memory, string[] memory, uint256[] memory, address[] memory) {\n        // initialize tokenIds' array length\n        uint256[] memory tokenIds = new uint256[](balanceOf(seller));\n        // fetch the tokenIds on the market\n        tokenIds = _fetchTokenIdsOnMarket();\n\n        // initialize array for tokenURIs, prices and sellers\n        string[] memory tokenURIs = new string[](balanceOf(seller));\n        uint256[] memory tokenPrices = new uint256[](balanceOf(seller));\n        address[] memory tokenSellers = new address[](balanceOf(seller));\n\n        // for loop to fetch all data of tokenIds and push into the 3 arrays\n        uint256 counter = 0;\n        for (uint256 i = 0; i < NFTsOnMarket; i++) {\n            if (seller == ownerOf(tokenIds[i])) {\n                tokenURIs[counter] = tokenURI(tokenIds[i]);\n                tokenPrices[counter] = id_to_marketDetails[tokenIds[i]].price;\n                tokenSellers[counter] = id_to_marketDetails[tokenIds[i]].seller;\n                counter++;\n            }\n        }\n        return (tokenIds, tokenURIs, tokenPrices, tokenSellers);\n    }\n\n    // Multicall functions to fetch transaction data\n    // fetch transaction data by user's address\n    function multiCallTransactionDataByUser(address user) external view returns(uint256[] memory, uint256[] memory, address[] memory, address[] memory, uint256[] memory, uint256[] memory) {\n        // initialize array for tokenURIs, prices and sellers\n        uint256[] memory transactionIds = new uint256[](transactionHistoryCount[user]);\n        uint256[] memory tokenIds = new uint256[](transactionHistoryCount[user]);\n        address[] memory buyers = new address[](transactionHistoryCount[user]);\n        address[] memory sellers = new address[](transactionHistoryCount[user]);\n        uint256[] memory prices = new uint256[](transactionHistoryCount[user]);\n        uint256[] memory timestamps = new uint256[](transactionHistoryCount[user]);\n        // transactionType = true: it is a buy transaction for the user\n        // transacitonType = false: it is a sell transaction for the user\n        // bool[] memory transactionType = new bool[](transactionHistoryCount[user]);\n\n        // for loop to fetch all data of tokenIds and push into the 3 arrays\n        uint256 counter = 0;\n        for (uint256 i = 0; i < transactionHistory.length; i++) {\n            if (user == transactionHistory[i].buyer || user == transactionHistory[i].seller) {\n                transactionIds[counter] = i;\n                tokenIds[counter] = transactionHistory[i].tokenId;\n                buyers[counter] = transactionHistory[i].buyer;\n                sellers[counter] = transactionHistory[i].seller;\n                prices[counter] = transactionHistory[i].price;\n                timestamps[counter] = transactionHistory[i].timestamp;\n\n                // determine transactionType\n                // if (user == transactionHistory[i].buyer) {\n                //     transactionType[counter] = true;\n                // }\n                // else {\n                //     transactionType[counter] = false;\n                // }\n                counter++;\n            }\n        }\n        return (transactionIds, tokenIds, buyers, sellers, prices, timestamps);\n    }\n\n    function kill() public onlyOwner {\n        selfdestruct(payable(owner()));\n    }\n\n    receive() external payable {\n        // this function enables the contract to receive funds\n        // Nothing needed here\n    }\n\n    /** Needed for calling safeTransferFrom */\n    function onERC721Received(address, address, uint256, bytes memory) public virtual override returns (bytes4) {\n        return this.onERC721Received.selector;\n    }\n}\n",
  "sourcePath": "/home/daem0n/capstone/Auxiun-contracts/contracts/AuxiunNFT.sol",
  "compiler": {
    "name": "solc",
    "version": "0.8.0+commit.c7dfd78e.Emscripten.clang"
  },
  "schemaVersion": "3.4.2",
  "updatedAt": "2021-08-11T07:00:18.166Z",
  "devdoc": {
    "kind": "dev",
    "methods": {
      "approve(address,uint256)": {
        "details": "See {IERC721-approve}."
      },
      "balanceOf(address)": {
        "details": "See {IERC721-balanceOf}."
      },
      "getApproved(uint256)": {
        "details": "See {IERC721-getApproved}."
      },
      "isApprovedForAll(address,address)": {
        "details": "See {IERC721-isApprovedForAll}."
      },
      "name()": {
        "details": "See {IERC721Metadata-name}."
      },
      "owner()": {
        "details": "Returns the address of the current owner."
      },
      "ownerOf(uint256)": {
        "details": "See {IERC721-ownerOf}."
      },
      "renounceOwnership()": {
        "details": "Leaves the contract without owner. It will not be possible to call `onlyOwner` functions anymore. Can only be called by the current owner. NOTE: Renouncing ownership will leave the contract without an owner, thereby removing any functionality that is only available to the owner."
      },
      "safeTransferFrom(address,address,uint256)": {
        "details": "See {IERC721-safeTransferFrom}."
      },
      "safeTransferFrom(address,address,uint256,bytes)": {
        "details": "See {IERC721-safeTransferFrom}."
      },
      "setApprovalForAll(address,bool)": {
        "details": "See {IERC721-setApprovalForAll}."
      },
      "supportsInterface(bytes4)": {
        "details": "See {IERC165-supportsInterface}."
      },
      "symbol()": {
        "details": "See {IERC721Metadata-symbol}."
      },
      "tokenURI(uint256)": {
        "details": "See {IERC721Metadata-tokenURI}."
      },
      "transferFrom(address,address,uint256)": {
        "details": "See {IERC721-transferFrom}."
      },
      "transferOwnership(address)": {
        "details": "Transfers ownership of the contract to a new account (`newOwner`). Can only be called by the current owner."
      }
    },
    "version": 1
  },
  "userdoc": {
    "kind": "user",
    "methods": {
      "multiCallNFTsOnMarket()": {
        "notice": "Multicall function to fetch all NFTs listed for sale on the market Returns 4 arrays of all tokens for sale which are: 1. array of tokenIds 2. array of tokenURIs 3. array of token prices 4. array of token sellers"
      },
      "onERC721Received(address,address,uint256,bytes)": {
        "notice": "Needed for calling safeTransferFrom "
      }
    },
    "version": 1
  }
}