{
  "contractName": "AuxiunNFTMulticall",
  "abi": [
    {
      "inputs": [
        {
          "internalType": "address",
          "name": "_address",
          "type": "address"
        }
      ],
      "name": "setNFTContractAddress",
      "outputs": [],
      "stateMutability": "nonpayable",
      "type": "function"
    },
    {
      "inputs": [
        {
          "internalType": "address",
          "name": "_address",
          "type": "address"
        }
      ],
      "name": "multiCallNFTsOwnedByAddress",
      "outputs": [
        {
          "internalType": "uint256[]",
          "name": "",
          "type": "uint256[]"
        },
        {
          "internalType": "string[]",
          "name": "",
          "type": "string[]"
        }
      ],
      "stateMutability": "view",
      "type": "function"
    },
    {
      "inputs": [
        {
          "internalType": "address",
          "name": "seller",
          "type": "address"
        }
      ],
      "name": "multiCallNFTsOnMarket",
      "outputs": [
        {
          "internalType": "uint256[]",
          "name": "",
          "type": "uint256[]"
        },
        {
          "internalType": "string[]",
          "name": "",
          "type": "string[]"
        },
        {
          "internalType": "uint256[]",
          "name": "",
          "type": "uint256[]"
        },
        {
          "internalType": "address[]",
          "name": "",
          "type": "address[]"
        }
      ],
      "stateMutability": "view",
      "type": "function"
    },
    {
      "inputs": [],
      "name": "multiCallNFTsOnMarket",
      "outputs": [
        {
          "internalType": "uint256[]",
          "name": "",
          "type": "uint256[]"
        },
        {
          "internalType": "string[]",
          "name": "",
          "type": "string[]"
        },
        {
          "internalType": "uint256[]",
          "name": "",
          "type": "uint256[]"
        },
        {
          "internalType": "address[]",
          "name": "",
          "type": "address[]"
        }
      ],
      "stateMutability": "view",
      "type": "function"
    },
    {
      "inputs": [
        {
          "internalType": "address",
          "name": "user",
          "type": "address"
        }
      ],
      "name": "multiCallTransactionDataByUserV2",
      "outputs": [
        {
          "internalType": "uint256[]",
          "name": "",
          "type": "uint256[]"
        },
        {
          "internalType": "address[]",
          "name": "",
          "type": "address[]"
        },
        {
          "internalType": "address[]",
          "name": "",
          "type": "address[]"
        },
        {
          "internalType": "uint256[]",
          "name": "",
          "type": "uint256[]"
        },
        {
          "internalType": "uint256[]",
          "name": "",
          "type": "uint256[]"
        },
        {
          "internalType": "bool[]",
          "name": "",
          "type": "bool[]"
        }
      ],
      "stateMutability": "view",
      "type": "function"
    }
  ],
  "bytecode": "0x608060405234801561001057600080fd5b50613939806100206000396000f3fe608060405234801561001057600080fd5b50600436106100575760003560e01c80630bef47b61461005c57806323949cd1146100915780637bb73563146100ad5780637e20b6ea146100e0578063fc510fab14610101575b600080fd5b6100766004803603810190610071919061308a565b610132565b60405161008896959493929190613496565b60405180910390f35b6100ab60048036038101906100a6919061308a565b610186565b005b6100c760048036038101906100c2919061308a565b6101c9565b6040516100d79493929190613558565b60405180910390f35b6100e8610a4b565b6040516100f89493929190613558565b60405180910390f35b61011b6004803603810190610116919061308a565b61125b565b604051610129929190613521565b60405180910390f35b6060806060806060806101448761179b565b61014d88611b00565b61015689611e93565b61015f8a612226565b6101688b61258e565b6101718c6128f7565b95509550955095509550955091939550919395565b806000806101000a81548173ffffffffffffffffffffffffffffffffffffffff021916908373ffffffffffffffffffffffffffffffffffffffff16021790555050565b60608060608060008060009054906101000a900473ffffffffffffffffffffffffffffffffffffffff1673ffffffffffffffffffffffffffffffffffffffff1663c4e2152b876040518263ffffffff1660e01b815260040161022b919061347b565b60206040518083038186803b15801561024357600080fd5b505afa158015610257573d6000803e3d6000fd5b505050506040513d601f19601f8201168201806040525081019061027b919061316c565b67ffffffffffffffff8111156102ba577f4e487b7100000000000000000000000000000000000000000000000000000000600052604160045260246000fd5b6040519080825280602002602001820160405280156102e85781602001602082028036833780820191505090505b5090506102f3612ce7565b905060008060009054906101000a900473ffffffffffffffffffffffffffffffffffffffff1673ffffffffffffffffffffffffffffffffffffffff1663c4e2152b886040518263ffffffff1660e01b8152600401610351919061347b565b60206040518083038186803b15801561036957600080fd5b505afa15801561037d573d6000803e3d6000fd5b505050506040513d601f19601f820116820180604052508101906103a1919061316c565b67ffffffffffffffff8111156103e0577f4e487b7100000000000000000000000000000000000000000000000000000000600052604160045260246000fd5b60405190808252806020026020018201604052801561041357816020015b60608152602001906001900390816103fe5790505b50905060008060009054906101000a900473ffffffffffffffffffffffffffffffffffffffff1673ffffffffffffffffffffffffffffffffffffffff1663c4e2152b896040518263ffffffff1660e01b8152600401610472919061347b565b60206040518083038186803b15801561048a57600080fd5b505afa15801561049e573d6000803e3d6000fd5b505050506040513d601f19601f820116820180604052508101906104c2919061316c565b67ffffffffffffffff811115610501577f4e487b7100000000000000000000000000000000000000000000000000000000600052604160045260246000fd5b60405190808252806020026020018201604052801561052f5781602001602082028036833780820191505090505b50905060008060009054906101000a900473ffffffffffffffffffffffffffffffffffffffff1673ffffffffffffffffffffffffffffffffffffffff1663c4e2152b8a6040518263ffffffff1660e01b815260040161058e919061347b565b60206040518083038186803b1580156105a657600080fd5b505afa1580156105ba573d6000803e3d6000fd5b505050506040513d601f19601f820116820180604052508101906105de919061316c565b67ffffffffffffffff81111561061d577f4e487b7100000000000000000000000000000000000000000000000000000000600052604160045260246000fd5b60405190808252806020026020018201604052801561064b5781602001602082028036833780820191505090505b5090506000805b60008054906101000a900473ffffffffffffffffffffffffffffffffffffffff1673ffffffffffffffffffffffffffffffffffffffff16636e0668306040518163ffffffff1660e01b815260040160206040518083038186803b1580156106b857600080fd5b505afa1580156106cc573d6000803e3d6000fd5b505050506040513d601f19601f820116820180604052508101906106f0919061316c565b811015610a325760008060008054906101000a900473ffffffffffffffffffffffffffffffffffffffff1673ffffffffffffffffffffffffffffffffffffffff166311e6820a89858151811061076f577f4e487b7100000000000000000000000000000000000000000000000000000000600052603260045260246000fd5b60200260200101516040518263ffffffff1660e01b815260040161079391906135b9565b60606040518083038186803b1580156107ab57600080fd5b505afa1580156107bf573d6000803e3d6000fd5b505050506040513d601f19601f820116820180604052508101906107e391906130dc565b90915080925081935050508073ffffffffffffffffffffffffffffffffffffffff168d73ffffffffffffffffffffffffffffffffffffffff161415610a1d5760008054906101000a900473ffffffffffffffffffffffffffffffffffffffff1673ffffffffffffffffffffffffffffffffffffffff1663c87b56dd898581518110610897577f4e487b7100000000000000000000000000000000000000000000000000000000600052603260045260246000fd5b60200260200101516040518263ffffffff1660e01b81526004016108bb91906135b9565b60006040518083038186803b1580156108d357600080fd5b505afa1580156108e7573d6000803e3d6000fd5b505050506040513d6000823e3d601f19601f82011682018060405250810190610910919061312b565b878581518110610949577f4e487b7100000000000000000000000000000000000000000000000000000000600052603260045260246000fd5b60200260200101819052508186858151811061098e577f4e487b7100000000000000000000000000000000000000000000000000000000600052603260045260246000fd5b602002602001018181525050808585815181106109d4577f4e487b7100000000000000000000000000000000000000000000000000000000600052603260045260246000fd5b602002602001019073ffffffffffffffffffffffffffffffffffffffff16908173ffffffffffffffffffffffffffffffffffffffff16815250508380610a1990613806565b9450505b50508080610a2a90613806565b915050610652565b5084848484985098509850985050505050509193509193565b60608060608060008060009054906101000a900473ffffffffffffffffffffffffffffffffffffffff1673ffffffffffffffffffffffffffffffffffffffff16636e0668306040518163ffffffff1660e01b815260040160206040518083038186803b158015610aba57600080fd5b505afa158015610ace573d6000803e3d6000fd5b505050506040513d601f19601f82011682018060405250810190610af2919061316c565b67ffffffffffffffff811115610b31577f4e487b7100000000000000000000000000000000000000000000000000000000600052604160045260246000fd5b604051908082528060200260200182016040528015610b5f5781602001602082028036833780820191505090505b509050610b6a612ce7565b905060008060009054906101000a900473ffffffffffffffffffffffffffffffffffffffff1673ffffffffffffffffffffffffffffffffffffffff16636e0668306040518163ffffffff1660e01b815260040160206040518083038186803b158015610bd557600080fd5b505afa158015610be9573d6000803e3d6000fd5b505050506040513d601f19601f82011682018060405250810190610c0d919061316c565b67ffffffffffffffff811115610c4c577f4e487b7100000000000000000000000000000000000000000000000000000000600052604160045260246000fd5b604051908082528060200260200182016040528015610c7f57816020015b6060815260200190600190039081610c6a5790505b50905060008060009054906101000a900473ffffffffffffffffffffffffffffffffffffffff1673ffffffffffffffffffffffffffffffffffffffff16636e0668306040518163ffffffff1660e01b815260040160206040518083038186803b158015610ceb57600080fd5b505afa158015610cff573d6000803e3d6000fd5b505050506040513d601f19601f82011682018060405250810190610d23919061316c565b67ffffffffffffffff811115610d62577f4e487b7100000000000000000000000000000000000000000000000000000000600052604160045260246000fd5b604051908082528060200260200182016040528015610d905781602001602082028036833780820191505090505b50905060008060009054906101000a900473ffffffffffffffffffffffffffffffffffffffff1673ffffffffffffffffffffffffffffffffffffffff16636e0668306040518163ffffffff1660e01b815260040160206040518083038186803b158015610dfc57600080fd5b505afa158015610e10573d6000803e3d6000fd5b505050506040513d601f19601f82011682018060405250810190610e34919061316c565b67ffffffffffffffff811115610e73577f4e487b7100000000000000000000000000000000000000000000000000000000600052604160045260246000fd5b604051908082528060200260200182016040528015610ea15781602001602082028036833780820191505090505b50905060005b60008054906101000a900473ffffffffffffffffffffffffffffffffffffffff1673ffffffffffffffffffffffffffffffffffffffff16636e0668306040518163ffffffff1660e01b815260040160206040518083038186803b158015610f0d57600080fd5b505afa158015610f21573d6000803e3d6000fd5b505050506040513d601f19601f82011682018060405250810190610f45919061316c565b8110156112445760008060008054906101000a900473ffffffffffffffffffffffffffffffffffffffff1673ffffffffffffffffffffffffffffffffffffffff166311e6820a888581518110610fc4577f4e487b7100000000000000000000000000000000000000000000000000000000600052603260045260246000fd5b60200260200101516040518263ffffffff1660e01b8152600401610fe891906135b9565b60606040518083038186803b15801561100057600080fd5b505afa158015611014573d6000803e3d6000fd5b505050506040513d601f19601f8201168201806040525081019061103891906130dc565b909150809250819350505060008054906101000a900473ffffffffffffffffffffffffffffffffffffffff1673ffffffffffffffffffffffffffffffffffffffff1663c87b56dd8885815181106110b8577f4e487b7100000000000000000000000000000000000000000000000000000000600052603260045260246000fd5b60200260200101516040518263ffffffff1660e01b81526004016110dc91906135b9565b60006040518083038186803b1580156110f457600080fd5b505afa158015611108573d6000803e3d6000fd5b505050506040513d6000823e3d601f19601f82011682018060405250810190611131919061312b565b86848151811061116a577f4e487b7100000000000000000000000000000000000000000000000000000000600052603260045260246000fd5b6020026020010181905250818584815181106111af577f4e487b7100000000000000000000000000000000000000000000000000000000600052603260045260246000fd5b602002602001018181525050808484815181106111f5577f4e487b7100000000000000000000000000000000000000000000000000000000600052603260045260246000fd5b602002602001019073ffffffffffffffffffffffffffffffffffffffff16908173ffffffffffffffffffffffffffffffffffffffff16815250505050808061123c90613806565b915050610ea7565b508383838397509750975097505050505090919293565b60608060008060009054906101000a900473ffffffffffffffffffffffffffffffffffffffff1673ffffffffffffffffffffffffffffffffffffffff166370a08231856040518263ffffffff1660e01b81526004016112ba919061347b565b60206040518083038186803b1580156112d257600080fd5b505afa1580156112e6573d6000803e3d6000fd5b505050506040513d601f19601f8201168201806040525081019061130a919061316c565b67ffffffffffffffff811115611349577f4e487b7100000000000000000000000000000000000000000000000000000000600052604160045260246000fd5b6040519080825280602002602001820160405280156113775781602001602082028036833780820191505090505b50905060008060009054906101000a900473ffffffffffffffffffffffffffffffffffffffff1673ffffffffffffffffffffffffffffffffffffffff166370a08231866040518263ffffffff1660e01b81526004016113d6919061347b565b60206040518083038186803b1580156113ee57600080fd5b505afa158015611402573d6000803e3d6000fd5b505050506040513d601f19601f82011682018060405250810190611426919061316c565b67ffffffffffffffff811115611465577f4e487b7100000000000000000000000000000000000000000000000000000000600052604160045260246000fd5b60405190808252806020026020018201604052801561149857816020015b60608152602001906001900390816114835790505b5090506000600160008054906101000a900473ffffffffffffffffffffffffffffffffffffffff1673ffffffffffffffffffffffffffffffffffffffff166398bdf6f56040518163ffffffff1660e01b815260040160206040518083038186803b15801561150557600080fd5b505afa158015611519573d6000803e3d6000fd5b505050506040513d601f19601f8201168201806040525081019061153d919061316c565b6115479190613735565b90506000805b8281101561178b5760008054906101000a900473ffffffffffffffffffffffffffffffffffffffff1673ffffffffffffffffffffffffffffffffffffffff16636352211e826040518263ffffffff1660e01b81526004016115ae91906135b9565b60206040518083038186803b1580156115c657600080fd5b505afa1580156115da573d6000803e3d6000fd5b505050506040513d601f19601f820116820180604052508101906115fe91906130b3565b73ffffffffffffffffffffffffffffffffffffffff168873ffffffffffffffffffffffffffffffffffffffff161415611778578085838151811061166b577f4e487b7100000000000000000000000000000000000000000000000000000000600052603260045260246000fd5b60200260200101818152505060008054906101000a900473ffffffffffffffffffffffffffffffffffffffff1673ffffffffffffffffffffffffffffffffffffffff1663c87b56dd826040518263ffffffff1660e01b81526004016116d091906135b9565b60006040518083038186803b1580156116e857600080fd5b505afa1580156116fc573d6000803e3d6000fd5b505050506040513d6000823e3d601f19601f82011682018060405250810190611725919061312b565b84838151811061175e577f4e487b7100000000000000000000000000000000000000000000000000000000600052603260045260246000fd5b6020026020010181905250818061177490613806565b9250505b808061178390613806565b91505061154d565b5083839550955050505050915091565b606060008060009054906101000a900473ffffffffffffffffffffffffffffffffffffffff1673ffffffffffffffffffffffffffffffffffffffff1663b7cde641846040518263ffffffff1660e01b81526004016117f9919061347b565b60206040518083038186803b15801561181157600080fd5b505afa158015611825573d6000803e3d6000fd5b505050506040513d601f19601f82011682018060405250810190611849919061316c565b67ffffffffffffffff811115611888577f4e487b7100000000000000000000000000000000000000000000000000000000600052604160045260246000fd5b6040519080825280602002602001820160405280156118b65781602001602082028036833780820191505090505b5090506000805b60008054906101000a900473ffffffffffffffffffffffffffffffffffffffff1673ffffffffffffffffffffffffffffffffffffffff16639f71c3c96040518163ffffffff1660e01b815260040160206040518083038186803b15801561192357600080fd5b505afa158015611937573d6000803e3d6000fd5b505050506040513d601f19601f8201168201806040525081019061195b919061316c565b811015611af55760008060008060009054906101000a900473ffffffffffffffffffffffffffffffffffffffff1673ffffffffffffffffffffffffffffffffffffffff1663243e7a87856040518263ffffffff1660e01b81526004016119c191906135b9565b60a06040518083038186803b1580156119d957600080fd5b505afa1580156119ed573d6000803e3d6000fd5b505050506040513d601f19601f82011682018060405250810190611a119190613195565b9050508093508194508295505050508173ffffffffffffffffffffffffffffffffffffffff168873ffffffffffffffffffffffffffffffffffffffff161480611a8557508073ffffffffffffffffffffffffffffffffffffffff168873ffffffffffffffffffffffffffffffffffffffff16145b15611adf5782868681518110611ac4577f4e487b7100000000000000000000000000000000000000000000000000000000600052603260045260246000fd5b6020026020010181815250508480611adb90613806565b9550505b5050508080611aed90613806565b9150506118bd565b508192505050919050565b606060008060009054906101000a900473ffffffffffffffffffffffffffffffffffffffff1673ffffffffffffffffffffffffffffffffffffffff1663b7cde641846040518263ffffffff1660e01b8152600401611b5e919061347b565b60206040518083038186803b158015611b7657600080fd5b505afa158015611b8a573d6000803e3d6000fd5b505050506040513d601f19601f82011682018060405250810190611bae919061316c565b67ffffffffffffffff811115611bed577f4e487b7100000000000000000000000000000000000000000000000000000000600052604160045260246000fd5b604051908082528060200260200182016040528015611c1b5781602001602082028036833780820191505090505b5090506000805b60008054906101000a900473ffffffffffffffffffffffffffffffffffffffff1673ffffffffffffffffffffffffffffffffffffffff16639f71c3c96040518163ffffffff1660e01b815260040160206040518083038186803b158015611c8857600080fd5b505afa158015611c9c573d6000803e3d6000fd5b505050506040513d601f19601f82011682018060405250810190611cc0919061316c565b811015611e885760008060008060009054906101000a900473ffffffffffffffffffffffffffffffffffffffff1673ffffffffffffffffffffffffffffffffffffffff1663243e7a87856040518263ffffffff1660e01b8152600401611d2691906135b9565b60a06040518083038186803b158015611d3e57600080fd5b505afa158015611d52573d6000803e3d6000fd5b505050506040513d601f19601f82011682018060405250810190611d769190613195565b9050508093508194508295505050508173ffffffffffffffffffffffffffffffffffffffff168873ffffffffffffffffffffffffffffffffffffffff161480611dea57508073ffffffffffffffffffffffffffffffffffffffff168873ffffffffffffffffffffffffffffffffffffffff16145b15611e725781868681518110611e29577f4e487b7100000000000000000000000000000000000000000000000000000000600052603260045260246000fd5b602002602001019073ffffffffffffffffffffffffffffffffffffffff16908173ffffffffffffffffffffffffffffffffffffffff16815250508480611e6e90613806565b9550505b5050508080611e8090613806565b915050611c22565b508192505050919050565b606060008060009054906101000a900473ffffffffffffffffffffffffffffffffffffffff1673ffffffffffffffffffffffffffffffffffffffff1663b7cde641846040518263ffffffff1660e01b8152600401611ef1919061347b565b60206040518083038186803b158015611f0957600080fd5b505afa158015611f1d573d6000803e3d6000fd5b505050506040513d601f19601f82011682018060405250810190611f41919061316c565b67ffffffffffffffff811115611f80577f4e487b7100000000000000000000000000000000000000000000000000000000600052604160045260246000fd5b604051908082528060200260200182016040528015611fae5781602001602082028036833780820191505090505b5090506000805b60008054906101000a900473ffffffffffffffffffffffffffffffffffffffff1673ffffffffffffffffffffffffffffffffffffffff16639f71c3c96040518163ffffffff1660e01b815260040160206040518083038186803b15801561201b57600080fd5b505afa15801561202f573d6000803e3d6000fd5b505050506040513d601f19601f82011682018060405250810190612053919061316c565b81101561221b5760008060008060009054906101000a900473ffffffffffffffffffffffffffffffffffffffff1673ffffffffffffffffffffffffffffffffffffffff1663243e7a87856040518263ffffffff1660e01b81526004016120b991906135b9565b60a06040518083038186803b1580156120d157600080fd5b505afa1580156120e5573d6000803e3d6000fd5b505050506040513d601f19601f820116820180604052508101906121099190613195565b9050508093508194508295505050508173ffffffffffffffffffffffffffffffffffffffff168873ffffffffffffffffffffffffffffffffffffffff16148061217d57508073ffffffffffffffffffffffffffffffffffffffff168873ffffffffffffffffffffffffffffffffffffffff16145b1561220557808686815181106121bc577f4e487b7100000000000000000000000000000000000000000000000000000000600052603260045260246000fd5b602002602001019073ffffffffffffffffffffffffffffffffffffffff16908173ffffffffffffffffffffffffffffffffffffffff1681525050848061220190613806565b9550505b505050808061221390613806565b915050611fb5565b508192505050919050565b606060008060009054906101000a900473ffffffffffffffffffffffffffffffffffffffff1673ffffffffffffffffffffffffffffffffffffffff1663b7cde641846040518263ffffffff1660e01b8152600401612284919061347b565b60206040518083038186803b15801561229c57600080fd5b505afa1580156122b0573d6000803e3d6000fd5b505050506040513d601f19601f820116820180604052508101906122d4919061316c565b67ffffffffffffffff811115612313577f4e487b7100000000000000000000000000000000000000000000000000000000600052604160045260246000fd5b6040519080825280602002602001820160405280156123415781602001602082028036833780820191505090505b5090506000805b60008054906101000a900473ffffffffffffffffffffffffffffffffffffffff1673ffffffffffffffffffffffffffffffffffffffff16639f71c3c96040518163ffffffff1660e01b815260040160206040518083038186803b1580156123ae57600080fd5b505afa1580156123c2573d6000803e3d6000fd5b505050506040513d601f19601f820116820180604052508101906123e6919061316c565b8110156125835760008060008060009054906101000a900473ffffffffffffffffffffffffffffffffffffffff1673ffffffffffffffffffffffffffffffffffffffff1663243e7a87856040518263ffffffff1660e01b815260040161244c91906135b9565b60a06040518083038186803b15801561246457600080fd5b505afa158015612478573d6000803e3d6000fd5b505050506040513d601f19601f8201168201806040525081019061249c9190613195565b9091929350508093508194508295505050508273ffffffffffffffffffffffffffffffffffffffff168873ffffffffffffffffffffffffffffffffffffffff16148061251357508173ffffffffffffffffffffffffffffffffffffffff168873ffffffffffffffffffffffffffffffffffffffff16145b1561256d5780868681518110612552577f4e487b7100000000000000000000000000000000000000000000000000000000600052603260045260246000fd5b602002602001018181525050848061256990613806565b9550505b505050808061257b90613806565b915050612348565b508192505050919050565b606060008060009054906101000a900473ffffffffffffffffffffffffffffffffffffffff1673ffffffffffffffffffffffffffffffffffffffff1663b7cde641846040518263ffffffff1660e01b81526004016125ec919061347b565b60206040518083038186803b15801561260457600080fd5b505afa158015612618573d6000803e3d6000fd5b505050506040513d601f19601f8201168201806040525081019061263c919061316c565b67ffffffffffffffff81111561267b577f4e487b7100000000000000000000000000000000000000000000000000000000600052604160045260246000fd5b6040519080825280602002602001820160405280156126a95781602001602082028036833780820191505090505b5090506000805b60008054906101000a900473ffffffffffffffffffffffffffffffffffffffff1673ffffffffffffffffffffffffffffffffffffffff16639f71c3c96040518163ffffffff1660e01b815260040160206040518083038186803b15801561271657600080fd5b505afa15801561272a573d6000803e3d6000fd5b505050506040513d601f19601f8201168201806040525081019061274e919061316c565b8110156128ec5760008060008060009054906101000a900473ffffffffffffffffffffffffffffffffffffffff1673ffffffffffffffffffffffffffffffffffffffff1663243e7a87856040518263ffffffff1660e01b81526004016127b491906135b9565b60a06040518083038186803b1580156127cc57600080fd5b505afa1580156127e0573d6000803e3d6000fd5b505050506040513d601f19601f820116820180604052508101906128049190613195565b909192935090508093508194508295505050508273ffffffffffffffffffffffffffffffffffffffff168873ffffffffffffffffffffffffffffffffffffffff16148061287c57508173ffffffffffffffffffffffffffffffffffffffff168873ffffffffffffffffffffffffffffffffffffffff16145b156128d657808686815181106128bb577f4e487b7100000000000000000000000000000000000000000000000000000000600052603260045260246000fd5b60200260200101818152505084806128d290613806565b9550505b50505080806128e490613806565b9150506126b0565b508192505050919050565b606060008060009054906101000a900473ffffffffffffffffffffffffffffffffffffffff1673ffffffffffffffffffffffffffffffffffffffff1663b7cde641846040518263ffffffff1660e01b8152600401612955919061347b565b60206040518083038186803b15801561296d57600080fd5b505afa158015612981573d6000803e3d6000fd5b505050506040513d601f19601f820116820180604052508101906129a5919061316c565b67ffffffffffffffff8111156129e4577f4e487b7100000000000000000000000000000000000000000000000000000000600052604160045260246000fd5b604051908082528060200260200182016040528015612a125781602001602082028036833780820191505090505b5090506000805b60008054906101000a900473ffffffffffffffffffffffffffffffffffffffff1673ffffffffffffffffffffffffffffffffffffffff16639f71c3c96040518163ffffffff1660e01b815260040160206040518083038186803b158015612a7f57600080fd5b505afa158015612a93573d6000803e3d6000fd5b505050506040513d601f19601f82011682018060405250810190612ab7919061316c565b811015612cdc5760008060008054906101000a900473ffffffffffffffffffffffffffffffffffffffff1673ffffffffffffffffffffffffffffffffffffffff1663243e7a87846040518263ffffffff1660e01b8152600401612b1a91906135b9565b60a06040518083038186803b158015612b3257600080fd5b505afa158015612b46573d6000803e3d6000fd5b505050506040513d601f19601f82011682018060405250810190612b6a9190613195565b909192935090505080925081935050508173ffffffffffffffffffffffffffffffffffffffff168773ffffffffffffffffffffffffffffffffffffffff161480612bdf57508073ffffffffffffffffffffffffffffffffffffffff168773ffffffffffffffffffffffffffffffffffffffff16145b15612cc7578173ffffffffffffffffffffffffffffffffffffffff168773ffffffffffffffffffffffffffffffffffffffff161415612c6a576001858581518110612c53577f4e487b7100000000000000000000000000000000000000000000000000000000600052603260045260246000fd5b602002602001019015159081151581525050612cb8565b6000858581518110612ca5577f4e487b7100000000000000000000000000000000000000000000000000000000600052603260045260246000fd5b6020026020010190151590811515815250505b8380612cc390613806565b9450505b50508080612cd490613806565b915050612a19565b508192505050919050565b606060008060009054906101000a900473ffffffffffffffffffffffffffffffffffffffff1673ffffffffffffffffffffffffffffffffffffffff16636e0668306040518163ffffffff1660e01b815260040160206040518083038186803b158015612d5257600080fd5b505afa158015612d66573d6000803e3d6000fd5b505050506040513d601f19601f82011682018060405250810190612d8a919061316c565b67ffffffffffffffff811115612dc9577f4e487b7100000000000000000000000000000000000000000000000000000000600052604160045260246000fd5b604051908082528060200260200182016040528015612df75781602001602082028036833780820191505090505b5090506000805b60008054906101000a900473ffffffffffffffffffffffffffffffffffffffff1673ffffffffffffffffffffffffffffffffffffffff166398bdf6f56040518163ffffffff1660e01b815260040160206040518083038186803b158015612e6457600080fd5b505afa158015612e78573d6000803e3d6000fd5b505050506040513d601f19601f82011682018060405250810190612e9c919061316c565b811015612fc55760008060009054906101000a900473ffffffffffffffffffffffffffffffffffffffff1673ffffffffffffffffffffffffffffffffffffffff166311e6820a836040518263ffffffff1660e01b8152600401612eff91906135b9565b60606040518083038186803b158015612f1757600080fd5b505afa158015612f2b573d6000803e3d6000fd5b505050506040513d601f19601f82011682018060405250810190612f4f91906130dc565b905050809150508015612fb15781848481518110612f96577f4e487b7100000000000000000000000000000000000000000000000000000000600052603260045260246000fd5b6020026020010181815250508280612fad90613806565b9350505b508080612fbd90613806565b915050612dfe565b50819250505090565b6000612fe1612fdc84613605565b6135d4565b905082815260208101848484011115612ff957600080fd5b6130048482856137d3565b509392505050565b60008135905061301b816138be565b92915050565b600081519050613030816138be565b92915050565b600081519050613045816138d5565b92915050565b600082601f83011261305c57600080fd5b815161306c848260208601612fce565b91505092915050565b600081519050613084816138ec565b92915050565b60006020828403121561309c57600080fd5b60006130aa8482850161300c565b91505092915050565b6000602082840312156130c557600080fd5b60006130d384828501613021565b91505092915050565b6000806000606084860312156130f157600080fd5b60006130ff86828701613036565b935050602061311086828701613075565b925050604061312186828701613021565b9150509250925092565b60006020828403121561313d57600080fd5b600082015167ffffffffffffffff81111561315757600080fd5b6131638482850161304b565b91505092915050565b60006020828403121561317e57600080fd5b600061318c84828501613075565b91505092915050565b600080600080600060a086880312156131ad57600080fd5b60006131bb88828901613075565b95505060206131cc88828901613021565b94505060406131dd88828901613021565b93505060606131ee88828901613075565b92505060806131ff88828901613075565b9150509295509295909350565b60006132188383613268565b60208301905092915050565b60006132308383613415565b60208301905092915050565b60006132488383613424565b905092915050565b600061325c838361345d565b60208301905092915050565b6132718161378b565b82525050565b6132808161378b565b82525050565b600061329182613675565b61329b81856136e0565b93506132a683613635565b8060005b838110156132d75781516132be888261320c565b97506132c9836136ac565b9250506001810190506132aa565b5085935050505092915050565b60006132ef82613680565b6132f981856136f1565b935061330483613645565b8060005b8381101561333557815161331c8882613224565b9750613327836136b9565b925050600181019050613308565b5085935050505092915050565b600061334d8261368b565b6133578185613702565b93508360208202850161336985613655565b8060005b858110156133a55784840389528151613386858261323c565b9450613391836136c6565b925060208a0199505060018101905061336d565b50829750879550505050505092915050565b60006133c282613696565b6133cc8185613713565b93506133d783613665565b8060005b838110156134085781516133ef8882613250565b97506133fa836136d3565b9250506001810190506133db565b5085935050505092915050565b61341e8161379d565b82525050565b600061342f826136a1565b6134398185613724565b93506134498185602086016137d3565b613452816138ad565b840191505092915050565b613466816137c9565b82525050565b613475816137c9565b82525050565b60006020820190506134906000830184613277565b92915050565b600060c08201905081810360008301526134b081896133b7565b905081810360208301526134c48188613286565b905081810360408301526134d88187613286565b905081810360608301526134ec81866133b7565b9050818103608083015261350081856133b7565b905081810360a083015261351481846132e4565b9050979650505050505050565b6000604082019050818103600083015261353b81856133b7565b9050818103602083015261354f8184613342565b90509392505050565b6000608082019050818103600083015261357281876133b7565b905081810360208301526135868186613342565b9050818103604083015261359a81856133b7565b905081810360608301526135ae8184613286565b905095945050505050565b60006020820190506135ce600083018461346c565b92915050565b6000604051905081810181811067ffffffffffffffff821117156135fb576135fa61387e565b5b8060405250919050565b600067ffffffffffffffff8211156136205761361f61387e565b5b601f19601f8301169050602081019050919050565b6000819050602082019050919050565b6000819050602082019050919050565b6000819050602082019050919050565b6000819050602082019050919050565b600081519050919050565b600081519050919050565b600081519050919050565b600081519050919050565b600081519050919050565b6000602082019050919050565b6000602082019050919050565b6000602082019050919050565b6000602082019050919050565b600082825260208201905092915050565b600082825260208201905092915050565b600082825260208201905092915050565b600082825260208201905092915050565b600082825260208201905092915050565b6000613740826137c9565b915061374b836137c9565b9250827fffffffffffffffffffffffffffffffffffffffffffffffffffffffffffffffff038211156137805761377f61384f565b5b828201905092915050565b6000613796826137a9565b9050919050565b60008115159050919050565b600073ffffffffffffffffffffffffffffffffffffffff82169050919050565b6000819050919050565b60005b838110156137f15780820151818401526020810190506137d6565b83811115613800576000848401525b50505050565b6000613811826137c9565b91507fffffffffffffffffffffffffffffffffffffffffffffffffffffffffffffffff8214156138445761384361384f565b5b600182019050919050565b7f4e487b7100000000000000000000000000000000000000000000000000000000600052601160045260246000fd5b7f4e487b7100000000000000000000000000000000000000000000000000000000600052604160045260246000fd5b6000601f19601f8301169050919050565b6138c78161378b565b81146138d257600080fd5b50565b6138de8161379d565b81146138e957600080fd5b50565b6138f5816137c9565b811461390057600080fd5b5056fea2646970667358221220aed7e75bf861a1f33056becae2907936c0d354c5892c7d39285e86d090a4034964736f6c63430008000033",
  "immutableReferences": {},
  "source": "// SPDX-License-Identifier: MIT\r\n\r\npragma solidity ^0.8.0;\r\n\r\nimport \"@openzeppelin/contracts/access/Ownable.sol\";\r\nimport \"@openzeppelin/contracts/token/ERC721/ERC721.sol\";\r\nimport \"@openzeppelin/contracts/token/ERC721/IERC721Receiver.sol\";\r\n\r\ncontract AuxiunNFT is Ownable, ERC721, IERC721Receiver {\r\n\r\n    struct Metadata {\r\n        string game_id;\r\n        string item_id;\r\n    }\r\n\r\n    struct MarketDetails {\r\n        bool forSale;\r\n        uint256 price;\r\n        address seller;\r\n    }\r\n\r\n    struct TransactionHistory {\r\n        uint256 tokenId;\r\n        address buyer;\r\n        address seller;\r\n        uint256 price;\r\n        uint256 timestamp;\r\n    }\r\n\r\n    // mapping of tokenId to market details\r\n    mapping(uint256 => MarketDetails) public id_to_marketDetails;\r\n\r\n    // mapping of tokenId to metadata\r\n    mapping(uint256 => Metadata) public id_to_metadata;\r\n\r\n    // array which stores all transaction data\r\n    TransactionHistory[] public transactionHistory;\r\n\r\n    // transactionHistory counter for addresses to determine the multicall memory array size\r\n    mapping(address => uint256) public transactionHistoryCount;\r\n\r\n    // list of admin addresses authorized to mint tokens\r\n    mapping(address => bool) public admins;\r\n\r\n    // Base URI, aka API link to fetch further metadata of the token\r\n    string private baseURI;\r\n\r\n    // Used as tokenId for a newly minted token and increases by 1\r\n    uint256 public tokenIdCounter = 0;\r\n\r\n    // Number of NFTs on market (Maybe for future use)\r\n    uint256 public NFTsOnMarket = 0;\r\n\r\n    // Number of NFTs on market by address\r\n    mapping(address => uint256) public NFTsOnMarketByAddress;\r\n \r\n    constructor() ERC721(\"AuxiunNFT\", \"AUXN\") {\r\n        // TODO: Setup database api server and set the link here, remember to add the \"/\" at the end of the uri\r\n        baseURI = \"http://54.153.182.13:3998/api/nft/\";\r\n    }\r\n\r\n    function _baseURI() internal view virtual override returns (string memory) {\r\n        return baseURI;\r\n    }\r\n\r\n    function setBaseURI(string memory inputbaseURI) public onlyOwner {\r\n        baseURI = inputbaseURI;\r\n    }\r\n\r\n    // function standard called by NFT marketplaces such as OpenSea\r\n    function tokenURI(uint256 tokenId)\r\n        public\r\n        view\r\n        virtual\r\n        override\r\n        returns (string memory)\r\n    {\r\n        require(_exists(tokenId), \"ERC721Metadata: URI query for nonexistent token\");\r\n        return strConcat(_baseURI(), id_to_metadata[tokenId].game_id, \"/\", id_to_metadata[tokenId].item_id, \"\");\r\n    } \r\n\r\n    function mint(address to, string memory game_id, string memory item_id) external {\r\n        require(admins[msg.sender], \"Not authorized to call this function.\");\r\n        uint256 tokenId = tokenIdCounter;\r\n        tokenIdCounter++;\r\n        id_to_metadata[tokenId] = Metadata(game_id, item_id);\r\n        _safeMint(to, tokenId);\r\n    }\r\n\r\n    // get transactionHistory length for multicall function\r\n    function getTransactionHistoryLength() public view returns (uint256) {\r\n        return transactionHistory.length;\r\n    }\r\n\r\n    // functions to handle admins array\r\n    function addAdminAddress(address _address) external onlyOwner() {\r\n        admins[_address] = true;\r\n    }\r\n\r\n    function removeAdminAddress(address _address) external onlyOwner() {\r\n        admins[_address] = false;\r\n    }\r\n\r\n    function isAdminAddress(address _address) external view returns (bool) {\r\n        return admins[_address];\r\n    }\r\n\r\n    // String concatenation function\r\n    // original source: https://github.com/provable-things/ethereum-api/blob/master/oraclizeAPI_0.5.sol\r\n    // stack overflow topic: https://ethereum.stackexchange.com/questions/729/how-to-concatenate-strings-in-solidity\r\n    // Notes: reduce the parameters if necessary\r\n    function strConcat(string memory _a, string memory _b, string memory _c, string memory _d, string memory _e) internal pure returns (string memory){\r\n        bytes memory _ba = bytes(_a);\r\n        bytes memory _bb = bytes(_b);\r\n        bytes memory _bc = bytes(_c);\r\n        bytes memory _bd = bytes(_d);\r\n        bytes memory _be = bytes(_e);\r\n        string memory abcde = new string(_ba.length + _bb.length + _bc.length + _bd.length + _be.length);\r\n        bytes memory babcde = bytes(abcde);\r\n        uint k = 0;\r\n        for (uint i = 0; i < _ba.length; i++) babcde[k++] = _ba[i];\r\n        for (uint i = 0; i < _bb.length; i++) babcde[k++] = _bb[i];\r\n        for (uint i = 0; i < _bc.length; i++) babcde[k++] = _bc[i];\r\n        for (uint i = 0; i < _bd.length; i++) babcde[k++] = _bd[i];\r\n        for (uint i = 0; i < _be.length; i++) babcde[k++] = _be[i];\r\n        return string(babcde);\r\n    }\r\n\r\n    // Modifers\r\n    modifier tokenExists(uint256 tokenId) {\r\n        require(_exists(tokenId), \"Token ID does not exist.\");\r\n        _;\r\n    }\r\n\r\n    modifier belongsToSender(uint256 tokenId){\r\n        require(ownerOf(tokenId) == msg.sender, \"Token does not belong to sender.\");\r\n        _;\r\n    }\r\n\r\n    // Helper Functions for NFTs on the market.\r\n    function _removeNFTfromMarket(uint tokenId, address _address) private tokenExists(tokenId) {\r\n        id_to_marketDetails[tokenId] = MarketDetails(false, 0, address(0));\r\n        // decrease the number of NFTs on market of the user\r\n        NFTsOnMarketByAddress[_address]--;\r\n        NFTsOnMarket--;\r\n    }\r\n  \r\n\r\n    // Functions for market place interactions.\r\n    function listNFTOnMarket(uint256 tokenId, uint256 price) external payable tokenExists(tokenId) belongsToSender(tokenId){\r\n        id_to_marketDetails[tokenId] = MarketDetails(true, price, msg.sender);\r\n        // increase the number of NFTs on market of the user\r\n        NFTsOnMarketByAddress[msg.sender]++;\r\n        NFTsOnMarket++;\r\n\r\n        // transfer ownership of tokenId to this contract\r\n        _safeTransfer(msg.sender, address(this), tokenId, \"\");\r\n    }\r\n\r\n    function removeNFTFromMarket(uint256 tokenId) external tokenExists(tokenId) {\r\n        require(id_to_marketDetails[tokenId].seller == msg.sender, \"Not the original owner of this NFT.\");\r\n        _removeNFTfromMarket(tokenId, msg.sender);\r\n\r\n        // transfer token back to owner\r\n        _safeTransfer(address(this), msg.sender, tokenId, \"\");\r\n    }\r\n\r\n\r\n   // Source: https://ethereum.stackexchange.com/questions/19341/address-send-vs-address-transfer-best-practice-usage/74007#74007\r\n    function purchaseNFT(uint256 tokenId) public payable tokenExists(tokenId) returns(address, address, uint256, uint256) {\r\n        require(id_to_marketDetails[tokenId].seller != msg.sender, \"Can not purchase your own NFTs.\");\r\n        require(id_to_marketDetails[tokenId].forSale, \"NFT not for sale\");\r\n        require(id_to_marketDetails[tokenId].price <= msg.value, \"Insufficient funds for purchase.\");\r\n\r\n        // Get seller Id\r\n        address seller = id_to_marketDetails[tokenId].seller;\r\n\r\n        // get price\r\n        uint256 price = id_to_marketDetails[tokenId].price;\r\n\r\n        // Remove NFT from market - do this before transferring ETH to prevent reentrancy\r\n        _removeNFTfromMarket(tokenId, id_to_marketDetails[tokenId].seller);\r\n\r\n        // Transfer fund from NFT buyer to NFT Seller\r\n        (bool success, ) =  seller.call{value: msg.value}(\"\");\r\n        require(success, \"Failed to send ETH to Seller\");\r\n\r\n        // Transfer token to buyer\r\n        _safeTransfer(address(this), msg.sender, tokenId, \"\");\r\n\r\n        // push transaction data into transactionHistory\r\n        transactionHistory.push(TransactionHistory(tokenId, msg.sender, seller, price, block.timestamp));\r\n\r\n        // increase transactionHistoryCount for both buyer and seller\r\n        transactionHistoryCount[msg.sender]++;\r\n        transactionHistoryCount[seller]++;\r\n        \r\n        // Return some info about the transfer\r\n        return (msg.sender, seller, tokenId, msg.value);\r\n    }\r\n\r\n    // fetch by order: tokenURI, token price, token seller's address\r\n    function fetchNFTDataById(uint256 tokenId) external view returns(string memory, uint256, address) {\r\n        return (tokenURI(tokenId), id_to_marketDetails[tokenId].price, id_to_marketDetails[tokenId].seller);\r\n    }\r\n\r\n    function kill() public onlyOwner {\r\n        selfdestruct(payable(owner()));\r\n    }\r\n\r\n    receive() external payable {\r\n        // this function enables the contract to receive funds\r\n        // Nothing needed here\r\n    }\r\n\r\n    /** Needed for calling safeTransferFrom */\r\n    function onERC721Received(address, address, uint256, bytes memory) public virtual override returns (bytes4) {\r\n        return this.onERC721Received.selector;\r\n    }\r\n}\r\n\r\ncontract AuxiunNFTMulticall {\r\n    AuxiunNFT auxiunNFTContract;\r\n\r\n    function setNFTContractAddress(address _address) public {\r\n        auxiunNFTContract = AuxiunNFT(payable(_address));\r\n    }\r\n\r\n    // returns an array of token ids which are listed as forSale\r\n    function _fetchTokenIdsOnMarket() internal view returns(uint256[] memory) {\r\n        // initialize result's array length\r\n        uint256[] memory result = new uint256[](auxiunNFTContract.NFTsOnMarket());\r\n        // for loop to fetch all tokenIds where id_to_marketDetails[i].forSale == true\r\n        uint256 counter = 0;\r\n        for (uint256 i = 0; i < auxiunNFTContract.tokenIdCounter(); i++) {\r\n            // only tokenIds which are for sale will be pushed into the result array\r\n            bool forSale;\r\n            (forSale,,) = auxiunNFTContract.id_to_marketDetails(i);\r\n            if (forSale) {\r\n                result[counter] = i;\r\n                counter++;\r\n            }\r\n        }\r\n        return result;\r\n    }\r\n\r\n    /**\r\n    * Multicall function to fetch all NFTs owned by an address\r\n    * Returns 2 arrays which are:\r\n    * 1. array of tokenIds owned by the address\r\n    * 2. array of tokenURIs of the respective tokenIds\r\n    */\r\n    function multiCallNFTsOwnedByAddress(address _address) external view returns(uint256[] memory, string[] memory) {\r\n        // initialize array lengths\r\n        uint256[] memory tokenIds = new uint256[](auxiunNFTContract.balanceOf(_address));\r\n        string[] memory tokenURIs = new string[](auxiunNFTContract.balanceOf(_address));\r\n\r\n        // since tokenId starts with 0, we need to +1 to the number\r\n        uint256 totalNumberOfNFTs = auxiunNFTContract.tokenIdCounter() + 1;\r\n\r\n        uint256 counter = 0;\r\n\r\n        // for loop to fetch all data of tokenIds and push into the 3 arrays\r\n        for (uint256 i = 0; i < totalNumberOfNFTs; i++) {\r\n            if (_address == auxiunNFTContract.ownerOf(i)) {\r\n                tokenIds[counter] = i;\r\n                tokenURIs[counter] = auxiunNFTContract.tokenURI(i);\r\n                counter++;\r\n            }\r\n        }\r\n        \r\n        return (tokenIds, tokenURIs);\r\n    }\r\n\r\n    /**\r\n    * Multicall function to fetch all NFTs listed for sale on the market\r\n    * Returns 4 arrays which are:\r\n    * 1. array of tokenIds\r\n    * 2. array of tokenURIs\r\n    * 3. array of token prices\r\n    * 4. array of token sellers\r\n    */\r\n    function multiCallNFTsOnMarket() external view returns(uint256[] memory, string[] memory, uint256[] memory, address[] memory) {\r\n        // initialize tokenIds' array length\r\n        uint256[] memory tokenIds = new uint256[](auxiunNFTContract.NFTsOnMarket());\r\n        // fetch the tokenIds on the market\r\n        tokenIds = _fetchTokenIdsOnMarket();\r\n\r\n        // initialize array for tokenURIs, prices and sellers\r\n        string[] memory tokenURIs = new string[](auxiunNFTContract.NFTsOnMarket());\r\n        uint256[] memory tokenPrices = new uint256[](auxiunNFTContract.NFTsOnMarket());\r\n        address[] memory tokenSellers = new address[](auxiunNFTContract.NFTsOnMarket());\r\n\r\n        // for loop to fetch all data of tokenIds and push into the 3 arrays\r\n        for (uint256 i = 0; i < auxiunNFTContract.NFTsOnMarket(); i++) {\r\n            uint256 _price;\r\n            address _seller;\r\n            (,_price, _seller) = auxiunNFTContract.id_to_marketDetails(tokenIds[i]);\r\n            tokenURIs[i] = auxiunNFTContract.tokenURI(tokenIds[i]);\r\n            tokenPrices[i] = _price;\r\n            tokenSellers[i] = _seller;\r\n        }\r\n        \r\n        return (tokenIds, tokenURIs, tokenPrices, tokenSellers);\r\n    }\r\n\r\n    // overloaded Multicall function to fetch NFTs listed on sale for a specific user's address\r\n    function multiCallNFTsOnMarket(address seller) external view returns(uint256[] memory, string[] memory, uint256[] memory, address[] memory) {\r\n        // initialize tokenIds' array length\r\n        uint256[] memory tokenIds = new uint256[](auxiunNFTContract.NFTsOnMarketByAddress(seller));\r\n        // fetch the tokenIds on the market\r\n        tokenIds = _fetchTokenIdsOnMarket();\r\n\r\n        // initialize array for tokenURIs, prices and sellers\r\n        string[] memory tokenURIs = new string[](auxiunNFTContract.NFTsOnMarketByAddress(seller));\r\n        uint256[] memory tokenPrices = new uint256[](auxiunNFTContract.NFTsOnMarketByAddress(seller));\r\n        address[] memory tokenSellers = new address[](auxiunNFTContract.NFTsOnMarketByAddress(seller));\r\n\r\n        // for loop to fetch all data of tokenIds and push into the 3 arrays\r\n        uint256 counter = 0;\r\n        for (uint256 i = 0; i < auxiunNFTContract.NFTsOnMarket(); i++) {\r\n            uint256 _price;\r\n            address _seller;\r\n            (,_price, _seller) = auxiunNFTContract.id_to_marketDetails(tokenIds[i]);\r\n            if (seller == _seller) {\r\n                tokenURIs[counter] = auxiunNFTContract.tokenURI(tokenIds[i]);\r\n                tokenPrices[counter] = _price;\r\n                tokenSellers[counter] = _seller;\r\n                counter++;\r\n            }\r\n        }\r\n        \r\n        return (tokenIds, tokenURIs, tokenPrices, tokenSellers);\r\n    }\r\n\r\n    /**\r\n    * Multicall functions to fetch transaction data\r\n    * fetch transaction data by user's address\r\n    * Returns 6 arrays sale which are:\r\n    * 1. array of tokenIds\r\n    * 2. array of buyers\r\n    * 3. array of sellers\r\n    * 4. array of prices\r\n    * 5. array of timestamps\r\n    * 6. array of transacitonType - true: buy ; false: sell\r\n    */\r\n    // function multiCallTransactionDataByUser(address user) external view returns(uint256[] memory, address[] memory, address[] memory, uint256[] memory, uint256[] memory, bool[] memory) {\r\n    //     // initialize return arrays\r\n    //     uint256[] memory tokenIds = new uint256[](auxiunNFTContract.transactionHistoryCount(user));\r\n    //     address[] memory buyers = new address[](auxiunNFTContract.transactionHistoryCount(user));\r\n    //     address[] memory sellers = new address[](auxiunNFTContract.transactionHistoryCount(user));\r\n    //     uint256[] memory prices = new uint256[](auxiunNFTContract.transactionHistoryCount(user));\r\n    //     uint256[] memory timestamps = new uint256[](auxiunNFTContract.transactionHistoryCount(user));\r\n    //     // transactionType = true: it is a buy transaction for the user\r\n    //     // transacitonType = false: it is a sell transaction for the user\r\n    //     bool[] memory transactionType = new bool[](auxiunNFTContract.transactionHistoryCount(user));\r\n\r\n    //     // for loop to fetch all data of tokenIds and push into the arrays\r\n    //     uint256 counter = 0;\r\n    //     for (uint256 i = 0; i < auxiunNFTContract.getTransactionHistoryLength(); i++) {\r\n    //         uint256 _tokenId;\r\n    //         address _buyer;\r\n    //         address _seller;\r\n    //         uint256 _price;\r\n    //         uint256 _timestamp;\r\n    //         (_tokenId, _buyer, _seller, _price, _timestamp) = auxiunNFTContract.transactionHistory(i);\r\n    //         if (user == _buyer|| user == _seller) {\r\n    //             tokenIds[counter] = _tokenId;\r\n    //             buyers[counter] = _buyer;\r\n    //             sellers[counter] = _seller;\r\n    //             prices[counter] = _price;\r\n    //             timestamps[counter] = _timestamp;\r\n\r\n    //             // determine transactionType\r\n    //             if (user == _buyer) {\r\n    //                 transactionType[counter] = true;\r\n    //             }\r\n    //             else {\r\n    //                 transactionType[counter] = false;\r\n    //             }\r\n    //             counter++;\r\n    //         }\r\n    //     }\r\n        \r\n    //     return (tokenIds, buyers, sellers, prices, timestamps, transactionType);\r\n    // }\r\n\r\n    function multiCallTransactionDataByUserV2(address user) external view returns(uint256[] memory, address[] memory, address[] memory, uint256[] memory, uint256[] memory, bool[] memory) {\r\n        return (singleCallTransactionDataByUserTokenIds(user), singleCallTransactionDataByUserBuyers(user), singleTransactionDataByUserSellers(user), singleCallTransactionDataByUserPrices(user), singleCallTransactionDataByUserTimestamps(user), singleCallTransactionDataByUserTransactionType(user));\r\n    }\r\n\r\n    // single functions to be combined in the multiCallTransactionDataByUser() multicall function\r\n    function singleCallTransactionDataByUserTokenIds(address user) internal view returns(uint256[] memory) {\r\n        // initialize return array\r\n        uint256[] memory tokenIds = new uint256[](auxiunNFTContract.transactionHistoryCount(user));\r\n\r\n        // for loop to fetch all data of tokenIds and push into the arrays\r\n        uint256 counter = 0;\r\n        for (uint256 i = 0; i < auxiunNFTContract.getTransactionHistoryLength(); i++) {\r\n            uint256 _tokenId;\r\n            address _buyer;\r\n            address _seller;\r\n            (_tokenId, _buyer, _seller,,) = auxiunNFTContract.transactionHistory(i);\r\n            if (user == _buyer|| user == _seller) {\r\n                tokenIds[counter] = _tokenId;\r\n                counter++;\r\n            }\r\n        }\r\n        return tokenIds;\r\n    }\r\n\r\n    function singleCallTransactionDataByUserBuyers(address user) internal view returns(address[] memory) {\r\n        // initialize return array\r\n        address[] memory buyers = new address[](auxiunNFTContract.transactionHistoryCount(user));\r\n\r\n        // for loop to fetch all data of tokenIds and push into the arrays\r\n        uint256 counter = 0;\r\n        for (uint256 i = 0; i < auxiunNFTContract.getTransactionHistoryLength(); i++) {\r\n            uint256 _tokenId;\r\n            address _buyer;\r\n            address _seller;\r\n            (_tokenId, _buyer, _seller,,) = auxiunNFTContract.transactionHistory(i);\r\n            if (user == _buyer|| user == _seller) {\r\n                buyers[counter] = _buyer;\r\n                counter++;\r\n            }\r\n        }\r\n        return buyers;\r\n    }\r\n\r\n    function singleTransactionDataByUserSellers(address user) internal view returns(address[] memory) {\r\n        // initialize return array\r\n        address[] memory sellers = new address[](auxiunNFTContract.transactionHistoryCount(user));\r\n\r\n        // for loop to fetch all data of tokenIds and push into the arrays\r\n        uint256 counter = 0;\r\n        for (uint256 i = 0; i < auxiunNFTContract.getTransactionHistoryLength(); i++) {\r\n            uint256 _tokenId;\r\n            address _buyer;\r\n            address _seller;\r\n            (_tokenId, _buyer, _seller,,) = auxiunNFTContract.transactionHistory(i);\r\n            if (user == _buyer|| user == _seller) {\r\n                sellers[counter] = _seller;\r\n                counter++;\r\n            }\r\n        }\r\n        return sellers;\r\n    }\r\n\r\n    function singleCallTransactionDataByUserPrices(address user) internal view returns(uint256[] memory) {\r\n        // initialize return arrays\r\n        uint256[] memory prices = new uint256[](auxiunNFTContract.transactionHistoryCount(user));\r\n\r\n        // for loop to fetch all data of tokenIds and push into the arrays\r\n        uint256 counter = 0;\r\n        for (uint256 i = 0; i < auxiunNFTContract.getTransactionHistoryLength(); i++) {\r\n            address _buyer;\r\n            address _seller;\r\n            uint256 _price;\r\n            (, _buyer, _seller, _price,) = auxiunNFTContract.transactionHistory(i);\r\n            if (user == _buyer|| user == _seller) {\r\n                prices[counter] = _price;\r\n                counter++;\r\n            }\r\n        }\r\n        return (prices);\r\n    }\r\n\r\n    function singleCallTransactionDataByUserTimestamps(address user) internal view returns(uint256[] memory) {\r\n        // initialize return array\r\n        uint256[] memory timestamps = new uint256[](auxiunNFTContract.transactionHistoryCount(user));\r\n\r\n        // for loop to fetch all data of tokenIds and push into the arrays\r\n        uint256 counter = 0;\r\n        for (uint256 i = 0; i < auxiunNFTContract.getTransactionHistoryLength(); i++) {\r\n            address _buyer;\r\n            address _seller;\r\n            uint256 _timestamp;\r\n            (, _buyer, _seller,, _timestamp) = auxiunNFTContract.transactionHistory(i);\r\n            if (user == _buyer|| user == _seller) {\r\n                timestamps[counter] = _timestamp;\r\n                counter++;\r\n            }\r\n        }\r\n        return timestamps;\r\n    }\r\n\r\n    function singleCallTransactionDataByUserTransactionType(address user) internal view returns(bool[] memory) {\r\n        // initialize return array\r\n        // transactionType = true: it is a buy transaction for the user\r\n        // transacitonType = false: it is a sell transaction for the user\r\n        bool[] memory transactionType = new bool[](auxiunNFTContract.transactionHistoryCount(user));\r\n\r\n        // for loop to fetch all data of tokenIds and push into the arrays\r\n        uint256 counter = 0;\r\n        for (uint256 i = 0; i < auxiunNFTContract.getTransactionHistoryLength(); i++) {\r\n            address _buyer;\r\n            address _seller;\r\n            (, _buyer, _seller,,) = auxiunNFTContract.transactionHistory(i);\r\n            if (user == _buyer|| user == _seller) {\r\n                // determine transactionType\r\n                if (user == _buyer) {\r\n                    transactionType[counter] = true;\r\n                }\r\n                else {\r\n                    transactionType[counter] = false;\r\n                }\r\n                counter++;\r\n            }\r\n        }\r\n        return transactionType;\r\n    }\r\n\r\n    // function multiCallTransactionDataByUserPartA(address user) internal view returns(uint256[] memory,  address[] memory, address[] memory) {\r\n    //     // initialize return arrays\r\n    //     uint256[] memory tokenIds = new uint256[](auxiunNFTContract.transactionHistoryCount(user));\r\n    //     address[] memory buyers = new address[](auxiunNFTContract.transactionHistoryCount(user));\r\n    //     address[] memory sellers = new address[](auxiunNFTContract.transactionHistoryCount(user));\r\n\r\n    //     // for loop to fetch all data of tokenIds and push into the arrays\r\n    //     uint256 counter = 0;\r\n    //     for (uint256 i = 0; i < auxiunNFTContract.getTransactionHistoryLength(); i++) {\r\n    //         uint256 _tokenId;\r\n    //         address _buyer;\r\n    //         address _seller;\r\n    //         (_tokenId, _buyer, _seller,,) = auxiunNFTContract.transactionHistory(i);\r\n    //         if (user == _buyer|| user == _seller) {\r\n    //             tokenIds[counter] = _tokenId;\r\n    //             buyers[counter] = _buyer;\r\n    //             sellers[counter] = _seller;\r\n    //             counter++;\r\n    //         }\r\n    //     }\r\n    //     return (tokenIds, buyers, sellers);\r\n    // }\r\n\r\n    // function multiCallTransactionDataByUserPartB(address user) internal view returns(uint256[] memory, uint256[] memory, bool[] memory) {\r\n    //     // initialize return arrays\r\n    //     uint256[] memory prices = new uint256[](auxiunNFTContract.transactionHistoryCount(user));\r\n    //     uint256[] memory timestamps = new uint256[](auxiunNFTContract.transactionHistoryCount(user));\r\n    //     // transactionType = true: it is a buy transaction for the user\r\n    //     // transacitonType = false: it is a sell transaction for the user\r\n    //     bool[] memory transactionType = new bool[](auxiunNFTContract.transactionHistoryCount(user));\r\n\r\n    //     // for loop to fetch all data of tokenIds and push into the arrays\r\n    //     uint256 counter = 0;\r\n    //     for (uint256 i = 0; i < auxiunNFTContract.getTransactionHistoryLength(); i++) {\r\n    //         address _buyer;\r\n    //         address _seller;\r\n    //         uint256 _price;\r\n    //         uint256 _timestamp;\r\n    //         (, _buyer, _seller, _price, _timestamp) = auxiunNFTContract.transactionHistory(i);\r\n    //         if (user == _buyer|| user == _seller) {\r\n    //             prices[counter] = _price;\r\n    //             timestamps[counter] = _timestamp;\r\n\r\n    //             // determine transactionType\r\n    //             if (user == _buyer) {\r\n    //                 transactionType[counter] = true;\r\n    //             }\r\n    //             else {\r\n    //                 transactionType[counter] = false;\r\n    //             }\r\n    //             counter++;\r\n    //         }\r\n    //     }\r\n    //     return (prices, timestamps, transactionType);\r\n    // }\r\n}\r\n",
  "sourcePath": "C:/Users/flooofy/sem_2_2021/PP1/axiun-contracts/contracts/AuxiunNFT.sol",
  "compiler": {
    "name": "solc",
    "version": "0.8.0+commit.c7dfd78e.Emscripten.clang"
  },
  "schemaVersion": "3.4.1",
  "updatedAt": "2021-08-14T06:41:29.604Z",
  "devdoc": {
    "kind": "dev",
    "methods": {},
    "version": 1
  },
  "userdoc": {
    "kind": "user",
    "methods": {
      "multiCallNFTsOnMarket()": {
        "notice": "Multicall function to fetch all NFTs listed for sale on the market Returns 4 arrays which are: 1. array of tokenIds 2. array of tokenURIs 3. array of token prices 4. array of token sellers"
      },
      "multiCallNFTsOwnedByAddress(address)": {
        "notice": "Multicall function to fetch all NFTs owned by an address Returns 2 arrays which are: 1. array of tokenIds owned by the address 2. array of tokenURIs of the respective tokenIds"
      },
      "multiCallTransactionDataByUserV2(address)": {
        "notice": "Multicall functions to fetch transaction data fetch transaction data by user's address Returns 6 arrays sale which are: 1. array of tokenIds 2. array of buyers 3. array of sellers 4. array of prices 5. array of timestamps 6. array of transacitonType - true: buy ; false: sell"
      }
    },
    "version": 1
  }
}