{
  "contractName": "AuxiunNFT",
  "abi": [
    {
      "inputs": [],
      "stateMutability": "nonpayable",
      "type": "constructor"
    },
    {
      "anonymous": false,
      "inputs": [
        {
          "indexed": true,
          "internalType": "address",
          "name": "owner",
          "type": "address"
        },
        {
          "indexed": true,
          "internalType": "address",
          "name": "approved",
          "type": "address"
        },
        {
          "indexed": true,
          "internalType": "uint256",
          "name": "tokenId",
          "type": "uint256"
        }
      ],
      "name": "Approval",
      "type": "event"
    },
    {
      "anonymous": false,
      "inputs": [
        {
          "indexed": true,
          "internalType": "address",
          "name": "owner",
          "type": "address"
        },
        {
          "indexed": true,
          "internalType": "address",
          "name": "operator",
          "type": "address"
        },
        {
          "indexed": false,
          "internalType": "bool",
          "name": "approved",
          "type": "bool"
        }
      ],
      "name": "ApprovalForAll",
      "type": "event"
    },
    {
      "anonymous": false,
      "inputs": [
        {
          "indexed": true,
          "internalType": "address",
          "name": "previousOwner",
          "type": "address"
        },
        {
          "indexed": true,
          "internalType": "address",
          "name": "newOwner",
          "type": "address"
        }
      ],
      "name": "OwnershipTransferred",
      "type": "event"
    },
    {
      "anonymous": false,
      "inputs": [
        {
          "indexed": true,
          "internalType": "address",
          "name": "from",
          "type": "address"
        },
        {
          "indexed": true,
          "internalType": "address",
          "name": "to",
          "type": "address"
        },
        {
          "indexed": true,
          "internalType": "uint256",
          "name": "tokenId",
          "type": "uint256"
        }
      ],
      "name": "Transfer",
      "type": "event"
    },
    {
      "inputs": [
        {
          "internalType": "address",
          "name": "to",
          "type": "address"
        },
        {
          "internalType": "uint256",
          "name": "tokenId",
          "type": "uint256"
        }
      ],
      "name": "approve",
      "outputs": [],
      "stateMutability": "nonpayable",
      "type": "function"
    },
    {
      "inputs": [
        {
          "internalType": "address",
          "name": "owner",
          "type": "address"
        }
      ],
      "name": "balanceOf",
      "outputs": [
        {
          "internalType": "uint256",
          "name": "",
          "type": "uint256"
        }
      ],
      "stateMutability": "view",
      "type": "function"
    },
    {
      "inputs": [
        {
          "internalType": "uint256",
          "name": "tokenId",
          "type": "uint256"
        }
      ],
      "name": "getApproved",
      "outputs": [
        {
          "internalType": "address",
          "name": "",
          "type": "address"
        }
      ],
      "stateMutability": "view",
      "type": "function"
    },
    {
      "inputs": [
        {
          "internalType": "address",
          "name": "owner",
          "type": "address"
        },
        {
          "internalType": "address",
          "name": "operator",
          "type": "address"
        }
      ],
      "name": "isApprovedForAll",
      "outputs": [
        {
          "internalType": "bool",
          "name": "",
          "type": "bool"
        }
      ],
      "stateMutability": "view",
      "type": "function"
    },
    {
      "inputs": [],
      "name": "name",
      "outputs": [
        {
          "internalType": "string",
          "name": "",
          "type": "string"
        }
      ],
      "stateMutability": "view",
      "type": "function"
    },
    {
      "inputs": [],
      "name": "owner",
      "outputs": [
        {
          "internalType": "address",
          "name": "",
          "type": "address"
        }
      ],
      "stateMutability": "view",
      "type": "function"
    },
    {
      "inputs": [
        {
          "internalType": "uint256",
          "name": "tokenId",
          "type": "uint256"
        }
      ],
      "name": "ownerOf",
      "outputs": [
        {
          "internalType": "address",
          "name": "",
          "type": "address"
        }
      ],
      "stateMutability": "view",
      "type": "function"
    },
    {
      "inputs": [],
      "name": "renounceOwnership",
      "outputs": [],
      "stateMutability": "nonpayable",
      "type": "function"
    },
    {
      "inputs": [
        {
          "internalType": "address",
          "name": "from",
          "type": "address"
        },
        {
          "internalType": "address",
          "name": "to",
          "type": "address"
        },
        {
          "internalType": "uint256",
          "name": "tokenId",
          "type": "uint256"
        }
      ],
      "name": "safeTransferFrom",
      "outputs": [],
      "stateMutability": "nonpayable",
      "type": "function"
    },
    {
      "inputs": [
        {
          "internalType": "address",
          "name": "from",
          "type": "address"
        },
        {
          "internalType": "address",
          "name": "to",
          "type": "address"
        },
        {
          "internalType": "uint256",
          "name": "tokenId",
          "type": "uint256"
        },
        {
          "internalType": "bytes",
          "name": "_data",
          "type": "bytes"
        }
      ],
      "name": "safeTransferFrom",
      "outputs": [],
      "stateMutability": "nonpayable",
      "type": "function"
    },
    {
      "inputs": [
        {
          "internalType": "address",
          "name": "operator",
          "type": "address"
        },
        {
          "internalType": "bool",
          "name": "approved",
          "type": "bool"
        }
      ],
      "name": "setApprovalForAll",
      "outputs": [],
      "stateMutability": "nonpayable",
      "type": "function"
    },
    {
      "inputs": [
        {
          "internalType": "bytes4",
          "name": "interfaceId",
          "type": "bytes4"
        }
      ],
      "name": "supportsInterface",
      "outputs": [
        {
          "internalType": "bool",
          "name": "",
          "type": "bool"
        }
      ],
      "stateMutability": "view",
      "type": "function"
    },
    {
      "inputs": [],
      "name": "symbol",
      "outputs": [
        {
          "internalType": "string",
          "name": "",
          "type": "string"
        }
      ],
      "stateMutability": "view",
      "type": "function"
    },
    {
      "inputs": [
        {
          "internalType": "address",
          "name": "from",
          "type": "address"
        },
        {
          "internalType": "address",
          "name": "to",
          "type": "address"
        },
        {
          "internalType": "uint256",
          "name": "tokenId",
          "type": "uint256"
        }
      ],
      "name": "transferFrom",
      "outputs": [],
      "stateMutability": "nonpayable",
      "type": "function"
    },
    {
      "inputs": [
        {
          "internalType": "address",
          "name": "newOwner",
          "type": "address"
        }
      ],
      "name": "transferOwnership",
      "outputs": [],
      "stateMutability": "nonpayable",
      "type": "function"
    },
    {
      "stateMutability": "payable",
      "type": "receive"
    },
    {
      "inputs": [
        {
          "internalType": "string",
          "name": "inputbaseURI",
          "type": "string"
        }
      ],
      "name": "setBaseURI",
      "outputs": [],
      "stateMutability": "nonpayable",
      "type": "function"
    },
    {
      "inputs": [
        {
          "internalType": "uint256",
          "name": "tokenId",
          "type": "uint256"
        }
      ],
      "name": "tokenURI",
      "outputs": [
        {
          "internalType": "string",
          "name": "",
          "type": "string"
        }
      ],
      "stateMutability": "view",
      "type": "function"
    },
    {
      "inputs": [
        {
          "internalType": "address",
          "name": "to",
          "type": "address"
        },
        {
          "internalType": "string",
          "name": "game_id",
          "type": "string"
        },
        {
          "internalType": "string",
          "name": "item_id",
          "type": "string"
        }
      ],
      "name": "mint",
      "outputs": [],
      "stateMutability": "nonpayable",
      "type": "function"
    },
    {
      "inputs": [
        {
          "internalType": "address",
          "name": "_address",
          "type": "address"
        }
      ],
      "name": "addAdminAddress",
      "outputs": [],
      "stateMutability": "nonpayable",
      "type": "function"
    },
    {
      "inputs": [
        {
          "internalType": "address",
          "name": "_address",
          "type": "address"
        }
      ],
      "name": "removeAdminAddress",
      "outputs": [],
      "stateMutability": "nonpayable",
      "type": "function"
    },
    {
      "inputs": [
        {
          "internalType": "address",
          "name": "_address",
          "type": "address"
        }
      ],
      "name": "isAdminAddress",
      "outputs": [
        {
          "internalType": "bool",
          "name": "",
          "type": "bool"
        }
      ],
      "stateMutability": "view",
      "type": "function"
    },
    {
      "inputs": [
        {
          "internalType": "uint256",
          "name": "tokenId",
          "type": "uint256"
        },
        {
          "internalType": "uint256",
          "name": "price",
          "type": "uint256"
        }
      ],
      "name": "listNFTOnMarket",
      "outputs": [],
      "stateMutability": "payable",
      "type": "function"
    },
    {
      "inputs": [
        {
          "internalType": "uint256",
          "name": "tokenId",
          "type": "uint256"
        }
      ],
      "name": "removeNFTFromMarket",
      "outputs": [],
      "stateMutability": "nonpayable",
      "type": "function"
    },
    {
      "inputs": [
        {
          "internalType": "uint256",
          "name": "tokenId",
          "type": "uint256"
        }
      ],
      "name": "purchaseNFT",
      "outputs": [
        {
          "internalType": "address",
          "name": "",
          "type": "address"
        },
        {
          "internalType": "address",
          "name": "",
          "type": "address"
        },
        {
          "internalType": "uint256",
          "name": "",
          "type": "uint256"
        },
        {
          "internalType": "uint256",
          "name": "",
          "type": "uint256"
        }
      ],
      "stateMutability": "payable",
      "type": "function"
    },
    {
      "inputs": [
        {
          "internalType": "uint256",
          "name": "tokenId",
          "type": "uint256"
        }
      ],
      "name": "fetchNFTDataById",
      "outputs": [
        {
          "internalType": "string",
          "name": "",
          "type": "string"
        },
        {
          "internalType": "uint256",
          "name": "",
          "type": "uint256"
        },
        {
          "internalType": "address",
          "name": "",
          "type": "address"
        }
      ],
      "stateMutability": "view",
      "type": "function"
    },
    {
      "inputs": [
        {
          "internalType": "address",
          "name": "_address",
          "type": "address"
        }
      ],
      "name": "multiCallNFTsOwnedByAddress",
      "outputs": [
        {
          "internalType": "uint256[]",
          "name": "",
          "type": "uint256[]"
        },
        {
          "internalType": "string[]",
          "name": "",
          "type": "string[]"
        }
      ],
      "stateMutability": "view",
      "type": "function"
    },
    {
      "inputs": [
        {
          "internalType": "address",
          "name": "seller",
          "type": "address"
        }
      ],
      "name": "multiCallNFTsOnMarket",
      "outputs": [
        {
          "internalType": "uint256[]",
          "name": "",
          "type": "uint256[]"
        },
        {
          "internalType": "string[]",
          "name": "",
          "type": "string[]"
        },
        {
          "internalType": "uint256[]",
          "name": "",
          "type": "uint256[]"
        },
        {
          "internalType": "address[]",
          "name": "",
          "type": "address[]"
        }
      ],
      "stateMutability": "view",
      "type": "function"
    },
    {
      "inputs": [],
      "name": "multiCallNFTsOnMarket",
      "outputs": [
        {
          "internalType": "uint256[]",
          "name": "",
          "type": "uint256[]"
        },
        {
          "internalType": "string[]",
          "name": "",
          "type": "string[]"
        },
        {
          "internalType": "uint256[]",
          "name": "",
          "type": "uint256[]"
        },
        {
          "internalType": "address[]",
          "name": "",
          "type": "address[]"
        }
      ],
      "stateMutability": "view",
      "type": "function"
    },
    {
      "inputs": [
        {
          "internalType": "address",
          "name": "user",
          "type": "address"
        }
      ],
      "name": "multiCallTransactionDataByUser",
      "outputs": [
        {
          "internalType": "uint256[]",
          "name": "",
          "type": "uint256[]"
        },
        {
          "internalType": "address[]",
          "name": "",
          "type": "address[]"
        },
        {
          "internalType": "address[]",
          "name": "",
          "type": "address[]"
        },
        {
          "internalType": "uint256[]",
          "name": "",
          "type": "uint256[]"
        },
        {
          "internalType": "uint256[]",
          "name": "",
          "type": "uint256[]"
        },
        {
          "internalType": "bool[]",
          "name": "",
          "type": "bool[]"
        }
      ],
      "stateMutability": "view",
      "type": "function"
    },
    {
      "inputs": [],
      "name": "kill",
      "outputs": [],
      "stateMutability": "nonpayable",
      "type": "function"
    },
    {
      "inputs": [
        {
          "internalType": "address",
          "name": "",
          "type": "address"
        },
        {
          "internalType": "address",
          "name": "",
          "type": "address"
        },
        {
          "internalType": "uint256",
          "name": "",
          "type": "uint256"
        },
        {
          "internalType": "bytes",
          "name": "",
          "type": "bytes"
        }
      ],
      "name": "onERC721Received",
      "outputs": [
        {
          "internalType": "bytes4",
          "name": "",
          "type": "bytes4"
        }
      ],
      "stateMutability": "nonpayable",
      "type": "function"
    }
  ],
  "bytecode": "0x60806040526000600d556000600e553480156200001b57600080fd5b506040518060400160405280600981526020017f41757869756e4e465400000000000000000000000000000000000000000000008152506040518060400160405280600481526020017f4155584e00000000000000000000000000000000000000000000000000000000815250620000a86200009c6200011460201b60201c565b6200011c60201b60201c565b8160019080519060200190620000c0929190620001e0565b508060029080519060200190620000d9929190620001e0565b505050604051806060016040528060228152602001620066ae60229139600c90805190602001906200010d929190620001e0565b50620002f5565b600033905090565b60008060009054906101000a900473ffffffffffffffffffffffffffffffffffffffff169050816000806101000a81548173ffffffffffffffffffffffffffffffffffffffff021916908373ffffffffffffffffffffffffffffffffffffffff1602179055508173ffffffffffffffffffffffffffffffffffffffff168173ffffffffffffffffffffffffffffffffffffffff167f8be0079c531659141344cd1fd0a4f28419497f9722a3daafe3b4186f6b6457e060405160405180910390a35050565b828054620001ee9062000290565b90600052602060002090601f0160209004810192826200021257600085556200025e565b82601f106200022d57805160ff19168380011785556200025e565b828001600101855582156200025e579182015b828111156200025d57825182559160200191906001019062000240565b5b5090506200026d919062000271565b5090565b5b808211156200028c57600081600090555060010162000272565b5090565b60006002820490506001821680620002a957607f821691505b60208210811415620002c057620002bf620002c6565b5b50919050565b7f4e487b7100000000000000000000000000000000000000000000000000000000600052602260045260246000fd5b6163a980620003056000396000f3fe6080604052600436106101db5760003560e01c8063715018a61161010257806399eca17d11610095578063c87b56dd11610064578063c87b56dd146106dc578063e985e9c514610719578063f2fde38b14610756578063fc510fab1461077f576101e2565b806399eca17d146106095780639a8193031461064b578063a22cb4651461068a578063b88d4fde146106b3576101e2565b80638da5cb5b116100d15780638da5cb5b14610561578063951011811461058c57806395d89b41146105b557806399071190146105e0576101e2565b8063715018a6146104c0578063741e0320146104d75780637bb73563146104f35780637e20b6ea14610533576101e2565b8063150bde031161017a57806342842e0e1161014957806342842e0e146103f457806355f804b31461041d5780636352211e1461044657806370a0823114610483576101e2565b8063150bde03146103585780631684fd241461038b57806323b872dd146103b457806341c0e1b5146103dd576101e2565b806306fdde03116101b657806306fdde031461028a578063081812fc146102b5578063095ea7b3146102f2578063150b7a021461031b576101e2565b80624fba00146101e757806301ffc9a7146102105780630236bb5a1461024d576101e2565b366101e257005b600080fd5b3480156101f357600080fd5b5061020e60048036038101906102099190614aeb565b6107bd565b005b34801561021c57600080fd5b5061023760048036038101906102329190614d11565b610894565b6040516102449190615b1a565b60405180910390f35b34801561025957600080fd5b50610274600480360381019061026f9190614aeb565b610976565b6040516102819190615b1a565b60405180910390f35b34801561029657600080fd5b5061029f6109cc565b6040516102ac9190615b50565b60405180910390f35b3480156102c157600080fd5b506102dc60048036038101906102d79190614da4565b610a5e565b6040516102e9919061594b565b60405180910390f35b3480156102fe57600080fd5b5061031960048036038101906103149190614cd5565b610ae3565b005b34801561032757600080fd5b50610342600480360381019061033d9190614b9f565b610bfb565b60405161034f9190615b35565b60405180910390f35b610372600480360381019061036d9190614da4565b610c0f565b60405161038294939291906159b2565b60405180910390f35b34801561039757600080fd5b506103b260048036038101906103ad9190614da4565b611109565b005b3480156103c057600080fd5b506103db60048036038101906103d69190614b50565b61121f565b005b3480156103e957600080fd5b506103f261127f565b005b34801561040057600080fd5b5061041b60048036038101906104169190614b50565b61131b565b005b34801561042957600080fd5b50610444600480360381019061043f9190614d63565b61133b565b005b34801561045257600080fd5b5061046d60048036038101906104689190614da4565b6113d1565b60405161047a919061594b565b60405180910390f35b34801561048f57600080fd5b506104aa60048036038101906104a59190614aeb565b611483565b6040516104b79190615eb0565b60405180910390f35b3480156104cc57600080fd5b506104d561153b565b005b6104f160048036038101906104ec9190614dcd565b6115c3565b005b3480156104ff57600080fd5b5061051a60048036038101906105159190614aeb565b6117cc565b60405161052a9493929190615ab9565b60405180910390f35b34801561053f57600080fd5b50610548611daf565b6040516105589493929190615ab9565b60405180910390f35b34801561056d57600080fd5b506105766121e2565b604051610583919061594b565b60405180910390f35b34801561059857600080fd5b506105b360048036038101906105ae9190614aeb565b61220b565b005b3480156105c157600080fd5b506105ca6122e2565b6040516105d79190615b50565b60405180910390f35b3480156105ec57600080fd5b5061060760048036038101906106029190614c56565b612374565b005b34801561061557600080fd5b50610630600480360381019061062b9190614aeb565b612494565b604051610642969594939291906159f7565b60405180910390f35b34801561065757600080fd5b50610672600480360381019061066d9190614da4565b612f0f565b60405161068193929190615b72565b60405180910390f35b34801561069657600080fd5b506106b160048036038101906106ac9190614c1a565b612f78565b005b3480156106bf57600080fd5b506106da60048036038101906106d59190614b9f565b6130f9565b005b3480156106e857600080fd5b5061070360048036038101906106fe9190614da4565b61315b565b6040516107109190615b50565b60405180910390f35b34801561072557600080fd5b50610740600480360381019061073b9190614b14565b613340565b60405161074d9190615b1a565b60405180910390f35b34801561076257600080fd5b5061077d60048036038101906107789190614aeb565b6133d4565b005b34801561078b57600080fd5b506107a660048036038101906107a19190614aeb565b6134cc565b6040516107b4929190615a82565b60405180910390f35b6107c56136ea565b73ffffffffffffffffffffffffffffffffffffffff166107e36121e2565b73ffffffffffffffffffffffffffffffffffffffff1614610839576040517f08c379a000000000000000000000000000000000000000000000000000000000815260040161083090615d90565b60405180910390fd5b6001600b60008373ffffffffffffffffffffffffffffffffffffffff1673ffffffffffffffffffffffffffffffffffffffff16815260200190815260200160002060006101000a81548160ff02191690831515021790555050565b60007f80ac58cd000000000000000000000000000000000000000000000000000000007bffffffffffffffffffffffffffffffffffffffffffffffffffffffff1916827bffffffffffffffffffffffffffffffffffffffffffffffffffffffff1916148061095f57507f5b5e139f000000000000000000000000000000000000000000000000000000007bffffffffffffffffffffffffffffffffffffffffffffffffffffffff1916827bffffffffffffffffffffffffffffffffffffffffffffffffffffffff1916145b8061096f575061096e826136f2565b5b9050919050565b6000600b60008373ffffffffffffffffffffffffffffffffffffffff1673ffffffffffffffffffffffffffffffffffffffff16815260200190815260200160002060009054906101000a900460ff169050919050565b6060600180546109db906161fe565b80601f0160208091040260200160405190810160405280929190818152602001828054610a07906161fe565b8015610a545780601f10610a2957610100808354040283529160200191610a54565b820191906000526020600020905b815481529060010190602001808311610a3757829003601f168201915b5050505050905090565b6000610a698261375c565b610aa8576040517f08c379a0000000000000000000000000000000000000000000000000000000008152600401610a9f90615d70565b60405180910390fd5b6005600083815260200190815260200160002060009054906101000a900473ffffffffffffffffffffffffffffffffffffffff169050919050565b6000610aee826113d1565b90508073ffffffffffffffffffffffffffffffffffffffff168373ffffffffffffffffffffffffffffffffffffffff161415610b5f576040517f08c379a0000000000000000000000000000000000000000000000000000000008152600401610b5690615e10565b60405180910390fd5b8073ffffffffffffffffffffffffffffffffffffffff16610b7e6136ea565b73ffffffffffffffffffffffffffffffffffffffff161480610bad5750610bac81610ba76136ea565b613340565b5b610bec576040517f08c379a0000000000000000000000000000000000000000000000000000000008152600401610be390615cf0565b60405180910390fd5b610bf683836137c8565b505050565b600063150b7a0260e01b9050949350505050565b60008060008084610c1f8161375c565b610c5e576040517f08c379a0000000000000000000000000000000000000000000000000000000008152600401610c5590615e70565b60405180910390fd5b3373ffffffffffffffffffffffffffffffffffffffff166007600088815260200190815260200160002060020160009054906101000a900473ffffffffffffffffffffffffffffffffffffffff1673ffffffffffffffffffffffffffffffffffffffff161415610d03576040517f08c379a0000000000000000000000000000000000000000000000000000000008152600401610cfa90615bb0565b60405180910390fd5b6007600087815260200190815260200160002060000160009054906101000a900460ff16610d66576040517f08c379a0000000000000000000000000000000000000000000000000000000008152600401610d5d90615df0565b60405180910390fd5b3460076000888152602001908152602001600020600101541115610dbf576040517f08c379a0000000000000000000000000000000000000000000000000000000008152600401610db690615e50565b60405180910390fd5b60006007600088815260200190815260200160002060020160009054906101000a900473ffffffffffffffffffffffffffffffffffffffff169050600060076000898152602001908152602001600020600101549050610e5588600760008b815260200190815260200160002060020160009054906101000a900473ffffffffffffffffffffffffffffffffffffffff16613881565b60008273ffffffffffffffffffffffffffffffffffffffff1634604051610e7b90615936565b60006040518083038185875af1925050503d8060008114610eb8576040519150601f19603f3d011682016040523d82523d6000602084013e610ebd565b606091505b5050905080610f01576040517f08c379a0000000000000000000000000000000000000000000000000000000008152600401610ef890615e90565b60405180910390fd5b610f1c30338b604051806020016040528060008152506139f9565b60096040518060a001604052808b81526020013373ffffffffffffffffffffffffffffffffffffffff1681526020018573ffffffffffffffffffffffffffffffffffffffff1681526020018481526020014281525090806001815401808255809150506001900390600052602060002090600502016000909190919091506000820151816000015560208201518160010160006101000a81548173ffffffffffffffffffffffffffffffffffffffff021916908373ffffffffffffffffffffffffffffffffffffffff16021790555060408201518160020160006101000a81548173ffffffffffffffffffffffffffffffffffffffff021916908373ffffffffffffffffffffffffffffffffffffffff16021790555060608201518160030155608082015181600401555050600a60003373ffffffffffffffffffffffffffffffffffffffff1673ffffffffffffffffffffffffffffffffffffffff168152602001908152602001600020600081548092919061109890616230565b9190505550600a60008473ffffffffffffffffffffffffffffffffffffffff1673ffffffffffffffffffffffffffffffffffffffff16815260200190815260200160002060008154809291906110ed90616230565b919050555033838a349750975097509750505050509193509193565b806111138161375c565b611152576040517f08c379a000000000000000000000000000000000000000000000000000000000815260040161114990615e70565b60405180910390fd5b3373ffffffffffffffffffffffffffffffffffffffff166007600084815260200190815260200160002060020160009054906101000a900473ffffffffffffffffffffffffffffffffffffffff1673ffffffffffffffffffffffffffffffffffffffff16146111f6576040517f08c379a00000000000000000000000000000000000000000000000000000000081526004016111ed90615cb0565b60405180910390fd5b6112008233613881565b61121b303384604051806020016040528060008152506139f9565b5050565b61123061122a6136ea565b82613a55565b61126f576040517f08c379a000000000000000000000000000000000000000000000000000000000815260040161126690615e30565b60405180910390fd5b61127a838383613b33565b505050565b6112876136ea565b73ffffffffffffffffffffffffffffffffffffffff166112a56121e2565b73ffffffffffffffffffffffffffffffffffffffff16146112fb576040517f08c379a00000000000000000000000000000000000000000000000000000000081526004016112f290615d90565b60405180910390fd5b6113036121e2565b73ffffffffffffffffffffffffffffffffffffffff16ff5b611336838383604051806020016040528060008152506130f9565b505050565b6113436136ea565b73ffffffffffffffffffffffffffffffffffffffff166113616121e2565b73ffffffffffffffffffffffffffffffffffffffff16146113b7576040517f08c379a00000000000000000000000000000000000000000000000000000000081526004016113ae90615d90565b60405180910390fd5b80600c90805190602001906113cd92919061490f565b5050565b6000806003600084815260200190815260200160002060009054906101000a900473ffffffffffffffffffffffffffffffffffffffff169050600073ffffffffffffffffffffffffffffffffffffffff168173ffffffffffffffffffffffffffffffffffffffff16141561147a576040517f08c379a000000000000000000000000000000000000000000000000000000000815260040161147190615d30565b60405180910390fd5b80915050919050565b60008073ffffffffffffffffffffffffffffffffffffffff168273ffffffffffffffffffffffffffffffffffffffff1614156114f4576040517f08c379a00000000000000000000000000000000000000000000000000000000081526004016114eb90615d10565b60405180910390fd5b600460008373ffffffffffffffffffffffffffffffffffffffff1673ffffffffffffffffffffffffffffffffffffffff168152602001908152602001600020549050919050565b6115436136ea565b73ffffffffffffffffffffffffffffffffffffffff166115616121e2565b73ffffffffffffffffffffffffffffffffffffffff16146115b7576040517f08c379a00000000000000000000000000000000000000000000000000000000081526004016115ae90615d90565b60405180910390fd5b6115c16000613d8f565b565b816115cd8161375c565b61160c576040517f08c379a000000000000000000000000000000000000000000000000000000000815260040161160390615e70565b60405180910390fd5b823373ffffffffffffffffffffffffffffffffffffffff1661162d826113d1565b73ffffffffffffffffffffffffffffffffffffffff1614611683576040517f08c379a000000000000000000000000000000000000000000000000000000000815260040161167a90615bd0565b60405180910390fd5b60405180606001604052806001151581526020018481526020013373ffffffffffffffffffffffffffffffffffffffff168152506007600086815260200190815260200160002060008201518160000160006101000a81548160ff0219169083151502179055506020820151816001015560408201518160020160006101000a81548173ffffffffffffffffffffffffffffffffffffffff021916908373ffffffffffffffffffffffffffffffffffffffff160217905550905050600f60003373ffffffffffffffffffffffffffffffffffffffff1673ffffffffffffffffffffffffffffffffffffffff168152602001908152602001600020600081548092919061178e90616230565b9190505550600e60008154809291906117a690616230565b91905055506117c6333086604051806020016040528060008152506139f9565b50505050565b6060806060806000600f60008773ffffffffffffffffffffffffffffffffffffffff1673ffffffffffffffffffffffffffffffffffffffff1681526020019081526020016000205467ffffffffffffffff811115611853577f4e487b7100000000000000000000000000000000000000000000000000000000600052604160045260246000fd5b6040519080825280602002602001820160405280156118815781602001602082028036833780820191505090505b50905061188c613e53565b90506000600f60008873ffffffffffffffffffffffffffffffffffffffff1673ffffffffffffffffffffffffffffffffffffffff1681526020019081526020016000205467ffffffffffffffff81111561190f577f4e487b7100000000000000000000000000000000000000000000000000000000600052604160045260246000fd5b60405190808252806020026020018201604052801561194257816020015b606081526020019060019003908161192d5790505b5090506000600f60008973ffffffffffffffffffffffffffffffffffffffff1673ffffffffffffffffffffffffffffffffffffffff1681526020019081526020016000205467ffffffffffffffff8111156119c6577f4e487b7100000000000000000000000000000000000000000000000000000000600052604160045260246000fd5b6040519080825280602002602001820160405280156119f45781602001602082028036833780820191505090505b5090506000600f60008a73ffffffffffffffffffffffffffffffffffffffff1673ffffffffffffffffffffffffffffffffffffffff1681526020019081526020016000205467ffffffffffffffff811115611a78577f4e487b7100000000000000000000000000000000000000000000000000000000600052604160045260246000fd5b604051908082528060200260200182016040528015611aa65781602001602082028036833780820191505090505b5090506000805b600e54811015611d965760076000878381518110611af4577f4e487b7100000000000000000000000000000000000000000000000000000000600052603260045260246000fd5b6020026020010151815260200190815260200160002060020160009054906101000a900473ffffffffffffffffffffffffffffffffffffffff1673ffffffffffffffffffffffffffffffffffffffff168b73ffffffffffffffffffffffffffffffffffffffff161415611d8357611baa868281518110611b9d577f4e487b7100000000000000000000000000000000000000000000000000000000600052603260045260246000fd5b602002602001015161315b565b858381518110611be3577f4e487b7100000000000000000000000000000000000000000000000000000000600052603260045260246000fd5b602002602001018190525060076000878381518110611c2b577f4e487b7100000000000000000000000000000000000000000000000000000000600052603260045260246000fd5b6020026020010151815260200190815260200160002060010154848381518110611c7e577f4e487b7100000000000000000000000000000000000000000000000000000000600052603260045260246000fd5b60200260200101818152505060076000878381518110611cc7577f4e487b7100000000000000000000000000000000000000000000000000000000600052603260045260246000fd5b6020026020010151815260200190815260200160002060020160009054906101000a900473ffffffffffffffffffffffffffffffffffffffff16838381518110611d3a577f4e487b7100000000000000000000000000000000000000000000000000000000600052603260045260246000fd5b602002602001019073ffffffffffffffffffffffffffffffffffffffff16908173ffffffffffffffffffffffffffffffffffffffff16815250508180611d7f90616230565b9250505b8080611d8e90616230565b915050611aad565b5084848484985098509850985050505050509193509193565b6060806060806000600e5467ffffffffffffffff811115611df9577f4e487b7100000000000000000000000000000000000000000000000000000000600052604160045260246000fd5b604051908082528060200260200182016040528015611e275781602001602082028036833780820191505090505b509050611e32613e53565b90506000600e5467ffffffffffffffff811115611e78577f4e487b7100000000000000000000000000000000000000000000000000000000600052604160045260246000fd5b604051908082528060200260200182016040528015611eab57816020015b6060815260200190600190039081611e965790505b5090506000600e5467ffffffffffffffff811115611ef2577f4e487b7100000000000000000000000000000000000000000000000000000000600052604160045260246000fd5b604051908082528060200260200182016040528015611f205781602001602082028036833780820191505090505b5090506000600e5467ffffffffffffffff811115611f67577f4e487b7100000000000000000000000000000000000000000000000000000000600052604160045260246000fd5b604051908082528060200260200182016040528015611f955781602001602082028036833780820191505090505b50905060005b600e548110156121cb57611fee858281518110611fe1577f4e487b7100000000000000000000000000000000000000000000000000000000600052603260045260246000fd5b602002602001015161315b565b848281518110612027577f4e487b7100000000000000000000000000000000000000000000000000000000600052603260045260246000fd5b60200260200101819052506007600086838151811061206f577f4e487b7100000000000000000000000000000000000000000000000000000000600052603260045260246000fd5b60200260200101518152602001908152602001600020600101548382815181106120c2577f4e487b7100000000000000000000000000000000000000000000000000000000600052603260045260246000fd5b6020026020010181815250506007600086838151811061210b577f4e487b7100000000000000000000000000000000000000000000000000000000600052603260045260246000fd5b6020026020010151815260200190815260200160002060020160009054906101000a900473ffffffffffffffffffffffffffffffffffffffff1682828151811061217e577f4e487b7100000000000000000000000000000000000000000000000000000000600052603260045260246000fd5b602002602001019073ffffffffffffffffffffffffffffffffffffffff16908173ffffffffffffffffffffffffffffffffffffffff168152505080806121c390616230565b915050611f9b565b508383838397509750975097505050505090919293565b60008060009054906101000a900473ffffffffffffffffffffffffffffffffffffffff16905090565b6122136136ea565b73ffffffffffffffffffffffffffffffffffffffff166122316121e2565b73ffffffffffffffffffffffffffffffffffffffff1614612287576040517f08c379a000000000000000000000000000000000000000000000000000000000815260040161227e90615d90565b60405180910390fd5b6000600b60008373ffffffffffffffffffffffffffffffffffffffff1673ffffffffffffffffffffffffffffffffffffffff16815260200190815260200160002060006101000a81548160ff02191690831515021790555050565b6060600280546122f1906161fe565b80601f016020809104026020016040519081016040528092919081815260200182805461231d906161fe565b801561236a5780601f1061233f5761010080835404028352916020019161236a565b820191906000526020600020905b81548152906001019060200180831161234d57829003601f168201915b5050505050905090565b600b60003373ffffffffffffffffffffffffffffffffffffffff1673ffffffffffffffffffffffffffffffffffffffff16815260200190815260200160002060009054906101000a900460ff16612400576040517f08c379a00000000000000000000000000000000000000000000000000000000081526004016123f790615c50565b60405180910390fd5b6000600d549050600d600081548092919061241a90616230565b919050555060405180604001604052808481526020018381525060086000838152602001908152602001600020600082015181600001908051906020019061246392919061490f565b50602082015181600101908051906020019061248092919061490f565b5090505061248e8482613f72565b50505050565b6060806060806060806000600a60008973ffffffffffffffffffffffffffffffffffffffff1673ffffffffffffffffffffffffffffffffffffffff1681526020019081526020016000205467ffffffffffffffff81111561251e577f4e487b7100000000000000000000000000000000000000000000000000000000600052604160045260246000fd5b60405190808252806020026020018201604052801561254c5781602001602082028036833780820191505090505b5090506000600a60008a73ffffffffffffffffffffffffffffffffffffffff1673ffffffffffffffffffffffffffffffffffffffff1681526020019081526020016000205467ffffffffffffffff8111156125d0577f4e487b7100000000000000000000000000000000000000000000000000000000600052604160045260246000fd5b6040519080825280602002602001820160405280156125fe5781602001602082028036833780820191505090505b5090506000600a60008b73ffffffffffffffffffffffffffffffffffffffff1673ffffffffffffffffffffffffffffffffffffffff1681526020019081526020016000205467ffffffffffffffff811115612682577f4e487b7100000000000000000000000000000000000000000000000000000000600052604160045260246000fd5b6040519080825280602002602001820160405280156126b05781602001602082028036833780820191505090505b5090506000600a60008c73ffffffffffffffffffffffffffffffffffffffff1673ffffffffffffffffffffffffffffffffffffffff1681526020019081526020016000205467ffffffffffffffff811115612734577f4e487b7100000000000000000000000000000000000000000000000000000000600052604160045260246000fd5b6040519080825280602002602001820160405280156127625781602001602082028036833780820191505090505b5090506000600a60008d73ffffffffffffffffffffffffffffffffffffffff1673ffffffffffffffffffffffffffffffffffffffff1681526020019081526020016000205467ffffffffffffffff8111156127e6577f4e487b7100000000000000000000000000000000000000000000000000000000600052604160045260246000fd5b6040519080825280602002602001820160405280156128145781602001602082028036833780820191505090505b5090506000600a60008e73ffffffffffffffffffffffffffffffffffffffff1673ffffffffffffffffffffffffffffffffffffffff1681526020019081526020016000205467ffffffffffffffff811115612898577f4e487b7100000000000000000000000000000000000000000000000000000000600052604160045260246000fd5b6040519080825280602002602001820160405280156128c65781602001602082028036833780820191505090505b5090506000805b600980549050811015612eec5760098181548110612914577f4e487b7100000000000000000000000000000000000000000000000000000000600052603260045260246000fd5b906000526020600020906005020160010160009054906101000a900473ffffffffffffffffffffffffffffffffffffffff1673ffffffffffffffffffffffffffffffffffffffff168f73ffffffffffffffffffffffffffffffffffffffff161480612a155750600981815481106129b4577f4e487b7100000000000000000000000000000000000000000000000000000000600052603260045260246000fd5b906000526020600020906005020160020160009054906101000a900473ffffffffffffffffffffffffffffffffffffffff1673ffffffffffffffffffffffffffffffffffffffff168f73ffffffffffffffffffffffffffffffffffffffff16145b15612ed95760098181548110612a54577f4e487b7100000000000000000000000000000000000000000000000000000000600052603260045260246000fd5b906000526020600020906005020160000154888381518110612a9f577f4e487b7100000000000000000000000000000000000000000000000000000000600052603260045260246000fd5b60200260200101818152505060098181548110612ae5577f4e487b7100000000000000000000000000000000000000000000000000000000600052603260045260246000fd5b906000526020600020906005020160010160009054906101000a900473ffffffffffffffffffffffffffffffffffffffff16878381518110612b50577f4e487b7100000000000000000000000000000000000000000000000000000000600052603260045260246000fd5b602002602001019073ffffffffffffffffffffffffffffffffffffffff16908173ffffffffffffffffffffffffffffffffffffffff168152505060098181548110612bc4577f4e487b7100000000000000000000000000000000000000000000000000000000600052603260045260246000fd5b906000526020600020906005020160020160009054906101000a900473ffffffffffffffffffffffffffffffffffffffff16868381518110612c2f577f4e487b7100000000000000000000000000000000000000000000000000000000600052603260045260246000fd5b602002602001019073ffffffffffffffffffffffffffffffffffffffff16908173ffffffffffffffffffffffffffffffffffffffff168152505060098181548110612ca3577f4e487b7100000000000000000000000000000000000000000000000000000000600052603260045260246000fd5b906000526020600020906005020160030154858381518110612cee577f4e487b7100000000000000000000000000000000000000000000000000000000600052603260045260246000fd5b60200260200101818152505060098181548110612d34577f4e487b7100000000000000000000000000000000000000000000000000000000600052603260045260246000fd5b906000526020600020906005020160040154848381518110612d7f577f4e487b7100000000000000000000000000000000000000000000000000000000600052603260045260246000fd5b60200260200101818152505060098181548110612dc5577f4e487b7100000000000000000000000000000000000000000000000000000000600052603260045260246000fd5b906000526020600020906005020160010160009054906101000a900473ffffffffffffffffffffffffffffffffffffffff1673ffffffffffffffffffffffffffffffffffffffff168f73ffffffffffffffffffffffffffffffffffffffff161415612e7c576001838381518110612e65577f4e487b7100000000000000000000000000000000000000000000000000000000600052603260045260246000fd5b602002602001019015159081151581525050612eca565b6000838381518110612eb7577f4e487b7100000000000000000000000000000000000000000000000000000000600052603260045260246000fd5b6020026020010190151590811515815250505b8180612ed590616230565b9250505b8080612ee490616230565b9150506128cd565b508686868686869c509c509c509c509c509c505050505050505091939550919395565b6060600080612f1d8461315b565b60076000868152602001908152602001600020600101546007600087815260200190815260200160002060020160009054906101000a900473ffffffffffffffffffffffffffffffffffffffff169250925092509193909250565b612f806136ea565b73ffffffffffffffffffffffffffffffffffffffff168273ffffffffffffffffffffffffffffffffffffffff161415612fee576040517f08c379a0000000000000000000000000000000000000000000000000000000008152600401612fe590615c90565b60405180910390fd5b8060066000612ffb6136ea565b73ffffffffffffffffffffffffffffffffffffffff1673ffffffffffffffffffffffffffffffffffffffff16815260200190815260200160002060008473ffffffffffffffffffffffffffffffffffffffff1673ffffffffffffffffffffffffffffffffffffffff16815260200190815260200160002060006101000a81548160ff0219169083151502179055508173ffffffffffffffffffffffffffffffffffffffff166130a86136ea565b73ffffffffffffffffffffffffffffffffffffffff167f17307eab39ab6107e8899845ad3d59bd9653f200f220920489ca2b5937696c31836040516130ed9190615b1a565b60405180910390a35050565b61310a6131046136ea565b83613a55565b613149576040517f08c379a000000000000000000000000000000000000000000000000000000000815260040161314090615e30565b60405180910390fd5b613155848484846139f9565b50505050565b60606131668261375c565b6131a5576040517f08c379a000000000000000000000000000000000000000000000000000000000815260040161319c90615dd0565b60405180910390fd5b6133396131b0613f90565b6008600085815260200190815260200160002060000180546131d1906161fe565b80601f01602080910402602001604051908101604052809291908181526020018280546131fd906161fe565b801561324a5780601f1061321f5761010080835404028352916020019161324a565b820191906000526020600020905b81548152906001019060200180831161322d57829003601f168201915b50505050506040518060400160405280600181526020017f2f000000000000000000000000000000000000000000000000000000000000008152506008600087815260200190815260200160002060010180546132a6906161fe565b80601f01602080910402602001604051908101604052809291908181526020018280546132d2906161fe565b801561331f5780601f106132f45761010080835404028352916020019161331f565b820191906000526020600020905b81548152906001019060200180831161330257829003601f168201915b505050505060405180602001604052806000815250614022565b9050919050565b6000600660008473ffffffffffffffffffffffffffffffffffffffff1673ffffffffffffffffffffffffffffffffffffffff16815260200190815260200160002060008373ffffffffffffffffffffffffffffffffffffffff1673ffffffffffffffffffffffffffffffffffffffff16815260200190815260200160002060009054906101000a900460ff16905092915050565b6133dc6136ea565b73ffffffffffffffffffffffffffffffffffffffff166133fa6121e2565b73ffffffffffffffffffffffffffffffffffffffff1614613450576040517f08c379a000000000000000000000000000000000000000000000000000000000815260040161344790615d90565b60405180910390fd5b600073ffffffffffffffffffffffffffffffffffffffff168173ffffffffffffffffffffffffffffffffffffffff1614156134c0576040517f08c379a00000000000000000000000000000000000000000000000000000000081526004016134b790615c10565b60405180910390fd5b6134c981613d8f565b50565b60608060006134da84611483565b67ffffffffffffffff811115613519577f4e487b7100000000000000000000000000000000000000000000000000000000600052604160045260246000fd5b6040519080825280602002602001820160405280156135475781602001602082028036833780820191505090505b509050600061355585611483565b67ffffffffffffffff811115613594577f4e487b7100000000000000000000000000000000000000000000000000000000600052604160045260246000fd5b6040519080825280602002602001820160405280156135c757816020015b60608152602001906001900390816135b25790505b50905060006001600d546135db9190616094565b90506000805b828110156136da576135f2816113d1565b73ffffffffffffffffffffffffffffffffffffffff168873ffffffffffffffffffffffffffffffffffffffff1614156136c7578085838151811061365f577f4e487b7100000000000000000000000000000000000000000000000000000000600052603260045260246000fd5b6020026020010181815250506136748161315b565b8483815181106136ad577f4e487b7100000000000000000000000000000000000000000000000000000000600052603260045260246000fd5b602002602001018190525081806136c390616230565b9250505b80806136d290616230565b9150506135e1565b5083839550955050505050915091565b600033905090565b60007f01ffc9a7000000000000000000000000000000000000000000000000000000007bffffffffffffffffffffffffffffffffffffffffffffffffffffffff1916827bffffffffffffffffffffffffffffffffffffffffffffffffffffffff1916149050919050565b60008073ffffffffffffffffffffffffffffffffffffffff166003600084815260200190815260200160002060009054906101000a900473ffffffffffffffffffffffffffffffffffffffff1673ffffffffffffffffffffffffffffffffffffffff1614159050919050565b816005600083815260200190815260200160002060006101000a81548173ffffffffffffffffffffffffffffffffffffffff021916908373ffffffffffffffffffffffffffffffffffffffff160217905550808273ffffffffffffffffffffffffffffffffffffffff1661383b836113d1565b73ffffffffffffffffffffffffffffffffffffffff167f8c5be1e5ebec7d5bd14f71427d1e84f3dd0314c0f7b2291e5b200ac8c7c3b92560405160405180910390a45050565b8161388b8161375c565b6138ca576040517f08c379a00000000000000000000000000000000000000000000000000000000081526004016138c190615e70565b60405180910390fd5b604051806060016040528060001515815260200160008152602001600073ffffffffffffffffffffffffffffffffffffffff168152506007600085815260200190815260200160002060008201518160000160006101000a81548160ff0219169083151502179055506020820151816001015560408201518160020160006101000a81548173ffffffffffffffffffffffffffffffffffffffff021916908373ffffffffffffffffffffffffffffffffffffffff160217905550905050600f60008373ffffffffffffffffffffffffffffffffffffffff1673ffffffffffffffffffffffffffffffffffffffff16815260200190815260200160002060008154809291906139d7906161d4565b9190505550600e60008154809291906139ef906161d4565b9190505550505050565b613a04848484613b33565b613a1084848484614537565b613a4f576040517f08c379a0000000000000000000000000000000000000000000000000000000008152600401613a4690615bf0565b60405180910390fd5b50505050565b6000613a608261375c565b613a9f576040517f08c379a0000000000000000000000000000000000000000000000000000000008152600401613a9690615cd0565b60405180910390fd5b6000613aaa836113d1565b90508073ffffffffffffffffffffffffffffffffffffffff168473ffffffffffffffffffffffffffffffffffffffff161480613b1957508373ffffffffffffffffffffffffffffffffffffffff16613b0184610a5e565b73ffffffffffffffffffffffffffffffffffffffff16145b80613b2a5750613b298185613340565b5b91505092915050565b8273ffffffffffffffffffffffffffffffffffffffff16613b53826113d1565b73ffffffffffffffffffffffffffffffffffffffff1614613ba9576040517f08c379a0000000000000000000000000000000000000000000000000000000008152600401613ba090615db0565b60405180910390fd5b600073ffffffffffffffffffffffffffffffffffffffff168273ffffffffffffffffffffffffffffffffffffffff161415613c19576040517f08c379a0000000000000000000000000000000000000000000000000000000008152600401613c1090615c70565b60405180910390fd5b613c248383836146ce565b613c2f6000826137c8565b6001600460008573ffffffffffffffffffffffffffffffffffffffff1673ffffffffffffffffffffffffffffffffffffffff1681526020019081526020016000206000828254613c7f91906160ea565b925050819055506001600460008473ffffffffffffffffffffffffffffffffffffffff1673ffffffffffffffffffffffffffffffffffffffff1681526020019081526020016000206000828254613cd69190616094565b92505081905550816003600083815260200190815260200160002060006101000a81548173ffffffffffffffffffffffffffffffffffffffff021916908373ffffffffffffffffffffffffffffffffffffffff160217905550808273ffffffffffffffffffffffffffffffffffffffff168473ffffffffffffffffffffffffffffffffffffffff167fddf252ad1be2c89b69c2b068fc378daa952ba7f163c4a11628f55a4df523b3ef60405160405180910390a4505050565b60008060009054906101000a900473ffffffffffffffffffffffffffffffffffffffff169050816000806101000a81548173ffffffffffffffffffffffffffffffffffffffff021916908373ffffffffffffffffffffffffffffffffffffffff1602179055508173ffffffffffffffffffffffffffffffffffffffff168173ffffffffffffffffffffffffffffffffffffffff167f8be0079c531659141344cd1fd0a4f28419497f9722a3daafe3b4186f6b6457e060405160405180910390a35050565b60606000600e5467ffffffffffffffff811115613e99577f4e487b7100000000000000000000000000000000000000000000000000000000600052604160045260246000fd5b604051908082528060200260200182016040528015613ec75781602001602082028036833780820191505090505b5090506000805b600d54811015613f69576007600082815260200190815260200160002060000160009054906101000a900460ff1615613f565780838381518110613f3b577f4e487b7100000000000000000000000000000000000000000000000000000000600052603260045260246000fd5b6020026020010181815250508180613f5290616230565b9250505b8080613f6190616230565b915050613ece565b50819250505090565b613f8c8282604051806020016040528060008152506146d3565b5050565b6060600c8054613f9f906161fe565b80601f0160208091040260200160405190810160405280929190818152602001828054613fcb906161fe565b80156140185780601f10613fed57610100808354040283529160200191614018565b820191906000526020600020905b815481529060010190602001808311613ffb57829003601f168201915b5050505050905090565b6060600086905060008690506000869050600086905060008690506000815183518551875189516140539190616094565b61405d9190616094565b6140679190616094565b6140719190616094565b67ffffffffffffffff8111156140b0577f4e487b7100000000000000000000000000000000000000000000000000000000600052604160045260246000fd5b6040519080825280601f01601f1916602001820160405280156140e25781602001600182028036833780820191505090505b50905060008190506000805b88518110156141c257888181518110614130577f4e487b7100000000000000000000000000000000000000000000000000000000600052603260045260246000fd5b602001015160f81c60f81b83838061414790616230565b945081518110614180577f4e487b7100000000000000000000000000000000000000000000000000000000600052603260045260246000fd5b60200101907effffffffffffffffffffffffffffffffffffffffffffffffffffffffffffff1916908160001a90535080806141ba90616230565b9150506140ee565b5060005b875181101561429a57878181518110614208577f4e487b7100000000000000000000000000000000000000000000000000000000600052603260045260246000fd5b602001015160f81c60f81b83838061421f90616230565b945081518110614258577f4e487b7100000000000000000000000000000000000000000000000000000000600052603260045260246000fd5b60200101907effffffffffffffffffffffffffffffffffffffffffffffffffffffffffffff1916908160001a905350808061429290616230565b9150506141c6565b5060005b8651811015614372578681815181106142e0577f4e487b7100000000000000000000000000000000000000000000000000000000600052603260045260246000fd5b602001015160f81c60f81b8383806142f790616230565b945081518110614330577f4e487b7100000000000000000000000000000000000000000000000000000000600052603260045260246000fd5b60200101907effffffffffffffffffffffffffffffffffffffffffffffffffffffffffffff1916908160001a905350808061436a90616230565b91505061429e565b5060005b855181101561444a578581815181106143b8577f4e487b7100000000000000000000000000000000000000000000000000000000600052603260045260246000fd5b602001015160f81c60f81b8383806143cf90616230565b945081518110614408577f4e487b7100000000000000000000000000000000000000000000000000000000600052603260045260246000fd5b60200101907effffffffffffffffffffffffffffffffffffffffffffffffffffffffffffff1916908160001a905350808061444290616230565b915050614376565b5060005b845181101561452257848181518110614490577f4e487b7100000000000000000000000000000000000000000000000000000000600052603260045260246000fd5b602001015160f81c60f81b8383806144a790616230565b9450815181106144e0577f4e487b7100000000000000000000000000000000000000000000000000000000600052603260045260246000fd5b60200101907effffffffffffffffffffffffffffffffffffffffffffffffffffffffffffff1916908160001a905350808061451a90616230565b91505061444e565b50819850505050505050505095945050505050565b60006145588473ffffffffffffffffffffffffffffffffffffffff1661472e565b156146c1578373ffffffffffffffffffffffffffffffffffffffff1663150b7a026145816136ea565b8786866040518563ffffffff1660e01b81526004016145a39493929190615966565b602060405180830381600087803b1580156145bd57600080fd5b505af19250505080156145ee57506040513d601f19601f820116820180604052508101906145eb9190614d3a565b60015b614671573d806000811461461e576040519150601f19603f3d011682016040523d82523d6000602084013e614623565b606091505b50600081511415614669576040517f08c379a000000000000000000000000000000000000000000000000000000000815260040161466090615bf0565b60405180910390fd5b805181602001fd5b63150b7a0260e01b7bffffffffffffffffffffffffffffffffffffffffffffffffffffffff1916817bffffffffffffffffffffffffffffffffffffffffffffffffffffffff1916149150506146c6565b600190505b949350505050565b505050565b6146dd8383614741565b6146ea6000848484614537565b614729576040517f08c379a000000000000000000000000000000000000000000000000000000000815260040161472090615bf0565b60405180910390fd5b505050565b600080823b905060008111915050919050565b600073ffffffffffffffffffffffffffffffffffffffff168273ffffffffffffffffffffffffffffffffffffffff1614156147b1576040517f08c379a00000000000000000000000000000000000000000000000000000000081526004016147a890615d50565b60405180910390fd5b6147ba8161375c565b156147fa576040517f08c379a00000000000000000000000000000000000000000000000000000000081526004016147f190615c30565b60405180910390fd5b614806600083836146ce565b6001600460008473ffffffffffffffffffffffffffffffffffffffff1673ffffffffffffffffffffffffffffffffffffffff16815260200190815260200160002060008282546148569190616094565b92505081905550816003600083815260200190815260200160002060006101000a81548173ffffffffffffffffffffffffffffffffffffffff021916908373ffffffffffffffffffffffffffffffffffffffff160217905550808273ffffffffffffffffffffffffffffffffffffffff16600073ffffffffffffffffffffffffffffffffffffffff167fddf252ad1be2c89b69c2b068fc378daa952ba7f163c4a11628f55a4df523b3ef60405160405180910390a45050565b82805461491b906161fe565b90600052602060002090601f01602090048101928261493d5760008555614984565b82601f1061495657805160ff1916838001178555614984565b82800160010185558215614984579182015b82811115614983578251825591602001919060010190614968565b5b5090506149919190614995565b5090565b5b808211156149ae576000816000905550600101614996565b5090565b60006149c56149c084615efc565b615ecb565b9050828152602081018484840111156149dd57600080fd5b6149e8848285616192565b509392505050565b6000614a036149fe84615f2c565b615ecb565b905082815260208101848484011115614a1b57600080fd5b614a26848285616192565b509392505050565b600081359050614a3d81616317565b92915050565b600081359050614a528161632e565b92915050565b600081359050614a6781616345565b92915050565b600081519050614a7c81616345565b92915050565b600082601f830112614a9357600080fd5b8135614aa38482602086016149b2565b91505092915050565b600082601f830112614abd57600080fd5b8135614acd8482602086016149f0565b91505092915050565b600081359050614ae58161635c565b92915050565b600060208284031215614afd57600080fd5b6000614b0b84828501614a2e565b91505092915050565b60008060408385031215614b2757600080fd5b6000614b3585828601614a2e565b9250506020614b4685828601614a2e565b9150509250929050565b600080600060608486031215614b6557600080fd5b6000614b7386828701614a2e565b9350506020614b8486828701614a2e565b9250506040614b9586828701614ad6565b9150509250925092565b60008060008060808587031215614bb557600080fd5b6000614bc387828801614a2e565b9450506020614bd487828801614a2e565b9350506040614be587828801614ad6565b925050606085013567ffffffffffffffff811115614c0257600080fd5b614c0e87828801614a82565b91505092959194509250565b60008060408385031215614c2d57600080fd5b6000614c3b85828601614a2e565b9250506020614c4c85828601614a43565b9150509250929050565b600080600060608486031215614c6b57600080fd5b6000614c7986828701614a2e565b935050602084013567ffffffffffffffff811115614c9657600080fd5b614ca286828701614aac565b925050604084013567ffffffffffffffff811115614cbf57600080fd5b614ccb86828701614aac565b9150509250925092565b60008060408385031215614ce857600080fd5b6000614cf685828601614a2e565b9250506020614d0785828601614ad6565b9150509250929050565b600060208284031215614d2357600080fd5b6000614d3184828501614a58565b91505092915050565b600060208284031215614d4c57600080fd5b6000614d5a84828501614a6d565b91505092915050565b600060208284031215614d7557600080fd5b600082013567ffffffffffffffff811115614d8f57600080fd5b614d9b84828501614aac565b91505092915050565b600060208284031215614db657600080fd5b6000614dc484828501614ad6565b91505092915050565b60008060408385031215614de057600080fd5b6000614dee85828601614ad6565b9250506020614dff85828601614ad6565b9150509250929050565b6000614e158383614e65565b60208301905092915050565b6000614e2d8383615012565b60208301905092915050565b6000614e458383615078565b905092915050565b6000614e598383615918565b60208301905092915050565b614e6e8161611e565b82525050565b614e7d8161611e565b82525050565b6000614e8e82615f9c565b614e988185616012565b9350614ea383615f5c565b8060005b83811015614ed4578151614ebb8882614e09565b9750614ec683615fde565b925050600181019050614ea7565b5085935050505092915050565b6000614eec82615fa7565b614ef68185616023565b9350614f0183615f6c565b8060005b83811015614f32578151614f198882614e21565b9750614f2483615feb565b925050600181019050614f05565b5085935050505092915050565b6000614f4a82615fb2565b614f548185616034565b935083602082028501614f6685615f7c565b8060005b85811015614fa25784840389528151614f838582614e39565b9450614f8e83615ff8565b925060208a01995050600181019050614f6a565b50829750879550505050505092915050565b6000614fbf82615fbd565b614fc98185616045565b9350614fd483615f8c565b8060005b83811015615005578151614fec8882614e4d565b9750614ff783616005565b925050600181019050614fd8565b5085935050505092915050565b61501b81616130565b82525050565b61502a81616130565b82525050565b6150398161613c565b82525050565b600061504a82615fc8565b6150548185616056565b93506150648185602086016161a1565b61506d81616306565b840191505092915050565b600061508382615fd3565b61508d8185616072565b935061509d8185602086016161a1565b6150a681616306565b840191505092915050565b60006150bc82615fd3565b6150c68185616083565b93506150d68185602086016161a1565b6150df81616306565b840191505092915050565b60006150f7601f83616083565b91507f43616e206e6f7420707572636861736520796f7572206f776e204e4654732e006000830152602082019050919050565b6000615137602083616083565b91507f546f6b656e20646f6573206e6f742062656c6f6e6720746f2073656e6465722e6000830152602082019050919050565b6000615177603283616083565b91507f4552433732313a207472616e7366657220746f206e6f6e20455243373231526560008301527f63656976657220696d706c656d656e74657200000000000000000000000000006020830152604082019050919050565b60006151dd602683616083565b91507f4f776e61626c653a206e6577206f776e657220697320746865207a65726f206160008301527f64647265737300000000000000000000000000000000000000000000000000006020830152604082019050919050565b6000615243601c83616083565b91507f4552433732313a20746f6b656e20616c7265616479206d696e746564000000006000830152602082019050919050565b6000615283602583616083565b91507f4e6f7420617574686f72697a656420746f2063616c6c20746869732066756e6360008301527f74696f6e2e0000000000000000000000000000000000000000000000000000006020830152604082019050919050565b60006152e9602483616083565b91507f4552433732313a207472616e7366657220746f20746865207a65726f2061646460008301527f72657373000000000000000000000000000000000000000000000000000000006020830152604082019050919050565b600061534f601983616083565b91507f4552433732313a20617070726f766520746f2063616c6c6572000000000000006000830152602082019050919050565b600061538f602383616083565b91507f4e6f7420746865206f726967696e616c206f776e6572206f662074686973204e60008301527f46542e00000000000000000000000000000000000000000000000000000000006020830152604082019050919050565b60006153f5602c83616083565b91507f4552433732313a206f70657261746f7220717565727920666f72206e6f6e657860008301527f697374656e7420746f6b656e00000000000000000000000000000000000000006020830152604082019050919050565b600061545b603883616083565b91507f4552433732313a20617070726f76652063616c6c6572206973206e6f74206f7760008301527f6e6572206e6f7220617070726f76656420666f7220616c6c00000000000000006020830152604082019050919050565b60006154c1602a83616083565b91507f4552433732313a2062616c616e636520717565727920666f7220746865207a6560008301527f726f2061646472657373000000000000000000000000000000000000000000006020830152604082019050919050565b6000615527602983616083565b91507f4552433732313a206f776e657220717565727920666f72206e6f6e657869737460008301527f656e7420746f6b656e00000000000000000000000000000000000000000000006020830152604082019050919050565b600061558d602083616083565b91507f4552433732313a206d696e7420746f20746865207a65726f20616464726573736000830152602082019050919050565b60006155cd602c83616083565b91507f4552433732313a20617070726f76656420717565727920666f72206e6f6e657860008301527f697374656e7420746f6b656e00000000000000000000000000000000000000006020830152604082019050919050565b6000615633602083616083565b91507f4f776e61626c653a2063616c6c6572206973206e6f7420746865206f776e65726000830152602082019050919050565b6000615673602983616083565b91507f4552433732313a207472616e73666572206f6620746f6b656e2074686174206960008301527f73206e6f74206f776e00000000000000000000000000000000000000000000006020830152604082019050919050565b60006156d9602f83616083565b91507f4552433732314d657461646174613a2055524920717565727920666f72206e6f60008301527f6e6578697374656e7420746f6b656e00000000000000000000000000000000006020830152604082019050919050565b600061573f601083616083565b91507f4e4654206e6f7420666f722073616c65000000000000000000000000000000006000830152602082019050919050565b600061577f602183616083565b91507f4552433732313a20617070726f76616c20746f2063757272656e74206f776e6560008301527f72000000000000000000000000000000000000000000000000000000000000006020830152604082019050919050565b60006157e5600083616067565b9150600082019050919050565b60006157ff603183616083565b91507f4552433732313a207472616e736665722063616c6c6572206973206e6f74206f60008301527f776e6572206e6f7220617070726f7665640000000000000000000000000000006020830152604082019050919050565b6000615865602083616083565b91507f496e73756666696369656e742066756e647320666f722070757263686173652e6000830152602082019050919050565b60006158a5601883616083565b91507f546f6b656e20494420646f6573206e6f742065786973742e00000000000000006000830152602082019050919050565b60006158e5601c83616083565b91507f4661696c656420746f2073656e642045544820746f2053656c6c6572000000006000830152602082019050919050565b61592181616188565b82525050565b61593081616188565b82525050565b6000615941826157d8565b9150819050919050565b60006020820190506159606000830184614e74565b92915050565b600060808201905061597b6000830187614e74565b6159886020830186614e74565b6159956040830185615927565b81810360608301526159a7818461503f565b905095945050505050565b60006080820190506159c76000830187614e74565b6159d46020830186614e74565b6159e16040830185615927565b6159ee6060830184615927565b95945050505050565b600060c0820190508181036000830152615a118189614fb4565b90508181036020830152615a258188614e83565b90508181036040830152615a398187614e83565b90508181036060830152615a4d8186614fb4565b90508181036080830152615a618185614fb4565b905081810360a0830152615a758184614ee1565b9050979650505050505050565b60006040820190508181036000830152615a9c8185614fb4565b90508181036020830152615ab08184614f3f565b90509392505050565b60006080820190508181036000830152615ad38187614fb4565b90508181036020830152615ae78186614f3f565b90508181036040830152615afb8185614fb4565b90508181036060830152615b0f8184614e83565b905095945050505050565b6000602082019050615b2f6000830184615021565b92915050565b6000602082019050615b4a6000830184615030565b92915050565b60006020820190508181036000830152615b6a81846150b1565b905092915050565b60006060820190508181036000830152615b8c81866150b1565b9050615b9b6020830185615927565b615ba86040830184614e74565b949350505050565b60006020820190508181036000830152615bc9816150ea565b9050919050565b60006020820190508181036000830152615be98161512a565b9050919050565b60006020820190508181036000830152615c098161516a565b9050919050565b60006020820190508181036000830152615c29816151d0565b9050919050565b60006020820190508181036000830152615c4981615236565b9050919050565b60006020820190508181036000830152615c6981615276565b9050919050565b60006020820190508181036000830152615c89816152dc565b9050919050565b60006020820190508181036000830152615ca981615342565b9050919050565b60006020820190508181036000830152615cc981615382565b9050919050565b60006020820190508181036000830152615ce9816153e8565b9050919050565b60006020820190508181036000830152615d098161544e565b9050919050565b60006020820190508181036000830152615d29816154b4565b9050919050565b60006020820190508181036000830152615d498161551a565b9050919050565b60006020820190508181036000830152615d6981615580565b9050919050565b60006020820190508181036000830152615d89816155c0565b9050919050565b60006020820190508181036000830152615da981615626565b9050919050565b60006020820190508181036000830152615dc981615666565b9050919050565b60006020820190508181036000830152615de9816156cc565b9050919050565b60006020820190508181036000830152615e0981615732565b9050919050565b60006020820190508181036000830152615e2981615772565b9050919050565b60006020820190508181036000830152615e49816157f2565b9050919050565b60006020820190508181036000830152615e6981615858565b9050919050565b60006020820190508181036000830152615e8981615898565b9050919050565b60006020820190508181036000830152615ea9816158d8565b9050919050565b6000602082019050615ec56000830184615927565b92915050565b6000604051905081810181811067ffffffffffffffff82111715615ef257615ef16162d7565b5b8060405250919050565b600067ffffffffffffffff821115615f1757615f166162d7565b5b601f19601f8301169050602081019050919050565b600067ffffffffffffffff821115615f4757615f466162d7565b5b601f19601f8301169050602081019050919050565b6000819050602082019050919050565b6000819050602082019050919050565b6000819050602082019050919050565b6000819050602082019050919050565b600081519050919050565b600081519050919050565b600081519050919050565b600081519050919050565b600081519050919050565b600081519050919050565b6000602082019050919050565b6000602082019050919050565b6000602082019050919050565b6000602082019050919050565b600082825260208201905092915050565b600082825260208201905092915050565b600082825260208201905092915050565b600082825260208201905092915050565b600082825260208201905092915050565b600081905092915050565b600082825260208201905092915050565b600082825260208201905092915050565b600061609f82616188565b91506160aa83616188565b9250827fffffffffffffffffffffffffffffffffffffffffffffffffffffffffffffffff038211156160df576160de616279565b5b828201905092915050565b60006160f582616188565b915061610083616188565b92508282101561611357616112616279565b5b828203905092915050565b600061612982616168565b9050919050565b60008115159050919050565b60007fffffffff0000000000000000000000000000000000000000000000000000000082169050919050565b600073ffffffffffffffffffffffffffffffffffffffff82169050919050565b6000819050919050565b82818337600083830152505050565b60005b838110156161bf5780820151818401526020810190506161a4565b838111156161ce576000848401525b50505050565b60006161df82616188565b915060008214156161f3576161f2616279565b5b600182039050919050565b6000600282049050600182168061621657607f821691505b6020821081141561622a576162296162a8565b5b50919050565b600061623b82616188565b91507fffffffffffffffffffffffffffffffffffffffffffffffffffffffffffffffff82141561626e5761626d616279565b5b600182019050919050565b7f4e487b7100000000000000000000000000000000000000000000000000000000600052601160045260246000fd5b7f4e487b7100000000000000000000000000000000000000000000000000000000600052602260045260246000fd5b7f4e487b7100000000000000000000000000000000000000000000000000000000600052604160045260246000fd5b6000601f19601f8301169050919050565b6163208161611e565b811461632b57600080fd5b50565b61633781616130565b811461634257600080fd5b50565b61634e8161613c565b811461635957600080fd5b50565b61636581616188565b811461637057600080fd5b5056fea26469706673582212200ef106309826382c1ce73bbec496667842055cfe6788cabcd11c8deb61a56dbe64736f6c63430008000033687474703a2f2f35342e3135332e3138322e31333a333939382f6170692f6e66742f",
  "immutableReferences": {},
  "source": "// SPDX-License-Identifier: MIT\r\n\r\npragma solidity ^0.8.0;\r\n\r\nimport \"@openzeppelin/contracts/access/Ownable.sol\";\r\nimport \"@openzeppelin/contracts/token/ERC721/ERC721.sol\";\r\nimport \"@openzeppelin/contracts/token/ERC721/IERC721Receiver.sol\";\r\n\r\ncontract AuxiunNFT is Ownable, ERC721, IERC721Receiver {\r\n\r\n    struct Metadata {\r\n        string game_id;\r\n        string item_id;\r\n    }\r\n\r\n    struct MarketDetails {\r\n        bool forSale;\r\n        uint256 price;\r\n        address seller;\r\n    }\r\n\r\n    struct TransactionHistory {\r\n        uint256 tokenId;\r\n        address buyer;\r\n        address seller;\r\n        uint256 price;\r\n        uint256 timestamp;\r\n    }\r\n\r\n    // mapping of tokenId to market details\r\n    mapping(uint256 => MarketDetails) id_to_marketDetails;\r\n\r\n    // mapping of tokenId to metadata\r\n    mapping(uint256 => Metadata) id_to_metadata;\r\n\r\n    // array which stores all transaction data\r\n    TransactionHistory[] transactionHistory;\r\n\r\n    // transactionHistory counter for addresses to determine the multicall memory array size\r\n    mapping(address => uint256) transactionHistoryCount;\r\n\r\n    // list of admin addresses authorized to mint tokens\r\n    mapping(address => bool) admins;\r\n\r\n    // Base URI, aka API link to fetch further metadata of the token\r\n    string private baseURI;\r\n\r\n    // Used as tokenId for a newly minted token and increases by 1\r\n    uint256 private tokenIdCounter = 0;\r\n\r\n    // Number of NFTs on market (Maybe for future use)\r\n    uint256 NFTsOnMarket = 0;\r\n\r\n    // Number of NFTs on market by address\r\n    mapping(address => uint256) NFTsOnMarketByAddress;\r\n \r\n    constructor() ERC721(\"AuxiunNFT\", \"AUXN\") {\r\n        // TODO: Setup database api server and set the link here, remember to add the \"/\" at the end of the uri\r\n        baseURI = \"http://54.153.182.13:3998/api/nft/\";\r\n    }\r\n\r\n    function _baseURI() internal view virtual override returns (string memory) {\r\n        return baseURI;\r\n    }\r\n\r\n    function setBaseURI(string memory inputbaseURI) public onlyOwner {\r\n        baseURI = inputbaseURI;\r\n    }\r\n\r\n    // function standard called by NFT marketplaces such as OpenSea\r\n    function tokenURI(uint256 tokenId)\r\n        public\r\n        view\r\n        virtual\r\n        override\r\n        returns (string memory)\r\n    {\r\n        require(_exists(tokenId), \"ERC721Metadata: URI query for nonexistent token\");\r\n        return strConcat(_baseURI(), id_to_metadata[tokenId].game_id, \"/\", id_to_metadata[tokenId].item_id, \"\");\r\n    }\r\n\r\n    function mint(address to, string memory game_id, string memory item_id) external {\r\n        require(admins[msg.sender], \"Not authorized to call this function.\");\r\n        uint256 tokenId = tokenIdCounter;\r\n        tokenIdCounter++;\r\n        id_to_metadata[tokenId] = Metadata(game_id, item_id);\r\n        _safeMint(to, tokenId);\r\n    }\r\n\r\n    // functions to handle admins array\r\n    function addAdminAddress(address _address) external onlyOwner() {\r\n        admins[_address] = true;\r\n    }\r\n\r\n    function removeAdminAddress(address _address) external onlyOwner() {\r\n        admins[_address] = false;\r\n    }\r\n\r\n    function isAdminAddress(address _address) external view returns (bool) {\r\n        return admins[_address];\r\n    }\r\n\r\n    // String concatenation function\r\n    // original source: https://github.com/provable-things/ethereum-api/blob/master/oraclizeAPI_0.5.sol\r\n    // stack overflow topic: https://ethereum.stackexchange.com/questions/729/how-to-concatenate-strings-in-solidity\r\n    // Notes: reduce the parameters if necessary\r\n    function strConcat(string memory _a, string memory _b, string memory _c, string memory _d, string memory _e) internal pure returns (string memory){\r\n        bytes memory _ba = bytes(_a);\r\n        bytes memory _bb = bytes(_b);\r\n        bytes memory _bc = bytes(_c);\r\n        bytes memory _bd = bytes(_d);\r\n        bytes memory _be = bytes(_e);\r\n        string memory abcde = new string(_ba.length + _bb.length + _bc.length + _bd.length + _be.length);\r\n        bytes memory babcde = bytes(abcde);\r\n        uint k = 0;\r\n        for (uint i = 0; i < _ba.length; i++) babcde[k++] = _ba[i];\r\n        for (uint i = 0; i < _bb.length; i++) babcde[k++] = _bb[i];\r\n        for (uint i = 0; i < _bc.length; i++) babcde[k++] = _bc[i];\r\n        for (uint i = 0; i < _bd.length; i++) babcde[k++] = _bd[i];\r\n        for (uint i = 0; i < _be.length; i++) babcde[k++] = _be[i];\r\n        return string(babcde);\r\n    }\r\n\r\n    // Modifers\r\n    modifier tokenExists(uint256 tokenId) {\r\n        require(_exists(tokenId), \"Token ID does not exist.\");\r\n        _;\r\n    }\r\n\r\n    modifier belongsToSender(uint256 tokenId){\r\n        require(ownerOf(tokenId) == msg.sender, \"Token does not belong to sender.\");\r\n        _;\r\n    }\r\n\r\n    // Helper Functions for NFTs on the market.\r\n    function _removeNFTfromMarket(uint tokenId, address _address) private tokenExists(tokenId) {\r\n        id_to_marketDetails[tokenId] = MarketDetails(false, 0, address(0));\r\n        // decrease the number of NFTs on market of the user\r\n        NFTsOnMarketByAddress[_address]--;\r\n        NFTsOnMarket--;\r\n    }\r\n  \r\n\r\n    // Functions for market place interactions.\r\n    function listNFTOnMarket(uint256 tokenId, uint256 price) external payable tokenExists(tokenId) belongsToSender(tokenId){\r\n        id_to_marketDetails[tokenId] = MarketDetails(true, price, msg.sender);\r\n        // increase the number of NFTs on market of the user\r\n        NFTsOnMarketByAddress[msg.sender]++;\r\n        NFTsOnMarket++;\r\n\r\n        // transfer ownership of tokenId to this contract\r\n        _safeTransfer(msg.sender, address(this), tokenId, \"\");\r\n    }\r\n\r\n    function removeNFTFromMarket(uint256 tokenId) external tokenExists(tokenId) {\r\n        require(id_to_marketDetails[tokenId].seller == msg.sender, \"Not the original owner of this NFT.\");\r\n        _removeNFTfromMarket(tokenId, msg.sender);\r\n\r\n        // transfer token back to owner\r\n        _safeTransfer(address(this), msg.sender, tokenId, \"\");\r\n    }\r\n\r\n\r\n   // Source: https://ethereum.stackexchange.com/questions/19341/address-send-vs-address-transfer-best-practice-usage/74007#74007\r\n    function purchaseNFT(uint256 tokenId) public payable tokenExists(tokenId) returns(address, address, uint256, uint256) {\r\n        require(id_to_marketDetails[tokenId].seller != msg.sender, \"Can not purchase your own NFTs.\");\r\n        require(id_to_marketDetails[tokenId].forSale, \"NFT not for sale\");\r\n        require(id_to_marketDetails[tokenId].price <= msg.value, \"Insufficient funds for purchase.\");\r\n\r\n        // Get seller Id\r\n        address seller = id_to_marketDetails[tokenId].seller;\r\n\r\n        // get price\r\n        uint256 price = id_to_marketDetails[tokenId].price;\r\n\r\n        // Remove NFT from market - do this before transferring ETH to prevent reentrancy\r\n        _removeNFTfromMarket(tokenId, id_to_marketDetails[tokenId].seller);\r\n\r\n        // Transfer fund from NFT buyer to NFT Seller\r\n        (bool success, ) =  seller.call{value: msg.value}(\"\");\r\n        require(success, \"Failed to send ETH to Seller\");\r\n\r\n        // Transfer token to buyer\r\n        _safeTransfer(address(this), msg.sender, tokenId, \"\");\r\n\r\n        // push transaction data into transactionHistory\r\n        transactionHistory.push(TransactionHistory(tokenId, msg.sender, seller, price, block.timestamp));\r\n\r\n        // increase transactionHistoryCount for both buyer and seller\r\n        transactionHistoryCount[msg.sender]++;\r\n        transactionHistoryCount[seller]++;\r\n        \r\n        // Return some info about the transfer\r\n        return (msg.sender, seller, tokenId, msg.value);\r\n    }\r\n \r\n    // returns an array of token ids which are listed as forSale\r\n    function _fetchTokenIdsOnMarket() internal view returns(uint256[] memory) {\r\n        // initialize result's array length\r\n        uint256[] memory result = new uint256[](NFTsOnMarket);\r\n        // for loop to fetch all tokenIds where id_to_marketDetails[i].forSale == true\r\n        uint256 counter = 0;\r\n        for (uint256 i = 0; i < tokenIdCounter; i++) {\r\n            // only tokenIds which are for sale will be pushed into the result array\r\n            if (id_to_marketDetails[i].forSale) {\r\n                result[counter] = i;\r\n                counter++;\r\n            }\r\n        }\r\n        return result;\r\n    }\r\n\r\n    // fetch by order: tokenURI, token price, token seller's address\r\n    function fetchNFTDataById(uint256 tokenId) external view returns(string memory, uint256, address) {\r\n        return (tokenURI(tokenId), id_to_marketDetails[tokenId].price, id_to_marketDetails[tokenId].seller);\r\n    }\r\n\r\n    /**\r\n    * Multicall function to fetch all NFTs owned by an address\r\n    * Returns 2 arrays which are:\r\n    * 1. array of tokenIds owned by the address\r\n    * 2. array of tokenURIs of the respective tokenIds\r\n    */\r\n    function multiCallNFTsOwnedByAddress(address _address) external view returns(uint256[] memory, string[] memory) {\r\n        // initialize array lengths\r\n        uint256[] memory tokenIds = new uint256[](balanceOf(_address));\r\n        string[] memory tokenURIs = new string[](balanceOf(_address));\r\n\r\n        // since tokenId starts with 0, we need to +1 to the number\r\n        uint256 totalNumberOfNFTs = tokenIdCounter + 1;\r\n\r\n        uint256 counter = 0;\r\n\r\n        // for loop to fetch all data of tokenIds and push into the 3 arrays\r\n        for (uint256 i = 0; i < totalNumberOfNFTs; i++) {\r\n            if (_address == ownerOf(i)) {\r\n                tokenIds[counter] = i;\r\n                tokenURIs[counter] = tokenURI(i);\r\n                counter++;\r\n            }\r\n        }\r\n        \r\n        return (tokenIds, tokenURIs);\r\n    }\r\n\r\n    /**\r\n    * Multicall function to fetch all NFTs listed for sale on the market\r\n    * Returns 4 arrays which are:\r\n    * 1. array of tokenIds\r\n    * 2. array of tokenURIs\r\n    * 3. array of token prices\r\n    * 4. array of token sellers\r\n    */\r\n    function multiCallNFTsOnMarket() external view returns(uint256[] memory, string[] memory, uint256[] memory, address[] memory) {\r\n        // initialize tokenIds' array length\r\n        uint256[] memory tokenIds = new uint256[](NFTsOnMarket);\r\n        // fetch the tokenIds on the market\r\n        tokenIds = _fetchTokenIdsOnMarket();\r\n\r\n        // initialize array for tokenURIs, prices and sellers\r\n        string[] memory tokenURIs = new string[](NFTsOnMarket);\r\n        uint256[] memory tokenPrices = new uint256[](NFTsOnMarket);\r\n        address[] memory tokenSellers = new address[](NFTsOnMarket);\r\n\r\n        // for loop to fetch all data of tokenIds and push into the 3 arrays\r\n        for (uint256 i = 0; i < NFTsOnMarket; i++) {\r\n            tokenURIs[i] = tokenURI(tokenIds[i]);\r\n            tokenPrices[i] = id_to_marketDetails[tokenIds[i]].price;\r\n            tokenSellers[i] = id_to_marketDetails[tokenIds[i]].seller;\r\n        }\r\n        \r\n        return (tokenIds, tokenURIs, tokenPrices, tokenSellers);\r\n    }\r\n\r\n    // overloaded Multicall function to fetch NFTs listed on sale for a specific user's address\r\n    function multiCallNFTsOnMarket(address seller) external view returns(uint256[] memory, string[] memory, uint256[] memory, address[] memory) {\r\n        // initialize tokenIds' array length\r\n        uint256[] memory tokenIds = new uint256[](NFTsOnMarketByAddress[seller]);\r\n        // fetch the tokenIds on the market\r\n        tokenIds = _fetchTokenIdsOnMarket();\r\n\r\n        // initialize array for tokenURIs, prices and sellers\r\n        string[] memory tokenURIs = new string[](NFTsOnMarketByAddress[seller]);\r\n        uint256[] memory tokenPrices = new uint256[](NFTsOnMarketByAddress[seller]);\r\n        address[] memory tokenSellers = new address[](NFTsOnMarketByAddress[seller]);\r\n\r\n        // for loop to fetch all data of tokenIds and push into the 3 arrays\r\n        uint256 counter = 0;\r\n        for (uint256 i = 0; i < NFTsOnMarket; i++) {\r\n            if (seller == id_to_marketDetails[tokenIds[i]].seller) {\r\n                tokenURIs[counter] = tokenURI(tokenIds[i]);\r\n                tokenPrices[counter] = id_to_marketDetails[tokenIds[i]].price;\r\n                tokenSellers[counter] = id_to_marketDetails[tokenIds[i]].seller;\r\n                counter++;\r\n            }\r\n        }\r\n        \r\n        return (tokenIds, tokenURIs, tokenPrices, tokenSellers);\r\n    }\r\n\r\n    /**\r\n    * Multicall functions to fetch transaction data\r\n    * fetch transaction data by user's address\r\n    * Returns 7 arrays sale which are:\r\n    * 1. array of transactionIds\r\n    * 2. array of tokenIds\r\n    * 3. array of buyers\r\n    * 4. array of sellers\r\n    * 5. array of prices\r\n    * 6. array of timestamps\r\n    * 7. array of transacitonType - true: buy ; false: sell\r\n    */\r\n    function multiCallTransactionDataByUser(address user) external view returns(uint256[] memory, address[] memory, address[] memory, uint256[] memory, uint256[] memory, bool[] memory) {\r\n        // initialize array for tokenURIs, prices and sellers\r\n        uint256[] memory tokenIds = new uint256[](transactionHistoryCount[user]);\r\n        address[] memory buyers = new address[](transactionHistoryCount[user]);\r\n        address[] memory sellers = new address[](transactionHistoryCount[user]);\r\n        uint256[] memory prices = new uint256[](transactionHistoryCount[user]);\r\n        uint256[] memory timestamps = new uint256[](transactionHistoryCount[user]);\r\n        // transactionType = true: it is a buy transaction for the user\r\n        // transacitonType = false: it is a sell transaction for the user\r\n        bool[] memory transactionType = new bool[](transactionHistoryCount[user]);\r\n\r\n        // for loop to fetch all data of tokenIds and push into the 3 arrays\r\n        uint256 counter = 0;\r\n        for (uint256 i = 0; i < transactionHistory.length; i++) {\r\n            if (user == transactionHistory[i].buyer || user == transactionHistory[i].seller) {\r\n                tokenIds[counter] = transactionHistory[i].tokenId;\r\n                buyers[counter] = transactionHistory[i].buyer;\r\n                sellers[counter] = transactionHistory[i].seller;\r\n                prices[counter] = transactionHistory[i].price;\r\n                timestamps[counter] = transactionHistory[i].timestamp;\r\n\r\n                // determine transactionType\r\n                if (user == transactionHistory[i].buyer) {\r\n                    transactionType[counter] = true;\r\n                }\r\n                else {\r\n                    transactionType[counter] = false;\r\n                }\r\n\r\n                counter++;\r\n            }\r\n        }\r\n        \r\n        return (tokenIds, buyers, sellers, prices, timestamps, transactionType);\r\n    }\r\n\r\n    function kill() public onlyOwner {\r\n        selfdestruct(payable(owner()));\r\n    }\r\n\r\n    receive() external payable {\r\n        // this function enables the contract to receive funds\r\n        // Nothing needed here\r\n    }\r\n\r\n    /** Needed for calling safeTransferFrom */\r\n    function onERC721Received(address, address, uint256, bytes memory) public virtual override returns (bytes4) {\r\n        return this.onERC721Received.selector;\r\n    }\r\n}\r\n",
  "sourcePath": "C:/Users/flooofy/sem_2_2021/PP1/axiun-contracts/contracts/AuxiunNFT.sol",
  "compiler": {
    "name": "solc",
    "version": "0.8.0+commit.c7dfd78e.Emscripten.clang"
  },
  "schemaVersion": "3.4.1",
  "updatedAt": "2021-08-11T09:45:03.377Z",
  "devdoc": {
    "kind": "dev",
    "methods": {
      "approve(address,uint256)": {
        "details": "See {IERC721-approve}."
      },
      "balanceOf(address)": {
        "details": "See {IERC721-balanceOf}."
      },
      "getApproved(uint256)": {
        "details": "See {IERC721-getApproved}."
      },
      "isApprovedForAll(address,address)": {
        "details": "See {IERC721-isApprovedForAll}."
      },
      "name()": {
        "details": "See {IERC721Metadata-name}."
      },
      "owner()": {
        "details": "Returns the address of the current owner."
      },
      "ownerOf(uint256)": {
        "details": "See {IERC721-ownerOf}."
      },
      "renounceOwnership()": {
        "details": "Leaves the contract without owner. It will not be possible to call `onlyOwner` functions anymore. Can only be called by the current owner. NOTE: Renouncing ownership will leave the contract without an owner, thereby removing any functionality that is only available to the owner."
      },
      "safeTransferFrom(address,address,uint256)": {
        "details": "See {IERC721-safeTransferFrom}."
      },
      "safeTransferFrom(address,address,uint256,bytes)": {
        "details": "See {IERC721-safeTransferFrom}."
      },
      "setApprovalForAll(address,bool)": {
        "details": "See {IERC721-setApprovalForAll}."
      },
      "supportsInterface(bytes4)": {
        "details": "See {IERC165-supportsInterface}."
      },
      "symbol()": {
        "details": "See {IERC721Metadata-symbol}."
      },
      "tokenURI(uint256)": {
        "details": "See {IERC721Metadata-tokenURI}."
      },
      "transferFrom(address,address,uint256)": {
        "details": "See {IERC721-transferFrom}."
      },
      "transferOwnership(address)": {
        "details": "Transfers ownership of the contract to a new account (`newOwner`). Can only be called by the current owner."
      }
    },
    "version": 1
  },
  "userdoc": {
    "kind": "user",
    "methods": {
      "multiCallNFTsOnMarket()": {
        "notice": "Multicall function to fetch all NFTs listed for sale on the market Returns 4 arrays which are: 1. array of tokenIds 2. array of tokenURIs 3. array of token prices 4. array of token sellers"
      },
      "multiCallNFTsOwnedByAddress(address)": {
        "notice": "Multicall function to fetch all NFTs owned by an address Returns 2 arrays which are: 1. array of tokenIds owned by the address 2. array of tokenURIs of the respective tokenIds"
      },
      "multiCallTransactionDataByUser(address)": {
        "notice": "Multicall functions to fetch transaction data fetch transaction data by user's address Returns 7 arrays sale which are: 1. array of transactionIds 2. array of tokenIds 3. array of buyers 4. array of sellers 5. array of prices 6. array of timestamps 7. array of transacitonType - true: buy ; false: sell"
      },
      "onERC721Received(address,address,uint256,bytes)": {
        "notice": "Needed for calling safeTransferFrom "
      }
    },
    "version": 1
  }
}