{
  "contractName": "AuxiunNFT",
  "abi": [
    {
      "inputs": [],
      "stateMutability": "nonpayable",
      "type": "constructor"
    },
    {
      "anonymous": false,
      "inputs": [
        {
          "indexed": true,
          "internalType": "address",
          "name": "owner",
          "type": "address"
        },
        {
          "indexed": true,
          "internalType": "address",
          "name": "approved",
          "type": "address"
        },
        {
          "indexed": true,
          "internalType": "uint256",
          "name": "tokenId",
          "type": "uint256"
        }
      ],
      "name": "Approval",
      "type": "event"
    },
    {
      "anonymous": false,
      "inputs": [
        {
          "indexed": true,
          "internalType": "address",
          "name": "owner",
          "type": "address"
        },
        {
          "indexed": true,
          "internalType": "address",
          "name": "operator",
          "type": "address"
        },
        {
          "indexed": false,
          "internalType": "bool",
          "name": "approved",
          "type": "bool"
        }
      ],
      "name": "ApprovalForAll",
      "type": "event"
    },
    {
      "anonymous": false,
      "inputs": [
        {
          "indexed": true,
          "internalType": "address",
          "name": "previousOwner",
          "type": "address"
        },
        {
          "indexed": true,
          "internalType": "address",
          "name": "newOwner",
          "type": "address"
        }
      ],
      "name": "OwnershipTransferred",
      "type": "event"
    },
    {
      "anonymous": false,
      "inputs": [
        {
          "indexed": true,
          "internalType": "address",
          "name": "from",
          "type": "address"
        },
        {
          "indexed": true,
          "internalType": "address",
          "name": "to",
          "type": "address"
        },
        {
          "indexed": true,
          "internalType": "uint256",
          "name": "tokenId",
          "type": "uint256"
        }
      ],
      "name": "Transfer",
      "type": "event"
    },
    {
      "inputs": [
        {
          "internalType": "address",
          "name": "to",
          "type": "address"
        },
        {
          "internalType": "uint256",
          "name": "tokenId",
          "type": "uint256"
        }
      ],
      "name": "approve",
      "outputs": [],
      "stateMutability": "nonpayable",
      "type": "function"
    },
    {
      "inputs": [
        {
          "internalType": "address",
          "name": "owner",
          "type": "address"
        }
      ],
      "name": "balanceOf",
      "outputs": [
        {
          "internalType": "uint256",
          "name": "",
          "type": "uint256"
        }
      ],
      "stateMutability": "view",
      "type": "function"
    },
    {
      "inputs": [
        {
          "internalType": "uint256",
          "name": "tokenId",
          "type": "uint256"
        }
      ],
      "name": "getApproved",
      "outputs": [
        {
          "internalType": "address",
          "name": "",
          "type": "address"
        }
      ],
      "stateMutability": "view",
      "type": "function"
    },
    {
      "inputs": [
        {
          "internalType": "address",
          "name": "owner",
          "type": "address"
        },
        {
          "internalType": "address",
          "name": "operator",
          "type": "address"
        }
      ],
      "name": "isApprovedForAll",
      "outputs": [
        {
          "internalType": "bool",
          "name": "",
          "type": "bool"
        }
      ],
      "stateMutability": "view",
      "type": "function"
    },
    {
      "inputs": [],
      "name": "name",
      "outputs": [
        {
          "internalType": "string",
          "name": "",
          "type": "string"
        }
      ],
      "stateMutability": "view",
      "type": "function"
    },
    {
      "inputs": [],
      "name": "owner",
      "outputs": [
        {
          "internalType": "address",
          "name": "",
          "type": "address"
        }
      ],
      "stateMutability": "view",
      "type": "function"
    },
    {
      "inputs": [
        {
          "internalType": "uint256",
          "name": "tokenId",
          "type": "uint256"
        }
      ],
      "name": "ownerOf",
      "outputs": [
        {
          "internalType": "address",
          "name": "",
          "type": "address"
        }
      ],
      "stateMutability": "view",
      "type": "function"
    },
    {
      "inputs": [],
      "name": "renounceOwnership",
      "outputs": [],
      "stateMutability": "nonpayable",
      "type": "function"
    },
    {
      "inputs": [
        {
          "internalType": "address",
          "name": "from",
          "type": "address"
        },
        {
          "internalType": "address",
          "name": "to",
          "type": "address"
        },
        {
          "internalType": "uint256",
          "name": "tokenId",
          "type": "uint256"
        }
      ],
      "name": "safeTransferFrom",
      "outputs": [],
      "stateMutability": "nonpayable",
      "type": "function"
    },
    {
      "inputs": [
        {
          "internalType": "address",
          "name": "from",
          "type": "address"
        },
        {
          "internalType": "address",
          "name": "to",
          "type": "address"
        },
        {
          "internalType": "uint256",
          "name": "tokenId",
          "type": "uint256"
        },
        {
          "internalType": "bytes",
          "name": "_data",
          "type": "bytes"
        }
      ],
      "name": "safeTransferFrom",
      "outputs": [],
      "stateMutability": "nonpayable",
      "type": "function"
    },
    {
      "inputs": [
        {
          "internalType": "address",
          "name": "operator",
          "type": "address"
        },
        {
          "internalType": "bool",
          "name": "approved",
          "type": "bool"
        }
      ],
      "name": "setApprovalForAll",
      "outputs": [],
      "stateMutability": "nonpayable",
      "type": "function"
    },
    {
      "inputs": [
        {
          "internalType": "bytes4",
          "name": "interfaceId",
          "type": "bytes4"
        }
      ],
      "name": "supportsInterface",
      "outputs": [
        {
          "internalType": "bool",
          "name": "",
          "type": "bool"
        }
      ],
      "stateMutability": "view",
      "type": "function"
    },
    {
      "inputs": [],
      "name": "symbol",
      "outputs": [
        {
          "internalType": "string",
          "name": "",
          "type": "string"
        }
      ],
      "stateMutability": "view",
      "type": "function"
    },
    {
      "inputs": [
        {
          "internalType": "address",
          "name": "from",
          "type": "address"
        },
        {
          "internalType": "address",
          "name": "to",
          "type": "address"
        },
        {
          "internalType": "uint256",
          "name": "tokenId",
          "type": "uint256"
        }
      ],
      "name": "transferFrom",
      "outputs": [],
      "stateMutability": "nonpayable",
      "type": "function"
    },
    {
      "inputs": [
        {
          "internalType": "address",
          "name": "newOwner",
          "type": "address"
        }
      ],
      "name": "transferOwnership",
      "outputs": [],
      "stateMutability": "nonpayable",
      "type": "function"
    },
    {
      "inputs": [
        {
          "internalType": "string",
          "name": "inputbaseURI",
          "type": "string"
        }
      ],
      "name": "setBaseURI",
      "outputs": [],
      "stateMutability": "nonpayable",
      "type": "function"
    },
    {
      "inputs": [
        {
          "internalType": "uint256",
          "name": "tokenId",
          "type": "uint256"
        }
      ],
      "name": "tokenURI",
      "outputs": [
        {
          "internalType": "string",
          "name": "",
          "type": "string"
        }
      ],
      "stateMutability": "view",
      "type": "function"
    },
    {
      "inputs": [
        {
          "internalType": "string",
          "name": "game_id",
          "type": "string"
        },
        {
          "internalType": "string",
          "name": "item_id",
          "type": "string"
        }
      ],
      "name": "mint",
      "outputs": [],
      "stateMutability": "nonpayable",
      "type": "function"
    },
    {
      "inputs": [
        {
          "internalType": "uint256",
          "name": "tokenId",
          "type": "uint256"
        },
        {
          "internalType": "uint256",
          "name": "price",
          "type": "uint256"
        }
      ],
      "name": "listNFTOnMarket",
      "outputs": [],
      "stateMutability": "nonpayable",
      "type": "function"
    },
    {
      "inputs": [
        {
          "internalType": "uint256",
          "name": "tokenId",
          "type": "uint256"
        }
      ],
      "name": "removeNFTFromMarket",
      "outputs": [],
      "stateMutability": "nonpayable",
      "type": "function"
    },
    {
      "inputs": [
        {
          "internalType": "uint256",
          "name": "tokenId",
          "type": "uint256"
        },
        {
          "internalType": "uint256",
          "name": "amount",
          "type": "uint256"
        }
      ],
      "name": "purchaseNFT",
      "outputs": [],
      "stateMutability": "nonpayable",
      "type": "function"
    },
    {
      "inputs": [
        {
          "internalType": "uint256",
          "name": "tokenId",
          "type": "uint256"
        }
      ],
      "name": "fetchNFTDataById",
      "outputs": [
        {
          "internalType": "string",
          "name": "",
          "type": "string"
        },
        {
          "internalType": "uint256",
          "name": "",
          "type": "uint256"
        },
        {
          "internalType": "address",
          "name": "",
          "type": "address"
        }
      ],
      "stateMutability": "view",
      "type": "function"
    },
    {
      "inputs": [],
      "name": "multiCallNFTsOnMarket",
      "outputs": [
        {
          "internalType": "uint256[]",
          "name": "",
          "type": "uint256[]"
        },
        {
          "internalType": "string[]",
          "name": "",
          "type": "string[]"
        },
        {
          "internalType": "uint256[]",
          "name": "",
          "type": "uint256[]"
        },
        {
          "internalType": "address[]",
          "name": "",
          "type": "address[]"
        }
      ],
      "stateMutability": "view",
      "type": "function"
    },
    {
      "inputs": [],
      "name": "kill",
      "outputs": [],
      "stateMutability": "nonpayable",
      "type": "function"
    }
  ],
  "bytecode": "0x60806040526000600b556000600c553480156200001b57600080fd5b506040518060400160405280600981526020017f41757869756e4e465400000000000000000000000000000000000000000000008152506040518060400160405280600481526020017f4155584e00000000000000000000000000000000000000000000000000000000815250620000a86200009c6200013060201b60201c565b6200013860201b60201c565b8160019080519060200190620000c0929190620001fc565b508060029080519060200190620000d9929190620001fc565b5050506040518060400160405280600d81526020017f68747470733a2f2f746f646f2f00000000000000000000000000000000000000815250600a908051906020019062000129929190620001fc565b5062000311565b600033905090565b60008060009054906101000a900473ffffffffffffffffffffffffffffffffffffffff169050816000806101000a81548173ffffffffffffffffffffffffffffffffffffffff021916908373ffffffffffffffffffffffffffffffffffffffff1602179055508173ffffffffffffffffffffffffffffffffffffffff168173ffffffffffffffffffffffffffffffffffffffff167f8be0079c531659141344cd1fd0a4f28419497f9722a3daafe3b4186f6b6457e060405160405180910390a35050565b8280546200020a90620002ac565b90600052602060002090601f0160209004810192826200022e57600085556200027a565b82601f106200024957805160ff19168380011785556200027a565b828001600101855582156200027a579182015b82811115620002795782518255916020019190600101906200025c565b5b5090506200028991906200028d565b5090565b5b80821115620002a85760008160009055506001016200028e565b5090565b60006002820490506001821680620002c557607f821691505b60208210811415620002dc57620002db620002e2565b5b50919050565b7f4e487b7100000000000000000000000000000000000000000000000000000000600052602260045260246000fd5b61412880620003216000396000f3fe608060405234801561001057600080fd5b50600436106101585760003560e01c8063741e0320116100c3578063a22cb4651161007c578063a22cb465146103a2578063ad4451a3146103be578063b88d4fde146103da578063c87b56dd146103f6578063e985e9c514610426578063f2fde38b1461045657610158565b8063741e0320146102db5780637e20b6ea146102f75780638aa0fdad146103185780638da5cb5b1461033457806395d89b41146103525780639a8193031461037057610158565b806341c0e1b51161011557806341c0e1b51461022f57806342842e0e1461023957806355f804b3146102555780636352211e1461027157806370a08231146102a1578063715018a6146102d157610158565b806301ffc9a71461015d57806306fdde031461018d578063081812fc146101ab578063095ea7b3146101db5780631684fd24146101f757806323b872dd14610213575b600080fd5b61017760048036038101906101729190612f13565b610472565b60405161018491906139d8565b60405180910390f35b610195610554565b6040516101a291906139f3565b60405180910390f35b6101c560048036038101906101c09190613012565b6105e6565b6040516101d29190613910565b60405180910390f35b6101f560048036038101906101f09190612ed7565b61066b565b005b610211600480360381019061020c9190613012565b610783565b005b61022d60048036038101906102289190612dd1565b610810565b005b610237610870565b005b610253600480360381019061024e9190612dd1565b61090c565b005b61026f600480360381019061026a9190612f65565b61092c565b005b61028b60048036038101906102869190613012565b6109c2565b6040516102989190613910565b60405180910390f35b6102bb60048036038101906102b69190612d6c565b610a74565b6040516102c89190613c73565b60405180910390f35b6102d9610b2c565b005b6102f560048036038101906102f0919061303b565b610bb4565b005b6102ff610d27565b60405161030f9493929190613977565b60405180910390f35b610332600480360381019061032d9190612fa6565b61115a565b005b61033c6111ed565b6040516103499190613910565b60405180910390f35b61035a611216565b60405161036791906139f3565b60405180910390f35b61038a60048036038101906103859190613012565b6112a8565b60405161039993929190613a15565b60405180910390f35b6103bc60048036038101906103b79190612e9b565b611311565b005b6103d860048036038101906103d3919061303b565b611492565b005b6103f460048036038101906103ef9190612e20565b611565565b005b610410600480360381019061040b9190613012565b6115c7565b60405161041d91906139f3565b60405180910390f35b610440600480360381019061043b9190612d95565b6117ac565b60405161044d91906139d8565b60405180910390f35b610470600480360381019061046b9190612d6c565b611840565b005b60007f80ac58cd000000000000000000000000000000000000000000000000000000007bffffffffffffffffffffffffffffffffffffffffffffffffffffffff1916827bffffffffffffffffffffffffffffffffffffffffffffffffffffffff1916148061053d57507f5b5e139f000000000000000000000000000000000000000000000000000000007bffffffffffffffffffffffffffffffffffffffffffffffffffffffff1916827bffffffffffffffffffffffffffffffffffffffffffffffffffffffff1916145b8061054d575061054c82611938565b5b9050919050565b60606001805461056390613f7d565b80601f016020809104026020016040519081016040528092919081815260200182805461058f90613f7d565b80156105dc5780601f106105b1576101008083540402835291602001916105dc565b820191906000526020600020905b8154815290600101906020018083116105bf57829003601f168201915b5050505050905090565b60006105f1826119a2565b610630576040517f08c379a000000000000000000000000000000000000000000000000000000000815260040161062790613bb3565b60405180910390fd5b6005600083815260200190815260200160002060009054906101000a900473ffffffffffffffffffffffffffffffffffffffff169050919050565b6000610676826109c2565b90508073ffffffffffffffffffffffffffffffffffffffff168373ffffffffffffffffffffffffffffffffffffffff1614156106e7576040517f08c379a00000000000000000000000000000000000000000000000000000000081526004016106de90613c33565b60405180910390fd5b8073ffffffffffffffffffffffffffffffffffffffff16610706611a0e565b73ffffffffffffffffffffffffffffffffffffffff16148061073557506107348161072f611a0e565b6117ac565b5b610774576040517f08c379a000000000000000000000000000000000000000000000000000000000815260040161076b90613b33565b60405180910390fd5b61077e8383611a16565b505050565b8061078d816119a2565b61079657600080fd5b813373ffffffffffffffffffffffffffffffffffffffff166009600083815260200190815260200160002060009054906101000a900473ffffffffffffffffffffffffffffffffffffffff1673ffffffffffffffffffffffffffffffffffffffff161461080257600080fd5b61080b83611acf565b505050565b61082161081b611a0e565b82611c7a565b610860576040517f08c379a000000000000000000000000000000000000000000000000000000000815260040161085790613c53565b60405180910390fd5b61086b838383611d58565b505050565b610878611a0e565b73ffffffffffffffffffffffffffffffffffffffff166108966111ed565b73ffffffffffffffffffffffffffffffffffffffff16146108ec576040517f08c379a00000000000000000000000000000000000000000000000000000000081526004016108e390613bd3565b60405180910390fd5b6108f46111ed565b73ffffffffffffffffffffffffffffffffffffffff16ff5b61092783838360405180602001604052806000815250611565565b505050565b610934611a0e565b73ffffffffffffffffffffffffffffffffffffffff166109526111ed565b73ffffffffffffffffffffffffffffffffffffffff16146109a8576040517f08c379a000000000000000000000000000000000000000000000000000000000815260040161099f90613bd3565b60405180910390fd5b80600a90805190602001906109be929190612b90565b5050565b6000806003600084815260200190815260200160002060009054906101000a900473ffffffffffffffffffffffffffffffffffffffff169050600073ffffffffffffffffffffffffffffffffffffffff168173ffffffffffffffffffffffffffffffffffffffff161415610a6b576040517f08c379a0000000000000000000000000000000000000000000000000000000008152600401610a6290613b73565b60405180910390fd5b80915050919050565b60008073ffffffffffffffffffffffffffffffffffffffff168273ffffffffffffffffffffffffffffffffffffffff161415610ae5576040517f08c379a0000000000000000000000000000000000000000000000000000000008152600401610adc90613b53565b60405180910390fd5b600460008373ffffffffffffffffffffffffffffffffffffffff1673ffffffffffffffffffffffffffffffffffffffff168152602001908152602001600020549050919050565b610b34611a0e565b73ffffffffffffffffffffffffffffffffffffffff16610b526111ed565b73ffffffffffffffffffffffffffffffffffffffff1614610ba8576040517f08c379a0000000000000000000000000000000000000000000000000000000008152600401610b9f90613bd3565b60405180910390fd5b610bb26000611fb4565b565b81610bbe816119a2565b610bc757600080fd5b823373ffffffffffffffffffffffffffffffffffffffff166009600083815260200190815260200160002060009054906101000a900473ffffffffffffffffffffffffffffffffffffffff1673ffffffffffffffffffffffffffffffffffffffff1614610c3357600080fd5b60405180606001604052806001151581526020018481526020013373ffffffffffffffffffffffffffffffffffffffff168152506007600086815260200190815260200160002060008201518160000160006101000a81548160ff0219169083151502179055506020820151816001015560408201518160020160006101000a81548173ffffffffffffffffffffffffffffffffffffffff021916908373ffffffffffffffffffffffffffffffffffffffff160217905550905050600c6000815480929190610d0190613faf565b9190505550610d2133308660405180602001604052806000815250612078565b50505050565b6060806060806000600c5467ffffffffffffffff811115610d71577f4e487b7100000000000000000000000000000000000000000000000000000000600052604160045260246000fd5b604051908082528060200260200182016040528015610d9f5781602001602082028036833780820191505090505b509050610daa6120d4565b90506000600c5467ffffffffffffffff811115610df0577f4e487b7100000000000000000000000000000000000000000000000000000000600052604160045260246000fd5b604051908082528060200260200182016040528015610e2357816020015b6060815260200190600190039081610e0e5790505b5090506000600c5467ffffffffffffffff811115610e6a577f4e487b7100000000000000000000000000000000000000000000000000000000600052604160045260246000fd5b604051908082528060200260200182016040528015610e985781602001602082028036833780820191505090505b5090506000600c5467ffffffffffffffff811115610edf577f4e487b7100000000000000000000000000000000000000000000000000000000600052604160045260246000fd5b604051908082528060200260200182016040528015610f0d5781602001602082028036833780820191505090505b50905060005b600c5481101561114357610f66858281518110610f59577f4e487b7100000000000000000000000000000000000000000000000000000000600052603260045260246000fd5b60200260200101516115c7565b848281518110610f9f577f4e487b7100000000000000000000000000000000000000000000000000000000600052603260045260246000fd5b602002602001018190525060076000868381518110610fe7577f4e487b7100000000000000000000000000000000000000000000000000000000600052603260045260246000fd5b602002602001015181526020019081526020016000206001015483828151811061103a577f4e487b7100000000000000000000000000000000000000000000000000000000600052603260045260246000fd5b60200260200101818152505060076000868381518110611083577f4e487b7100000000000000000000000000000000000000000000000000000000600052603260045260246000fd5b6020026020010151815260200190815260200160002060020160009054906101000a900473ffffffffffffffffffffffffffffffffffffffff168282815181106110f6577f4e487b7100000000000000000000000000000000000000000000000000000000600052603260045260246000fd5b602002602001019073ffffffffffffffffffffffffffffffffffffffff16908173ffffffffffffffffffffffffffffffffffffffff1681525050808061113b90613faf565b915050610f13565b508383838397509750975097505050505090919293565b6000600b549050600b600081548092919061117490613faf565b91905055506040518060400160405280848152602001838152506008600083815260200190815260200160002060008201518160000190805190602001906111bd929190612b90565b5060208201518160010190805190602001906111da929190612b90565b509050506111e833826121f3565b505050565b60008060009054906101000a900473ffffffffffffffffffffffffffffffffffffffff16905090565b60606002805461122590613f7d565b80601f016020809104026020016040519081016040528092919081815260200182805461125190613f7d565b801561129e5780601f106112735761010080835404028352916020019161129e565b820191906000526020600020905b81548152906001019060200180831161128157829003601f168201915b5050505050905090565b60606000806112b6846115c7565b60076000868152602001908152602001600020600101546007600087815260200190815260200160002060020160009054906101000a900473ffffffffffffffffffffffffffffffffffffffff169250925092509193909250565b611319611a0e565b73ffffffffffffffffffffffffffffffffffffffff168273ffffffffffffffffffffffffffffffffffffffff161415611387576040517f08c379a000000000000000000000000000000000000000000000000000000000815260040161137e90613ad3565b60405180910390fd5b8060066000611394611a0e565b73ffffffffffffffffffffffffffffffffffffffff1673ffffffffffffffffffffffffffffffffffffffff16815260200190815260200160002060008473ffffffffffffffffffffffffffffffffffffffff1673ffffffffffffffffffffffffffffffffffffffff16815260200190815260200160002060006101000a81548160ff0219169083151502179055508173ffffffffffffffffffffffffffffffffffffffff16611441611a0e565b73ffffffffffffffffffffffffffffffffffffffff167f17307eab39ab6107e8899845ad3d59bd9653f200f220920489ca2b5937696c318360405161148691906139d8565b60405180910390a35050565b8161149c816119a2565b6114a557600080fd5b6007600084815260200190815260200160002060000160009054906101000a900460ff166114d257600080fd5b81600760008581526020019081526020016000206001015411156114f557600080fd5b6114fe83611acf565b3373ffffffffffffffffffffffffffffffffffffffff166108fc839081150290604051600060405180830381858888f19350505050158015611544573d6000803e3d6000fd5b5061156030338560405180602001604052806000815250612078565b505050565b611576611570611a0e565b83611c7a565b6115b5576040517f08c379a00000000000000000000000000000000000000000000000000000000081526004016115ac90613c53565b60405180910390fd5b6115c184848484612078565b50505050565b60606115d2826119a2565b611611576040517f08c379a000000000000000000000000000000000000000000000000000000000815260040161160890613c13565b60405180910390fd5b6117a561161c612211565b60086000858152602001908152602001600020600001805461163d90613f7d565b80601f016020809104026020016040519081016040528092919081815260200182805461166990613f7d565b80156116b65780601f1061168b576101008083540402835291602001916116b6565b820191906000526020600020905b81548152906001019060200180831161169957829003601f168201915b50505050506040518060400160405280600181526020017f2f0000000000000000000000000000000000000000000000000000000000000081525060086000878152602001908152602001600020600101805461171290613f7d565b80601f016020809104026020016040519081016040528092919081815260200182805461173e90613f7d565b801561178b5780601f106117605761010080835404028352916020019161178b565b820191906000526020600020905b81548152906001019060200180831161176e57829003601f168201915b5050505050604051806020016040528060008152506122a3565b9050919050565b6000600660008473ffffffffffffffffffffffffffffffffffffffff1673ffffffffffffffffffffffffffffffffffffffff16815260200190815260200160002060008373ffffffffffffffffffffffffffffffffffffffff1673ffffffffffffffffffffffffffffffffffffffff16815260200190815260200160002060009054906101000a900460ff16905092915050565b611848611a0e565b73ffffffffffffffffffffffffffffffffffffffff166118666111ed565b73ffffffffffffffffffffffffffffffffffffffff16146118bc576040517f08c379a00000000000000000000000000000000000000000000000000000000081526004016118b390613bd3565b60405180910390fd5b600073ffffffffffffffffffffffffffffffffffffffff168173ffffffffffffffffffffffffffffffffffffffff16141561192c576040517f08c379a000000000000000000000000000000000000000000000000000000000815260040161192390613a73565b60405180910390fd5b61193581611fb4565b50565b60007f01ffc9a7000000000000000000000000000000000000000000000000000000007bffffffffffffffffffffffffffffffffffffffffffffffffffffffff1916827bffffffffffffffffffffffffffffffffffffffffffffffffffffffff1916149050919050565b60008073ffffffffffffffffffffffffffffffffffffffff166003600084815260200190815260200160002060009054906101000a900473ffffffffffffffffffffffffffffffffffffffff1673ffffffffffffffffffffffffffffffffffffffff1614159050919050565b600033905090565b816005600083815260200190815260200160002060006101000a81548173ffffffffffffffffffffffffffffffffffffffff021916908373ffffffffffffffffffffffffffffffffffffffff160217905550808273ffffffffffffffffffffffffffffffffffffffff16611a89836109c2565b73ffffffffffffffffffffffffffffffffffffffff167f8c5be1e5ebec7d5bd14f71427d1e84f3dd0314c0f7b2291e5b200ac8c7c3b92560405160405180910390a45050565b80611ad9816119a2565b611ae257600080fd5b3373ffffffffffffffffffffffffffffffffffffffff166007600084815260200190815260200160002060020160009054906101000a900473ffffffffffffffffffffffffffffffffffffffff1673ffffffffffffffffffffffffffffffffffffffff1614611b86576040517f08c379a0000000000000000000000000000000000000000000000000000000008152600401611b7d90613af3565b60405180910390fd5b604051806060016040528060001515815260200160008152602001600073ffffffffffffffffffffffffffffffffffffffff168152506007600084815260200190815260200160002060008201518160000160006101000a81548160ff0219169083151502179055506020820151816001015560408201518160020160006101000a81548173ffffffffffffffffffffffffffffffffffffffff021916908373ffffffffffffffffffffffffffffffffffffffff160217905550905050600c6000815480929190611c5690613f53565b9190505550611c7630338460405180602001604052806000815250612078565b5050565b6000611c85826119a2565b611cc4576040517f08c379a0000000000000000000000000000000000000000000000000000000008152600401611cbb90613b13565b60405180910390fd5b6000611ccf836109c2565b90508073ffffffffffffffffffffffffffffffffffffffff168473ffffffffffffffffffffffffffffffffffffffff161480611d3e57508373ffffffffffffffffffffffffffffffffffffffff16611d26846105e6565b73ffffffffffffffffffffffffffffffffffffffff16145b80611d4f5750611d4e81856117ac565b5b91505092915050565b8273ffffffffffffffffffffffffffffffffffffffff16611d78826109c2565b73ffffffffffffffffffffffffffffffffffffffff1614611dce576040517f08c379a0000000000000000000000000000000000000000000000000000000008152600401611dc590613bf3565b60405180910390fd5b600073ffffffffffffffffffffffffffffffffffffffff168273ffffffffffffffffffffffffffffffffffffffff161415611e3e576040517f08c379a0000000000000000000000000000000000000000000000000000000008152600401611e3590613ab3565b60405180910390fd5b611e498383836127b8565b611e54600082611a16565b6001600460008573ffffffffffffffffffffffffffffffffffffffff1673ffffffffffffffffffffffffffffffffffffffff1681526020019081526020016000206000828254611ea49190613e69565b925050819055506001600460008473ffffffffffffffffffffffffffffffffffffffff1673ffffffffffffffffffffffffffffffffffffffff1681526020019081526020016000206000828254611efb9190613e13565b92505081905550816003600083815260200190815260200160002060006101000a81548173ffffffffffffffffffffffffffffffffffffffff021916908373ffffffffffffffffffffffffffffffffffffffff160217905550808273ffffffffffffffffffffffffffffffffffffffff168473ffffffffffffffffffffffffffffffffffffffff167fddf252ad1be2c89b69c2b068fc378daa952ba7f163c4a11628f55a4df523b3ef60405160405180910390a4505050565b60008060009054906101000a900473ffffffffffffffffffffffffffffffffffffffff169050816000806101000a81548173ffffffffffffffffffffffffffffffffffffffff021916908373ffffffffffffffffffffffffffffffffffffffff1602179055508173ffffffffffffffffffffffffffffffffffffffff168173ffffffffffffffffffffffffffffffffffffffff167f8be0079c531659141344cd1fd0a4f28419497f9722a3daafe3b4186f6b6457e060405160405180910390a35050565b612083848484611d58565b61208f848484846127bd565b6120ce576040517f08c379a00000000000000000000000000000000000000000000000000000000081526004016120c590613a53565b60405180910390fd5b50505050565b60606000600c5467ffffffffffffffff81111561211a577f4e487b7100000000000000000000000000000000000000000000000000000000600052604160045260246000fd5b6040519080825280602002602001820160405280156121485781602001602082028036833780820191505090505b5090506000805b600b548110156121ea576007600082815260200190815260200160002060000160009054906101000a900460ff16156121d757808383815181106121bc577f4e487b7100000000000000000000000000000000000000000000000000000000600052603260045260246000fd5b60200260200101818152505081806121d390613faf565b9250505b80806121e290613faf565b91505061214f565b50819250505090565b61220d828260405180602001604052806000815250612954565b5050565b6060600a805461222090613f7d565b80601f016020809104026020016040519081016040528092919081815260200182805461224c90613f7d565b80156122995780601f1061226e57610100808354040283529160200191612299565b820191906000526020600020905b81548152906001019060200180831161227c57829003601f168201915b5050505050905090565b6060600086905060008690506000869050600086905060008690506000815183518551875189516122d49190613e13565b6122de9190613e13565b6122e89190613e13565b6122f29190613e13565b67ffffffffffffffff811115612331577f4e487b7100000000000000000000000000000000000000000000000000000000600052604160045260246000fd5b6040519080825280601f01601f1916602001820160405280156123635781602001600182028036833780820191505090505b50905060008190506000805b8851811015612443578881815181106123b1577f4e487b7100000000000000000000000000000000000000000000000000000000600052603260045260246000fd5b602001015160f81c60f81b8383806123c890613faf565b945081518110612401577f4e487b7100000000000000000000000000000000000000000000000000000000600052603260045260246000fd5b60200101907effffffffffffffffffffffffffffffffffffffffffffffffffffffffffffff1916908160001a905350808061243b90613faf565b91505061236f565b5060005b875181101561251b57878181518110612489577f4e487b7100000000000000000000000000000000000000000000000000000000600052603260045260246000fd5b602001015160f81c60f81b8383806124a090613faf565b9450815181106124d9577f4e487b7100000000000000000000000000000000000000000000000000000000600052603260045260246000fd5b60200101907effffffffffffffffffffffffffffffffffffffffffffffffffffffffffffff1916908160001a905350808061251390613faf565b915050612447565b5060005b86518110156125f357868181518110612561577f4e487b7100000000000000000000000000000000000000000000000000000000600052603260045260246000fd5b602001015160f81c60f81b83838061257890613faf565b9450815181106125b1577f4e487b7100000000000000000000000000000000000000000000000000000000600052603260045260246000fd5b60200101907effffffffffffffffffffffffffffffffffffffffffffffffffffffffffffff1916908160001a90535080806125eb90613faf565b91505061251f565b5060005b85518110156126cb57858181518110612639577f4e487b7100000000000000000000000000000000000000000000000000000000600052603260045260246000fd5b602001015160f81c60f81b83838061265090613faf565b945081518110612689577f4e487b7100000000000000000000000000000000000000000000000000000000600052603260045260246000fd5b60200101907effffffffffffffffffffffffffffffffffffffffffffffffffffffffffffff1916908160001a90535080806126c390613faf565b9150506125f7565b5060005b84518110156127a357848181518110612711577f4e487b7100000000000000000000000000000000000000000000000000000000600052603260045260246000fd5b602001015160f81c60f81b83838061272890613faf565b945081518110612761577f4e487b7100000000000000000000000000000000000000000000000000000000600052603260045260246000fd5b60200101907effffffffffffffffffffffffffffffffffffffffffffffffffffffffffffff1916908160001a905350808061279b90613faf565b9150506126cf565b50819850505050505050505095945050505050565b505050565b60006127de8473ffffffffffffffffffffffffffffffffffffffff166129af565b15612947578373ffffffffffffffffffffffffffffffffffffffff1663150b7a02612807611a0e565b8786866040518563ffffffff1660e01b8152600401612829949392919061392b565b602060405180830381600087803b15801561284357600080fd5b505af192505050801561287457506040513d601f19601f820116820180604052508101906128719190612f3c565b60015b6128f7573d80600081146128a4576040519150601f19603f3d011682016040523d82523d6000602084013e6128a9565b606091505b506000815114156128ef576040517f08c379a00000000000000000000000000000000000000000000000000000000081526004016128e690613a53565b60405180910390fd5b805181602001fd5b63150b7a0260e01b7bffffffffffffffffffffffffffffffffffffffffffffffffffffffff1916817bffffffffffffffffffffffffffffffffffffffffffffffffffffffff19161491505061294c565b600190505b949350505050565b61295e83836129c2565b61296b60008484846127bd565b6129aa576040517f08c379a00000000000000000000000000000000000000000000000000000000081526004016129a190613a53565b60405180910390fd5b505050565b600080823b905060008111915050919050565b600073ffffffffffffffffffffffffffffffffffffffff168273ffffffffffffffffffffffffffffffffffffffff161415612a32576040517f08c379a0000000000000000000000000000000000000000000000000000000008152600401612a2990613b93565b60405180910390fd5b612a3b816119a2565b15612a7b576040517f08c379a0000000000000000000000000000000000000000000000000000000008152600401612a7290613a93565b60405180910390fd5b612a87600083836127b8565b6001600460008473ffffffffffffffffffffffffffffffffffffffff1673ffffffffffffffffffffffffffffffffffffffff1681526020019081526020016000206000828254612ad79190613e13565b92505081905550816003600083815260200190815260200160002060006101000a81548173ffffffffffffffffffffffffffffffffffffffff021916908373ffffffffffffffffffffffffffffffffffffffff160217905550808273ffffffffffffffffffffffffffffffffffffffff16600073ffffffffffffffffffffffffffffffffffffffff167fddf252ad1be2c89b69c2b068fc378daa952ba7f163c4a11628f55a4df523b3ef60405160405180910390a45050565b828054612b9c90613f7d565b90600052602060002090601f016020900481019282612bbe5760008555612c05565b82601f10612bd757805160ff1916838001178555612c05565b82800160010185558215612c05579182015b82811115612c04578251825591602001919060010190612be9565b5b509050612c129190612c16565b5090565b5b80821115612c2f576000816000905550600101612c17565b5090565b6000612c46612c4184613cbf565b613c8e565b905082815260208101848484011115612c5e57600080fd5b612c69848285613f11565b509392505050565b6000612c84612c7f84613cef565b613c8e565b905082815260208101848484011115612c9c57600080fd5b612ca7848285613f11565b509392505050565b600081359050612cbe81614096565b92915050565b600081359050612cd3816140ad565b92915050565b600081359050612ce8816140c4565b92915050565b600081519050612cfd816140c4565b92915050565b600082601f830112612d1457600080fd5b8135612d24848260208601612c33565b91505092915050565b600082601f830112612d3e57600080fd5b8135612d4e848260208601612c71565b91505092915050565b600081359050612d66816140db565b92915050565b600060208284031215612d7e57600080fd5b6000612d8c84828501612caf565b91505092915050565b60008060408385031215612da857600080fd5b6000612db685828601612caf565b9250506020612dc785828601612caf565b9150509250929050565b600080600060608486031215612de657600080fd5b6000612df486828701612caf565b9350506020612e0586828701612caf565b9250506040612e1686828701612d57565b9150509250925092565b60008060008060808587031215612e3657600080fd5b6000612e4487828801612caf565b9450506020612e5587828801612caf565b9350506040612e6687828801612d57565b925050606085013567ffffffffffffffff811115612e8357600080fd5b612e8f87828801612d03565b91505092959194509250565b60008060408385031215612eae57600080fd5b6000612ebc85828601612caf565b9250506020612ecd85828601612cc4565b9150509250929050565b60008060408385031215612eea57600080fd5b6000612ef885828601612caf565b9250506020612f0985828601612d57565b9150509250929050565b600060208284031215612f2557600080fd5b6000612f3384828501612cd9565b91505092915050565b600060208284031215612f4e57600080fd5b6000612f5c84828501612cee565b91505092915050565b600060208284031215612f7757600080fd5b600082013567ffffffffffffffff811115612f9157600080fd5b612f9d84828501612d2d565b91505092915050565b60008060408385031215612fb957600080fd5b600083013567ffffffffffffffff811115612fd357600080fd5b612fdf85828601612d2d565b925050602083013567ffffffffffffffff811115612ffc57600080fd5b61300885828601612d2d565b9150509250929050565b60006020828403121561302457600080fd5b600061303284828501612d57565b91505092915050565b6000806040838503121561304e57600080fd5b600061305c85828601612d57565b925050602061306d85828601612d57565b9150509250929050565b600061308383836130bb565b60208301905092915050565b600061309b8383613252565b905092915050565b60006130af83836138f2565b60208301905092915050565b6130c481613e9d565b82525050565b6130d381613e9d565b82525050565b60006130e482613d4f565b6130ee8185613dad565b93506130f983613d1f565b8060005b8381101561312a5781516131118882613077565b975061311c83613d86565b9250506001810190506130fd565b5085935050505092915050565b600061314282613d5a565b61314c8185613dbe565b93508360208202850161315e85613d2f565b8060005b8581101561319a578484038952815161317b858261308f565b945061318683613d93565b925060208a01995050600181019050613162565b50829750879550505050505092915050565b60006131b782613d65565b6131c18185613dcf565b93506131cc83613d3f565b8060005b838110156131fd5781516131e488826130a3565b97506131ef83613da0565b9250506001810190506131d0565b5085935050505092915050565b61321381613eaf565b82525050565b600061322482613d70565b61322e8185613de0565b935061323e818560208601613f20565b61324781614085565b840191505092915050565b600061325d82613d7b565b6132678185613df1565b9350613277818560208601613f20565b61328081614085565b840191505092915050565b600061329682613d7b565b6132a08185613e02565b93506132b0818560208601613f20565b6132b981614085565b840191505092915050565b60006132d1603283613e02565b91507f4552433732313a207472616e7366657220746f206e6f6e20455243373231526560008301527f63656976657220696d706c656d656e74657200000000000000000000000000006020830152604082019050919050565b6000613337602683613e02565b91507f4f776e61626c653a206e6577206f776e657220697320746865207a65726f206160008301527f64647265737300000000000000000000000000000000000000000000000000006020830152604082019050919050565b600061339d601c83613e02565b91507f4552433732313a20746f6b656e20616c7265616479206d696e746564000000006000830152602082019050919050565b60006133dd602483613e02565b91507f4552433732313a207472616e7366657220746f20746865207a65726f2061646460008301527f72657373000000000000000000000000000000000000000000000000000000006020830152604082019050919050565b6000613443601983613e02565b91507f4552433732313a20617070726f766520746f2063616c6c6572000000000000006000830152602082019050919050565b6000613483602383613e02565b91507f4e6f7420746865206f726967696e616c206f776e6572206f662074686973204e60008301527f46542e00000000000000000000000000000000000000000000000000000000006020830152604082019050919050565b60006134e9602c83613e02565b91507f4552433732313a206f70657261746f7220717565727920666f72206e6f6e657860008301527f697374656e7420746f6b656e00000000000000000000000000000000000000006020830152604082019050919050565b600061354f603883613e02565b91507f4552433732313a20617070726f76652063616c6c6572206973206e6f74206f7760008301527f6e6572206e6f7220617070726f76656420666f7220616c6c00000000000000006020830152604082019050919050565b60006135b5602a83613e02565b91507f4552433732313a2062616c616e636520717565727920666f7220746865207a6560008301527f726f2061646472657373000000000000000000000000000000000000000000006020830152604082019050919050565b600061361b602983613e02565b91507f4552433732313a206f776e657220717565727920666f72206e6f6e657869737460008301527f656e7420746f6b656e00000000000000000000000000000000000000000000006020830152604082019050919050565b6000613681602083613e02565b91507f4552433732313a206d696e7420746f20746865207a65726f20616464726573736000830152602082019050919050565b60006136c1602c83613e02565b91507f4552433732313a20617070726f76656420717565727920666f72206e6f6e657860008301527f697374656e7420746f6b656e00000000000000000000000000000000000000006020830152604082019050919050565b6000613727602083613e02565b91507f4f776e61626c653a2063616c6c6572206973206e6f7420746865206f776e65726000830152602082019050919050565b6000613767602983613e02565b91507f4552433732313a207472616e73666572206f6620746f6b656e2074686174206960008301527f73206e6f74206f776e00000000000000000000000000000000000000000000006020830152604082019050919050565b60006137cd602f83613e02565b91507f4552433732314d657461646174613a2055524920717565727920666f72206e6f60008301527f6e6578697374656e7420746f6b656e00000000000000000000000000000000006020830152604082019050919050565b6000613833602183613e02565b91507f4552433732313a20617070726f76616c20746f2063757272656e74206f776e6560008301527f72000000000000000000000000000000000000000000000000000000000000006020830152604082019050919050565b6000613899603183613e02565b91507f4552433732313a207472616e736665722063616c6c6572206973206e6f74206f60008301527f776e6572206e6f7220617070726f7665640000000000000000000000000000006020830152604082019050919050565b6138fb81613f07565b82525050565b61390a81613f07565b82525050565b600060208201905061392560008301846130ca565b92915050565b600060808201905061394060008301876130ca565b61394d60208301866130ca565b61395a6040830185613901565b818103606083015261396c8184613219565b905095945050505050565b6000608082019050818103600083015261399181876131ac565b905081810360208301526139a58186613137565b905081810360408301526139b981856131ac565b905081810360608301526139cd81846130d9565b905095945050505050565b60006020820190506139ed600083018461320a565b92915050565b60006020820190508181036000830152613a0d818461328b565b905092915050565b60006060820190508181036000830152613a2f818661328b565b9050613a3e6020830185613901565b613a4b60408301846130ca565b949350505050565b60006020820190508181036000830152613a6c816132c4565b9050919050565b60006020820190508181036000830152613a8c8161332a565b9050919050565b60006020820190508181036000830152613aac81613390565b9050919050565b60006020820190508181036000830152613acc816133d0565b9050919050565b60006020820190508181036000830152613aec81613436565b9050919050565b60006020820190508181036000830152613b0c81613476565b9050919050565b60006020820190508181036000830152613b2c816134dc565b9050919050565b60006020820190508181036000830152613b4c81613542565b9050919050565b60006020820190508181036000830152613b6c816135a8565b9050919050565b60006020820190508181036000830152613b8c8161360e565b9050919050565b60006020820190508181036000830152613bac81613674565b9050919050565b60006020820190508181036000830152613bcc816136b4565b9050919050565b60006020820190508181036000830152613bec8161371a565b9050919050565b60006020820190508181036000830152613c0c8161375a565b9050919050565b60006020820190508181036000830152613c2c816137c0565b9050919050565b60006020820190508181036000830152613c4c81613826565b9050919050565b60006020820190508181036000830152613c6c8161388c565b9050919050565b6000602082019050613c886000830184613901565b92915050565b6000604051905081810181811067ffffffffffffffff82111715613cb557613cb4614056565b5b8060405250919050565b600067ffffffffffffffff821115613cda57613cd9614056565b5b601f19601f8301169050602081019050919050565b600067ffffffffffffffff821115613d0a57613d09614056565b5b601f19601f8301169050602081019050919050565b6000819050602082019050919050565b6000819050602082019050919050565b6000819050602082019050919050565b600081519050919050565b600081519050919050565b600081519050919050565b600081519050919050565b600081519050919050565b6000602082019050919050565b6000602082019050919050565b6000602082019050919050565b600082825260208201905092915050565b600082825260208201905092915050565b600082825260208201905092915050565b600082825260208201905092915050565b600082825260208201905092915050565b600082825260208201905092915050565b6000613e1e82613f07565b9150613e2983613f07565b9250827fffffffffffffffffffffffffffffffffffffffffffffffffffffffffffffffff03821115613e5e57613e5d613ff8565b5b828201905092915050565b6000613e7482613f07565b9150613e7f83613f07565b925082821015613e9257613e91613ff8565b5b828203905092915050565b6000613ea882613ee7565b9050919050565b60008115159050919050565b60007fffffffff0000000000000000000000000000000000000000000000000000000082169050919050565b600073ffffffffffffffffffffffffffffffffffffffff82169050919050565b6000819050919050565b82818337600083830152505050565b60005b83811015613f3e578082015181840152602081019050613f23565b83811115613f4d576000848401525b50505050565b6000613f5e82613f07565b91506000821415613f7257613f71613ff8565b5b600182039050919050565b60006002820490506001821680613f9557607f821691505b60208210811415613fa957613fa8614027565b5b50919050565b6000613fba82613f07565b91507fffffffffffffffffffffffffffffffffffffffffffffffffffffffffffffffff821415613fed57613fec613ff8565b5b600182019050919050565b7f4e487b7100000000000000000000000000000000000000000000000000000000600052601160045260246000fd5b7f4e487b7100000000000000000000000000000000000000000000000000000000600052602260045260246000fd5b7f4e487b7100000000000000000000000000000000000000000000000000000000600052604160045260246000fd5b6000601f19601f8301169050919050565b61409f81613e9d565b81146140aa57600080fd5b50565b6140b681613eaf565b81146140c157600080fd5b50565b6140cd81613ebb565b81146140d857600080fd5b50565b6140e481613f07565b81146140ef57600080fd5b5056fea2646970667358221220f3af880843215a57c1cb3038953a0eaebc59a5b4ad8bda2bd6f2f9375ae456cc64736f6c63430008000033",
  "immutableReferences": {},
  "source": "// SPDX-License-Identifier: MIT\r\n\r\npragma solidity ^0.8.0;\r\n\r\nimport \"@openzeppelin/contracts/access/Ownable.sol\";\r\nimport \"@openzeppelin/contracts/token/ERC721/ERC721.sol\";\r\n\r\ncontract AuxiunNFT is Ownable, ERC721 {\r\n    struct Metadata {\r\n        string game_id;\r\n        string item_id;\r\n    }\r\n\r\n    struct MarketDetails {\r\n        bool forSale;\r\n        uint256 price;\r\n        address seller;\r\n    }\r\n\r\n\r\n    // mapping of tokenId to market details\r\n    mapping(uint256 => MarketDetails) id_to_marketDetails;\r\n\r\n    // mapping of tokenId to metadata\r\n    mapping(uint256 => Metadata) id_to_metadata;\r\n\r\n    // mapping of tokenId to Owner\r\n    mapping(uint256 => address) id_to_owner;\r\n\r\n    // Base URI, aka API link to fetch further metadata of the token\r\n    string private baseURI;\r\n\r\n    // Used as tokenId for a newly minted token and increases by 1\r\n    uint256 private tokenIdCounter = 0;\r\n\r\n    // Number of NFTs on market (Maybe for future use)\r\n    uint256 NFTsOnMarket = 0;\r\n\r\n    // Keeping track of the tokenIds put on the market\r\n    uint256[] tokenIdsOnMarket;\r\n\r\n \r\n    constructor() ERC721(\"AuxiunNFT\", \"AUXN\") {\r\n        // TODO: Setup database api server and set the link here, remember to add the \"/\" at the end of the uri\r\n        baseURI = \"https://todo/\";\r\n    }\r\n\r\n    function _baseURI() internal view virtual override returns (string memory) {\r\n        return baseURI;\r\n    }\r\n\r\n    function setBaseURI(string memory inputbaseURI) public onlyOwner {\r\n        baseURI = inputbaseURI;\r\n    }\r\n\r\n    // function standard called by NFT marketplaces such as OpenSea\r\n    function tokenURI(uint256 tokenId)\r\n        public\r\n        view\r\n        virtual\r\n        override\r\n        returns (string memory)\r\n    {\r\n        require(_exists(tokenId), \"ERC721Metadata: URI query for nonexistent token\");\r\n\r\n        return strConcat(_baseURI(), id_to_metadata[tokenId].game_id, \"/\", id_to_metadata[tokenId].item_id, \"\");\r\n    }\r\n\r\n    function mint(\r\n        string memory game_id,\r\n        string memory item_id\r\n    ) external {\r\n        uint256 tokenId = tokenIdCounter;\r\n        tokenIdCounter++;\r\n        id_to_metadata[tokenId] = Metadata(game_id, item_id);\r\n\r\n        _safeMint(msg.sender, tokenId);\r\n    }\r\n\r\n    // String concatenation function\r\n    // original source: https://github.com/provable-things/ethereum-api/blob/master/oraclizeAPI_0.5.sol\r\n    // stack overflow topic: https://ethereum.stackexchange.com/questions/729/how-to-concatenate-strings-in-solidity\r\n    // Notes: reduce the parameters if necessary\r\n    function strConcat(string memory _a, string memory _b, string memory _c, string memory _d, string memory _e) internal pure returns (string memory){\r\n        bytes memory _ba = bytes(_a);\r\n        bytes memory _bb = bytes(_b);\r\n        bytes memory _bc = bytes(_c);\r\n        bytes memory _bd = bytes(_d);\r\n        bytes memory _be = bytes(_e);\r\n        string memory abcde = new string(_ba.length + _bb.length + _bc.length + _bd.length + _be.length);\r\n        bytes memory babcde = bytes(abcde);\r\n        uint k = 0;\r\n        for (uint i = 0; i < _ba.length; i++) babcde[k++] = _ba[i];\r\n        for (uint i = 0; i < _bb.length; i++) babcde[k++] = _bb[i];\r\n        for (uint i = 0; i < _bc.length; i++) babcde[k++] = _bc[i];\r\n        for (uint i = 0; i < _bd.length; i++) babcde[k++] = _bd[i];\r\n        for (uint i = 0; i < _be.length; i++) babcde[k++] = _be[i];\r\n        return string(babcde);\r\n    }\r\n\r\n\r\n    // Modifers\r\n\r\n    modifier tokenExists(uint256 tokenId) {\r\n        require(_exists(tokenId));\r\n        _;\r\n    }\r\n\r\n    modifier belongsToSender(uint256 tokenId){\r\n        require(id_to_owner[tokenId] == msg.sender);\r\n        _;\r\n    }\r\n\r\n    // Helper Functions for NFTs on the market.\r\n\r\n    function _removeNFTfromMarket(uint tokenId) private tokenExists(tokenId) {\r\n        require(id_to_marketDetails[tokenId].seller == msg.sender, \"Not the original owner of this NFT.\");\r\n        id_to_marketDetails[tokenId] = MarketDetails(false, 0, address(0));\r\n        NFTsOnMarket--;\r\n        // _removeIdOnMarket(tokenId);\r\n\r\n        // transfer token back to owner\r\n        _safeTransfer(address(this), msg.sender, tokenId, \"\");\r\n    }\r\n\r\n    function _removeIdOnMarket(uint256 tokenId) private {\r\n        int index = _getIndexOfTokenId(tokenId);\r\n        require(index > -1, \"No tokenId found on the market.\");\r\n\r\n        tokenIdsOnMarket[uint256(index)] = tokenIdsOnMarket[tokenIdsOnMarket.length -1];\r\n        tokenIdsOnMarket.pop();\r\n    }\r\n\r\n    function _getIndexOfTokenId(uint256 tokenId) private view returns (int256) {\r\n        for(uint256 i = 0; i < tokenIdsOnMarket.length; i++){\r\n            if(tokenId == tokenIdsOnMarket[i]){\r\n                return int(i);\r\n            }\r\n        }\r\n        return -1;\r\n    }   \r\n\r\n  \r\n    // Functions for market place interactions.\r\n    \r\n    function listNFTOnMarket(uint256 tokenId, uint256 price) external tokenExists(tokenId) belongsToSender(tokenId){\r\n        id_to_marketDetails[tokenId] = MarketDetails(true, price, msg.sender);\r\n        NFTsOnMarket++;\r\n        // tokenIdsOnMarket.push(tokenId);\r\n\r\n        // transfer ownership of tokenId to this contract\r\n        _safeTransfer(msg.sender, address(this), tokenId, \"\");\r\n    }\r\n\r\n    function removeNFTFromMarket(uint256 tokenId) external tokenExists(tokenId) belongsToSender(tokenId){\r\n        _removeNFTfromMarket(tokenId);\r\n    }\r\n\r\n\r\n    function purchaseNFT(uint256 tokenId, uint256 amount) external tokenExists(tokenId) {\r\n        require(id_to_marketDetails[tokenId].forSale);\r\n        require(id_to_marketDetails[tokenId].price <= amount); \r\n        // id_to_owner[tokenId] = to; // you don't do this since u already calling transfer function\r\n        _removeNFTfromMarket(tokenId);\r\n        payable(msg.sender).transfer(amount);\r\n        _safeTransfer(address(this), msg.sender, tokenId, \"\");\r\n        // emit Transfer(from, to, tokenId); // transfer function already emits Transfer event\r\n    }\r\n \r\n    // returns an array of token ids which are listed as forSale\r\n    function _fetchTokenIdsOnMarket() internal view returns(uint256[] memory) {\r\n        // initialize result's array length\r\n        uint256[] memory result = new uint256[](NFTsOnMarket);\r\n        // for loop to fetch all tokenIds where id_to_marketDetails[i].forSale == true\r\n        uint256 counter = 0;\r\n        for (uint256 i = 0; i < tokenIdCounter; i++) {\r\n            // only tokenIds which are for sale will be pushed into the result array\r\n            if (id_to_marketDetails[i].forSale) {\r\n                result[counter] = i;\r\n                counter++;\r\n            }\r\n        }\r\n        return result;\r\n    }\r\n\r\n    // fetch by order: tokenURI, token price, token seller's address\r\n    function fetchNFTDataById(uint256 tokenId) external view returns(string memory, uint256, address) {\r\n        return (tokenURI(tokenId), id_to_marketDetails[tokenId].price, id_to_marketDetails[tokenId].seller);\r\n    }\r\n\r\n    /**\r\n    * Returns 4 arrays of all tokens on sale which are:\r\n    * 1. array of tokenIds\r\n    * 2. array of tokenURIs\r\n    * 3. array of token prices\r\n    * 4. array of token sellers\r\n    */\r\n    function multiCallNFTsOnMarket() external view returns(uint256[] memory, string[] memory, uint256[] memory, address[] memory) {\r\n        // initialize tokenIds' array length\r\n        uint256[] memory tokenIds = new uint256[](NFTsOnMarket);\r\n        // fetch the tokenIds on the market\r\n        tokenIds = _fetchTokenIdsOnMarket();\r\n\r\n        // initialize array for tokenURIs, prices and sellers\r\n        string[] memory tokenURIs = new string[](NFTsOnMarket);\r\n        uint256[] memory tokenPrices = new uint256[](NFTsOnMarket);\r\n        address[] memory tokenSellers = new address[](NFTsOnMarket);\r\n\r\n        // for loop to fetch all data of tokenIds and push into the 3 arrays\r\n        for (uint256 i = 0; i < NFTsOnMarket; i++) {\r\n            tokenURIs[i] = tokenURI(tokenIds[i]);\r\n            tokenPrices[i] = id_to_marketDetails[tokenIds[i]].price;\r\n            tokenSellers[i] = id_to_marketDetails[tokenIds[i]].seller;\r\n        }\r\n        \r\n        return (tokenIds, tokenURIs, tokenPrices, tokenSellers);\r\n    }\r\n\r\n    function kill() public onlyOwner {\r\n        selfdestruct(payable(owner()));\r\n    }\r\n}\r\n",
  "sourcePath": "C:/Users/flooofy/sem_2_2021/PP1/axiun-contracts/contracts/AuxiunNFT.sol",
  "compiler": {
    "name": "solc",
    "version": "0.8.0+commit.c7dfd78e.Emscripten.clang"
  },
  "schemaVersion": "3.4.1",
  "updatedAt": "2021-08-04T03:34:05.349Z",
  "devdoc": {
    "kind": "dev",
    "methods": {
      "approve(address,uint256)": {
        "details": "See {IERC721-approve}."
      },
      "balanceOf(address)": {
        "details": "See {IERC721-balanceOf}."
      },
      "getApproved(uint256)": {
        "details": "See {IERC721-getApproved}."
      },
      "isApprovedForAll(address,address)": {
        "details": "See {IERC721-isApprovedForAll}."
      },
      "name()": {
        "details": "See {IERC721Metadata-name}."
      },
      "owner()": {
        "details": "Returns the address of the current owner."
      },
      "ownerOf(uint256)": {
        "details": "See {IERC721-ownerOf}."
      },
      "renounceOwnership()": {
        "details": "Leaves the contract without owner. It will not be possible to call `onlyOwner` functions anymore. Can only be called by the current owner. NOTE: Renouncing ownership will leave the contract without an owner, thereby removing any functionality that is only available to the owner."
      },
      "safeTransferFrom(address,address,uint256)": {
        "details": "See {IERC721-safeTransferFrom}."
      },
      "safeTransferFrom(address,address,uint256,bytes)": {
        "details": "See {IERC721-safeTransferFrom}."
      },
      "setApprovalForAll(address,bool)": {
        "details": "See {IERC721-setApprovalForAll}."
      },
      "supportsInterface(bytes4)": {
        "details": "See {IERC165-supportsInterface}."
      },
      "symbol()": {
        "details": "See {IERC721Metadata-symbol}."
      },
      "tokenURI(uint256)": {
        "details": "See {IERC721Metadata-tokenURI}."
      },
      "transferFrom(address,address,uint256)": {
        "details": "See {IERC721-transferFrom}."
      },
      "transferOwnership(address)": {
        "details": "Transfers ownership of the contract to a new account (`newOwner`). Can only be called by the current owner."
      }
    },
    "version": 1
  },
  "userdoc": {
    "kind": "user",
    "methods": {
      "multiCallNFTsOnMarket()": {
        "notice": "Returns 4 arrays of all tokens on sale which are: 1. array of tokenIds 2. array of tokenURIs 3. array of token prices 4. array of token sellers"
      }
    },
    "version": 1
  }
}