{
  "contractName": "AuxiunNFTMulticall",
  "abi": [
    {
      "inputs": [
        {
          "internalType": "address",
          "name": "_address",
          "type": "address"
        }
      ],
      "name": "setNFTContractAddress",
      "outputs": [],
      "stateMutability": "nonpayable",
      "type": "function"
    },
    {
      "inputs": [
        {
          "internalType": "address",
          "name": "_address",
          "type": "address"
        }
      ],
      "name": "multiCallNFTsOwnedByAddress",
      "outputs": [
        {
          "internalType": "uint256[]",
          "name": "",
          "type": "uint256[]"
        },
        {
          "internalType": "string[]",
          "name": "",
          "type": "string[]"
        }
      ],
      "stateMutability": "view",
      "type": "function"
    },
    {
      "inputs": [
        {
          "internalType": "address",
          "name": "seller",
          "type": "address"
        }
      ],
      "name": "multiCallNFTsOnMarket",
      "outputs": [
        {
          "internalType": "uint256[]",
          "name": "",
          "type": "uint256[]"
        },
        {
          "internalType": "string[]",
          "name": "",
          "type": "string[]"
        },
        {
          "internalType": "uint256[]",
          "name": "",
          "type": "uint256[]"
        },
        {
          "internalType": "address[]",
          "name": "",
          "type": "address[]"
        }
      ],
      "stateMutability": "view",
      "type": "function"
    },
    {
      "inputs": [],
      "name": "multiCallNFTsOnMarket",
      "outputs": [
        {
          "internalType": "uint256[]",
          "name": "",
          "type": "uint256[]"
        },
        {
          "internalType": "string[]",
          "name": "",
          "type": "string[]"
        },
        {
          "internalType": "uint256[]",
          "name": "",
          "type": "uint256[]"
        },
        {
          "internalType": "address[]",
          "name": "",
          "type": "address[]"
        }
      ],
      "stateMutability": "view",
      "type": "function"
    },
    {
      "inputs": [
        {
          "internalType": "address",
          "name": "user",
          "type": "address"
        }
      ],
      "name": "multiCallTransactionDataByUser",
      "outputs": [
        {
          "internalType": "uint256[]",
          "name": "",
          "type": "uint256[]"
        },
        {
          "internalType": "string[]",
          "name": "",
          "type": "string[]"
        },
        {
          "internalType": "address[]",
          "name": "",
          "type": "address[]"
        },
        {
          "internalType": "address[]",
          "name": "",
          "type": "address[]"
        },
        {
          "internalType": "uint256[]",
          "name": "",
          "type": "uint256[]"
        },
        {
          "internalType": "uint256[]",
          "name": "",
          "type": "uint256[]"
        },
        {
          "internalType": "bool[]",
          "name": "",
          "type": "bool[]"
        }
      ],
      "stateMutability": "view",
      "type": "function"
    }
  ],
  "bytecode": "0x608060405234801561001057600080fd5b50613e65806100206000396000f3fe608060405234801561001057600080fd5b50600436106100575760003560e01c806323949cd11461005c5780637bb73563146100785780637e20b6ea146100ab57806399eca17d146100cc578063fc510fab14610102575b600080fd5b61007660048036038101906100719190613586565b610133565b005b610092600480360381019061008d9190613586565b610176565b6040516100a29493929190613aa9565b60405180910390f35b6100b36109f8565b6040516100c39493929190613aa9565b60405180910390f35b6100e660048036038101906100e19190613586565b611208565b6040516100f99796959493929190613a09565b60405180910390f35b61011c60048036038101906101179190613586565b61126b565b60405161012a9291906139d2565b60405180910390f35b806000806101000a81548173ffffffffffffffffffffffffffffffffffffffff021916908373ffffffffffffffffffffffffffffffffffffffff16021790555050565b60608060608060008060009054906101000a900473ffffffffffffffffffffffffffffffffffffffff1673ffffffffffffffffffffffffffffffffffffffff1663c4e2152b876040518263ffffffff1660e01b81526004016101d891906139b7565b60206040518083038186803b1580156101f057600080fd5b505afa158015610204573d6000803e3d6000fd5b505050506040513d601f19601f820116820180604052508101906102289190613668565b67ffffffffffffffff811115610267577f4e487b7100000000000000000000000000000000000000000000000000000000600052604160045260246000fd5b6040519080825280602002602001820160405280156102955781602001602082028036833780820191505090505b5090506102a0611881565b905060008060009054906101000a900473ffffffffffffffffffffffffffffffffffffffff1673ffffffffffffffffffffffffffffffffffffffff1663c4e2152b886040518263ffffffff1660e01b81526004016102fe91906139b7565b60206040518083038186803b15801561031657600080fd5b505afa15801561032a573d6000803e3d6000fd5b505050506040513d601f19601f8201168201806040525081019061034e9190613668565b67ffffffffffffffff81111561038d577f4e487b7100000000000000000000000000000000000000000000000000000000600052604160045260246000fd5b6040519080825280602002602001820160405280156103c057816020015b60608152602001906001900390816103ab5790505b50905060008060009054906101000a900473ffffffffffffffffffffffffffffffffffffffff1673ffffffffffffffffffffffffffffffffffffffff1663c4e2152b896040518263ffffffff1660e01b815260040161041f91906139b7565b60206040518083038186803b15801561043757600080fd5b505afa15801561044b573d6000803e3d6000fd5b505050506040513d601f19601f8201168201806040525081019061046f9190613668565b67ffffffffffffffff8111156104ae577f4e487b7100000000000000000000000000000000000000000000000000000000600052604160045260246000fd5b6040519080825280602002602001820160405280156104dc5781602001602082028036833780820191505090505b50905060008060009054906101000a900473ffffffffffffffffffffffffffffffffffffffff1673ffffffffffffffffffffffffffffffffffffffff1663c4e2152b8a6040518263ffffffff1660e01b815260040161053b91906139b7565b60206040518083038186803b15801561055357600080fd5b505afa158015610567573d6000803e3d6000fd5b505050506040513d601f19601f8201168201806040525081019061058b9190613668565b67ffffffffffffffff8111156105ca577f4e487b7100000000000000000000000000000000000000000000000000000000600052604160045260246000fd5b6040519080825280602002602001820160405280156105f85781602001602082028036833780820191505090505b5090506000805b60008054906101000a900473ffffffffffffffffffffffffffffffffffffffff1673ffffffffffffffffffffffffffffffffffffffff16636e0668306040518163ffffffff1660e01b815260040160206040518083038186803b15801561066557600080fd5b505afa158015610679573d6000803e3d6000fd5b505050506040513d601f19601f8201168201806040525081019061069d9190613668565b8110156109df5760008060008054906101000a900473ffffffffffffffffffffffffffffffffffffffff1673ffffffffffffffffffffffffffffffffffffffff166311e6820a89858151811061071c577f4e487b7100000000000000000000000000000000000000000000000000000000600052603260045260246000fd5b60200260200101516040518263ffffffff1660e01b81526004016107409190613b2a565b60606040518083038186803b15801561075857600080fd5b505afa15801561076c573d6000803e3d6000fd5b505050506040513d601f19601f8201168201806040525081019061079091906135d8565b90915080925081935050508073ffffffffffffffffffffffffffffffffffffffff168d73ffffffffffffffffffffffffffffffffffffffff1614156109ca5760008054906101000a900473ffffffffffffffffffffffffffffffffffffffff1673ffffffffffffffffffffffffffffffffffffffff1663c87b56dd898581518110610844577f4e487b7100000000000000000000000000000000000000000000000000000000600052603260045260246000fd5b60200260200101516040518263ffffffff1660e01b81526004016108689190613b2a565b60006040518083038186803b15801561088057600080fd5b505afa158015610894573d6000803e3d6000fd5b505050506040513d6000823e3d601f19601f820116820180604052508101906108bd9190613627565b8785815181106108f6577f4e487b7100000000000000000000000000000000000000000000000000000000600052603260045260246000fd5b60200260200101819052508186858151811061093b577f4e487b7100000000000000000000000000000000000000000000000000000000600052603260045260246000fd5b60200260200101818152505080858581518110610981577f4e487b7100000000000000000000000000000000000000000000000000000000600052603260045260246000fd5b602002602001019073ffffffffffffffffffffffffffffffffffffffff16908173ffffffffffffffffffffffffffffffffffffffff168152505083806109c690613d32565b9450505b505080806109d790613d32565b9150506105ff565b5084848484985098509850985050505050509193509193565b60608060608060008060009054906101000a900473ffffffffffffffffffffffffffffffffffffffff1673ffffffffffffffffffffffffffffffffffffffff16636e0668306040518163ffffffff1660e01b815260040160206040518083038186803b158015610a6757600080fd5b505afa158015610a7b573d6000803e3d6000fd5b505050506040513d601f19601f82011682018060405250810190610a9f9190613668565b67ffffffffffffffff811115610ade577f4e487b7100000000000000000000000000000000000000000000000000000000600052604160045260246000fd5b604051908082528060200260200182016040528015610b0c5781602001602082028036833780820191505090505b509050610b17611881565b905060008060009054906101000a900473ffffffffffffffffffffffffffffffffffffffff1673ffffffffffffffffffffffffffffffffffffffff16636e0668306040518163ffffffff1660e01b815260040160206040518083038186803b158015610b8257600080fd5b505afa158015610b96573d6000803e3d6000fd5b505050506040513d601f19601f82011682018060405250810190610bba9190613668565b67ffffffffffffffff811115610bf9577f4e487b7100000000000000000000000000000000000000000000000000000000600052604160045260246000fd5b604051908082528060200260200182016040528015610c2c57816020015b6060815260200190600190039081610c175790505b50905060008060009054906101000a900473ffffffffffffffffffffffffffffffffffffffff1673ffffffffffffffffffffffffffffffffffffffff16636e0668306040518163ffffffff1660e01b815260040160206040518083038186803b158015610c9857600080fd5b505afa158015610cac573d6000803e3d6000fd5b505050506040513d601f19601f82011682018060405250810190610cd09190613668565b67ffffffffffffffff811115610d0f577f4e487b7100000000000000000000000000000000000000000000000000000000600052604160045260246000fd5b604051908082528060200260200182016040528015610d3d5781602001602082028036833780820191505090505b50905060008060009054906101000a900473ffffffffffffffffffffffffffffffffffffffff1673ffffffffffffffffffffffffffffffffffffffff16636e0668306040518163ffffffff1660e01b815260040160206040518083038186803b158015610da957600080fd5b505afa158015610dbd573d6000803e3d6000fd5b505050506040513d601f19601f82011682018060405250810190610de19190613668565b67ffffffffffffffff811115610e20577f4e487b7100000000000000000000000000000000000000000000000000000000600052604160045260246000fd5b604051908082528060200260200182016040528015610e4e5781602001602082028036833780820191505090505b50905060005b60008054906101000a900473ffffffffffffffffffffffffffffffffffffffff1673ffffffffffffffffffffffffffffffffffffffff16636e0668306040518163ffffffff1660e01b815260040160206040518083038186803b158015610eba57600080fd5b505afa158015610ece573d6000803e3d6000fd5b505050506040513d601f19601f82011682018060405250810190610ef29190613668565b8110156111f15760008060008054906101000a900473ffffffffffffffffffffffffffffffffffffffff1673ffffffffffffffffffffffffffffffffffffffff166311e6820a888581518110610f71577f4e487b7100000000000000000000000000000000000000000000000000000000600052603260045260246000fd5b60200260200101516040518263ffffffff1660e01b8152600401610f959190613b2a565b60606040518083038186803b158015610fad57600080fd5b505afa158015610fc1573d6000803e3d6000fd5b505050506040513d601f19601f82011682018060405250810190610fe591906135d8565b909150809250819350505060008054906101000a900473ffffffffffffffffffffffffffffffffffffffff1673ffffffffffffffffffffffffffffffffffffffff1663c87b56dd888581518110611065577f4e487b7100000000000000000000000000000000000000000000000000000000600052603260045260246000fd5b60200260200101516040518263ffffffff1660e01b81526004016110899190613b2a565b60006040518083038186803b1580156110a157600080fd5b505afa1580156110b5573d6000803e3d6000fd5b505050506040513d6000823e3d601f19601f820116820180604052508101906110de9190613627565b868481518110611117577f4e487b7100000000000000000000000000000000000000000000000000000000600052603260045260246000fd5b60200260200101819052508185848151811061115c577f4e487b7100000000000000000000000000000000000000000000000000000000600052603260045260246000fd5b602002602001018181525050808484815181106111a2577f4e487b7100000000000000000000000000000000000000000000000000000000600052603260045260246000fd5b602002602001019073ffffffffffffffffffffffffffffffffffffffff16908173ffffffffffffffffffffffffffffffffffffffff1681525050505080806111e990613d32565b915050610e54565b508383838397509750975097505050505090919293565b606080606080606080606061121c88611b68565b61122589611ecd565b61122e8a6122e3565b6112378b612676565b6112408c612a09565b6112498d612d71565b6112528e6130da565b9650965096509650965096509650919395979092949650565b60608060008060009054906101000a900473ffffffffffffffffffffffffffffffffffffffff1673ffffffffffffffffffffffffffffffffffffffff166398bdf6f56040518163ffffffff1660e01b815260040160206040518083038186803b1580156112d757600080fd5b505afa1580156112eb573d6000803e3d6000fd5b505050506040513d601f19601f8201168201806040525081019061130f9190613668565b1161134f576040517f08c379a000000000000000000000000000000000000000000000000000000000815260040161134690613b0a565b60405180910390fd5b60008060009054906101000a900473ffffffffffffffffffffffffffffffffffffffff1673ffffffffffffffffffffffffffffffffffffffff166370a08231856040518263ffffffff1660e01b81526004016113ab91906139b7565b60206040518083038186803b1580156113c357600080fd5b505afa1580156113d7573d6000803e3d6000fd5b505050506040513d601f19601f820116820180604052508101906113fb9190613668565b67ffffffffffffffff81111561143a577f4e487b7100000000000000000000000000000000000000000000000000000000600052604160045260246000fd5b6040519080825280602002602001820160405280156114685781602001602082028036833780820191505090505b50905060008060009054906101000a900473ffffffffffffffffffffffffffffffffffffffff1673ffffffffffffffffffffffffffffffffffffffff166370a08231866040518263ffffffff1660e01b81526004016114c791906139b7565b60206040518083038186803b1580156114df57600080fd5b505afa1580156114f3573d6000803e3d6000fd5b505050506040513d601f19601f820116820180604052508101906115179190613668565b67ffffffffffffffff811115611556577f4e487b7100000000000000000000000000000000000000000000000000000000600052604160045260246000fd5b60405190808252806020026020018201604052801561158957816020015b60608152602001906001900390816115745790505b50905060008060009054906101000a900473ffffffffffffffffffffffffffffffffffffffff1673ffffffffffffffffffffffffffffffffffffffff166398bdf6f56040518163ffffffff1660e01b815260040160206040518083038186803b1580156115f557600080fd5b505afa158015611609573d6000803e3d6000fd5b505050506040513d601f19601f8201168201806040525081019061162d9190613668565b90506000805b828110156118715760008054906101000a900473ffffffffffffffffffffffffffffffffffffffff1673ffffffffffffffffffffffffffffffffffffffff16636352211e826040518263ffffffff1660e01b81526004016116949190613b2a565b60206040518083038186803b1580156116ac57600080fd5b505afa1580156116c0573d6000803e3d6000fd5b505050506040513d601f19601f820116820180604052508101906116e491906135af565b73ffffffffffffffffffffffffffffffffffffffff168873ffffffffffffffffffffffffffffffffffffffff16141561185e5780858381518110611751577f4e487b7100000000000000000000000000000000000000000000000000000000600052603260045260246000fd5b60200260200101818152505060008054906101000a900473ffffffffffffffffffffffffffffffffffffffff1673ffffffffffffffffffffffffffffffffffffffff1663c87b56dd826040518263ffffffff1660e01b81526004016117b69190613b2a565b60006040518083038186803b1580156117ce57600080fd5b505afa1580156117e2573d6000803e3d6000fd5b505050506040513d6000823e3d601f19601f8201168201806040525081019061180b9190613627565b848381518110611844577f4e487b7100000000000000000000000000000000000000000000000000000000600052603260045260246000fd5b6020026020010181905250818061185a90613d32565b9250505b808061186990613d32565b915050611633565b5083839550955050505050915091565b606060008060009054906101000a900473ffffffffffffffffffffffffffffffffffffffff1673ffffffffffffffffffffffffffffffffffffffff16636e0668306040518163ffffffff1660e01b815260040160206040518083038186803b1580156118ec57600080fd5b505afa158015611900573d6000803e3d6000fd5b505050506040513d601f19601f820116820180604052508101906119249190613668565b67ffffffffffffffff811115611963577f4e487b7100000000000000000000000000000000000000000000000000000000600052604160045260246000fd5b6040519080825280602002602001820160405280156119915781602001602082028036833780820191505090505b5090506000805b60008054906101000a900473ffffffffffffffffffffffffffffffffffffffff1673ffffffffffffffffffffffffffffffffffffffff166398bdf6f56040518163ffffffff1660e01b815260040160206040518083038186803b1580156119fe57600080fd5b505afa158015611a12573d6000803e3d6000fd5b505050506040513d601f19601f82011682018060405250810190611a369190613668565b811015611b5f5760008060009054906101000a900473ffffffffffffffffffffffffffffffffffffffff1673ffffffffffffffffffffffffffffffffffffffff166311e6820a836040518263ffffffff1660e01b8152600401611a999190613b2a565b60606040518083038186803b158015611ab157600080fd5b505afa158015611ac5573d6000803e3d6000fd5b505050506040513d601f19601f82011682018060405250810190611ae991906135d8565b905050809150508015611b4b5781848481518110611b30577f4e487b7100000000000000000000000000000000000000000000000000000000600052603260045260246000fd5b6020026020010181815250508280611b4790613d32565b9350505b508080611b5790613d32565b915050611998565b50819250505090565b606060008060009054906101000a900473ffffffffffffffffffffffffffffffffffffffff1673ffffffffffffffffffffffffffffffffffffffff1663b7cde641846040518263ffffffff1660e01b8152600401611bc691906139b7565b60206040518083038186803b158015611bde57600080fd5b505afa158015611bf2573d6000803e3d6000fd5b505050506040513d601f19601f82011682018060405250810190611c169190613668565b67ffffffffffffffff811115611c55577f4e487b7100000000000000000000000000000000000000000000000000000000600052604160045260246000fd5b604051908082528060200260200182016040528015611c835781602001602082028036833780820191505090505b5090506000805b60008054906101000a900473ffffffffffffffffffffffffffffffffffffffff1673ffffffffffffffffffffffffffffffffffffffff16639f71c3c96040518163ffffffff1660e01b815260040160206040518083038186803b158015611cf057600080fd5b505afa158015611d04573d6000803e3d6000fd5b505050506040513d601f19601f82011682018060405250810190611d289190613668565b811015611ec25760008060008060009054906101000a900473ffffffffffffffffffffffffffffffffffffffff1673ffffffffffffffffffffffffffffffffffffffff1663243e7a87856040518263ffffffff1660e01b8152600401611d8e9190613b2a565b60a06040518083038186803b158015611da657600080fd5b505afa158015611dba573d6000803e3d6000fd5b505050506040513d601f19601f82011682018060405250810190611dde9190613691565b9050508093508194508295505050508173ffffffffffffffffffffffffffffffffffffffff168873ffffffffffffffffffffffffffffffffffffffff161480611e5257508073ffffffffffffffffffffffffffffffffffffffff168873ffffffffffffffffffffffffffffffffffffffff16145b15611eac5782868681518110611e91577f4e487b7100000000000000000000000000000000000000000000000000000000600052603260045260246000fd5b6020026020010181815250508480611ea890613d32565b9550505b5050508080611eba90613d32565b915050611c8a565b508192505050919050565b606060008060009054906101000a900473ffffffffffffffffffffffffffffffffffffffff1673ffffffffffffffffffffffffffffffffffffffff1663b7cde641846040518263ffffffff1660e01b8152600401611f2b91906139b7565b60206040518083038186803b158015611f4357600080fd5b505afa158015611f57573d6000803e3d6000fd5b505050506040513d601f19601f82011682018060405250810190611f7b9190613668565b67ffffffffffffffff811115611fba577f4e487b7100000000000000000000000000000000000000000000000000000000600052604160045260246000fd5b604051908082528060200260200182016040528015611fed57816020015b6060815260200190600190039081611fd85790505b5090506000805b60008054906101000a900473ffffffffffffffffffffffffffffffffffffffff1673ffffffffffffffffffffffffffffffffffffffff16639f71c3c96040518163ffffffff1660e01b815260040160206040518083038186803b15801561205a57600080fd5b505afa15801561206e573d6000803e3d6000fd5b505050506040513d601f19601f820116820180604052508101906120929190613668565b8110156122d85760008060008060009054906101000a900473ffffffffffffffffffffffffffffffffffffffff1673ffffffffffffffffffffffffffffffffffffffff1663243e7a87856040518263ffffffff1660e01b81526004016120f89190613b2a565b60a06040518083038186803b15801561211057600080fd5b505afa158015612124573d6000803e3d6000fd5b505050506040513d601f19601f820116820180604052508101906121489190613691565b9050508093508194508295505050508173ffffffffffffffffffffffffffffffffffffffff168873ffffffffffffffffffffffffffffffffffffffff1614806121bc57508073ffffffffffffffffffffffffffffffffffffffff168873ffffffffffffffffffffffffffffffffffffffff16145b156122c25760008054906101000a900473ffffffffffffffffffffffffffffffffffffffff1673ffffffffffffffffffffffffffffffffffffffff1663c87b56dd846040518263ffffffff1660e01b815260040161221a9190613b2a565b60006040518083038186803b15801561223257600080fd5b505afa158015612246573d6000803e3d6000fd5b505050506040513d6000823e3d601f19601f8201168201806040525081019061226f9190613627565b8686815181106122a8577f4e487b7100000000000000000000000000000000000000000000000000000000600052603260045260246000fd5b602002602001018190525084806122be90613d32565b9550505b50505080806122d090613d32565b915050611ff4565b508192505050919050565b606060008060009054906101000a900473ffffffffffffffffffffffffffffffffffffffff1673ffffffffffffffffffffffffffffffffffffffff1663b7cde641846040518263ffffffff1660e01b815260040161234191906139b7565b60206040518083038186803b15801561235957600080fd5b505afa15801561236d573d6000803e3d6000fd5b505050506040513d601f19601f820116820180604052508101906123919190613668565b67ffffffffffffffff8111156123d0577f4e487b7100000000000000000000000000000000000000000000000000000000600052604160045260246000fd5b6040519080825280602002602001820160405280156123fe5781602001602082028036833780820191505090505b5090506000805b60008054906101000a900473ffffffffffffffffffffffffffffffffffffffff1673ffffffffffffffffffffffffffffffffffffffff16639f71c3c96040518163ffffffff1660e01b815260040160206040518083038186803b15801561246b57600080fd5b505afa15801561247f573d6000803e3d6000fd5b505050506040513d601f19601f820116820180604052508101906124a39190613668565b81101561266b5760008060008060009054906101000a900473ffffffffffffffffffffffffffffffffffffffff1673ffffffffffffffffffffffffffffffffffffffff1663243e7a87856040518263ffffffff1660e01b81526004016125099190613b2a565b60a06040518083038186803b15801561252157600080fd5b505afa158015612535573d6000803e3d6000fd5b505050506040513d601f19601f820116820180604052508101906125599190613691565b9050508093508194508295505050508173ffffffffffffffffffffffffffffffffffffffff168873ffffffffffffffffffffffffffffffffffffffff1614806125cd57508073ffffffffffffffffffffffffffffffffffffffff168873ffffffffffffffffffffffffffffffffffffffff16145b15612655578186868151811061260c577f4e487b7100000000000000000000000000000000000000000000000000000000600052603260045260246000fd5b602002602001019073ffffffffffffffffffffffffffffffffffffffff16908173ffffffffffffffffffffffffffffffffffffffff1681525050848061265190613d32565b9550505b505050808061266390613d32565b915050612405565b508192505050919050565b606060008060009054906101000a900473ffffffffffffffffffffffffffffffffffffffff1673ffffffffffffffffffffffffffffffffffffffff1663b7cde641846040518263ffffffff1660e01b81526004016126d491906139b7565b60206040518083038186803b1580156126ec57600080fd5b505afa158015612700573d6000803e3d6000fd5b505050506040513d601f19601f820116820180604052508101906127249190613668565b67ffffffffffffffff811115612763577f4e487b7100000000000000000000000000000000000000000000000000000000600052604160045260246000fd5b6040519080825280602002602001820160405280156127915781602001602082028036833780820191505090505b5090506000805b60008054906101000a900473ffffffffffffffffffffffffffffffffffffffff1673ffffffffffffffffffffffffffffffffffffffff16639f71c3c96040518163ffffffff1660e01b815260040160206040518083038186803b1580156127fe57600080fd5b505afa158015612812573d6000803e3d6000fd5b505050506040513d601f19601f820116820180604052508101906128369190613668565b8110156129fe5760008060008060009054906101000a900473ffffffffffffffffffffffffffffffffffffffff1673ffffffffffffffffffffffffffffffffffffffff1663243e7a87856040518263ffffffff1660e01b815260040161289c9190613b2a565b60a06040518083038186803b1580156128b457600080fd5b505afa1580156128c8573d6000803e3d6000fd5b505050506040513d601f19601f820116820180604052508101906128ec9190613691565b9050508093508194508295505050508173ffffffffffffffffffffffffffffffffffffffff168873ffffffffffffffffffffffffffffffffffffffff16148061296057508073ffffffffffffffffffffffffffffffffffffffff168873ffffffffffffffffffffffffffffffffffffffff16145b156129e8578086868151811061299f577f4e487b7100000000000000000000000000000000000000000000000000000000600052603260045260246000fd5b602002602001019073ffffffffffffffffffffffffffffffffffffffff16908173ffffffffffffffffffffffffffffffffffffffff168152505084806129e490613d32565b9550505b50505080806129f690613d32565b915050612798565b508192505050919050565b606060008060009054906101000a900473ffffffffffffffffffffffffffffffffffffffff1673ffffffffffffffffffffffffffffffffffffffff1663b7cde641846040518263ffffffff1660e01b8152600401612a6791906139b7565b60206040518083038186803b158015612a7f57600080fd5b505afa158015612a93573d6000803e3d6000fd5b505050506040513d601f19601f82011682018060405250810190612ab79190613668565b67ffffffffffffffff811115612af6577f4e487b7100000000000000000000000000000000000000000000000000000000600052604160045260246000fd5b604051908082528060200260200182016040528015612b245781602001602082028036833780820191505090505b5090506000805b60008054906101000a900473ffffffffffffffffffffffffffffffffffffffff1673ffffffffffffffffffffffffffffffffffffffff16639f71c3c96040518163ffffffff1660e01b815260040160206040518083038186803b158015612b9157600080fd5b505afa158015612ba5573d6000803e3d6000fd5b505050506040513d601f19601f82011682018060405250810190612bc99190613668565b811015612d665760008060008060009054906101000a900473ffffffffffffffffffffffffffffffffffffffff1673ffffffffffffffffffffffffffffffffffffffff1663243e7a87856040518263ffffffff1660e01b8152600401612c2f9190613b2a565b60a06040518083038186803b158015612c4757600080fd5b505afa158015612c5b573d6000803e3d6000fd5b505050506040513d601f19601f82011682018060405250810190612c7f9190613691565b9091929350508093508194508295505050508273ffffffffffffffffffffffffffffffffffffffff168873ffffffffffffffffffffffffffffffffffffffff161480612cf657508173ffffffffffffffffffffffffffffffffffffffff168873ffffffffffffffffffffffffffffffffffffffff16145b15612d505780868681518110612d35577f4e487b7100000000000000000000000000000000000000000000000000000000600052603260045260246000fd5b6020026020010181815250508480612d4c90613d32565b9550505b5050508080612d5e90613d32565b915050612b2b565b508192505050919050565b606060008060009054906101000a900473ffffffffffffffffffffffffffffffffffffffff1673ffffffffffffffffffffffffffffffffffffffff1663b7cde641846040518263ffffffff1660e01b8152600401612dcf91906139b7565b60206040518083038186803b158015612de757600080fd5b505afa158015612dfb573d6000803e3d6000fd5b505050506040513d601f19601f82011682018060405250810190612e1f9190613668565b67ffffffffffffffff811115612e5e577f4e487b7100000000000000000000000000000000000000000000000000000000600052604160045260246000fd5b604051908082528060200260200182016040528015612e8c5781602001602082028036833780820191505090505b5090506000805b60008054906101000a900473ffffffffffffffffffffffffffffffffffffffff1673ffffffffffffffffffffffffffffffffffffffff16639f71c3c96040518163ffffffff1660e01b815260040160206040518083038186803b158015612ef957600080fd5b505afa158015612f0d573d6000803e3d6000fd5b505050506040513d601f19601f82011682018060405250810190612f319190613668565b8110156130cf5760008060008060009054906101000a900473ffffffffffffffffffffffffffffffffffffffff1673ffffffffffffffffffffffffffffffffffffffff1663243e7a87856040518263ffffffff1660e01b8152600401612f979190613b2a565b60a06040518083038186803b158015612faf57600080fd5b505afa158015612fc3573d6000803e3d6000fd5b505050506040513d601f19601f82011682018060405250810190612fe79190613691565b909192935090508093508194508295505050508273ffffffffffffffffffffffffffffffffffffffff168873ffffffffffffffffffffffffffffffffffffffff16148061305f57508173ffffffffffffffffffffffffffffffffffffffff168873ffffffffffffffffffffffffffffffffffffffff16145b156130b9578086868151811061309e577f4e487b7100000000000000000000000000000000000000000000000000000000600052603260045260246000fd5b60200260200101818152505084806130b590613d32565b9550505b50505080806130c790613d32565b915050612e93565b508192505050919050565b606060008060009054906101000a900473ffffffffffffffffffffffffffffffffffffffff1673ffffffffffffffffffffffffffffffffffffffff1663b7cde641846040518263ffffffff1660e01b815260040161313891906139b7565b60206040518083038186803b15801561315057600080fd5b505afa158015613164573d6000803e3d6000fd5b505050506040513d601f19601f820116820180604052508101906131889190613668565b67ffffffffffffffff8111156131c7577f4e487b7100000000000000000000000000000000000000000000000000000000600052604160045260246000fd5b6040519080825280602002602001820160405280156131f55781602001602082028036833780820191505090505b5090506000805b60008054906101000a900473ffffffffffffffffffffffffffffffffffffffff1673ffffffffffffffffffffffffffffffffffffffff16639f71c3c96040518163ffffffff1660e01b815260040160206040518083038186803b15801561326257600080fd5b505afa158015613276573d6000803e3d6000fd5b505050506040513d601f19601f8201168201806040525081019061329a9190613668565b8110156134bf5760008060008054906101000a900473ffffffffffffffffffffffffffffffffffffffff1673ffffffffffffffffffffffffffffffffffffffff1663243e7a87846040518263ffffffff1660e01b81526004016132fd9190613b2a565b60a06040518083038186803b15801561331557600080fd5b505afa158015613329573d6000803e3d6000fd5b505050506040513d601f19601f8201168201806040525081019061334d9190613691565b909192935090505080925081935050508173ffffffffffffffffffffffffffffffffffffffff168773ffffffffffffffffffffffffffffffffffffffff1614806133c257508073ffffffffffffffffffffffffffffffffffffffff168773ffffffffffffffffffffffffffffffffffffffff16145b156134aa578173ffffffffffffffffffffffffffffffffffffffff168773ffffffffffffffffffffffffffffffffffffffff16141561344d576001858581518110613436577f4e487b7100000000000000000000000000000000000000000000000000000000600052603260045260246000fd5b60200260200101901515908115158152505061349b565b6000858581518110613488577f4e487b7100000000000000000000000000000000000000000000000000000000600052603260045260246000fd5b6020026020010190151590811515815250505b83806134a690613d32565b9450505b505080806134b790613d32565b9150506131fc565b508192505050919050565b60006134dd6134d884613b76565b613b45565b9050828152602081018484840111156134f557600080fd5b613500848285613cff565b509392505050565b60008135905061351781613dea565b92915050565b60008151905061352c81613dea565b92915050565b60008151905061354181613e01565b92915050565b600082601f83011261355857600080fd5b81516135688482602086016134ca565b91505092915050565b60008151905061358081613e18565b92915050565b60006020828403121561359857600080fd5b60006135a684828501613508565b91505092915050565b6000602082840312156135c157600080fd5b60006135cf8482850161351d565b91505092915050565b6000806000606084860312156135ed57600080fd5b60006135fb86828701613532565b935050602061360c86828701613571565b925050604061361d8682870161351d565b9150509250925092565b60006020828403121561363957600080fd5b600082015167ffffffffffffffff81111561365357600080fd5b61365f84828501613547565b91505092915050565b60006020828403121561367a57600080fd5b600061368884828501613571565b91505092915050565b600080600080600060a086880312156136a957600080fd5b60006136b788828901613571565b95505060206136c88882890161351d565b94505060406136d98882890161351d565b93505060606136ea88828901613571565b92505060806136fb88828901613571565b9150509295509295909350565b60006137148383613764565b60208301905092915050565b600061372c8383613911565b60208301905092915050565b60006137448383613920565b905092915050565b60006137588383613999565b60208301905092915050565b61376d81613cb7565b82525050565b61377c81613cb7565b82525050565b600061378d82613be6565b6137978185613c51565b93506137a283613ba6565b8060005b838110156137d35781516137ba8882613708565b97506137c583613c1d565b9250506001810190506137a6565b5085935050505092915050565b60006137eb82613bf1565b6137f58185613c62565b935061380083613bb6565b8060005b838110156138315781516138188882613720565b975061382383613c2a565b925050600181019050613804565b5085935050505092915050565b600061384982613bfc565b6138538185613c73565b93508360208202850161386585613bc6565b8060005b858110156138a157848403895281516138828582613738565b945061388d83613c37565b925060208a01995050600181019050613869565b50829750879550505050505092915050565b60006138be82613c07565b6138c88185613c84565b93506138d383613bd6565b8060005b838110156139045781516138eb888261374c565b97506138f683613c44565b9250506001810190506138d7565b5085935050505092915050565b61391a81613cc9565b82525050565b600061392b82613c12565b6139358185613c95565b9350613945818560208601613cff565b61394e81613dd9565b840191505092915050565b6000613966600d83613ca6565b91507f4e6f204e465473206578697374000000000000000000000000000000000000006000830152602082019050919050565b6139a281613cf5565b82525050565b6139b181613cf5565b82525050565b60006020820190506139cc6000830184613773565b92915050565b600060408201905081810360008301526139ec81856138b3565b90508181036020830152613a00818461383e565b90509392505050565b600060e0820190508181036000830152613a23818a6138b3565b90508181036020830152613a37818961383e565b90508181036040830152613a4b8188613782565b90508181036060830152613a5f8187613782565b90508181036080830152613a7381866138b3565b905081810360a0830152613a8781856138b3565b905081810360c0830152613a9b81846137e0565b905098975050505050505050565b60006080820190508181036000830152613ac381876138b3565b90508181036020830152613ad7818661383e565b90508181036040830152613aeb81856138b3565b90508181036060830152613aff8184613782565b905095945050505050565b60006020820190508181036000830152613b2381613959565b9050919050565b6000602082019050613b3f60008301846139a8565b92915050565b6000604051905081810181811067ffffffffffffffff82111715613b6c57613b6b613daa565b5b8060405250919050565b600067ffffffffffffffff821115613b9157613b90613daa565b5b601f19601f8301169050602081019050919050565b6000819050602082019050919050565b6000819050602082019050919050565b6000819050602082019050919050565b6000819050602082019050919050565b600081519050919050565b600081519050919050565b600081519050919050565b600081519050919050565b600081519050919050565b6000602082019050919050565b6000602082019050919050565b6000602082019050919050565b6000602082019050919050565b600082825260208201905092915050565b600082825260208201905092915050565b600082825260208201905092915050565b600082825260208201905092915050565b600082825260208201905092915050565b600082825260208201905092915050565b6000613cc282613cd5565b9050919050565b60008115159050919050565b600073ffffffffffffffffffffffffffffffffffffffff82169050919050565b6000819050919050565b60005b83811015613d1d578082015181840152602081019050613d02565b83811115613d2c576000848401525b50505050565b6000613d3d82613cf5565b91507fffffffffffffffffffffffffffffffffffffffffffffffffffffffffffffffff821415613d7057613d6f613d7b565b5b600182019050919050565b7f4e487b7100000000000000000000000000000000000000000000000000000000600052601160045260246000fd5b7f4e487b7100000000000000000000000000000000000000000000000000000000600052604160045260246000fd5b6000601f19601f8301169050919050565b613df381613cb7565b8114613dfe57600080fd5b50565b613e0a81613cc9565b8114613e1557600080fd5b50565b613e2181613cf5565b8114613e2c57600080fd5b5056fea2646970667358221220037cae4ef72d05417be76e318f0c379aaaf1ca8e22c23cec7c759a020469d72f64736f6c63430008000033",
  "immutableReferences": {},
  "source": "// SPDX-License-Identifier: MIT\r\n\r\npragma solidity ^0.8.0;\r\n\r\nimport \"@openzeppelin/contracts/access/Ownable.sol\";\r\nimport \"@openzeppelin/contracts/token/ERC721/ERC721.sol\";\r\nimport \"@openzeppelin/contracts/token/ERC721/IERC721Receiver.sol\";\r\n\r\ncontract AuxiunNFT is Ownable, ERC721, IERC721Receiver {\r\n\r\n    struct Metadata {\r\n        string game_id;\r\n        string item_id;\r\n    }\r\n\r\n    struct MarketDetails {\r\n        bool forSale;\r\n        uint256 price;\r\n        address seller;\r\n    }\r\n\r\n    struct TransactionHistory {\r\n        uint256 tokenId;\r\n        address buyer;\r\n        address seller;\r\n        uint256 price;\r\n        uint256 timestamp;\r\n    }\r\n\r\n    // mapping of tokenId to market details\r\n    mapping(uint256 => MarketDetails) public id_to_marketDetails;\r\n\r\n    // mapping of tokenId to metadata\r\n    mapping(uint256 => Metadata) public id_to_metadata;\r\n\r\n    // array which stores all transaction data\r\n    TransactionHistory[] public transactionHistory;\r\n\r\n    // transactionHistory counter for addresses to determine the multicall memory array size\r\n    mapping(address => uint256) public transactionHistoryCount;\r\n\r\n    // list of admin addresses authorized to mint tokens\r\n    mapping(address => bool) public admins;\r\n\r\n    // Base URI, aka API link to fetch further metadata of the token\r\n    string private baseURI;\r\n\r\n    // Used as tokenId for a newly minted token and increases by 1\r\n    uint256 public tokenIdCounter = 0;\r\n\r\n    // Number of NFTs on market (Maybe for future use)\r\n    uint256 public NFTsOnMarket = 0;\r\n\r\n    // Number of NFTs on market by address\r\n    mapping(address => uint256) public NFTsOnMarketByAddress;\r\n \r\n    constructor() ERC721(\"AuxiunNFT\", \"AUXN\") {\r\n        // TODO: Setup database api server and set the link here, remember to add the \"/\" at the end of the uri\r\n        baseURI = \"http://54.153.182.13:3998/api/nft/\";\r\n    }\r\n\r\n    function _baseURI() internal view virtual override returns (string memory) {\r\n        return baseURI;\r\n    }\r\n\r\n    function setBaseURI(string memory inputbaseURI) public onlyOwner {\r\n        baseURI = inputbaseURI;\r\n    }\r\n\r\n    // function standard called by NFT marketplaces such as OpenSea\r\n    function tokenURI(uint256 tokenId)\r\n        public\r\n        view\r\n        virtual\r\n        override\r\n        returns (string memory)\r\n    {\r\n        require(_exists(tokenId), \"ERC721Metadata: URI query for nonexistent token\");\r\n        return strConcat(_baseURI(), id_to_metadata[tokenId].game_id, \"/\", id_to_metadata[tokenId].item_id, \"\");\r\n    } \r\n\r\n    function mint(address to, string memory game_id, string memory item_id) external {\r\n        require(admins[msg.sender], \"Not authorized to call this function.\");\r\n        uint256 tokenId = tokenIdCounter;\r\n        tokenIdCounter++;\r\n        id_to_metadata[tokenId] = Metadata(game_id, item_id);\r\n        _safeMint(to, tokenId);\r\n    }\r\n\r\n    // get transactionHistory length for multicall function\r\n    function getTransactionHistoryLength() public view returns (uint256) {\r\n        return transactionHistory.length;\r\n    }\r\n\r\n    // functions to handle admins array\r\n    function addAdminAddress(address _address) external onlyOwner() {\r\n        admins[_address] = true;\r\n    }\r\n\r\n    function removeAdminAddress(address _address) external onlyOwner() {\r\n        admins[_address] = false;\r\n    }\r\n\r\n    function isAdminAddress(address _address) external view returns (bool) {\r\n        return admins[_address];\r\n    }\r\n\r\n    // String concatenation function\r\n    // original source: https://github.com/provable-things/ethereum-api/blob/master/oraclizeAPI_0.5.sol\r\n    // stack overflow topic: https://ethereum.stackexchange.com/questions/729/how-to-concatenate-strings-in-solidity\r\n    // Notes: reduce the parameters if necessary\r\n    function strConcat(string memory _a, string memory _b, string memory _c, string memory _d, string memory _e) internal pure returns (string memory){\r\n        bytes memory _ba = bytes(_a);\r\n        bytes memory _bb = bytes(_b);\r\n        bytes memory _bc = bytes(_c);\r\n        bytes memory _bd = bytes(_d);\r\n        bytes memory _be = bytes(_e);\r\n        string memory abcde = new string(_ba.length + _bb.length + _bc.length + _bd.length + _be.length);\r\n        bytes memory babcde = bytes(abcde);\r\n        uint k = 0;\r\n        for (uint i = 0; i < _ba.length; i++) babcde[k++] = _ba[i];\r\n        for (uint i = 0; i < _bb.length; i++) babcde[k++] = _bb[i];\r\n        for (uint i = 0; i < _bc.length; i++) babcde[k++] = _bc[i];\r\n        for (uint i = 0; i < _bd.length; i++) babcde[k++] = _bd[i];\r\n        for (uint i = 0; i < _be.length; i++) babcde[k++] = _be[i];\r\n        return string(babcde);\r\n    }\r\n\r\n    // Modifers\r\n    modifier tokenExists(uint256 tokenId) {\r\n        require(_exists(tokenId), \"Token ID does not exist.\");\r\n        _;\r\n    }\r\n\r\n    modifier belongsToSender(uint256 tokenId){\r\n        require(ownerOf(tokenId) == msg.sender, \"Token does not belong to sender.\");\r\n        _;\r\n    }\r\n\r\n    // Helper Functions for NFTs on the market.\r\n    function _removeNFTfromMarket(uint tokenId, address _address) private tokenExists(tokenId) {\r\n        id_to_marketDetails[tokenId] = MarketDetails(false, 0, address(0));\r\n        // decrease the number of NFTs on market of the user\r\n        NFTsOnMarketByAddress[_address]--;\r\n        NFTsOnMarket--;\r\n    }\r\n  \r\n\r\n    // Functions for market place interactions.\r\n    function listNFTOnMarket(uint256 tokenId, uint256 price) external payable tokenExists(tokenId) belongsToSender(tokenId){\r\n        id_to_marketDetails[tokenId] = MarketDetails(true, price, msg.sender);\r\n        // increase the number of NFTs on market of the user\r\n        NFTsOnMarketByAddress[msg.sender]++;\r\n        NFTsOnMarket++;\r\n\r\n        // transfer ownership of tokenId to this contract\r\n        _safeTransfer(msg.sender, address(this), tokenId, \"\");\r\n    }\r\n\r\n    function removeNFTFromMarket(uint256 tokenId) external tokenExists(tokenId) {\r\n        require(id_to_marketDetails[tokenId].seller == msg.sender, \"Not the original owner of this NFT.\");\r\n        _removeNFTfromMarket(tokenId, msg.sender);\r\n\r\n        // transfer token back to owner\r\n        _safeTransfer(address(this), msg.sender, tokenId, \"\");\r\n    }\r\n\r\n\r\n   // Source: https://ethereum.stackexchange.com/questions/19341/address-send-vs-address-transfer-best-practice-usage/74007#74007\r\n    function purchaseNFT(uint256 tokenId) public payable tokenExists(tokenId) {\r\n        require(id_to_marketDetails[tokenId].seller != msg.sender, \"Can not purchase your own NFTs.\");\r\n        require(id_to_marketDetails[tokenId].forSale, \"NFT not for sale\");\r\n        require(id_to_marketDetails[tokenId].price <= msg.value, \"Insufficient funds for purchase.\");\r\n\r\n        // Get seller Id\r\n        address seller = id_to_marketDetails[tokenId].seller;\r\n\r\n        // get price\r\n        uint256 price = id_to_marketDetails[tokenId].price;\r\n\r\n        // Remove NFT from market - do this before transferring ETH to prevent reentrancy\r\n        _removeNFTfromMarket(tokenId, id_to_marketDetails[tokenId].seller);\r\n\r\n        // Transfer fund from NFT buyer to NFT Seller\r\n        (bool success, ) =  seller.call{value: msg.value}(\"\");\r\n        require(success, \"Failed to send ETH to Seller\");\r\n\r\n        // Transfer token to buyer\r\n        _safeTransfer(address(this), msg.sender, tokenId, \"\");\r\n\r\n        // push transaction data into transactionHistory\r\n        transactionHistory.push(TransactionHistory(tokenId, msg.sender, seller, price, block.timestamp));\r\n\r\n        // increase transactionHistoryCount for both buyer and seller\r\n        transactionHistoryCount[msg.sender]++;\r\n        transactionHistoryCount[seller]++;\r\n    }\r\n\r\n    // fetch by order: tokenURI, token price, token seller's address\r\n    function fetchNFTDataById(uint256 tokenId) external view returns(string memory, uint256, address) {\r\n        return (tokenURI(tokenId), id_to_marketDetails[tokenId].price, id_to_marketDetails[tokenId].seller);\r\n    }\r\n\r\n    function kill() public onlyOwner {\r\n        selfdestruct(payable(owner()));\r\n    }\r\n\r\n    receive() external payable {\r\n        // this function enables the contract to receive funds\r\n        // Nothing needed here\r\n    }\r\n\r\n    /** Needed for calling safeTransferFrom */\r\n    function onERC721Received(address, address, uint256, bytes memory) public virtual override returns (bytes4) {\r\n        return this.onERC721Received.selector;\r\n    }\r\n}\r\n\r\ncontract AuxiunNFTMulticall {\r\n    AuxiunNFT auxiunNFTContract;\r\n\r\n    function setNFTContractAddress(address _address) public {\r\n        auxiunNFTContract = AuxiunNFT(payable(_address));\r\n    }\r\n\r\n    // returns an array of token ids which are listed as forSale\r\n    function _fetchTokenIdsOnMarket() internal view returns(uint256[] memory) {\r\n        // initialize result's array length\r\n        uint256[] memory result = new uint256[](auxiunNFTContract.NFTsOnMarket());\r\n        // for loop to fetch all tokenIds where id_to_marketDetails[i].forSale == true\r\n        uint256 counter = 0;\r\n        for (uint256 i = 0; i < auxiunNFTContract.tokenIdCounter(); i++) {\r\n            // only tokenIds which are for sale will be pushed into the result array\r\n            bool forSale;\r\n            (forSale,,) = auxiunNFTContract.id_to_marketDetails(i);\r\n            if (forSale) {\r\n                result[counter] = i;\r\n                counter++;\r\n            }\r\n        }\r\n        return result;\r\n    }\r\n\r\n    /**\r\n    * Multicall function to fetch all NFTs owned by an address\r\n    * Returns 2 arrays which are:\r\n    * 1. array of tokenIds owned by the address\r\n    * 2. array of tokenURIs of the respective tokenIds\r\n    */\r\n    function multiCallNFTsOwnedByAddress(address _address) external view returns(uint256[] memory, string[] memory) {\r\n        require(auxiunNFTContract.tokenIdCounter() > 0, \"No NFTs exist\");\r\n\r\n        // initialize array lengths\r\n        uint256[] memory tokenIds = new uint256[](auxiunNFTContract.balanceOf(_address));\r\n        string[] memory tokenURIs = new string[](auxiunNFTContract.balanceOf(_address));\r\n\r\n        // since tokenIdCounter increments after each new mint we don't need to + 1\r\n        uint256 totalNumberOfNFTs = auxiunNFTContract.tokenIdCounter();\r\n\r\n        uint256 counter = 0;\r\n\r\n        // for loop to fetch all data of tokenIds and push into the 3 arrays\r\n        for (uint256 i = 0; i < totalNumberOfNFTs; i++) {\r\n            if (_address == auxiunNFTContract.ownerOf(i)) {\r\n                tokenIds[counter] = i;\r\n                tokenURIs[counter] = auxiunNFTContract.tokenURI(i);\r\n                counter++;\r\n            }\r\n        }\r\n        \r\n        return (tokenIds, tokenURIs);\r\n    }\r\n\r\n    /**\r\n    * Multicall function to fetch all NFTs listed for sale on the market\r\n    * Returns 4 arrays which are:\r\n    * 1. array of tokenIds\r\n    * 2. array of tokenURIs\r\n    * 3. array of token prices\r\n    * 4. array of token sellers\r\n    */\r\n    function multiCallNFTsOnMarket() external view returns(uint256[] memory, string[] memory, uint256[] memory, address[] memory) {\r\n        // initialize tokenIds' array length\r\n        uint256[] memory tokenIds = new uint256[](auxiunNFTContract.NFTsOnMarket());\r\n        // fetch the tokenIds on the market\r\n        tokenIds = _fetchTokenIdsOnMarket();\r\n\r\n        // initialize array for tokenURIs, prices and sellers\r\n        string[] memory tokenURIs = new string[](auxiunNFTContract.NFTsOnMarket());\r\n        uint256[] memory tokenPrices = new uint256[](auxiunNFTContract.NFTsOnMarket());\r\n        address[] memory tokenSellers = new address[](auxiunNFTContract.NFTsOnMarket());\r\n\r\n        // for loop to fetch all data of tokenIds and push into the 3 arrays\r\n        for (uint256 i = 0; i < auxiunNFTContract.NFTsOnMarket(); i++) {\r\n            uint256 _price;\r\n            address _seller;\r\n            (,_price, _seller) = auxiunNFTContract.id_to_marketDetails(tokenIds[i]);\r\n            tokenURIs[i] = auxiunNFTContract.tokenURI(tokenIds[i]);\r\n            tokenPrices[i] = _price;\r\n            tokenSellers[i] = _seller;\r\n        }\r\n        \r\n        return (tokenIds, tokenURIs, tokenPrices, tokenSellers);\r\n    }\r\n\r\n    // overloaded Multicall function to fetch NFTs listed on sale for a specific user's address\r\n    function multiCallNFTsOnMarket(address seller) external view returns(uint256[] memory, string[] memory, uint256[] memory, address[] memory) {\r\n        // initialize tokenIds' array length\r\n        uint256[] memory tokenIds = new uint256[](auxiunNFTContract.NFTsOnMarketByAddress(seller));\r\n        // fetch the tokenIds on the market\r\n        tokenIds = _fetchTokenIdsOnMarket();\r\n\r\n        // initialize array for tokenURIs, prices and sellers\r\n        string[] memory tokenURIs = new string[](auxiunNFTContract.NFTsOnMarketByAddress(seller));\r\n        uint256[] memory tokenPrices = new uint256[](auxiunNFTContract.NFTsOnMarketByAddress(seller));\r\n        address[] memory tokenSellers = new address[](auxiunNFTContract.NFTsOnMarketByAddress(seller));\r\n\r\n        // for loop to fetch all data of tokenIds and push into the 3 arrays\r\n        uint256 counter = 0;\r\n        for (uint256 i = 0; i < auxiunNFTContract.NFTsOnMarket(); i++) {\r\n            uint256 _price;\r\n            address _seller;\r\n            (,_price, _seller) = auxiunNFTContract.id_to_marketDetails(tokenIds[i]);\r\n            if (seller == _seller) {\r\n                tokenURIs[counter] = auxiunNFTContract.tokenURI(tokenIds[i]);\r\n                tokenPrices[counter] = _price;\r\n                tokenSellers[counter] = _seller;\r\n                counter++;\r\n            }\r\n        }\r\n        return (tokenIds, tokenURIs, tokenPrices, tokenSellers);\r\n    }\r\n\r\n  \r\n\r\n    function multiCallTransactionDataByUser(address user) external view \r\n    returns(uint256[] memory, string[] memory, address[] memory, address[] memory,\r\n             uint256[] memory, uint256[] memory, bool[] memory) {\r\n        return (singleCallTransactionDataByUserTokenIds(user),\r\n                singleCallTransactionDataByUserTokenURIs(user),\r\n                singleCallTransactionDataByUserBuyers(user), \r\n                singleTransactionDataByUserSellers(user), \r\n                singleCallTransactionDataByUserPrices(user), \r\n                singleCallTransactionDataByUserTimestamps(user), \r\n                singleCallTransactionDataByUserTransactionType(user));\r\n    }\r\n\r\n    // single functions to be combined in the multiCallTransactionDataByUser() multicall function\r\n    function singleCallTransactionDataByUserTokenIds(address user) internal view returns(uint256[] memory) {\r\n        // initialize return array\r\n        uint256[] memory tokenIds = new uint256[](auxiunNFTContract.transactionHistoryCount(user));\r\n\r\n        // for loop to fetch all data of tokenIds and push into the arrays\r\n        uint256 counter = 0;\r\n        for (uint256 i = 0; i < auxiunNFTContract.getTransactionHistoryLength(); i++) {\r\n            uint256 _tokenId;\r\n            address _buyer;\r\n            address _seller;\r\n            (_tokenId, _buyer, _seller,,) = auxiunNFTContract.transactionHistory(i);\r\n            if (user == _buyer|| user == _seller) {\r\n                tokenIds[counter] = _tokenId;\r\n                counter++;\r\n            }\r\n        }\r\n        return tokenIds;\r\n    }\r\n\r\n    function singleCallTransactionDataByUserTokenURIs(address user) internal view returns(string[] memory) {\r\n        // initialize return array\r\n        string[] memory tokenURIs = new string[](auxiunNFTContract.transactionHistoryCount(user));\r\n\r\n        // for loop to fetch all data of tokenIds and push into the arrays\r\n        uint256 counter = 0;\r\n        for (uint256 i = 0; i < auxiunNFTContract.getTransactionHistoryLength(); i++) {\r\n            uint256 _tokenId;\r\n            address _buyer;\r\n            address _seller;\r\n            (_tokenId, _buyer, _seller,,) = auxiunNFTContract.transactionHistory(i);\r\n            if (user == _buyer|| user == _seller) {\r\n                tokenURIs[counter] = auxiunNFTContract.tokenURI(_tokenId);\r\n                counter++;\r\n            }\r\n        }\r\n        return tokenURIs;\r\n    }\r\n\r\n    function singleCallTransactionDataByUserBuyers(address user) internal view returns(address[] memory) {\r\n        // initialize return array\r\n        address[] memory buyers = new address[](auxiunNFTContract.transactionHistoryCount(user));\r\n\r\n        // for loop to fetch all data of tokenIds and push into the arrays\r\n        uint256 counter = 0;\r\n        for (uint256 i = 0; i < auxiunNFTContract.getTransactionHistoryLength(); i++) {\r\n            uint256 _tokenId;\r\n            address _buyer;\r\n            address _seller;\r\n            (_tokenId, _buyer, _seller,,) = auxiunNFTContract.transactionHistory(i);\r\n            if (user == _buyer|| user == _seller) {\r\n                buyers[counter] = _buyer;\r\n                counter++;\r\n            }\r\n        }\r\n        return buyers;\r\n    }\r\n\r\n    function singleTransactionDataByUserSellers(address user) internal view returns(address[] memory) {\r\n        // initialize return array\r\n        address[] memory sellers = new address[](auxiunNFTContract.transactionHistoryCount(user));\r\n\r\n        // for loop to fetch all data of tokenIds and push into the arrays\r\n        uint256 counter = 0;\r\n        for (uint256 i = 0; i < auxiunNFTContract.getTransactionHistoryLength(); i++) {\r\n            uint256 _tokenId;\r\n            address _buyer;\r\n            address _seller;\r\n            (_tokenId, _buyer, _seller,,) = auxiunNFTContract.transactionHistory(i);\r\n            if (user == _buyer|| user == _seller) {\r\n                sellers[counter] = _seller;\r\n                counter++;\r\n            }\r\n        }\r\n        return sellers;\r\n    }\r\n\r\n    function singleCallTransactionDataByUserPrices(address user) internal view returns(uint256[] memory) {\r\n        // initialize return arrays\r\n        uint256[] memory prices = new uint256[](auxiunNFTContract.transactionHistoryCount(user));\r\n\r\n        // for loop to fetch all data of tokenIds and push into the arrays\r\n        uint256 counter = 0;\r\n        for (uint256 i = 0; i < auxiunNFTContract.getTransactionHistoryLength(); i++) {\r\n            address _buyer;\r\n            address _seller;\r\n            uint256 _price;\r\n            (, _buyer, _seller, _price,) = auxiunNFTContract.transactionHistory(i);\r\n            if (user == _buyer|| user == _seller) {\r\n                prices[counter] = _price;\r\n                counter++;\r\n            }\r\n        }\r\n        return (prices);\r\n    }\r\n\r\n    function singleCallTransactionDataByUserTimestamps(address user) internal view returns(uint256[] memory) {\r\n        // initialize return array\r\n        uint256[] memory timestamps = new uint256[](auxiunNFTContract.transactionHistoryCount(user));\r\n\r\n        // for loop to fetch all data of tokenIds and push into the arrays\r\n        uint256 counter = 0;\r\n        for (uint256 i = 0; i < auxiunNFTContract.getTransactionHistoryLength(); i++) {\r\n            address _buyer;\r\n            address _seller;\r\n            uint256 _timestamp;\r\n            (, _buyer, _seller,, _timestamp) = auxiunNFTContract.transactionHistory(i);\r\n            if (user == _buyer|| user == _seller) {\r\n                timestamps[counter] = _timestamp;\r\n                counter++;\r\n            }\r\n        }\r\n        return timestamps;\r\n    }\r\n\r\n    function singleCallTransactionDataByUserTransactionType(address user) internal view returns(bool[] memory) {\r\n        // initialize return array\r\n        // transactionType = true: it is a buy transaction for the user\r\n        // transacitonType = false: it is a sell transaction for the user\r\n        bool[] memory transactionType = new bool[](auxiunNFTContract.transactionHistoryCount(user));\r\n\r\n        // for loop to fetch all data of tokenIds and push into the arrays\r\n        uint256 counter = 0;\r\n        for (uint256 i = 0; i < auxiunNFTContract.getTransactionHistoryLength(); i++) {\r\n            address _buyer;\r\n            address _seller;\r\n            (, _buyer, _seller,,) = auxiunNFTContract.transactionHistory(i);\r\n            if (user == _buyer|| user == _seller) {\r\n                // determine transactionType\r\n                if (user == _buyer) {\r\n                    transactionType[counter] = true;\r\n                }\r\n                else {\r\n                    transactionType[counter] = false;\r\n                }\r\n                counter++;\r\n            }\r\n        }\r\n        return transactionType;\r\n    }\r\n}\r\n\r\n  /**\r\n    * Multicall functions to fetch transaction data\r\n    * fetch transaction data by user's address\r\n    * Returns 6 arrays sale which are:\r\n    * 1. array of tokenIds\r\n    * 2. array of buyers\r\n    * 3. array of sellers\r\n    * 4. array of prices\r\n    * 5. array of timestamps\r\n    * 6. array of transacitonType - true: buy ; false: sell\r\n    */\r\n    // function multiCallTransactionDataByUser(address user) external view returns(uint256[] memory, address[] memory, address[] memory, uint256[] memory, uint256[] memory, bool[] memory) {\r\n    //     // initialize return arrays\r\n    //     uint256[] memory tokenIds = new uint256[](auxiunNFTContract.transactionHistoryCount(user));\r\n    //     address[] memory buyers = new address[](auxiunNFTContract.transactionHistoryCount(user));\r\n    //     address[] memory sellers = new address[](auxiunNFTContract.transactionHistoryCount(user));\r\n    //     uint256[] memory prices = new uint256[](auxiunNFTContract.transactionHistoryCount(user));\r\n    //     uint256[] memory timestamps = new uint256[](auxiunNFTContract.transactionHistoryCount(user));\r\n    //     // transactionType = true: it is a buy transaction for the user\r\n    //     // transacitonType = false: it is a sell transaction for the user\r\n    //     bool[] memory transactionType = new bool[](auxiunNFTContract.transactionHistoryCount(user));\r\n\r\n    //     // for loop to fetch all data of tokenIds and push into the arrays\r\n    //     uint256 counter = 0;\r\n    //     for (uint256 i = 0; i < auxiunNFTContract.getTransactionHistoryLength(); i++) {\r\n    //         uint256 _tokenId;\r\n    //         address _buyer;\r\n    //         address _seller;\r\n    //         uint256 _price;\r\n    //         uint256 _timestamp;\r\n    //         (_tokenId, _buyer, _seller, _price, _timestamp) = auxiunNFTContract.transactionHistory(i);\r\n    //         if (user == _buyer|| user == _seller) {\r\n    //             tokenIds[counter] = _tokenId;\r\n    //             buyers[counter] = _buyer;\r\n    //             sellers[counter] = _seller;\r\n    //             prices[counter] = _price;\r\n    //             timestamps[counter] = _timestamp;\r\n\r\n    //             // determine transactionType\r\n    //             if (user == _buyer) {\r\n    //                 transactionType[counter] = true;\r\n    //             }\r\n    //             else {\r\n    //                 transactionType[counter] = false;\r\n    //             }\r\n    //             counter++;\r\n    //         }\r\n    //     }\r\n        \r\n    //     return (tokenIds, buyers, sellers, prices, timestamps, transactionType);\r\n    // }\r\n\r\n\r\n    // function multiCallTransactionDataByUserPartA(address user) internal view returns(uint256[] memory,  address[] memory, address[] memory) {\r\n    //     // initialize return arrays\r\n    //     uint256[] memory tokenIds = new uint256[](auxiunNFTContract.transactionHistoryCount(user));\r\n    //     address[] memory buyers = new address[](auxiunNFTContract.transactionHistoryCount(user));\r\n    //     address[] memory sellers = new address[](auxiunNFTContract.transactionHistoryCount(user));\r\n\r\n    //     // for loop to fetch all data of tokenIds and push into the arrays\r\n    //     uint256 counter = 0;\r\n    //     for (uint256 i = 0; i < auxiunNFTContract.getTransactionHistoryLength(); i++) {\r\n    //         uint256 _tokenId;\r\n    //         address _buyer;\r\n    //         address _seller;\r\n    //         (_tokenId, _buyer, _seller,,) = auxiunNFTContract.transactionHistory(i);\r\n    //         if (user == _buyer|| user == _seller) {\r\n    //             tokenIds[counter] = _tokenId;\r\n    //             buyers[counter] = _buyer;\r\n    //             sellers[counter] = _seller;\r\n    //             counter++;\r\n    //         }\r\n    //     }\r\n    //     return (tokenIds, buyers, sellers);\r\n    // }\r\n\r\n    // function multiCallTransactionDataByUserPartB(address user) internal view returns(uint256[] memory, uint256[] memory, bool[] memory) {\r\n    //     // initialize return arrays\r\n    //     uint256[] memory prices = new uint256[](auxiunNFTContract.transactionHistoryCount(user));\r\n    //     uint256[] memory timestamps = new uint256[](auxiunNFTContract.transactionHistoryCount(user));\r\n    //     // transactionType = true: it is a buy transaction for the user\r\n    //     // transacitonType = false: it is a sell transaction for the user\r\n    //     bool[] memory transactionType = new bool[](auxiunNFTContract.transactionHistoryCount(user));\r\n\r\n    //     // for loop to fetch all data of tokenIds and push into the arrays\r\n    //     uint256 counter = 0;\r\n    //     for (uint256 i = 0; i < auxiunNFTContract.getTransactionHistoryLength(); i++) {\r\n    //         address _buyer;\r\n    //         address _seller;\r\n    //         uint256 _price;\r\n    //         uint256 _timestamp;\r\n    //         (, _buyer, _seller, _price, _timestamp) = auxiunNFTContract.transactionHistory(i);\r\n    //         if (user == _buyer|| user == _seller) {\r\n    //             prices[counter] = _price;\r\n    //             timestamps[counter] = _timestamp;\r\n\r\n    //             // determine transactionType\r\n    //             if (user == _buyer) {\r\n    //                 transactionType[counter] = true;\r\n    //             }\r\n    //             else {\r\n    //                 transactionType[counter] = false;\r\n    //             }\r\n    //             counter++;\r\n    //         }\r\n    //     }\r\n    //     return (prices, timestamps, transactionType);\r\n    // }",
  "sourcePath": "C:/Users/flooofy/sem_2_2021/PP1/axiun-contracts/contracts/AuxiunNFT.sol",
  "compiler": {
    "name": "solc",
    "version": "0.8.0+commit.c7dfd78e.Emscripten.clang"
  },
  "schemaVersion": "3.4.1",
  "updatedAt": "2021-08-27T04:32:19.966Z",
  "devdoc": {
    "kind": "dev",
    "methods": {},
    "version": 1
  },
  "userdoc": {
    "kind": "user",
    "methods": {
      "multiCallNFTsOnMarket()": {
        "notice": "Multicall function to fetch all NFTs listed for sale on the market Returns 4 arrays which are: 1. array of tokenIds 2. array of tokenURIs 3. array of token prices 4. array of token sellers"
      },
      "multiCallNFTsOwnedByAddress(address)": {
        "notice": "Multicall function to fetch all NFTs owned by an address Returns 2 arrays which are: 1. array of tokenIds owned by the address 2. array of tokenURIs of the respective tokenIds"
      }
    },
    "version": 1
  }
}