{
  "contractName": "AuxiunNFT",
  "abi": [
    {
      "inputs": [],
      "stateMutability": "nonpayable",
      "type": "constructor"
    },
    {
      "anonymous": false,
      "inputs": [
        {
          "indexed": true,
          "internalType": "address",
          "name": "owner",
          "type": "address"
        },
        {
          "indexed": true,
          "internalType": "address",
          "name": "approved",
          "type": "address"
        },
        {
          "indexed": true,
          "internalType": "uint256",
          "name": "tokenId",
          "type": "uint256"
        }
      ],
      "name": "Approval",
      "type": "event"
    },
    {
      "anonymous": false,
      "inputs": [
        {
          "indexed": true,
          "internalType": "address",
          "name": "owner",
          "type": "address"
        },
        {
          "indexed": true,
          "internalType": "address",
          "name": "operator",
          "type": "address"
        },
        {
          "indexed": false,
          "internalType": "bool",
          "name": "approved",
          "type": "bool"
        }
      ],
      "name": "ApprovalForAll",
      "type": "event"
    },
    {
      "anonymous": false,
      "inputs": [
        {
          "indexed": true,
          "internalType": "address",
          "name": "previousOwner",
          "type": "address"
        },
        {
          "indexed": true,
          "internalType": "address",
          "name": "newOwner",
          "type": "address"
        }
      ],
      "name": "OwnershipTransferred",
      "type": "event"
    },
    {
      "anonymous": false,
      "inputs": [
        {
          "indexed": true,
          "internalType": "address",
          "name": "from",
          "type": "address"
        },
        {
          "indexed": true,
          "internalType": "address",
          "name": "to",
          "type": "address"
        },
        {
          "indexed": true,
          "internalType": "uint256",
          "name": "tokenId",
          "type": "uint256"
        }
      ],
      "name": "Transfer",
      "type": "event"
    },
    {
      "inputs": [
        {
          "internalType": "address",
          "name": "to",
          "type": "address"
        },
        {
          "internalType": "uint256",
          "name": "tokenId",
          "type": "uint256"
        }
      ],
      "name": "approve",
      "outputs": [],
      "stateMutability": "nonpayable",
      "type": "function"
    },
    {
      "inputs": [
        {
          "internalType": "address",
          "name": "owner",
          "type": "address"
        }
      ],
      "name": "balanceOf",
      "outputs": [
        {
          "internalType": "uint256",
          "name": "",
          "type": "uint256"
        }
      ],
      "stateMutability": "view",
      "type": "function",
      "constant": true
    },
    {
      "inputs": [
        {
          "internalType": "uint256",
          "name": "tokenId",
          "type": "uint256"
        }
      ],
      "name": "getApproved",
      "outputs": [
        {
          "internalType": "address",
          "name": "",
          "type": "address"
        }
      ],
      "stateMutability": "view",
      "type": "function",
      "constant": true
    },
    {
      "inputs": [
        {
          "internalType": "address",
          "name": "owner",
          "type": "address"
        },
        {
          "internalType": "address",
          "name": "operator",
          "type": "address"
        }
      ],
      "name": "isApprovedForAll",
      "outputs": [
        {
          "internalType": "bool",
          "name": "",
          "type": "bool"
        }
      ],
      "stateMutability": "view",
      "type": "function",
      "constant": true
    },
    {
      "inputs": [],
      "name": "name",
      "outputs": [
        {
          "internalType": "string",
          "name": "",
          "type": "string"
        }
      ],
      "stateMutability": "view",
      "type": "function",
      "constant": true
    },
    {
      "inputs": [],
      "name": "owner",
      "outputs": [
        {
          "internalType": "address",
          "name": "",
          "type": "address"
        }
      ],
      "stateMutability": "view",
      "type": "function",
      "constant": true
    },
    {
      "inputs": [
        {
          "internalType": "uint256",
          "name": "tokenId",
          "type": "uint256"
        }
      ],
      "name": "ownerOf",
      "outputs": [
        {
          "internalType": "address",
          "name": "",
          "type": "address"
        }
      ],
      "stateMutability": "view",
      "type": "function",
      "constant": true
    },
    {
      "inputs": [],
      "name": "renounceOwnership",
      "outputs": [],
      "stateMutability": "nonpayable",
      "type": "function"
    },
    {
      "inputs": [
        {
          "internalType": "address",
          "name": "from",
          "type": "address"
        },
        {
          "internalType": "address",
          "name": "to",
          "type": "address"
        },
        {
          "internalType": "uint256",
          "name": "tokenId",
          "type": "uint256"
        }
      ],
      "name": "safeTransferFrom",
      "outputs": [],
      "stateMutability": "nonpayable",
      "type": "function"
    },
    {
      "inputs": [
        {
          "internalType": "address",
          "name": "from",
          "type": "address"
        },
        {
          "internalType": "address",
          "name": "to",
          "type": "address"
        },
        {
          "internalType": "uint256",
          "name": "tokenId",
          "type": "uint256"
        },
        {
          "internalType": "bytes",
          "name": "_data",
          "type": "bytes"
        }
      ],
      "name": "safeTransferFrom",
      "outputs": [],
      "stateMutability": "nonpayable",
      "type": "function"
    },
    {
      "inputs": [
        {
          "internalType": "address",
          "name": "operator",
          "type": "address"
        },
        {
          "internalType": "bool",
          "name": "approved",
          "type": "bool"
        }
      ],
      "name": "setApprovalForAll",
      "outputs": [],
      "stateMutability": "nonpayable",
      "type": "function"
    },
    {
      "inputs": [
        {
          "internalType": "bytes4",
          "name": "interfaceId",
          "type": "bytes4"
        }
      ],
      "name": "supportsInterface",
      "outputs": [
        {
          "internalType": "bool",
          "name": "",
          "type": "bool"
        }
      ],
      "stateMutability": "view",
      "type": "function",
      "constant": true
    },
    {
      "inputs": [],
      "name": "symbol",
      "outputs": [
        {
          "internalType": "string",
          "name": "",
          "type": "string"
        }
      ],
      "stateMutability": "view",
      "type": "function",
      "constant": true
    },
    {
      "inputs": [
        {
          "internalType": "address",
          "name": "from",
          "type": "address"
        },
        {
          "internalType": "address",
          "name": "to",
          "type": "address"
        },
        {
          "internalType": "uint256",
          "name": "tokenId",
          "type": "uint256"
        }
      ],
      "name": "transferFrom",
      "outputs": [],
      "stateMutability": "nonpayable",
      "type": "function"
    },
    {
      "inputs": [
        {
          "internalType": "address",
          "name": "newOwner",
          "type": "address"
        }
      ],
      "name": "transferOwnership",
      "outputs": [],
      "stateMutability": "nonpayable",
      "type": "function"
    },
    {
      "stateMutability": "payable",
      "type": "receive",
      "payable": true
    },
    {
      "inputs": [
        {
          "internalType": "string",
          "name": "inputbaseURI",
          "type": "string"
        }
      ],
      "name": "setBaseURI",
      "outputs": [],
      "stateMutability": "nonpayable",
      "type": "function"
    },
    {
      "inputs": [
        {
          "internalType": "uint256",
          "name": "tokenId",
          "type": "uint256"
        }
      ],
      "name": "tokenURI",
      "outputs": [
        {
          "internalType": "string",
          "name": "",
          "type": "string"
        }
      ],
      "stateMutability": "view",
      "type": "function",
      "constant": true
    },
    {
      "inputs": [
        {
          "internalType": "string",
          "name": "game_id",
          "type": "string"
        },
        {
          "internalType": "string",
          "name": "item_id",
          "type": "string"
        }
      ],
      "name": "mint",
      "outputs": [],
      "stateMutability": "nonpayable",
      "type": "function"
    },
    {
      "inputs": [
        {
          "internalType": "uint256",
          "name": "tokenId",
          "type": "uint256"
        },
        {
          "internalType": "uint256",
          "name": "price",
          "type": "uint256"
        }
      ],
      "name": "listNFTOnMarket",
      "outputs": [],
      "stateMutability": "payable",
      "type": "function",
      "payable": true
    },
    {
      "inputs": [
        {
          "internalType": "uint256",
          "name": "tokenId",
          "type": "uint256"
        }
      ],
      "name": "removeNFTFromMarket",
      "outputs": [],
      "stateMutability": "nonpayable",
      "type": "function"
    },
    {
      "inputs": [
        {
          "internalType": "uint256",
          "name": "tokenId",
          "type": "uint256"
        }
      ],
      "name": "purchaseNFT",
      "outputs": [],
      "stateMutability": "payable",
      "type": "function",
      "payable": true
    },
    {
      "inputs": [
        {
          "internalType": "uint256",
          "name": "tokenId",
          "type": "uint256"
        }
      ],
      "name": "fetchNFTDataById",
      "outputs": [
        {
          "internalType": "string",
          "name": "",
          "type": "string"
        },
        {
          "internalType": "uint256",
          "name": "",
          "type": "uint256"
        },
        {
          "internalType": "address",
          "name": "",
          "type": "address"
        }
      ],
      "stateMutability": "view",
      "type": "function",
      "constant": true
    },
    {
      "inputs": [],
      "name": "multiCallNFTsOnMarket",
      "outputs": [
        {
          "internalType": "uint256[]",
          "name": "",
          "type": "uint256[]"
        },
        {
          "internalType": "string[]",
          "name": "",
          "type": "string[]"
        },
        {
          "internalType": "uint256[]",
          "name": "",
          "type": "uint256[]"
        },
        {
          "internalType": "address[]",
          "name": "",
          "type": "address[]"
        }
      ],
      "stateMutability": "view",
      "type": "function",
      "constant": true
    },
    {
      "inputs": [],
      "name": "kill",
      "outputs": [],
      "stateMutability": "nonpayable",
      "type": "function"
    },
    {
      "inputs": [
        {
          "internalType": "address",
          "name": "",
          "type": "address"
        },
        {
          "internalType": "address",
          "name": "",
          "type": "address"
        },
        {
          "internalType": "uint256",
          "name": "",
          "type": "uint256"
        },
        {
          "internalType": "bytes",
          "name": "",
          "type": "bytes"
        }
      ],
      "name": "onERC721Received",
      "outputs": [
        {
          "internalType": "bytes4",
          "name": "",
          "type": "bytes4"
        }
      ],
      "stateMutability": "nonpayable",
      "type": "function"
    }
  ],
  "bytecode": "0x60806040526000600a556000600b553480156200001b57600080fd5b506040518060400160405280600981526020017f41757869756e4e465400000000000000000000000000000000000000000000008152506040518060400160405280600481526020017f4155584e00000000000000000000000000000000000000000000000000000000815250620000a86200009c6200011460201b60201c565b6200011c60201b60201c565b8160019080519060200190620000c0929190620001e0565b508060029080519060200190620000d9929190620001e0565b50505060405180606001604052806022815260200162004a8160229139600990805190602001906200010d929190620001e0565b50620002f5565b600033905090565b60008060009054906101000a900473ffffffffffffffffffffffffffffffffffffffff169050816000806101000a81548173ffffffffffffffffffffffffffffffffffffffff021916908373ffffffffffffffffffffffffffffffffffffffff1602179055508173ffffffffffffffffffffffffffffffffffffffff168173ffffffffffffffffffffffffffffffffffffffff167f8be0079c531659141344cd1fd0a4f28419497f9722a3daafe3b4186f6b6457e060405160405180910390a35050565b828054620001ee9062000290565b90600052602060002090601f0160209004810192826200021257600085556200025e565b82601f106200022d57805160ff19168380011785556200025e565b828001600101855582156200025e579182015b828111156200025d57825182559160200191906001019062000240565b5b5090506200026d919062000271565b5090565b5b808211156200028c57600081600090555060010162000272565b5090565b60006002820490506001821680620002a957607f821691505b60208210811415620002c057620002bf620002c6565b5b50919050565b7f4e487b7100000000000000000000000000000000000000000000000000000000600052602260045260246000fd5b61477c80620003056000396000f3fe60806040526004361061016a5760003560e01c806370a08231116100d157806395d89b411161008a578063b88d4fde11610064578063b88d4fde1461051a578063c87b56dd14610543578063e985e9c514610580578063f2fde38b146105bd57610171565b806395d89b41146104875780639a819303146104b2578063a22cb465146104f157610171565b806370a0823114610395578063715018a6146103d2578063741e0320146103e95780637e20b6ea146104055780638aa0fdad146104335780638da5cb5b1461045c57610171565b80631684fd24116101235780631684fd241461029d57806323b872dd146102c657806341c0e1b5146102ef57806342842e0e1461030657806355f804b31461032f5780636352211e1461035857610171565b806301ffc9a71461017657806306fdde03146101b3578063081812fc146101de578063095ea7b31461021b578063150b7a0214610244578063150bde031461028157610171565b3661017157005b600080fd5b34801561018257600080fd5b5061019d600480360381019061019891906132c3565b6105e6565b6040516101aa9190613f46565b60405180910390f35b3480156101bf57600080fd5b506101c86106c8565b6040516101d59190613f7c565b60405180910390f35b3480156101ea57600080fd5b50610205600480360381019061020091906133c2565b61075a565b6040516102129190613e7e565b60405180910390f35b34801561022757600080fd5b50610242600480360381019061023d9190613287565b6107df565b005b34801561025057600080fd5b5061026b600480360381019061026691906131d0565b6108f7565b6040516102789190613f61565b60405180910390f35b61029b600480360381019061029691906133c2565b61090b565b005b3480156102a957600080fd5b506102c460048036038101906102bf91906133c2565b610bc6565b005b3480156102d257600080fd5b506102ed60048036038101906102e89190613181565b610cdb565b005b3480156102fb57600080fd5b50610304610d3b565b005b34801561031257600080fd5b5061032d60048036038101906103289190613181565b610dd7565b005b34801561033b57600080fd5b5061035660048036038101906103519190613315565b610df7565b005b34801561036457600080fd5b5061037f600480360381019061037a91906133c2565b610e8d565b60405161038c9190613e7e565b60405180910390f35b3480156103a157600080fd5b506103bc60048036038101906103b7919061311c565b610f3f565b6040516103c991906142bc565b60405180910390f35b3480156103de57600080fd5b506103e7610ff7565b005b61040360048036038101906103fe91906133eb565b61107f565b005b34801561041157600080fd5b5061041a611233565b60405161042a9493929190613ee5565b60405180910390f35b34801561043f57600080fd5b5061045a60048036038101906104559190613356565b611666565b005b34801561046857600080fd5b506104716116f9565b60405161047e9190613e7e565b60405180910390f35b34801561049357600080fd5b5061049c611722565b6040516104a99190613f7c565b60405180910390f35b3480156104be57600080fd5b506104d960048036038101906104d491906133c2565b6117b4565b6040516104e893929190613f9e565b60405180910390f35b3480156104fd57600080fd5b506105186004803603810190610513919061324b565b61181d565b005b34801561052657600080fd5b50610541600480360381019061053c91906131d0565b61199e565b005b34801561054f57600080fd5b5061056a600480360381019061056591906133c2565b611a00565b6040516105779190613f7c565b60405180910390f35b34801561058c57600080fd5b506105a760048036038101906105a29190613145565b611be5565b6040516105b49190613f46565b60405180910390f35b3480156105c957600080fd5b506105e460048036038101906105df919061311c565b611c79565b005b60007f80ac58cd000000000000000000000000000000000000000000000000000000007bffffffffffffffffffffffffffffffffffffffffffffffffffffffff1916827bffffffffffffffffffffffffffffffffffffffffffffffffffffffff191614806106b157507f5b5e139f000000000000000000000000000000000000000000000000000000007bffffffffffffffffffffffffffffffffffffffffffffffffffffffff1916827bffffffffffffffffffffffffffffffffffffffffffffffffffffffff1916145b806106c157506106c082611d71565b5b9050919050565b6060600180546106d7906145d1565b80601f0160208091040260200160405190810160405280929190818152602001828054610703906145d1565b80156107505780601f1061072557610100808354040283529160200191610750565b820191906000526020600020905b81548152906001019060200180831161073357829003601f168201915b5050505050905090565b600061076582611ddb565b6107a4576040517f08c379a000000000000000000000000000000000000000000000000000000000815260040161079b9061417c565b60405180910390fd5b6005600083815260200190815260200160002060009054906101000a900473ffffffffffffffffffffffffffffffffffffffff169050919050565b60006107ea82610e8d565b90508073ffffffffffffffffffffffffffffffffffffffff168373ffffffffffffffffffffffffffffffffffffffff16141561085b576040517f08c379a00000000000000000000000000000000000000000000000000000000081526004016108529061421c565b60405180910390fd5b8073ffffffffffffffffffffffffffffffffffffffff1661087a611e47565b73ffffffffffffffffffffffffffffffffffffffff1614806108a957506108a8816108a3611e47565b611be5565b5b6108e8576040517f08c379a00000000000000000000000000000000000000000000000000000000081526004016108df906140fc565b60405180910390fd5b6108f28383611e4f565b505050565b600063150b7a0260e01b9050949350505050565b8061091581611ddb565b610954576040517f08c379a000000000000000000000000000000000000000000000000000000000815260040161094b9061427c565b60405180910390fd5b3373ffffffffffffffffffffffffffffffffffffffff166007600084815260200190815260200160002060020160009054906101000a900473ffffffffffffffffffffffffffffffffffffffff1673ffffffffffffffffffffffffffffffffffffffff1614156109f9576040517f08c379a00000000000000000000000000000000000000000000000000000000081526004016109f090613fdc565b60405180910390fd5b6007600083815260200190815260200160002060000160009054906101000a900460ff16610a5c576040517f08c379a0000000000000000000000000000000000000000000000000000000008152600401610a53906141fc565b60405180910390fd5b3460076000848152602001908152602001600020600101541115610ab5576040517f08c379a0000000000000000000000000000000000000000000000000000000008152600401610aac9061425c565b60405180910390fd5b610abe82611f08565b60006007600084815260200190815260200160002060020160009054906101000a900473ffffffffffffffffffffffffffffffffffffffff16905060008173ffffffffffffffffffffffffffffffffffffffff1634604051610b1f90613e69565b60006040518083038185875af1925050503d8060008114610b5c576040519150601f19603f3d011682016040523d82523d6000602084013e610b61565b606091505b5050905080610ba5576040517f08c379a0000000000000000000000000000000000000000000000000000000008152600401610b9c9061429c565b60405180910390fd5b610bc03033866040518060200160405280600081525061202a565b50505050565b80610bd081611ddb565b610c0f576040517f08c379a0000000000000000000000000000000000000000000000000000000008152600401610c069061427c565b60405180910390fd5b3373ffffffffffffffffffffffffffffffffffffffff166007600084815260200190815260200160002060020160009054906101000a900473ffffffffffffffffffffffffffffffffffffffff1673ffffffffffffffffffffffffffffffffffffffff1614610cb3576040517f08c379a0000000000000000000000000000000000000000000000000000000008152600401610caa906140bc565b60405180910390fd5b610cbc82611f08565b610cd73033846040518060200160405280600081525061202a565b5050565b610cec610ce6611e47565b82612086565b610d2b576040517f08c379a0000000000000000000000000000000000000000000000000000000008152600401610d229061423c565b60405180910390fd5b610d36838383612164565b505050565b610d43611e47565b73ffffffffffffffffffffffffffffffffffffffff16610d616116f9565b73ffffffffffffffffffffffffffffffffffffffff1614610db7576040517f08c379a0000000000000000000000000000000000000000000000000000000008152600401610dae9061419c565b60405180910390fd5b610dbf6116f9565b73ffffffffffffffffffffffffffffffffffffffff16ff5b610df28383836040518060200160405280600081525061199e565b505050565b610dff611e47565b73ffffffffffffffffffffffffffffffffffffffff16610e1d6116f9565b73ffffffffffffffffffffffffffffffffffffffff1614610e73576040517f08c379a0000000000000000000000000000000000000000000000000000000008152600401610e6a9061419c565b60405180910390fd5b8060099080519060200190610e89929190612f40565b5050565b6000806003600084815260200190815260200160002060009054906101000a900473ffffffffffffffffffffffffffffffffffffffff169050600073ffffffffffffffffffffffffffffffffffffffff168173ffffffffffffffffffffffffffffffffffffffff161415610f36576040517f08c379a0000000000000000000000000000000000000000000000000000000008152600401610f2d9061413c565b60405180910390fd5b80915050919050565b60008073ffffffffffffffffffffffffffffffffffffffff168273ffffffffffffffffffffffffffffffffffffffff161415610fb0576040517f08c379a0000000000000000000000000000000000000000000000000000000008152600401610fa79061411c565b60405180910390fd5b600460008373ffffffffffffffffffffffffffffffffffffffff1673ffffffffffffffffffffffffffffffffffffffff168152602001908152602001600020549050919050565b610fff611e47565b73ffffffffffffffffffffffffffffffffffffffff1661101d6116f9565b73ffffffffffffffffffffffffffffffffffffffff1614611073576040517f08c379a000000000000000000000000000000000000000000000000000000000815260040161106a9061419c565b60405180910390fd5b61107d60006123c0565b565b8161108981611ddb565b6110c8576040517f08c379a00000000000000000000000000000000000000000000000000000000081526004016110bf9061427c565b60405180910390fd5b823373ffffffffffffffffffffffffffffffffffffffff166110e982610e8d565b73ffffffffffffffffffffffffffffffffffffffff161461113f576040517f08c379a000000000000000000000000000000000000000000000000000000000815260040161113690613ffc565b60405180910390fd5b60405180606001604052806001151581526020018481526020013373ffffffffffffffffffffffffffffffffffffffff168152506007600086815260200190815260200160002060008201518160000160006101000a81548160ff0219169083151502179055506020820151816001015560408201518160020160006101000a81548173ffffffffffffffffffffffffffffffffffffffff021916908373ffffffffffffffffffffffffffffffffffffffff160217905550905050600b600081548092919061120d90614603565b919050555061122d3330866040518060200160405280600081525061202a565b50505050565b6060806060806000600b5467ffffffffffffffff81111561127d577f4e487b7100000000000000000000000000000000000000000000000000000000600052604160045260246000fd5b6040519080825280602002602001820160405280156112ab5781602001602082028036833780820191505090505b5090506112b6612484565b90506000600b5467ffffffffffffffff8111156112fc577f4e487b7100000000000000000000000000000000000000000000000000000000600052604160045260246000fd5b60405190808252806020026020018201604052801561132f57816020015b606081526020019060019003908161131a5790505b5090506000600b5467ffffffffffffffff811115611376577f4e487b7100000000000000000000000000000000000000000000000000000000600052604160045260246000fd5b6040519080825280602002602001820160405280156113a45781602001602082028036833780820191505090505b5090506000600b5467ffffffffffffffff8111156113eb577f4e487b7100000000000000000000000000000000000000000000000000000000600052604160045260246000fd5b6040519080825280602002602001820160405280156114195781602001602082028036833780820191505090505b50905060005b600b5481101561164f57611472858281518110611465577f4e487b7100000000000000000000000000000000000000000000000000000000600052603260045260246000fd5b6020026020010151611a00565b8482815181106114ab577f4e487b7100000000000000000000000000000000000000000000000000000000600052603260045260246000fd5b6020026020010181905250600760008683815181106114f3577f4e487b7100000000000000000000000000000000000000000000000000000000600052603260045260246000fd5b6020026020010151815260200190815260200160002060010154838281518110611546577f4e487b7100000000000000000000000000000000000000000000000000000000600052603260045260246000fd5b6020026020010181815250506007600086838151811061158f577f4e487b7100000000000000000000000000000000000000000000000000000000600052603260045260246000fd5b6020026020010151815260200190815260200160002060020160009054906101000a900473ffffffffffffffffffffffffffffffffffffffff16828281518110611602577f4e487b7100000000000000000000000000000000000000000000000000000000600052603260045260246000fd5b602002602001019073ffffffffffffffffffffffffffffffffffffffff16908173ffffffffffffffffffffffffffffffffffffffff1681525050808061164790614603565b91505061141f565b508383838397509750975097505050505090919293565b6000600a549050600a600081548092919061168090614603565b91905055506040518060400160405280848152602001838152506008600083815260200190815260200160002060008201518160000190805190602001906116c9929190612f40565b5060208201518160010190805190602001906116e6929190612f40565b509050506116f433826125a3565b505050565b60008060009054906101000a900473ffffffffffffffffffffffffffffffffffffffff16905090565b606060028054611731906145d1565b80601f016020809104026020016040519081016040528092919081815260200182805461175d906145d1565b80156117aa5780601f1061177f576101008083540402835291602001916117aa565b820191906000526020600020905b81548152906001019060200180831161178d57829003601f168201915b5050505050905090565b60606000806117c284611a00565b60076000868152602001908152602001600020600101546007600087815260200190815260200160002060020160009054906101000a900473ffffffffffffffffffffffffffffffffffffffff169250925092509193909250565b611825611e47565b73ffffffffffffffffffffffffffffffffffffffff168273ffffffffffffffffffffffffffffffffffffffff161415611893576040517f08c379a000000000000000000000000000000000000000000000000000000000815260040161188a9061409c565b60405180910390fd5b80600660006118a0611e47565b73ffffffffffffffffffffffffffffffffffffffff1673ffffffffffffffffffffffffffffffffffffffff16815260200190815260200160002060008473ffffffffffffffffffffffffffffffffffffffff1673ffffffffffffffffffffffffffffffffffffffff16815260200190815260200160002060006101000a81548160ff0219169083151502179055508173ffffffffffffffffffffffffffffffffffffffff1661194d611e47565b73ffffffffffffffffffffffffffffffffffffffff167f17307eab39ab6107e8899845ad3d59bd9653f200f220920489ca2b5937696c31836040516119929190613f46565b60405180910390a35050565b6119af6119a9611e47565b83612086565b6119ee576040517f08c379a00000000000000000000000000000000000000000000000000000000081526004016119e59061423c565b60405180910390fd5b6119fa8484848461202a565b50505050565b6060611a0b82611ddb565b611a4a576040517f08c379a0000000000000000000000000000000000000000000000000000000008152600401611a41906141dc565b60405180910390fd5b611bde611a556125c1565b600860008581526020019081526020016000206000018054611a76906145d1565b80601f0160208091040260200160405190810160405280929190818152602001828054611aa2906145d1565b8015611aef5780601f10611ac457610100808354040283529160200191611aef565b820191906000526020600020905b815481529060010190602001808311611ad257829003601f168201915b50505050506040518060400160405280600181526020017f2f00000000000000000000000000000000000000000000000000000000000000815250600860008781526020019081526020016000206001018054611b4b906145d1565b80601f0160208091040260200160405190810160405280929190818152602001828054611b77906145d1565b8015611bc45780601f10611b9957610100808354040283529160200191611bc4565b820191906000526020600020905b815481529060010190602001808311611ba757829003601f168201915b505050505060405180602001604052806000815250612653565b9050919050565b6000600660008473ffffffffffffffffffffffffffffffffffffffff1673ffffffffffffffffffffffffffffffffffffffff16815260200190815260200160002060008373ffffffffffffffffffffffffffffffffffffffff1673ffffffffffffffffffffffffffffffffffffffff16815260200190815260200160002060009054906101000a900460ff16905092915050565b611c81611e47565b73ffffffffffffffffffffffffffffffffffffffff16611c9f6116f9565b73ffffffffffffffffffffffffffffffffffffffff1614611cf5576040517f08c379a0000000000000000000000000000000000000000000000000000000008152600401611cec9061419c565b60405180910390fd5b600073ffffffffffffffffffffffffffffffffffffffff168173ffffffffffffffffffffffffffffffffffffffff161415611d65576040517f08c379a0000000000000000000000000000000000000000000000000000000008152600401611d5c9061403c565b60405180910390fd5b611d6e816123c0565b50565b60007f01ffc9a7000000000000000000000000000000000000000000000000000000007bffffffffffffffffffffffffffffffffffffffffffffffffffffffff1916827bffffffffffffffffffffffffffffffffffffffffffffffffffffffff1916149050919050565b60008073ffffffffffffffffffffffffffffffffffffffff166003600084815260200190815260200160002060009054906101000a900473ffffffffffffffffffffffffffffffffffffffff1673ffffffffffffffffffffffffffffffffffffffff1614159050919050565b600033905090565b816005600083815260200190815260200160002060006101000a81548173ffffffffffffffffffffffffffffffffffffffff021916908373ffffffffffffffffffffffffffffffffffffffff160217905550808273ffffffffffffffffffffffffffffffffffffffff16611ec283610e8d565b73ffffffffffffffffffffffffffffffffffffffff167f8c5be1e5ebec7d5bd14f71427d1e84f3dd0314c0f7b2291e5b200ac8c7c3b92560405160405180910390a45050565b80611f1281611ddb565b611f51576040517f08c379a0000000000000000000000000000000000000000000000000000000008152600401611f489061427c565b60405180910390fd5b604051806060016040528060001515815260200160008152602001600073ffffffffffffffffffffffffffffffffffffffff168152506007600084815260200190815260200160002060008201518160000160006101000a81548160ff0219169083151502179055506020820151816001015560408201518160020160006101000a81548173ffffffffffffffffffffffffffffffffffffffff021916908373ffffffffffffffffffffffffffffffffffffffff160217905550905050600b6000815480929190612021906145a7565b91905055505050565b612035848484612164565b61204184848484612b68565b612080576040517f08c379a00000000000000000000000000000000000000000000000000000000081526004016120779061401c565b60405180910390fd5b50505050565b600061209182611ddb565b6120d0576040517f08c379a00000000000000000000000000000000000000000000000000000000081526004016120c7906140dc565b60405180910390fd5b60006120db83610e8d565b90508073ffffffffffffffffffffffffffffffffffffffff168473ffffffffffffffffffffffffffffffffffffffff16148061214a57508373ffffffffffffffffffffffffffffffffffffffff166121328461075a565b73ffffffffffffffffffffffffffffffffffffffff16145b8061215b575061215a8185611be5565b5b91505092915050565b8273ffffffffffffffffffffffffffffffffffffffff1661218482610e8d565b73ffffffffffffffffffffffffffffffffffffffff16146121da576040517f08c379a00000000000000000000000000000000000000000000000000000000081526004016121d1906141bc565b60405180910390fd5b600073ffffffffffffffffffffffffffffffffffffffff168273ffffffffffffffffffffffffffffffffffffffff16141561224a576040517f08c379a00000000000000000000000000000000000000000000000000000000081526004016122419061407c565b60405180910390fd5b612255838383612cff565b612260600082611e4f565b6001600460008573ffffffffffffffffffffffffffffffffffffffff1673ffffffffffffffffffffffffffffffffffffffff16815260200190815260200160002060008282546122b091906144bd565b925050819055506001600460008473ffffffffffffffffffffffffffffffffffffffff1673ffffffffffffffffffffffffffffffffffffffff16815260200190815260200160002060008282546123079190614467565b92505081905550816003600083815260200190815260200160002060006101000a81548173ffffffffffffffffffffffffffffffffffffffff021916908373ffffffffffffffffffffffffffffffffffffffff160217905550808273ffffffffffffffffffffffffffffffffffffffff168473ffffffffffffffffffffffffffffffffffffffff167fddf252ad1be2c89b69c2b068fc378daa952ba7f163c4a11628f55a4df523b3ef60405160405180910390a4505050565b60008060009054906101000a900473ffffffffffffffffffffffffffffffffffffffff169050816000806101000a81548173ffffffffffffffffffffffffffffffffffffffff021916908373ffffffffffffffffffffffffffffffffffffffff1602179055508173ffffffffffffffffffffffffffffffffffffffff168173ffffffffffffffffffffffffffffffffffffffff167f8be0079c531659141344cd1fd0a4f28419497f9722a3daafe3b4186f6b6457e060405160405180910390a35050565b60606000600b5467ffffffffffffffff8111156124ca577f4e487b7100000000000000000000000000000000000000000000000000000000600052604160045260246000fd5b6040519080825280602002602001820160405280156124f85781602001602082028036833780820191505090505b5090506000805b600a5481101561259a576007600082815260200190815260200160002060000160009054906101000a900460ff1615612587578083838151811061256c577f4e487b7100000000000000000000000000000000000000000000000000000000600052603260045260246000fd5b602002602001018181525050818061258390614603565b9250505b808061259290614603565b9150506124ff565b50819250505090565b6125bd828260405180602001604052806000815250612d04565b5050565b6060600980546125d0906145d1565b80601f01602080910402602001604051908101604052809291908181526020018280546125fc906145d1565b80156126495780601f1061261e57610100808354040283529160200191612649565b820191906000526020600020905b81548152906001019060200180831161262c57829003601f168201915b5050505050905090565b6060600086905060008690506000869050600086905060008690506000815183518551875189516126849190614467565b61268e9190614467565b6126989190614467565b6126a29190614467565b67ffffffffffffffff8111156126e1577f4e487b7100000000000000000000000000000000000000000000000000000000600052604160045260246000fd5b6040519080825280601f01601f1916602001820160405280156127135781602001600182028036833780820191505090505b50905060008190506000805b88518110156127f357888181518110612761577f4e487b7100000000000000000000000000000000000000000000000000000000600052603260045260246000fd5b602001015160f81c60f81b83838061277890614603565b9450815181106127b1577f4e487b7100000000000000000000000000000000000000000000000000000000600052603260045260246000fd5b60200101907effffffffffffffffffffffffffffffffffffffffffffffffffffffffffffff1916908160001a90535080806127eb90614603565b91505061271f565b5060005b87518110156128cb57878181518110612839577f4e487b7100000000000000000000000000000000000000000000000000000000600052603260045260246000fd5b602001015160f81c60f81b83838061285090614603565b945081518110612889577f4e487b7100000000000000000000000000000000000000000000000000000000600052603260045260246000fd5b60200101907effffffffffffffffffffffffffffffffffffffffffffffffffffffffffffff1916908160001a90535080806128c390614603565b9150506127f7565b5060005b86518110156129a357868181518110612911577f4e487b7100000000000000000000000000000000000000000000000000000000600052603260045260246000fd5b602001015160f81c60f81b83838061292890614603565b945081518110612961577f4e487b7100000000000000000000000000000000000000000000000000000000600052603260045260246000fd5b60200101907effffffffffffffffffffffffffffffffffffffffffffffffffffffffffffff1916908160001a905350808061299b90614603565b9150506128cf565b5060005b8551811015612a7b578581815181106129e9577f4e487b7100000000000000000000000000000000000000000000000000000000600052603260045260246000fd5b602001015160f81c60f81b838380612a0090614603565b945081518110612a39577f4e487b7100000000000000000000000000000000000000000000000000000000600052603260045260246000fd5b60200101907effffffffffffffffffffffffffffffffffffffffffffffffffffffffffffff1916908160001a9053508080612a7390614603565b9150506129a7565b5060005b8451811015612b5357848181518110612ac1577f4e487b7100000000000000000000000000000000000000000000000000000000600052603260045260246000fd5b602001015160f81c60f81b838380612ad890614603565b945081518110612b11577f4e487b7100000000000000000000000000000000000000000000000000000000600052603260045260246000fd5b60200101907effffffffffffffffffffffffffffffffffffffffffffffffffffffffffffff1916908160001a9053508080612b4b90614603565b915050612a7f565b50819850505050505050505095945050505050565b6000612b898473ffffffffffffffffffffffffffffffffffffffff16612d5f565b15612cf2578373ffffffffffffffffffffffffffffffffffffffff1663150b7a02612bb2611e47565b8786866040518563ffffffff1660e01b8152600401612bd49493929190613e99565b602060405180830381600087803b158015612bee57600080fd5b505af1925050508015612c1f57506040513d601f19601f82011682018060405250810190612c1c91906132ec565b60015b612ca2573d8060008114612c4f576040519150601f19603f3d011682016040523d82523d6000602084013e612c54565b606091505b50600081511415612c9a576040517f08c379a0000000000000000000000000000000000000000000000000000000008152600401612c919061401c565b60405180910390fd5b805181602001fd5b63150b7a0260e01b7bffffffffffffffffffffffffffffffffffffffffffffffffffffffff1916817bffffffffffffffffffffffffffffffffffffffffffffffffffffffff191614915050612cf7565b600190505b949350505050565b505050565b612d0e8383612d72565b612d1b6000848484612b68565b612d5a576040517f08c379a0000000000000000000000000000000000000000000000000000000008152600401612d519061401c565b60405180910390fd5b505050565b600080823b905060008111915050919050565b600073ffffffffffffffffffffffffffffffffffffffff168273ffffffffffffffffffffffffffffffffffffffff161415612de2576040517f08c379a0000000000000000000000000000000000000000000000000000000008152600401612dd99061415c565b60405180910390fd5b612deb81611ddb565b15612e2b576040517f08c379a0000000000000000000000000000000000000000000000000000000008152600401612e229061405c565b60405180910390fd5b612e3760008383612cff565b6001600460008473ffffffffffffffffffffffffffffffffffffffff1673ffffffffffffffffffffffffffffffffffffffff1681526020019081526020016000206000828254612e879190614467565b92505081905550816003600083815260200190815260200160002060006101000a81548173ffffffffffffffffffffffffffffffffffffffff021916908373ffffffffffffffffffffffffffffffffffffffff160217905550808273ffffffffffffffffffffffffffffffffffffffff16600073ffffffffffffffffffffffffffffffffffffffff167fddf252ad1be2c89b69c2b068fc378daa952ba7f163c4a11628f55a4df523b3ef60405160405180910390a45050565b828054612f4c906145d1565b90600052602060002090601f016020900481019282612f6e5760008555612fb5565b82601f10612f8757805160ff1916838001178555612fb5565b82800160010185558215612fb5579182015b82811115612fb4578251825591602001919060010190612f99565b5b509050612fc29190612fc6565b5090565b5b80821115612fdf576000816000905550600101612fc7565b5090565b6000612ff6612ff184614308565b6142d7565b90508281526020810184848401111561300e57600080fd5b613019848285614565565b509392505050565b600061303461302f84614338565b6142d7565b90508281526020810184848401111561304c57600080fd5b613057848285614565565b509392505050565b60008135905061306e816146ea565b92915050565b60008135905061308381614701565b92915050565b60008135905061309881614718565b92915050565b6000815190506130ad81614718565b92915050565b600082601f8301126130c457600080fd5b81356130d4848260208601612fe3565b91505092915050565b600082601f8301126130ee57600080fd5b81356130fe848260208601613021565b91505092915050565b6000813590506131168161472f565b92915050565b60006020828403121561312e57600080fd5b600061313c8482850161305f565b91505092915050565b6000806040838503121561315857600080fd5b60006131668582860161305f565b92505060206131778582860161305f565b9150509250929050565b60008060006060848603121561319657600080fd5b60006131a48682870161305f565b93505060206131b58682870161305f565b92505060406131c686828701613107565b9150509250925092565b600080600080608085870312156131e657600080fd5b60006131f48782880161305f565b94505060206132058782880161305f565b935050604061321687828801613107565b925050606085013567ffffffffffffffff81111561323357600080fd5b61323f878288016130b3565b91505092959194509250565b6000806040838503121561325e57600080fd5b600061326c8582860161305f565b925050602061327d85828601613074565b9150509250929050565b6000806040838503121561329a57600080fd5b60006132a88582860161305f565b92505060206132b985828601613107565b9150509250929050565b6000602082840312156132d557600080fd5b60006132e384828501613089565b91505092915050565b6000602082840312156132fe57600080fd5b600061330c8482850161309e565b91505092915050565b60006020828403121561332757600080fd5b600082013567ffffffffffffffff81111561334157600080fd5b61334d848285016130dd565b91505092915050565b6000806040838503121561336957600080fd5b600083013567ffffffffffffffff81111561338357600080fd5b61338f858286016130dd565b925050602083013567ffffffffffffffff8111156133ac57600080fd5b6133b8858286016130dd565b9150509250929050565b6000602082840312156133d457600080fd5b60006133e284828501613107565b91505092915050565b600080604083850312156133fe57600080fd5b600061340c85828601613107565b925050602061341d85828601613107565b9150509250929050565b6000613433838361346b565b60208301905092915050565b600061344b8383613611565b905092915050565b600061345f8383613e4b565b60208301905092915050565b613474816144f1565b82525050565b613483816144f1565b82525050565b600061349482614398565b61349e81856143f6565b93506134a983614368565b8060005b838110156134da5781516134c18882613427565b97506134cc836143cf565b9250506001810190506134ad565b5085935050505092915050565b60006134f2826143a3565b6134fc8185614407565b93508360208202850161350e85614378565b8060005b8581101561354a578484038952815161352b858261343f565b9450613536836143dc565b925060208a01995050600181019050613512565b50829750879550505050505092915050565b6000613567826143ae565b6135718185614418565b935061357c83614388565b8060005b838110156135ad5781516135948882613453565b975061359f836143e9565b925050600181019050613580565b5085935050505092915050565b6135c381614503565b82525050565b6135d28161450f565b82525050565b60006135e3826143b9565b6135ed8185614429565b93506135fd818560208601614574565b613606816146d9565b840191505092915050565b600061361c826143c4565b6136268185614445565b9350613636818560208601614574565b61363f816146d9565b840191505092915050565b6000613655826143c4565b61365f8185614456565b935061366f818560208601614574565b613678816146d9565b840191505092915050565b6000613690601f83614456565b91507f43616e206e6f7420707572636861736520796f7572206f776e204e4654732e006000830152602082019050919050565b60006136d0602083614456565b91507f546f6b656e20646f6573206e6f742062656c6f6e6720746f2073656e6465722e6000830152602082019050919050565b6000613710603283614456565b91507f4552433732313a207472616e7366657220746f206e6f6e20455243373231526560008301527f63656976657220696d706c656d656e74657200000000000000000000000000006020830152604082019050919050565b6000613776602683614456565b91507f4f776e61626c653a206e6577206f776e657220697320746865207a65726f206160008301527f64647265737300000000000000000000000000000000000000000000000000006020830152604082019050919050565b60006137dc601c83614456565b91507f4552433732313a20746f6b656e20616c7265616479206d696e746564000000006000830152602082019050919050565b600061381c602483614456565b91507f4552433732313a207472616e7366657220746f20746865207a65726f2061646460008301527f72657373000000000000000000000000000000000000000000000000000000006020830152604082019050919050565b6000613882601983614456565b91507f4552433732313a20617070726f766520746f2063616c6c6572000000000000006000830152602082019050919050565b60006138c2602383614456565b91507f4e6f7420746865206f726967696e616c206f776e6572206f662074686973204e60008301527f46542e00000000000000000000000000000000000000000000000000000000006020830152604082019050919050565b6000613928602c83614456565b91507f4552433732313a206f70657261746f7220717565727920666f72206e6f6e657860008301527f697374656e7420746f6b656e00000000000000000000000000000000000000006020830152604082019050919050565b600061398e603883614456565b91507f4552433732313a20617070726f76652063616c6c6572206973206e6f74206f7760008301527f6e6572206e6f7220617070726f76656420666f7220616c6c00000000000000006020830152604082019050919050565b60006139f4602a83614456565b91507f4552433732313a2062616c616e636520717565727920666f7220746865207a6560008301527f726f2061646472657373000000000000000000000000000000000000000000006020830152604082019050919050565b6000613a5a602983614456565b91507f4552433732313a206f776e657220717565727920666f72206e6f6e657869737460008301527f656e7420746f6b656e00000000000000000000000000000000000000000000006020830152604082019050919050565b6000613ac0602083614456565b91507f4552433732313a206d696e7420746f20746865207a65726f20616464726573736000830152602082019050919050565b6000613b00602c83614456565b91507f4552433732313a20617070726f76656420717565727920666f72206e6f6e657860008301527f697374656e7420746f6b656e00000000000000000000000000000000000000006020830152604082019050919050565b6000613b66602083614456565b91507f4f776e61626c653a2063616c6c6572206973206e6f7420746865206f776e65726000830152602082019050919050565b6000613ba6602983614456565b91507f4552433732313a207472616e73666572206f6620746f6b656e2074686174206960008301527f73206e6f74206f776e00000000000000000000000000000000000000000000006020830152604082019050919050565b6000613c0c602f83614456565b91507f4552433732314d657461646174613a2055524920717565727920666f72206e6f60008301527f6e6578697374656e7420746f6b656e00000000000000000000000000000000006020830152604082019050919050565b6000613c72601083614456565b91507f4e4654206e6f7420666f722073616c65000000000000000000000000000000006000830152602082019050919050565b6000613cb2602183614456565b91507f4552433732313a20617070726f76616c20746f2063757272656e74206f776e6560008301527f72000000000000000000000000000000000000000000000000000000000000006020830152604082019050919050565b6000613d1860008361443a565b9150600082019050919050565b6000613d32603183614456565b91507f4552433732313a207472616e736665722063616c6c6572206973206e6f74206f60008301527f776e6572206e6f7220617070726f7665640000000000000000000000000000006020830152604082019050919050565b6000613d98602083614456565b91507f496e73756666696369656e742066756e647320666f722070757263686173652e6000830152602082019050919050565b6000613dd8601883614456565b91507f546f6b656e20494420646f6573206e6f742065786973742e00000000000000006000830152602082019050919050565b6000613e18601c83614456565b91507f4661696c656420746f2073656e642045544820746f2053656c6c6572000000006000830152602082019050919050565b613e548161455b565b82525050565b613e638161455b565b82525050565b6000613e7482613d0b565b9150819050919050565b6000602082019050613e93600083018461347a565b92915050565b6000608082019050613eae600083018761347a565b613ebb602083018661347a565b613ec86040830185613e5a565b8181036060830152613eda81846135d8565b905095945050505050565b60006080820190508181036000830152613eff818761355c565b90508181036020830152613f1381866134e7565b90508181036040830152613f27818561355c565b90508181036060830152613f3b8184613489565b905095945050505050565b6000602082019050613f5b60008301846135ba565b92915050565b6000602082019050613f7660008301846135c9565b92915050565b60006020820190508181036000830152613f96818461364a565b905092915050565b60006060820190508181036000830152613fb8818661364a565b9050613fc76020830185613e5a565b613fd4604083018461347a565b949350505050565b60006020820190508181036000830152613ff581613683565b9050919050565b60006020820190508181036000830152614015816136c3565b9050919050565b6000602082019050818103600083015261403581613703565b9050919050565b6000602082019050818103600083015261405581613769565b9050919050565b60006020820190508181036000830152614075816137cf565b9050919050565b600060208201905081810360008301526140958161380f565b9050919050565b600060208201905081810360008301526140b581613875565b9050919050565b600060208201905081810360008301526140d5816138b5565b9050919050565b600060208201905081810360008301526140f58161391b565b9050919050565b6000602082019050818103600083015261411581613981565b9050919050565b60006020820190508181036000830152614135816139e7565b9050919050565b6000602082019050818103600083015261415581613a4d565b9050919050565b6000602082019050818103600083015261417581613ab3565b9050919050565b6000602082019050818103600083015261419581613af3565b9050919050565b600060208201905081810360008301526141b581613b59565b9050919050565b600060208201905081810360008301526141d581613b99565b9050919050565b600060208201905081810360008301526141f581613bff565b9050919050565b6000602082019050818103600083015261421581613c65565b9050919050565b6000602082019050818103600083015261423581613ca5565b9050919050565b6000602082019050818103600083015261425581613d25565b9050919050565b6000602082019050818103600083015261427581613d8b565b9050919050565b6000602082019050818103600083015261429581613dcb565b9050919050565b600060208201905081810360008301526142b581613e0b565b9050919050565b60006020820190506142d16000830184613e5a565b92915050565b6000604051905081810181811067ffffffffffffffff821117156142fe576142fd6146aa565b5b8060405250919050565b600067ffffffffffffffff821115614323576143226146aa565b5b601f19601f8301169050602081019050919050565b600067ffffffffffffffff821115614353576143526146aa565b5b601f19601f8301169050602081019050919050565b6000819050602082019050919050565b6000819050602082019050919050565b6000819050602082019050919050565b600081519050919050565b600081519050919050565b600081519050919050565b600081519050919050565b600081519050919050565b6000602082019050919050565b6000602082019050919050565b6000602082019050919050565b600082825260208201905092915050565b600082825260208201905092915050565b600082825260208201905092915050565b600082825260208201905092915050565b600081905092915050565b600082825260208201905092915050565b600082825260208201905092915050565b60006144728261455b565b915061447d8361455b565b9250827fffffffffffffffffffffffffffffffffffffffffffffffffffffffffffffffff038211156144b2576144b161464c565b5b828201905092915050565b60006144c88261455b565b91506144d38361455b565b9250828210156144e6576144e561464c565b5b828203905092915050565b60006144fc8261453b565b9050919050565b60008115159050919050565b60007fffffffff0000000000000000000000000000000000000000000000000000000082169050919050565b600073ffffffffffffffffffffffffffffffffffffffff82169050919050565b6000819050919050565b82818337600083830152505050565b60005b83811015614592578082015181840152602081019050614577565b838111156145a1576000848401525b50505050565b60006145b28261455b565b915060008214156145c6576145c561464c565b5b600182039050919050565b600060028204905060018216806145e957607f821691505b602082108114156145fd576145fc61467b565b5b50919050565b600061460e8261455b565b91507fffffffffffffffffffffffffffffffffffffffffffffffffffffffffffffffff8214156146415761464061464c565b5b600182019050919050565b7f4e487b7100000000000000000000000000000000000000000000000000000000600052601160045260246000fd5b7f4e487b7100000000000000000000000000000000000000000000000000000000600052602260045260246000fd5b7f4e487b7100000000000000000000000000000000000000000000000000000000600052604160045260246000fd5b6000601f19601f8301169050919050565b6146f3816144f1565b81146146fe57600080fd5b50565b61470a81614503565b811461471557600080fd5b50565b6147218161450f565b811461472c57600080fd5b50565b6147388161455b565b811461474357600080fd5b5056fea264697066735822122042d979b5653d27895afa6a823aa9466e7336676456a68469a5fa3ddf92baf08e64736f6c63430008000033687474703a2f2f35342e3135332e3138322e31333a333939382f6170692f6e66742f",
  "immutableReferences": {},
  "source": "// SPDX-License-Identifier: MIT\r\n\r\npragma solidity ^0.8.0;\r\n\r\nimport \"@openzeppelin/contracts/access/Ownable.sol\";\r\nimport \"@openzeppelin/contracts/token/ERC721/ERC721.sol\";\r\nimport \"@openzeppelin/contracts/token/ERC721/IERC721Receiver.sol\";\r\n\r\ncontract AuxiunNFT is Ownable, ERC721, IERC721Receiver {\r\n    struct Metadata {\r\n        string game_id;\r\n        string item_id;\r\n    }\r\n\r\n    struct MarketDetails {\r\n        bool forSale;\r\n        uint256 price;\r\n        address seller;\r\n    }\r\n\r\n    // mapping of tokenId to market details\r\n    mapping(uint256 => MarketDetails) id_to_marketDetails;\r\n\r\n    // mapping of tokenId to metadata\r\n    mapping(uint256 => Metadata) id_to_metadata;\r\n\r\n\r\n    // Base URI, aka API link to fetch further metadata of the token\r\n    string private baseURI;\r\n\r\n    // Used as tokenId for a newly minted token and increases by 1\r\n    uint256 private tokenIdCounter = 0;\r\n\r\n    // Number of NFTs on market (Maybe for future use)\r\n    uint256 NFTsOnMarket = 0;\r\n\r\n \r\n    constructor() ERC721(\"AuxiunNFT\", \"AUXN\") {\r\n        // TODO: Setup database api server and set the link here, remember to add the \"/\" at the end of the uri\r\n        baseURI = \"http://54.153.182.13:3998/api/nft/\";\r\n    }\r\n\r\n    function _baseURI() internal view virtual override returns (string memory) {\r\n        return baseURI;\r\n    }\r\n\r\n    function setBaseURI(string memory inputbaseURI) public onlyOwner {\r\n        baseURI = inputbaseURI;\r\n    }\r\n\r\n    // function standard called by NFT marketplaces such as OpenSea\r\n    function tokenURI(uint256 tokenId)\r\n        public\r\n        view\r\n        virtual\r\n        override\r\n        returns (string memory)\r\n    {\r\n        require(_exists(tokenId), \"ERC721Metadata: URI query for nonexistent token\");\r\n        return strConcat(_baseURI(), id_to_metadata[tokenId].game_id, \"/\", id_to_metadata[tokenId].item_id, \"\");\r\n    }\r\n\r\n    function mint(\r\n        string memory game_id,\r\n        string memory item_id\r\n    ) external {\r\n        uint256 tokenId = tokenIdCounter;\r\n        tokenIdCounter++;\r\n        id_to_metadata[tokenId] = Metadata(game_id, item_id);\r\n        _safeMint(msg.sender, tokenId);\r\n    }\r\n\r\n    // String concatenation function\r\n    // original source: https://github.com/provable-things/ethereum-api/blob/master/oraclizeAPI_0.5.sol\r\n    // stack overflow topic: https://ethereum.stackexchange.com/questions/729/how-to-concatenate-strings-in-solidity\r\n    // Notes: reduce the parameters if necessary\r\n    function strConcat(string memory _a, string memory _b, string memory _c, string memory _d, string memory _e) internal pure returns (string memory){\r\n        bytes memory _ba = bytes(_a);\r\n        bytes memory _bb = bytes(_b);\r\n        bytes memory _bc = bytes(_c);\r\n        bytes memory _bd = bytes(_d);\r\n        bytes memory _be = bytes(_e);\r\n        string memory abcde = new string(_ba.length + _bb.length + _bc.length + _bd.length + _be.length);\r\n        bytes memory babcde = bytes(abcde);\r\n        uint k = 0;\r\n        for (uint i = 0; i < _ba.length; i++) babcde[k++] = _ba[i];\r\n        for (uint i = 0; i < _bb.length; i++) babcde[k++] = _bb[i];\r\n        for (uint i = 0; i < _bc.length; i++) babcde[k++] = _bc[i];\r\n        for (uint i = 0; i < _bd.length; i++) babcde[k++] = _bd[i];\r\n        for (uint i = 0; i < _be.length; i++) babcde[k++] = _be[i];\r\n        return string(babcde);\r\n    }\r\n\r\n\r\n    // Modifers\r\n    modifier tokenExists(uint256 tokenId) {\r\n        require(_exists(tokenId), \"Token ID does not exist.\");\r\n        _;\r\n    }\r\n\r\n    modifier belongsToSender(uint256 tokenId){\r\n        require(ownerOf(tokenId) == msg.sender, \"Token does not belong to sender.\");\r\n        _;\r\n    }\r\n\r\n    // Helper Functions for NFTs on the market.\r\n    function _removeNFTfromMarket(uint tokenId) private tokenExists(tokenId) {\r\n        id_to_marketDetails[tokenId] = MarketDetails(false, 0, address(0));\r\n        NFTsOnMarket--;\r\n    }\r\n  \r\n\r\n    // Functions for market place interactions.\r\n    function listNFTOnMarket(uint256 tokenId, uint256 price) external payable tokenExists(tokenId) belongsToSender(tokenId){\r\n        id_to_marketDetails[tokenId] = MarketDetails(true, price, msg.sender);\r\n        NFTsOnMarket++;\r\n\r\n        // transfer ownership of tokenId to this contract\r\n        _safeTransfer(msg.sender, address(this), tokenId, \"\");\r\n    }\r\n\r\n    function removeNFTFromMarket(uint256 tokenId) external tokenExists(tokenId) {\r\n        require(id_to_marketDetails[tokenId].seller == msg.sender, \"Not the original owner of this NFT.\");\r\n        _removeNFTfromMarket(tokenId);\r\n\r\n        // transfer token back to owner\r\n        _safeTransfer(address(this), msg.sender, tokenId, \"\");\r\n    }\r\n\r\n\r\n   // Source: https://ethereum.stackexchange.com/questions/19341/address-send-vs-address-transfer-best-practice-usage/74007#74007\r\n    function purchaseNFT(uint256 tokenId) public payable tokenExists(tokenId) {\r\n        require(id_to_marketDetails[tokenId].seller != msg.sender, \"Can not purchase your own NFTs.\");\r\n        require(id_to_marketDetails[tokenId].forSale, \"NFT not for sale\");\r\n        require(id_to_marketDetails[tokenId].price <= msg.value, \"Insufficient funds for purchase.\");\r\n\r\n        // Remove NFT form market\r\n        _removeNFTfromMarket(tokenId);\r\n\r\n        // Transfer fund from NFT buyer to NFT Seller\r\n        address seller = id_to_marketDetails[tokenId].seller;\r\n        (bool success, ) =  seller.call{value: msg.value}(\"\");\r\n        require(success, \"Failed to send ETH to Seller\");\r\n\r\n        // Transfer token to buyer\r\n        _safeTransfer(address(this), msg.sender, tokenId, \"\");\r\n    }\r\n \r\n    // returns an array of token ids which are listed as forSale\r\n    function _fetchTokenIdsOnMarket() internal view returns(uint256[] memory) {\r\n        // initialize result's array length\r\n        uint256[] memory result = new uint256[](NFTsOnMarket);\r\n        // for loop to fetch all tokenIds where id_to_marketDetails[i].forSale == true\r\n        uint256 counter = 0;\r\n        for (uint256 i = 0; i < tokenIdCounter; i++) {\r\n            // only tokenIds which are for sale will be pushed into the result array\r\n            if (id_to_marketDetails[i].forSale) {\r\n                result[counter] = i;\r\n                counter++;\r\n            }\r\n        }\r\n        return result;\r\n    }\r\n\r\n    // fetch by order: tokenURI, token price, token seller's address\r\n    function fetchNFTDataById(uint256 tokenId) external view returns(string memory, uint256, address) {\r\n        return (tokenURI(tokenId), id_to_marketDetails[tokenId].price, id_to_marketDetails[tokenId].seller);\r\n    }\r\n\r\n    /**\r\n    * Returns 4 arrays of all tokens for sale which are:\r\n    * 1. array of tokenIds\r\n    * 2. array of tokenURIs\r\n    * 3. array of token prices\r\n    * 4. array of token sellers\r\n    */\r\n    function multiCallNFTsOnMarket() external view returns(uint256[] memory, string[] memory, uint256[] memory, address[] memory) {\r\n        // initialize tokenIds' array length\r\n        uint256[] memory tokenIds = new uint256[](NFTsOnMarket);\r\n        // fetch the tokenIds on the market\r\n        tokenIds = _fetchTokenIdsOnMarket();\r\n\r\n        // initialize array for tokenURIs, prices and sellers\r\n        string[] memory tokenURIs = new string[](NFTsOnMarket);\r\n        uint256[] memory tokenPrices = new uint256[](NFTsOnMarket);\r\n        address[] memory tokenSellers = new address[](NFTsOnMarket);\r\n\r\n        // for loop to fetch all data of tokenIds and push into the 3 arrays\r\n        for (uint256 i = 0; i < NFTsOnMarket; i++) {\r\n            tokenURIs[i] = tokenURI(tokenIds[i]);\r\n            tokenPrices[i] = id_to_marketDetails[tokenIds[i]].price;\r\n            tokenSellers[i] = id_to_marketDetails[tokenIds[i]].seller;\r\n        }\r\n        \r\n        return (tokenIds, tokenURIs, tokenPrices, tokenSellers);\r\n    }\r\n\r\n    function kill() public onlyOwner {\r\n        selfdestruct(payable(owner()));\r\n    }\r\n\r\n    receive() external payable {\r\n        // this function enables the contract to receive funds\r\n        // Nothing needed here\r\n    }\r\n\r\n    /** Needed for calling safeTransferFrom */\r\n    function onERC721Received(address, address, uint256, bytes memory) public virtual override returns (bytes4) {\r\n        return this.onERC721Received.selector;\r\n    }\r\n}\r\n",
  "sourcePath": "C:/Users/flooofy/sem_2_2021/PP1/axiun-contracts/contracts/AuxiunNFT.sol",
  "compiler": {
    "name": "solc",
    "version": "0.8.0+commit.c7dfd78e.Emscripten.clang"
  },
  "schemaVersion": "3.4.1",
  "updatedAt": "2021-08-07T01:43:20.406Z",
  "networkType": "ethereum",
  "devdoc": {
    "kind": "dev",
    "methods": {
      "approve(address,uint256)": {
        "details": "See {IERC721-approve}."
      },
      "balanceOf(address)": {
        "details": "See {IERC721-balanceOf}."
      },
      "getApproved(uint256)": {
        "details": "See {IERC721-getApproved}."
      },
      "isApprovedForAll(address,address)": {
        "details": "See {IERC721-isApprovedForAll}."
      },
      "name()": {
        "details": "See {IERC721Metadata-name}."
      },
      "owner()": {
        "details": "Returns the address of the current owner."
      },
      "ownerOf(uint256)": {
        "details": "See {IERC721-ownerOf}."
      },
      "renounceOwnership()": {
        "details": "Leaves the contract without owner. It will not be possible to call `onlyOwner` functions anymore. Can only be called by the current owner. NOTE: Renouncing ownership will leave the contract without an owner, thereby removing any functionality that is only available to the owner."
      },
      "safeTransferFrom(address,address,uint256)": {
        "details": "See {IERC721-safeTransferFrom}."
      },
      "safeTransferFrom(address,address,uint256,bytes)": {
        "details": "See {IERC721-safeTransferFrom}."
      },
      "setApprovalForAll(address,bool)": {
        "details": "See {IERC721-setApprovalForAll}."
      },
      "supportsInterface(bytes4)": {
        "details": "See {IERC165-supportsInterface}."
      },
      "symbol()": {
        "details": "See {IERC721Metadata-symbol}."
      },
      "tokenURI(uint256)": {
        "details": "See {IERC721Metadata-tokenURI}."
      },
      "transferFrom(address,address,uint256)": {
        "details": "See {IERC721-transferFrom}."
      },
      "transferOwnership(address)": {
        "details": "Transfers ownership of the contract to a new account (`newOwner`). Can only be called by the current owner."
      }
    },
    "version": 1
  },
  "userdoc": {
    "kind": "user",
    "methods": {
      "multiCallNFTsOnMarket()": {
        "notice": "Returns 4 arrays of all tokens for sale which are: 1. array of tokenIds 2. array of tokenURIs 3. array of token prices 4. array of token sellers"
      },
      "onERC721Received(address,address,uint256,bytes)": {
        "notice": "Needed for calling safeTransferFrom "
      }
    },
    "version": 1
  }
}