{
  "contractName": "AuxiunNFT",
  "abi": [
    {
      "inputs": [],
      "stateMutability": "nonpayable",
      "type": "constructor"
    },
    {
      "anonymous": false,
      "inputs": [
        {
          "indexed": true,
          "internalType": "address",
          "name": "owner",
          "type": "address"
        },
        {
          "indexed": true,
          "internalType": "address",
          "name": "approved",
          "type": "address"
        },
        {
          "indexed": true,
          "internalType": "uint256",
          "name": "tokenId",
          "type": "uint256"
        }
      ],
      "name": "Approval",
      "type": "event"
    },
    {
      "anonymous": false,
      "inputs": [
        {
          "indexed": true,
          "internalType": "address",
          "name": "owner",
          "type": "address"
        },
        {
          "indexed": true,
          "internalType": "address",
          "name": "operator",
          "type": "address"
        },
        {
          "indexed": false,
          "internalType": "bool",
          "name": "approved",
          "type": "bool"
        }
      ],
      "name": "ApprovalForAll",
      "type": "event"
    },
    {
      "anonymous": false,
      "inputs": [
        {
          "indexed": true,
          "internalType": "address",
          "name": "previousOwner",
          "type": "address"
        },
        {
          "indexed": true,
          "internalType": "address",
          "name": "newOwner",
          "type": "address"
        }
      ],
      "name": "OwnershipTransferred",
      "type": "event"
    },
    {
      "anonymous": false,
      "inputs": [
        {
          "indexed": true,
          "internalType": "address",
          "name": "from",
          "type": "address"
        },
        {
          "indexed": true,
          "internalType": "address",
          "name": "to",
          "type": "address"
        },
        {
          "indexed": true,
          "internalType": "uint256",
          "name": "tokenId",
          "type": "uint256"
        }
      ],
      "name": "Transfer",
      "type": "event"
    },
    {
      "inputs": [
        {
          "internalType": "address",
          "name": "to",
          "type": "address"
        },
        {
          "internalType": "uint256",
          "name": "tokenId",
          "type": "uint256"
        }
      ],
      "name": "approve",
      "outputs": [],
      "stateMutability": "nonpayable",
      "type": "function"
    },
    {
      "inputs": [
        {
          "internalType": "address",
          "name": "owner",
          "type": "address"
        }
      ],
      "name": "balanceOf",
      "outputs": [
        {
          "internalType": "uint256",
          "name": "",
          "type": "uint256"
        }
      ],
      "stateMutability": "view",
      "type": "function"
    },
    {
      "inputs": [
        {
          "internalType": "uint256",
          "name": "tokenId",
          "type": "uint256"
        }
      ],
      "name": "getApproved",
      "outputs": [
        {
          "internalType": "address",
          "name": "",
          "type": "address"
        }
      ],
      "stateMutability": "view",
      "type": "function"
    },
    {
      "inputs": [
        {
          "internalType": "address",
          "name": "owner",
          "type": "address"
        },
        {
          "internalType": "address",
          "name": "operator",
          "type": "address"
        }
      ],
      "name": "isApprovedForAll",
      "outputs": [
        {
          "internalType": "bool",
          "name": "",
          "type": "bool"
        }
      ],
      "stateMutability": "view",
      "type": "function"
    },
    {
      "inputs": [],
      "name": "name",
      "outputs": [
        {
          "internalType": "string",
          "name": "",
          "type": "string"
        }
      ],
      "stateMutability": "view",
      "type": "function"
    },
    {
      "inputs": [],
      "name": "owner",
      "outputs": [
        {
          "internalType": "address",
          "name": "",
          "type": "address"
        }
      ],
      "stateMutability": "view",
      "type": "function"
    },
    {
      "inputs": [
        {
          "internalType": "uint256",
          "name": "tokenId",
          "type": "uint256"
        }
      ],
      "name": "ownerOf",
      "outputs": [
        {
          "internalType": "address",
          "name": "",
          "type": "address"
        }
      ],
      "stateMutability": "view",
      "type": "function"
    },
    {
      "inputs": [],
      "name": "renounceOwnership",
      "outputs": [],
      "stateMutability": "nonpayable",
      "type": "function"
    },
    {
      "inputs": [
        {
          "internalType": "address",
          "name": "from",
          "type": "address"
        },
        {
          "internalType": "address",
          "name": "to",
          "type": "address"
        },
        {
          "internalType": "uint256",
          "name": "tokenId",
          "type": "uint256"
        }
      ],
      "name": "safeTransferFrom",
      "outputs": [],
      "stateMutability": "nonpayable",
      "type": "function"
    },
    {
      "inputs": [
        {
          "internalType": "address",
          "name": "from",
          "type": "address"
        },
        {
          "internalType": "address",
          "name": "to",
          "type": "address"
        },
        {
          "internalType": "uint256",
          "name": "tokenId",
          "type": "uint256"
        },
        {
          "internalType": "bytes",
          "name": "_data",
          "type": "bytes"
        }
      ],
      "name": "safeTransferFrom",
      "outputs": [],
      "stateMutability": "nonpayable",
      "type": "function"
    },
    {
      "inputs": [
        {
          "internalType": "address",
          "name": "operator",
          "type": "address"
        },
        {
          "internalType": "bool",
          "name": "approved",
          "type": "bool"
        }
      ],
      "name": "setApprovalForAll",
      "outputs": [],
      "stateMutability": "nonpayable",
      "type": "function"
    },
    {
      "inputs": [
        {
          "internalType": "bytes4",
          "name": "interfaceId",
          "type": "bytes4"
        }
      ],
      "name": "supportsInterface",
      "outputs": [
        {
          "internalType": "bool",
          "name": "",
          "type": "bool"
        }
      ],
      "stateMutability": "view",
      "type": "function"
    },
    {
      "inputs": [],
      "name": "symbol",
      "outputs": [
        {
          "internalType": "string",
          "name": "",
          "type": "string"
        }
      ],
      "stateMutability": "view",
      "type": "function"
    },
    {
      "inputs": [
        {
          "internalType": "address",
          "name": "from",
          "type": "address"
        },
        {
          "internalType": "address",
          "name": "to",
          "type": "address"
        },
        {
          "internalType": "uint256",
          "name": "tokenId",
          "type": "uint256"
        }
      ],
      "name": "transferFrom",
      "outputs": [],
      "stateMutability": "nonpayable",
      "type": "function"
    },
    {
      "inputs": [
        {
          "internalType": "address",
          "name": "newOwner",
          "type": "address"
        }
      ],
      "name": "transferOwnership",
      "outputs": [],
      "stateMutability": "nonpayable",
      "type": "function"
    },
    {
      "inputs": [
        {
          "internalType": "string",
          "name": "inputbaseURI",
          "type": "string"
        }
      ],
      "name": "setBaseURI",
      "outputs": [],
      "stateMutability": "nonpayable",
      "type": "function"
    },
    {
      "inputs": [
        {
          "internalType": "uint256",
          "name": "tokenId",
          "type": "uint256"
        }
      ],
      "name": "tokenURI",
      "outputs": [
        {
          "internalType": "string",
          "name": "",
          "type": "string"
        }
      ],
      "stateMutability": "view",
      "type": "function"
    },
    {
      "inputs": [
        {
          "internalType": "string",
          "name": "game_id",
          "type": "string"
        },
        {
          "internalType": "string",
          "name": "item_id",
          "type": "string"
        }
      ],
      "name": "mint",
      "outputs": [],
      "stateMutability": "nonpayable",
      "type": "function"
    }
  ],
  "bytecode": "0x608060405260006009553480156200001657600080fd5b506040518060400160405280600981526020017f41757869756e4e465400000000000000000000000000000000000000000000008152506040518060400160405280600481526020017f4155584e00000000000000000000000000000000000000000000000000000000815250620000a3620000976200012b60201b60201c565b6200013360201b60201c565b8160019080519060200190620000bb929190620001f7565b508060029080519060200190620000d4929190620001f7565b5050506040518060400160405280600d81526020017f68747470733a2f2f746f646f2f000000000000000000000000000000000000008152506008908051906020019062000124929190620001f7565b506200030c565b600033905090565b60008060009054906101000a900473ffffffffffffffffffffffffffffffffffffffff169050816000806101000a81548173ffffffffffffffffffffffffffffffffffffffff021916908373ffffffffffffffffffffffffffffffffffffffff1602179055508173ffffffffffffffffffffffffffffffffffffffff168173ffffffffffffffffffffffffffffffffffffffff167f8be0079c531659141344cd1fd0a4f28419497f9722a3daafe3b4186f6b6457e060405160405180910390a35050565b8280546200020590620002a7565b90600052602060002090601f01602090048101928262000229576000855562000275565b82601f106200024457805160ff191683800117855562000275565b8280016001018555821562000275579182015b828111156200027457825182559160200191906001019062000257565b5b50905062000284919062000288565b5090565b5b80821115620002a357600081600090555060010162000289565b5090565b60006002820490506001821680620002c057607f821691505b60208210811415620002d757620002d6620002dd565b5b50919050565b7f4e487b7100000000000000000000000000000000000000000000000000000000600052602260045260246000fd5b61314d806200031c6000396000f3fe608060405234801561001057600080fd5b50600436106101165760003560e01c8063715018a6116100a2578063a22cb46511610071578063a22cb465146102cb578063b88d4fde146102e7578063c87b56dd14610303578063e985e9c514610333578063f2fde38b1461036357610116565b8063715018a6146102695780638aa0fdad146102735780638da5cb5b1461028f57806395d89b41146102ad57610116565b806323b872dd116100e957806323b872dd146101b557806342842e0e146101d157806355f804b3146101ed5780636352211e1461020957806370a082311461023957610116565b806301ffc9a71461011b57806306fdde031461014b578063081812fc14610169578063095ea7b314610199575b600080fd5b6101356004803603810190610130919061234b565b61037f565b6040516101429190612b41565b60405180910390f35b610153610461565b6040516101609190612b5c565b60405180910390f35b610183600480360381019061017e919061244a565b6104f3565b6040516101909190612ada565b60405180910390f35b6101b360048036038101906101ae919061230f565b610578565b005b6101cf60048036038101906101ca9190612209565b610690565b005b6101eb60048036038101906101e69190612209565b6106f0565b005b6102076004803603810190610202919061239d565b610710565b005b610223600480360381019061021e919061244a565b6107a6565b6040516102309190612ada565b60405180910390f35b610253600480360381019061024e91906121a4565b610858565b6040516102609190612d7e565b60405180910390f35b610271610910565b005b61028d600480360381019061028891906123de565b610998565b005b610297610a2b565b6040516102a49190612ada565b60405180910390f35b6102b5610a54565b6040516102c29190612b5c565b60405180910390f35b6102e560048036038101906102e091906122d3565b610ae6565b005b61030160048036038101906102fc9190612258565b610c67565b005b61031d6004803603810190610318919061244a565b610cc9565b60405161032a9190612b5c565b60405180910390f35b61034d600480360381019061034891906121cd565b610eae565b60405161035a9190612b41565b60405180910390f35b61037d600480360381019061037891906121a4565b610f42565b005b60007f80ac58cd000000000000000000000000000000000000000000000000000000007bffffffffffffffffffffffffffffffffffffffffffffffffffffffff1916827bffffffffffffffffffffffffffffffffffffffffffffffffffffffff1916148061044a57507f5b5e139f000000000000000000000000000000000000000000000000000000007bffffffffffffffffffffffffffffffffffffffffffffffffffffffff1916827bffffffffffffffffffffffffffffffffffffffffffffffffffffffff1916145b8061045a57506104598261103a565b5b9050919050565b60606001805461047090612fa2565b80601f016020809104026020016040519081016040528092919081815260200182805461049c90612fa2565b80156104e95780601f106104be576101008083540402835291602001916104e9565b820191906000526020600020905b8154815290600101906020018083116104cc57829003601f168201915b5050505050905090565b60006104fe826110a4565b61053d576040517f08c379a000000000000000000000000000000000000000000000000000000000815260040161053490612cbe565b60405180910390fd5b6005600083815260200190815260200160002060009054906101000a900473ffffffffffffffffffffffffffffffffffffffff169050919050565b6000610583826107a6565b90508073ffffffffffffffffffffffffffffffffffffffff168373ffffffffffffffffffffffffffffffffffffffff1614156105f4576040517f08c379a00000000000000000000000000000000000000000000000000000000081526004016105eb90612d3e565b60405180910390fd5b8073ffffffffffffffffffffffffffffffffffffffff16610613611110565b73ffffffffffffffffffffffffffffffffffffffff16148061064257506106418161063c611110565b610eae565b5b610681576040517f08c379a000000000000000000000000000000000000000000000000000000000815260040161067890612c3e565b60405180910390fd5b61068b8383611118565b505050565b6106a161069b611110565b826111d1565b6106e0576040517f08c379a00000000000000000000000000000000000000000000000000000000081526004016106d790612d5e565b60405180910390fd5b6106eb8383836112af565b505050565b61070b83838360405180602001604052806000815250610c67565b505050565b610718611110565b73ffffffffffffffffffffffffffffffffffffffff16610736610a2b565b73ffffffffffffffffffffffffffffffffffffffff161461078c576040517f08c379a000000000000000000000000000000000000000000000000000000000815260040161078390612cde565b60405180910390fd5b80600890805190602001906107a2929190611fc8565b5050565b6000806003600084815260200190815260200160002060009054906101000a900473ffffffffffffffffffffffffffffffffffffffff169050600073ffffffffffffffffffffffffffffffffffffffff168173ffffffffffffffffffffffffffffffffffffffff16141561084f576040517f08c379a000000000000000000000000000000000000000000000000000000000815260040161084690612c7e565b60405180910390fd5b80915050919050565b60008073ffffffffffffffffffffffffffffffffffffffff168273ffffffffffffffffffffffffffffffffffffffff1614156108c9576040517f08c379a00000000000000000000000000000000000000000000000000000000081526004016108c090612c5e565b60405180910390fd5b600460008373ffffffffffffffffffffffffffffffffffffffff1673ffffffffffffffffffffffffffffffffffffffff168152602001908152602001600020549050919050565b610918611110565b73ffffffffffffffffffffffffffffffffffffffff16610936610a2b565b73ffffffffffffffffffffffffffffffffffffffff161461098c576040517f08c379a000000000000000000000000000000000000000000000000000000000815260040161098390612cde565b60405180910390fd5b610996600061150b565b565b60006009549050600960008154809291906109b290612fd4565b91905055506040518060400160405280848152602001838152506007600083815260200190815260200160002060008201518160000190805190602001906109fb929190611fc8565b506020820151816001019080519060200190610a18929190611fc8565b50905050610a2633826115cf565b505050565b60008060009054906101000a900473ffffffffffffffffffffffffffffffffffffffff16905090565b606060028054610a6390612fa2565b80601f0160208091040260200160405190810160405280929190818152602001828054610a8f90612fa2565b8015610adc5780601f10610ab157610100808354040283529160200191610adc565b820191906000526020600020905b815481529060010190602001808311610abf57829003601f168201915b5050505050905090565b610aee611110565b73ffffffffffffffffffffffffffffffffffffffff168273ffffffffffffffffffffffffffffffffffffffff161415610b5c576040517f08c379a0000000000000000000000000000000000000000000000000000000008152600401610b5390612bfe565b60405180910390fd5b8060066000610b69611110565b73ffffffffffffffffffffffffffffffffffffffff1673ffffffffffffffffffffffffffffffffffffffff16815260200190815260200160002060008473ffffffffffffffffffffffffffffffffffffffff1673ffffffffffffffffffffffffffffffffffffffff16815260200190815260200160002060006101000a81548160ff0219169083151502179055508173ffffffffffffffffffffffffffffffffffffffff16610c16611110565b73ffffffffffffffffffffffffffffffffffffffff167f17307eab39ab6107e8899845ad3d59bd9653f200f220920489ca2b5937696c3183604051610c5b9190612b41565b60405180910390a35050565b610c78610c72611110565b836111d1565b610cb7576040517f08c379a0000000000000000000000000000000000000000000000000000000008152600401610cae90612d5e565b60405180910390fd5b610cc3848484846115ed565b50505050565b6060610cd4826110a4565b610d13576040517f08c379a0000000000000000000000000000000000000000000000000000000008152600401610d0a90612d1e565b60405180910390fd5b610ea7610d1e611649565b600760008581526020019081526020016000206000018054610d3f90612fa2565b80601f0160208091040260200160405190810160405280929190818152602001828054610d6b90612fa2565b8015610db85780601f10610d8d57610100808354040283529160200191610db8565b820191906000526020600020905b815481529060010190602001808311610d9b57829003601f168201915b50505050506040518060400160405280600181526020017f2f00000000000000000000000000000000000000000000000000000000000000815250600760008781526020019081526020016000206001018054610e1490612fa2565b80601f0160208091040260200160405190810160405280929190818152602001828054610e4090612fa2565b8015610e8d5780601f10610e6257610100808354040283529160200191610e8d565b820191906000526020600020905b815481529060010190602001808311610e7057829003601f168201915b5050505050604051806020016040528060008152506116db565b9050919050565b6000600660008473ffffffffffffffffffffffffffffffffffffffff1673ffffffffffffffffffffffffffffffffffffffff16815260200190815260200160002060008373ffffffffffffffffffffffffffffffffffffffff1673ffffffffffffffffffffffffffffffffffffffff16815260200190815260200160002060009054906101000a900460ff16905092915050565b610f4a611110565b73ffffffffffffffffffffffffffffffffffffffff16610f68610a2b565b73ffffffffffffffffffffffffffffffffffffffff1614610fbe576040517f08c379a0000000000000000000000000000000000000000000000000000000008152600401610fb590612cde565b60405180910390fd5b600073ffffffffffffffffffffffffffffffffffffffff168173ffffffffffffffffffffffffffffffffffffffff16141561102e576040517f08c379a000000000000000000000000000000000000000000000000000000000815260040161102590612b9e565b60405180910390fd5b6110378161150b565b50565b60007f01ffc9a7000000000000000000000000000000000000000000000000000000007bffffffffffffffffffffffffffffffffffffffffffffffffffffffff1916827bffffffffffffffffffffffffffffffffffffffffffffffffffffffff1916149050919050565b60008073ffffffffffffffffffffffffffffffffffffffff166003600084815260200190815260200160002060009054906101000a900473ffffffffffffffffffffffffffffffffffffffff1673ffffffffffffffffffffffffffffffffffffffff1614159050919050565b600033905090565b816005600083815260200190815260200160002060006101000a81548173ffffffffffffffffffffffffffffffffffffffff021916908373ffffffffffffffffffffffffffffffffffffffff160217905550808273ffffffffffffffffffffffffffffffffffffffff1661118b836107a6565b73ffffffffffffffffffffffffffffffffffffffff167f8c5be1e5ebec7d5bd14f71427d1e84f3dd0314c0f7b2291e5b200ac8c7c3b92560405160405180910390a45050565b60006111dc826110a4565b61121b576040517f08c379a000000000000000000000000000000000000000000000000000000000815260040161121290612c1e565b60405180910390fd5b6000611226836107a6565b90508073ffffffffffffffffffffffffffffffffffffffff168473ffffffffffffffffffffffffffffffffffffffff16148061129557508373ffffffffffffffffffffffffffffffffffffffff1661127d846104f3565b73ffffffffffffffffffffffffffffffffffffffff16145b806112a657506112a58185610eae565b5b91505092915050565b8273ffffffffffffffffffffffffffffffffffffffff166112cf826107a6565b73ffffffffffffffffffffffffffffffffffffffff1614611325576040517f08c379a000000000000000000000000000000000000000000000000000000000815260040161131c90612cfe565b60405180910390fd5b600073ffffffffffffffffffffffffffffffffffffffff168273ffffffffffffffffffffffffffffffffffffffff161415611395576040517f08c379a000000000000000000000000000000000000000000000000000000000815260040161138c90612bde565b60405180910390fd5b6113a0838383611bf0565b6113ab600082611118565b6001600460008573ffffffffffffffffffffffffffffffffffffffff1673ffffffffffffffffffffffffffffffffffffffff16815260200190815260200160002060008282546113fb9190612eb8565b925050819055506001600460008473ffffffffffffffffffffffffffffffffffffffff1673ffffffffffffffffffffffffffffffffffffffff16815260200190815260200160002060008282546114529190612e62565b92505081905550816003600083815260200190815260200160002060006101000a81548173ffffffffffffffffffffffffffffffffffffffff021916908373ffffffffffffffffffffffffffffffffffffffff160217905550808273ffffffffffffffffffffffffffffffffffffffff168473ffffffffffffffffffffffffffffffffffffffff167fddf252ad1be2c89b69c2b068fc378daa952ba7f163c4a11628f55a4df523b3ef60405160405180910390a4505050565b60008060009054906101000a900473ffffffffffffffffffffffffffffffffffffffff169050816000806101000a81548173ffffffffffffffffffffffffffffffffffffffff021916908373ffffffffffffffffffffffffffffffffffffffff1602179055508173ffffffffffffffffffffffffffffffffffffffff168173ffffffffffffffffffffffffffffffffffffffff167f8be0079c531659141344cd1fd0a4f28419497f9722a3daafe3b4186f6b6457e060405160405180910390a35050565b6115e9828260405180602001604052806000815250611bf5565b5050565b6115f88484846112af565b61160484848484611c50565b611643576040517f08c379a000000000000000000000000000000000000000000000000000000000815260040161163a90612b7e565b60405180910390fd5b50505050565b60606008805461165890612fa2565b80601f016020809104026020016040519081016040528092919081815260200182805461168490612fa2565b80156116d15780601f106116a6576101008083540402835291602001916116d1565b820191906000526020600020905b8154815290600101906020018083116116b457829003601f168201915b5050505050905090565b60606000869050600086905060008690506000869050600086905060008151835185518751895161170c9190612e62565b6117169190612e62565b6117209190612e62565b61172a9190612e62565b67ffffffffffffffff811115611769577f4e487b7100000000000000000000000000000000000000000000000000000000600052604160045260246000fd5b6040519080825280601f01601f19166020018201604052801561179b5781602001600182028036833780820191505090505b50905060008190506000805b885181101561187b578881815181106117e9577f4e487b7100000000000000000000000000000000000000000000000000000000600052603260045260246000fd5b602001015160f81c60f81b83838061180090612fd4565b945081518110611839577f4e487b7100000000000000000000000000000000000000000000000000000000600052603260045260246000fd5b60200101907effffffffffffffffffffffffffffffffffffffffffffffffffffffffffffff1916908160001a905350808061187390612fd4565b9150506117a7565b5060005b8751811015611953578781815181106118c1577f4e487b7100000000000000000000000000000000000000000000000000000000600052603260045260246000fd5b602001015160f81c60f81b8383806118d890612fd4565b945081518110611911577f4e487b7100000000000000000000000000000000000000000000000000000000600052603260045260246000fd5b60200101907effffffffffffffffffffffffffffffffffffffffffffffffffffffffffffff1916908160001a905350808061194b90612fd4565b91505061187f565b5060005b8651811015611a2b57868181518110611999577f4e487b7100000000000000000000000000000000000000000000000000000000600052603260045260246000fd5b602001015160f81c60f81b8383806119b090612fd4565b9450815181106119e9577f4e487b7100000000000000000000000000000000000000000000000000000000600052603260045260246000fd5b60200101907effffffffffffffffffffffffffffffffffffffffffffffffffffffffffffff1916908160001a9053508080611a2390612fd4565b915050611957565b5060005b8551811015611b0357858181518110611a71577f4e487b7100000000000000000000000000000000000000000000000000000000600052603260045260246000fd5b602001015160f81c60f81b838380611a8890612fd4565b945081518110611ac1577f4e487b7100000000000000000000000000000000000000000000000000000000600052603260045260246000fd5b60200101907effffffffffffffffffffffffffffffffffffffffffffffffffffffffffffff1916908160001a9053508080611afb90612fd4565b915050611a2f565b5060005b8451811015611bdb57848181518110611b49577f4e487b7100000000000000000000000000000000000000000000000000000000600052603260045260246000fd5b602001015160f81c60f81b838380611b6090612fd4565b945081518110611b99577f4e487b7100000000000000000000000000000000000000000000000000000000600052603260045260246000fd5b60200101907effffffffffffffffffffffffffffffffffffffffffffffffffffffffffffff1916908160001a9053508080611bd390612fd4565b915050611b07565b50819850505050505050505095945050505050565b505050565b611bff8383611de7565b611c0c6000848484611c50565b611c4b576040517f08c379a0000000000000000000000000000000000000000000000000000000008152600401611c4290612b7e565b60405180910390fd5b505050565b6000611c718473ffffffffffffffffffffffffffffffffffffffff16611fb5565b15611dda578373ffffffffffffffffffffffffffffffffffffffff1663150b7a02611c9a611110565b8786866040518563ffffffff1660e01b8152600401611cbc9493929190612af5565b602060405180830381600087803b158015611cd657600080fd5b505af1925050508015611d0757506040513d601f19601f82011682018060405250810190611d049190612374565b60015b611d8a573d8060008114611d37576040519150601f19603f3d011682016040523d82523d6000602084013e611d3c565b606091505b50600081511415611d82576040517f08c379a0000000000000000000000000000000000000000000000000000000008152600401611d7990612b7e565b60405180910390fd5b805181602001fd5b63150b7a0260e01b7bffffffffffffffffffffffffffffffffffffffffffffffffffffffff1916817bffffffffffffffffffffffffffffffffffffffffffffffffffffffff191614915050611ddf565b600190505b949350505050565b600073ffffffffffffffffffffffffffffffffffffffff168273ffffffffffffffffffffffffffffffffffffffff161415611e57576040517f08c379a0000000000000000000000000000000000000000000000000000000008152600401611e4e90612c9e565b60405180910390fd5b611e60816110a4565b15611ea0576040517f08c379a0000000000000000000000000000000000000000000000000000000008152600401611e9790612bbe565b60405180910390fd5b611eac60008383611bf0565b6001600460008473ffffffffffffffffffffffffffffffffffffffff1673ffffffffffffffffffffffffffffffffffffffff1681526020019081526020016000206000828254611efc9190612e62565b92505081905550816003600083815260200190815260200160002060006101000a81548173ffffffffffffffffffffffffffffffffffffffff021916908373ffffffffffffffffffffffffffffffffffffffff160217905550808273ffffffffffffffffffffffffffffffffffffffff16600073ffffffffffffffffffffffffffffffffffffffff167fddf252ad1be2c89b69c2b068fc378daa952ba7f163c4a11628f55a4df523b3ef60405160405180910390a45050565b600080823b905060008111915050919050565b828054611fd490612fa2565b90600052602060002090601f016020900481019282611ff6576000855561203d565b82601f1061200f57805160ff191683800117855561203d565b8280016001018555821561203d579182015b8281111561203c578251825591602001919060010190612021565b5b50905061204a919061204e565b5090565b5b8082111561206757600081600090555060010161204f565b5090565b600061207e61207984612dca565b612d99565b90508281526020810184848401111561209657600080fd5b6120a1848285612f60565b509392505050565b60006120bc6120b784612dfa565b612d99565b9050828152602081018484840111156120d457600080fd5b6120df848285612f60565b509392505050565b6000813590506120f6816130bb565b92915050565b60008135905061210b816130d2565b92915050565b600081359050612120816130e9565b92915050565b600081519050612135816130e9565b92915050565b600082601f83011261214c57600080fd5b813561215c84826020860161206b565b91505092915050565b600082601f83011261217657600080fd5b81356121868482602086016120a9565b91505092915050565b60008135905061219e81613100565b92915050565b6000602082840312156121b657600080fd5b60006121c4848285016120e7565b91505092915050565b600080604083850312156121e057600080fd5b60006121ee858286016120e7565b92505060206121ff858286016120e7565b9150509250929050565b60008060006060848603121561221e57600080fd5b600061222c868287016120e7565b935050602061223d868287016120e7565b925050604061224e8682870161218f565b9150509250925092565b6000806000806080858703121561226e57600080fd5b600061227c878288016120e7565b945050602061228d878288016120e7565b935050604061229e8782880161218f565b925050606085013567ffffffffffffffff8111156122bb57600080fd5b6122c78782880161213b565b91505092959194509250565b600080604083850312156122e657600080fd5b60006122f4858286016120e7565b9250506020612305858286016120fc565b9150509250929050565b6000806040838503121561232257600080fd5b6000612330858286016120e7565b92505060206123418582860161218f565b9150509250929050565b60006020828403121561235d57600080fd5b600061236b84828501612111565b91505092915050565b60006020828403121561238657600080fd5b600061239484828501612126565b91505092915050565b6000602082840312156123af57600080fd5b600082013567ffffffffffffffff8111156123c957600080fd5b6123d584828501612165565b91505092915050565b600080604083850312156123f157600080fd5b600083013567ffffffffffffffff81111561240b57600080fd5b61241785828601612165565b925050602083013567ffffffffffffffff81111561243457600080fd5b61244085828601612165565b9150509250929050565b60006020828403121561245c57600080fd5b600061246a8482850161218f565b91505092915050565b61247c81612eec565b82525050565b61248b81612efe565b82525050565b600061249c82612e2a565b6124a68185612e40565b93506124b6818560208601612f6f565b6124bf816130aa565b840191505092915050565b60006124d582612e35565b6124df8185612e51565b93506124ef818560208601612f6f565b6124f8816130aa565b840191505092915050565b6000612510603283612e51565b91507f4552433732313a207472616e7366657220746f206e6f6e20455243373231526560008301527f63656976657220696d706c656d656e74657200000000000000000000000000006020830152604082019050919050565b6000612576602683612e51565b91507f4f776e61626c653a206e6577206f776e657220697320746865207a65726f206160008301527f64647265737300000000000000000000000000000000000000000000000000006020830152604082019050919050565b60006125dc601c83612e51565b91507f4552433732313a20746f6b656e20616c7265616479206d696e746564000000006000830152602082019050919050565b600061261c602483612e51565b91507f4552433732313a207472616e7366657220746f20746865207a65726f2061646460008301527f72657373000000000000000000000000000000000000000000000000000000006020830152604082019050919050565b6000612682601983612e51565b91507f4552433732313a20617070726f766520746f2063616c6c6572000000000000006000830152602082019050919050565b60006126c2602c83612e51565b91507f4552433732313a206f70657261746f7220717565727920666f72206e6f6e657860008301527f697374656e7420746f6b656e00000000000000000000000000000000000000006020830152604082019050919050565b6000612728603883612e51565b91507f4552433732313a20617070726f76652063616c6c6572206973206e6f74206f7760008301527f6e6572206e6f7220617070726f76656420666f7220616c6c00000000000000006020830152604082019050919050565b600061278e602a83612e51565b91507f4552433732313a2062616c616e636520717565727920666f7220746865207a6560008301527f726f2061646472657373000000000000000000000000000000000000000000006020830152604082019050919050565b60006127f4602983612e51565b91507f4552433732313a206f776e657220717565727920666f72206e6f6e657869737460008301527f656e7420746f6b656e00000000000000000000000000000000000000000000006020830152604082019050919050565b600061285a602083612e51565b91507f4552433732313a206d696e7420746f20746865207a65726f20616464726573736000830152602082019050919050565b600061289a602c83612e51565b91507f4552433732313a20617070726f76656420717565727920666f72206e6f6e657860008301527f697374656e7420746f6b656e00000000000000000000000000000000000000006020830152604082019050919050565b6000612900602083612e51565b91507f4f776e61626c653a2063616c6c6572206973206e6f7420746865206f776e65726000830152602082019050919050565b6000612940602983612e51565b91507f4552433732313a207472616e73666572206f6620746f6b656e2074686174206960008301527f73206e6f74206f776e00000000000000000000000000000000000000000000006020830152604082019050919050565b60006129a6602f83612e51565b91507f4552433732314d657461646174613a2055524920717565727920666f72206e6f60008301527f6e6578697374656e7420746f6b656e00000000000000000000000000000000006020830152604082019050919050565b6000612a0c602183612e51565b91507f4552433732313a20617070726f76616c20746f2063757272656e74206f776e6560008301527f72000000000000000000000000000000000000000000000000000000000000006020830152604082019050919050565b6000612a72603183612e51565b91507f4552433732313a207472616e736665722063616c6c6572206973206e6f74206f60008301527f776e6572206e6f7220617070726f7665640000000000000000000000000000006020830152604082019050919050565b612ad481612f56565b82525050565b6000602082019050612aef6000830184612473565b92915050565b6000608082019050612b0a6000830187612473565b612b176020830186612473565b612b246040830185612acb565b8181036060830152612b368184612491565b905095945050505050565b6000602082019050612b566000830184612482565b92915050565b60006020820190508181036000830152612b7681846124ca565b905092915050565b60006020820190508181036000830152612b9781612503565b9050919050565b60006020820190508181036000830152612bb781612569565b9050919050565b60006020820190508181036000830152612bd7816125cf565b9050919050565b60006020820190508181036000830152612bf78161260f565b9050919050565b60006020820190508181036000830152612c1781612675565b9050919050565b60006020820190508181036000830152612c37816126b5565b9050919050565b60006020820190508181036000830152612c578161271b565b9050919050565b60006020820190508181036000830152612c7781612781565b9050919050565b60006020820190508181036000830152612c97816127e7565b9050919050565b60006020820190508181036000830152612cb78161284d565b9050919050565b60006020820190508181036000830152612cd78161288d565b9050919050565b60006020820190508181036000830152612cf7816128f3565b9050919050565b60006020820190508181036000830152612d1781612933565b9050919050565b60006020820190508181036000830152612d3781612999565b9050919050565b60006020820190508181036000830152612d57816129ff565b9050919050565b60006020820190508181036000830152612d7781612a65565b9050919050565b6000602082019050612d936000830184612acb565b92915050565b6000604051905081810181811067ffffffffffffffff82111715612dc057612dbf61307b565b5b8060405250919050565b600067ffffffffffffffff821115612de557612de461307b565b5b601f19601f8301169050602081019050919050565b600067ffffffffffffffff821115612e1557612e1461307b565b5b601f19601f8301169050602081019050919050565b600081519050919050565b600081519050919050565b600082825260208201905092915050565b600082825260208201905092915050565b6000612e6d82612f56565b9150612e7883612f56565b9250827fffffffffffffffffffffffffffffffffffffffffffffffffffffffffffffffff03821115612ead57612eac61301d565b5b828201905092915050565b6000612ec382612f56565b9150612ece83612f56565b925082821015612ee157612ee061301d565b5b828203905092915050565b6000612ef782612f36565b9050919050565b60008115159050919050565b60007fffffffff0000000000000000000000000000000000000000000000000000000082169050919050565b600073ffffffffffffffffffffffffffffffffffffffff82169050919050565b6000819050919050565b82818337600083830152505050565b60005b83811015612f8d578082015181840152602081019050612f72565b83811115612f9c576000848401525b50505050565b60006002820490506001821680612fba57607f821691505b60208210811415612fce57612fcd61304c565b5b50919050565b6000612fdf82612f56565b91507fffffffffffffffffffffffffffffffffffffffffffffffffffffffffffffffff8214156130125761301161301d565b5b600182019050919050565b7f4e487b7100000000000000000000000000000000000000000000000000000000600052601160045260246000fd5b7f4e487b7100000000000000000000000000000000000000000000000000000000600052602260045260246000fd5b7f4e487b7100000000000000000000000000000000000000000000000000000000600052604160045260246000fd5b6000601f19601f8301169050919050565b6130c481612eec565b81146130cf57600080fd5b50565b6130db81612efe565b81146130e657600080fd5b50565b6130f281612f0a565b81146130fd57600080fd5b50565b61310981612f56565b811461311457600080fd5b5056fea2646970667358221220599a44056a52e45b05149c7edf7bda479e0c6b80ce966e2e868d26868d87099264736f6c63430008000033",
  "immutableReferences": {},
  "source": "// SPDX-License-Identifier: MIT\r\n\r\npragma solidity ^0.8.0;\r\n\r\nimport \"@openzeppelin/contracts/access/Ownable.sol\";\r\nimport \"@openzeppelin/contracts/token/ERC721/ERC721.sol\";\r\n\r\ncontract AuxiunNFT is Ownable, ERC721 {\r\n    struct Metadata {\r\n        string game_id;\r\n        string item_id;\r\n    }\r\n\r\n    // mapping of tokenId to metadata\r\n    mapping(uint256 => Metadata) id_to_metadata;\r\n\r\n    // Base URI, aka API link to fetch further metadata of the token\r\n    string private baseURI;\r\n\r\n    // Used as tokenId for a newly minted token and increases by 1\r\n    uint256 private tokenIdCounter = 0;\r\n\r\n    constructor() ERC721(\"AuxiunNFT\", \"AUXN\") {\r\n        // TODO: Setup database api server and set the link here, remember to add the \"/\" at the end of the uri\r\n        baseURI = \"https://todo/\";\r\n    }\r\n\r\n    function _baseURI() internal view virtual override returns (string memory) {\r\n        return baseURI;\r\n    }\r\n\r\n    function setBaseURI(string memory inputbaseURI) public onlyOwner {\r\n        baseURI = inputbaseURI;\r\n    }\r\n\r\n    // function standard called by NFT marketplaces such as OpenSea\r\n    function tokenURI(uint256 tokenId)\r\n        public\r\n        view\r\n        virtual\r\n        override\r\n        returns (string memory)\r\n    {\r\n        require(_exists(tokenId), \"ERC721Metadata: URI query for nonexistent token\");\r\n\r\n        return strConcat(_baseURI(), id_to_metadata[tokenId].game_id, \"/\", id_to_metadata[tokenId].item_id, \"\");\r\n    }\r\n\r\n    function mint(\r\n        string memory game_id,\r\n        string memory item_id\r\n    ) external {\r\n        uint256 tokenId = tokenIdCounter;\r\n        tokenIdCounter++;\r\n        id_to_metadata[tokenId] = Metadata(game_id, item_id);\r\n\r\n        _safeMint(msg.sender, tokenId);\r\n    }\r\n\r\n    // String concatenation function\r\n    // original source: https://github.com/provable-things/ethereum-api/blob/master/oraclizeAPI_0.5.sol\r\n    // stack overflow topic: https://ethereum.stackexchange.com/questions/729/how-to-concatenate-strings-in-solidity\r\n    // Notes: reduce the parameters if necessary\r\n    function strConcat(string memory _a, string memory _b, string memory _c, string memory _d, string memory _e) internal pure returns (string memory){\r\n        bytes memory _ba = bytes(_a);\r\n        bytes memory _bb = bytes(_b);\r\n        bytes memory _bc = bytes(_c);\r\n        bytes memory _bd = bytes(_d);\r\n        bytes memory _be = bytes(_e);\r\n        string memory abcde = new string(_ba.length + _bb.length + _bc.length + _bd.length + _be.length);\r\n        bytes memory babcde = bytes(abcde);\r\n        uint k = 0;\r\n        for (uint i = 0; i < _ba.length; i++) babcde[k++] = _ba[i];\r\n        for (uint i = 0; i < _bb.length; i++) babcde[k++] = _bb[i];\r\n        for (uint i = 0; i < _bc.length; i++) babcde[k++] = _bc[i];\r\n        for (uint i = 0; i < _bd.length; i++) babcde[k++] = _bd[i];\r\n        for (uint i = 0; i < _be.length; i++) babcde[k++] = _be[i];\r\n        return string(babcde);\r\n    }\r\n}\r\n",
  "sourcePath": "C:/Users/flooofy/sem_2_2021/PP1/axiun-contracts/contracts/AuxiunNFT.sol",
  "compiler": {
    "name": "solc",
    "version": "0.8.0+commit.c7dfd78e.Emscripten.clang"
  },
  "schemaVersion": "3.4.1",
  "updatedAt": "2021-07-29T10:40:04.344Z",
  "devdoc": {
    "kind": "dev",
    "methods": {
      "approve(address,uint256)": {
        "details": "See {IERC721-approve}."
      },
      "balanceOf(address)": {
        "details": "See {IERC721-balanceOf}."
      },
      "getApproved(uint256)": {
        "details": "See {IERC721-getApproved}."
      },
      "isApprovedForAll(address,address)": {
        "details": "See {IERC721-isApprovedForAll}."
      },
      "name()": {
        "details": "See {IERC721Metadata-name}."
      },
      "owner()": {
        "details": "Returns the address of the current owner."
      },
      "ownerOf(uint256)": {
        "details": "See {IERC721-ownerOf}."
      },
      "renounceOwnership()": {
        "details": "Leaves the contract without owner. It will not be possible to call `onlyOwner` functions anymore. Can only be called by the current owner. NOTE: Renouncing ownership will leave the contract without an owner, thereby removing any functionality that is only available to the owner."
      },
      "safeTransferFrom(address,address,uint256)": {
        "details": "See {IERC721-safeTransferFrom}."
      },
      "safeTransferFrom(address,address,uint256,bytes)": {
        "details": "See {IERC721-safeTransferFrom}."
      },
      "setApprovalForAll(address,bool)": {
        "details": "See {IERC721-setApprovalForAll}."
      },
      "supportsInterface(bytes4)": {
        "details": "See {IERC165-supportsInterface}."
      },
      "symbol()": {
        "details": "See {IERC721Metadata-symbol}."
      },
      "tokenURI(uint256)": {
        "details": "See {IERC721Metadata-tokenURI}."
      },
      "transferFrom(address,address,uint256)": {
        "details": "See {IERC721-transferFrom}."
      },
      "transferOwnership(address)": {
        "details": "Transfers ownership of the contract to a new account (`newOwner`). Can only be called by the current owner."
      }
    },
    "version": 1
  },
  "userdoc": {
    "kind": "user",
    "methods": {},
    "version": 1
  }
}