{
  "contractName": "AuxiunNFT",
  "abi": [
    {
      "inputs": [],
      "stateMutability": "nonpayable",
      "type": "constructor"
    },
    {
      "anonymous": false,
      "inputs": [
        {
          "indexed": true,
          "internalType": "address",
          "name": "owner",
          "type": "address"
        },
        {
          "indexed": true,
          "internalType": "address",
          "name": "approved",
          "type": "address"
        },
        {
          "indexed": true,
          "internalType": "uint256",
          "name": "tokenId",
          "type": "uint256"
        }
      ],
      "name": "Approval",
      "type": "event"
    },
    {
      "anonymous": false,
      "inputs": [
        {
          "indexed": true,
          "internalType": "address",
          "name": "owner",
          "type": "address"
        },
        {
          "indexed": true,
          "internalType": "address",
          "name": "operator",
          "type": "address"
        },
        {
          "indexed": false,
          "internalType": "bool",
          "name": "approved",
          "type": "bool"
        }
      ],
      "name": "ApprovalForAll",
      "type": "event"
    },
    {
      "anonymous": false,
      "inputs": [
        {
          "indexed": true,
          "internalType": "address",
          "name": "previousOwner",
          "type": "address"
        },
        {
          "indexed": true,
          "internalType": "address",
          "name": "newOwner",
          "type": "address"
        }
      ],
      "name": "OwnershipTransferred",
      "type": "event"
    },
    {
      "anonymous": false,
      "inputs": [
        {
          "indexed": true,
          "internalType": "address",
          "name": "from",
          "type": "address"
        },
        {
          "indexed": true,
          "internalType": "address",
          "name": "to",
          "type": "address"
        },
        {
          "indexed": true,
          "internalType": "uint256",
          "name": "tokenId",
          "type": "uint256"
        }
      ],
      "name": "Transfer",
      "type": "event"
    },
    {
      "inputs": [
        {
          "internalType": "address",
          "name": "to",
          "type": "address"
        },
        {
          "internalType": "uint256",
          "name": "tokenId",
          "type": "uint256"
        }
      ],
      "name": "approve",
      "outputs": [],
      "stateMutability": "nonpayable",
      "type": "function"
    },
    {
      "inputs": [
        {
          "internalType": "address",
          "name": "owner",
          "type": "address"
        }
      ],
      "name": "balanceOf",
      "outputs": [
        {
          "internalType": "uint256",
          "name": "",
          "type": "uint256"
        }
      ],
      "stateMutability": "view",
      "type": "function",
      "constant": true
    },
    {
      "inputs": [
        {
          "internalType": "uint256",
          "name": "tokenId",
          "type": "uint256"
        }
      ],
      "name": "getApproved",
      "outputs": [
        {
          "internalType": "address",
          "name": "",
          "type": "address"
        }
      ],
      "stateMutability": "view",
      "type": "function",
      "constant": true
    },
    {
      "inputs": [
        {
          "internalType": "address",
          "name": "owner",
          "type": "address"
        },
        {
          "internalType": "address",
          "name": "operator",
          "type": "address"
        }
      ],
      "name": "isApprovedForAll",
      "outputs": [
        {
          "internalType": "bool",
          "name": "",
          "type": "bool"
        }
      ],
      "stateMutability": "view",
      "type": "function",
      "constant": true
    },
    {
      "inputs": [],
      "name": "name",
      "outputs": [
        {
          "internalType": "string",
          "name": "",
          "type": "string"
        }
      ],
      "stateMutability": "view",
      "type": "function",
      "constant": true
    },
    {
      "inputs": [],
      "name": "owner",
      "outputs": [
        {
          "internalType": "address",
          "name": "",
          "type": "address"
        }
      ],
      "stateMutability": "view",
      "type": "function",
      "constant": true
    },
    {
      "inputs": [
        {
          "internalType": "uint256",
          "name": "tokenId",
          "type": "uint256"
        }
      ],
      "name": "ownerOf",
      "outputs": [
        {
          "internalType": "address",
          "name": "",
          "type": "address"
        }
      ],
      "stateMutability": "view",
      "type": "function",
      "constant": true
    },
    {
      "inputs": [],
      "name": "renounceOwnership",
      "outputs": [],
      "stateMutability": "nonpayable",
      "type": "function"
    },
    {
      "inputs": [
        {
          "internalType": "address",
          "name": "from",
          "type": "address"
        },
        {
          "internalType": "address",
          "name": "to",
          "type": "address"
        },
        {
          "internalType": "uint256",
          "name": "tokenId",
          "type": "uint256"
        }
      ],
      "name": "safeTransferFrom",
      "outputs": [],
      "stateMutability": "nonpayable",
      "type": "function"
    },
    {
      "inputs": [
        {
          "internalType": "address",
          "name": "from",
          "type": "address"
        },
        {
          "internalType": "address",
          "name": "to",
          "type": "address"
        },
        {
          "internalType": "uint256",
          "name": "tokenId",
          "type": "uint256"
        },
        {
          "internalType": "bytes",
          "name": "_data",
          "type": "bytes"
        }
      ],
      "name": "safeTransferFrom",
      "outputs": [],
      "stateMutability": "nonpayable",
      "type": "function"
    },
    {
      "inputs": [
        {
          "internalType": "address",
          "name": "operator",
          "type": "address"
        },
        {
          "internalType": "bool",
          "name": "approved",
          "type": "bool"
        }
      ],
      "name": "setApprovalForAll",
      "outputs": [],
      "stateMutability": "nonpayable",
      "type": "function"
    },
    {
      "inputs": [
        {
          "internalType": "bytes4",
          "name": "interfaceId",
          "type": "bytes4"
        }
      ],
      "name": "supportsInterface",
      "outputs": [
        {
          "internalType": "bool",
          "name": "",
          "type": "bool"
        }
      ],
      "stateMutability": "view",
      "type": "function",
      "constant": true
    },
    {
      "inputs": [],
      "name": "symbol",
      "outputs": [
        {
          "internalType": "string",
          "name": "",
          "type": "string"
        }
      ],
      "stateMutability": "view",
      "type": "function",
      "constant": true
    },
    {
      "inputs": [
        {
          "internalType": "address",
          "name": "from",
          "type": "address"
        },
        {
          "internalType": "address",
          "name": "to",
          "type": "address"
        },
        {
          "internalType": "uint256",
          "name": "tokenId",
          "type": "uint256"
        }
      ],
      "name": "transferFrom",
      "outputs": [],
      "stateMutability": "nonpayable",
      "type": "function"
    },
    {
      "inputs": [
        {
          "internalType": "address",
          "name": "newOwner",
          "type": "address"
        }
      ],
      "name": "transferOwnership",
      "outputs": [],
      "stateMutability": "nonpayable",
      "type": "function"
    },
    {
      "stateMutability": "payable",
      "type": "receive",
      "payable": true
    },
    {
      "inputs": [
        {
          "internalType": "string",
          "name": "inputbaseURI",
          "type": "string"
        }
      ],
      "name": "setBaseURI",
      "outputs": [],
      "stateMutability": "nonpayable",
      "type": "function"
    },
    {
      "inputs": [
        {
          "internalType": "uint256",
          "name": "tokenId",
          "type": "uint256"
        }
      ],
      "name": "tokenURI",
      "outputs": [
        {
          "internalType": "string",
          "name": "",
          "type": "string"
        }
      ],
      "stateMutability": "view",
      "type": "function",
      "constant": true
    },
    {
      "inputs": [
        {
          "internalType": "address",
          "name": "to",
          "type": "address"
        },
        {
          "internalType": "string",
          "name": "game_id",
          "type": "string"
        },
        {
          "internalType": "string",
          "name": "item_id",
          "type": "string"
        }
      ],
      "name": "mint",
      "outputs": [],
      "stateMutability": "nonpayable",
      "type": "function"
    },
    {
      "inputs": [
        {
          "internalType": "address",
          "name": "_address",
          "type": "address"
        }
      ],
      "name": "addAdminAddress",
      "outputs": [],
      "stateMutability": "nonpayable",
      "type": "function"
    },
    {
      "inputs": [
        {
          "internalType": "address",
          "name": "_address",
          "type": "address"
        }
      ],
      "name": "removeAdminAddress",
      "outputs": [],
      "stateMutability": "nonpayable",
      "type": "function"
    },
    {
      "inputs": [
        {
          "internalType": "address",
          "name": "_address",
          "type": "address"
        }
      ],
      "name": "isAdminAddress",
      "outputs": [
        {
          "internalType": "bool",
          "name": "",
          "type": "bool"
        }
      ],
      "stateMutability": "view",
      "type": "function",
      "constant": true
    },
    {
      "inputs": [
        {
          "internalType": "uint256",
          "name": "tokenId",
          "type": "uint256"
        },
        {
          "internalType": "uint256",
          "name": "price",
          "type": "uint256"
        }
      ],
      "name": "listNFTOnMarket",
      "outputs": [],
      "stateMutability": "payable",
      "type": "function",
      "payable": true
    },
    {
      "inputs": [
        {
          "internalType": "uint256",
          "name": "tokenId",
          "type": "uint256"
        }
      ],
      "name": "removeNFTFromMarket",
      "outputs": [],
      "stateMutability": "nonpayable",
      "type": "function"
    },
    {
      "inputs": [
        {
          "internalType": "uint256",
          "name": "tokenId",
          "type": "uint256"
        }
      ],
      "name": "purchaseNFT",
      "outputs": [
        {
          "internalType": "address",
          "name": "",
          "type": "address"
        },
        {
          "internalType": "address",
          "name": "",
          "type": "address"
        },
        {
          "internalType": "uint256",
          "name": "",
          "type": "uint256"
        },
        {
          "internalType": "uint256",
          "name": "",
          "type": "uint256"
        }
      ],
      "stateMutability": "payable",
      "type": "function",
      "payable": true
    },
    {
      "inputs": [
        {
          "internalType": "uint256",
          "name": "tokenId",
          "type": "uint256"
        }
      ],
      "name": "fetchNFTDataById",
      "outputs": [
        {
          "internalType": "string",
          "name": "",
          "type": "string"
        },
        {
          "internalType": "uint256",
          "name": "",
          "type": "uint256"
        },
        {
          "internalType": "address",
          "name": "",
          "type": "address"
        }
      ],
      "stateMutability": "view",
      "type": "function",
      "constant": true
    },
    {
      "inputs": [
        {
          "internalType": "address",
          "name": "seller",
          "type": "address"
        }
      ],
      "name": "multiCallNFTsOnMarket",
      "outputs": [
        {
          "internalType": "uint256[]",
          "name": "",
          "type": "uint256[]"
        },
        {
          "internalType": "string[]",
          "name": "",
          "type": "string[]"
        },
        {
          "internalType": "uint256[]",
          "name": "",
          "type": "uint256[]"
        },
        {
          "internalType": "address[]",
          "name": "",
          "type": "address[]"
        }
      ],
      "stateMutability": "view",
      "type": "function",
      "constant": true
    },
    {
      "inputs": [],
      "name": "multiCallNFTsOnMarket",
      "outputs": [
        {
          "internalType": "uint256[]",
          "name": "",
          "type": "uint256[]"
        },
        {
          "internalType": "string[]",
          "name": "",
          "type": "string[]"
        },
        {
          "internalType": "uint256[]",
          "name": "",
          "type": "uint256[]"
        },
        {
          "internalType": "address[]",
          "name": "",
          "type": "address[]"
        }
      ],
      "stateMutability": "view",
      "type": "function",
      "constant": true
    },
    {
      "inputs": [
        {
          "internalType": "address",
          "name": "user",
          "type": "address"
        }
      ],
      "name": "multiCallTransactionDataByUser",
      "outputs": [
        {
          "internalType": "uint256[]",
          "name": "",
          "type": "uint256[]"
        },
        {
          "internalType": "uint256[]",
          "name": "",
          "type": "uint256[]"
        },
        {
          "internalType": "address[]",
          "name": "",
          "type": "address[]"
        },
        {
          "internalType": "address[]",
          "name": "",
          "type": "address[]"
        },
        {
          "internalType": "uint256[]",
          "name": "",
          "type": "uint256[]"
        },
        {
          "internalType": "uint256[]",
          "name": "",
          "type": "uint256[]"
        }
      ],
      "stateMutability": "view",
      "type": "function",
      "constant": true
    },
    {
      "inputs": [],
      "name": "kill",
      "outputs": [],
      "stateMutability": "nonpayable",
      "type": "function"
    },
    {
      "inputs": [
        {
          "internalType": "address",
          "name": "",
          "type": "address"
        },
        {
          "internalType": "address",
          "name": "",
          "type": "address"
        },
        {
          "internalType": "uint256",
          "name": "",
          "type": "uint256"
        },
        {
          "internalType": "bytes",
          "name": "",
          "type": "bytes"
        }
      ],
      "name": "onERC721Received",
      "outputs": [
        {
          "internalType": "bytes4",
          "name": "",
          "type": "bytes4"
        }
      ],
      "stateMutability": "nonpayable",
      "type": "function"
    }
  ],
  "bytecode": "0x60806040526000600d556000600e553480156200001b57600080fd5b506040518060400160405280600981526020017f41757869756e4e465400000000000000000000000000000000000000000000008152506040518060400160405280600481526020017f4155584e00000000000000000000000000000000000000000000000000000000815250620000a86200009c6200011460201b60201c565b6200011c60201b60201c565b8160019080519060200190620000c0929190620001e0565b508060029080519060200190620000d9929190620001e0565b5050506040518060600160405280602281526020016200606c60229139600c90805190602001906200010d929190620001e0565b50620002f5565b600033905090565b60008060009054906101000a900473ffffffffffffffffffffffffffffffffffffffff169050816000806101000a81548173ffffffffffffffffffffffffffffffffffffffff021916908373ffffffffffffffffffffffffffffffffffffffff1602179055508173ffffffffffffffffffffffffffffffffffffffff168173ffffffffffffffffffffffffffffffffffffffff167f8be0079c531659141344cd1fd0a4f28419497f9722a3daafe3b4186f6b6457e060405160405180910390a35050565b828054620001ee9062000290565b90600052602060002090601f0160209004810192826200021257600085556200025e565b82601f106200022d57805160ff19168380011785556200025e565b828001600101855582156200025e579182015b828111156200025d57825182559160200191906001019062000240565b5b5090506200026d919062000271565b5090565b5b808211156200028c57600081600090555060010162000272565b5090565b60006002820490506001821680620002a957607f821691505b60208210811415620002c057620002bf620002c6565b5b50919050565b7f4e487b7100000000000000000000000000000000000000000000000000000000600052602260045260246000fd5b615d6780620003056000396000f3fe6080604052600436106101d05760003560e01c8063715018a6116100f75780639907119011610095578063b88d4fde11610064578063b88d4fde146106a8578063c87b56dd146106d1578063e985e9c51461070e578063f2fde38b1461074b576101d7565b806399071190146105d557806399eca17d146105fe5780639a81930314610640578063a22cb4651461067f576101d7565b80637e20b6ea116100d15780637e20b6ea146105285780638da5cb5b14610556578063951011811461058157806395d89b41146105aa576101d7565b8063715018a6146104b5578063741e0320146104cc5780637bb73563146104e8576101d7565b8063150bde031161016f57806342842e0e1161013e57806342842e0e146103e957806355f804b3146104125780636352211e1461043b57806370a0823114610478576101d7565b8063150bde031461034d5780631684fd241461038057806323b872dd146103a957806341c0e1b5146103d2576101d7565b806306fdde03116101ab57806306fdde031461027f578063081812fc146102aa578063095ea7b3146102e7578063150b7a0214610310576101d7565b80624fba00146101dc57806301ffc9a7146102055780630236bb5a14610242576101d7565b366101d757005b600080fd5b3480156101e857600080fd5b5061020360048036038101906101fe919061459e565b610774565b005b34801561021157600080fd5b5061022c600480360381019061022791906147c4565b61084b565b6040516102399190615511565b60405180910390f35b34801561024e57600080fd5b506102696004803603810190610264919061459e565b61092d565b6040516102769190615511565b60405180910390f35b34801561028b57600080fd5b50610294610983565b6040516102a19190615547565b60405180910390f35b3480156102b657600080fd5b506102d160048036038101906102cc9190614857565b610a15565b6040516102de9190615379565b60405180910390f35b3480156102f357600080fd5b5061030e60048036038101906103099190614788565b610a9a565b005b34801561031c57600080fd5b5061033760048036038101906103329190614652565b610bb2565b604051610344919061552c565b60405180910390f35b61036760048036038101906103629190614857565b610bc6565b60405161037794939291906153e0565b60405180910390f35b34801561038c57600080fd5b506103a760048036038101906103a29190614857565b611089565b005b3480156103b557600080fd5b506103d060048036038101906103cb9190614603565b61119e565b005b3480156103de57600080fd5b506103e76111fe565b005b3480156103f557600080fd5b50610410600480360381019061040b9190614603565b61129a565b005b34801561041e57600080fd5b5061043960048036038101906104349190614816565b6112ba565b005b34801561044757600080fd5b50610462600480360381019061045d9190614857565b611350565b60405161046f9190615379565b60405180910390f35b34801561048457600080fd5b5061049f600480360381019061049a919061459e565b611402565b6040516104ac91906158a7565b60405180910390f35b3480156104c157600080fd5b506104ca6114ba565b005b6104e660048036038101906104e19190614880565b611542565b005b3480156104f457600080fd5b5061050f600480360381019061050a919061459e565b6116f6565b60405161051f9493929190615425565b60405180910390f35b34801561053457600080fd5b5061053d611bcf565b60405161054d9493929190615425565b60405180910390f35b34801561056257600080fd5b5061056b612002565b6040516105789190615379565b60405180910390f35b34801561058d57600080fd5b506105a860048036038101906105a3919061459e565b61202b565b005b3480156105b657600080fd5b506105bf612102565b6040516105cc9190615547565b60405180910390f35b3480156105e157600080fd5b506105fc60048036038101906105f79190614709565b612194565b005b34801561060a57600080fd5b506106256004803603810190610620919061459e565b6122b4565b60405161063796959493929190615486565b60405180910390f35b34801561064c57600080fd5b5061066760048036038101906106629190614857565b612c36565b60405161067693929190615569565b60405180910390f35b34801561068b57600080fd5b506106a660048036038101906106a191906146cd565b612c9f565b005b3480156106b457600080fd5b506106cf60048036038101906106ca9190614652565b612e20565b005b3480156106dd57600080fd5b506106f860048036038101906106f39190614857565b612e82565b6040516107059190615547565b60405180910390f35b34801561071a57600080fd5b50610735600480360381019061073091906145c7565b613067565b6040516107429190615511565b60405180910390f35b34801561075757600080fd5b50610772600480360381019061076d919061459e565b6130fb565b005b61077c6131f3565b73ffffffffffffffffffffffffffffffffffffffff1661079a612002565b73ffffffffffffffffffffffffffffffffffffffff16146107f0576040517f08c379a00000000000000000000000000000000000000000000000000000000081526004016107e790615787565b60405180910390fd5b6001600b60008373ffffffffffffffffffffffffffffffffffffffff1673ffffffffffffffffffffffffffffffffffffffff16815260200190815260200160002060006101000a81548160ff02191690831515021790555050565b60007f80ac58cd000000000000000000000000000000000000000000000000000000007bffffffffffffffffffffffffffffffffffffffffffffffffffffffff1916827bffffffffffffffffffffffffffffffffffffffffffffffffffffffff1916148061091657507f5b5e139f000000000000000000000000000000000000000000000000000000007bffffffffffffffffffffffffffffffffffffffffffffffffffffffff1916827bffffffffffffffffffffffffffffffffffffffffffffffffffffffff1916145b806109265750610925826131fb565b5b9050919050565b6000600b60008373ffffffffffffffffffffffffffffffffffffffff1673ffffffffffffffffffffffffffffffffffffffff16815260200190815260200160002060009054906101000a900460ff169050919050565b60606001805461099290615bbc565b80601f01602080910402602001604051908101604052809291908181526020018280546109be90615bbc565b8015610a0b5780601f106109e057610100808354040283529160200191610a0b565b820191906000526020600020905b8154815290600101906020018083116109ee57829003601f168201915b5050505050905090565b6000610a2082613265565b610a5f576040517f08c379a0000000000000000000000000000000000000000000000000000000008152600401610a5690615767565b60405180910390fd5b6005600083815260200190815260200160002060009054906101000a900473ffffffffffffffffffffffffffffffffffffffff169050919050565b6000610aa582611350565b90508073ffffffffffffffffffffffffffffffffffffffff168373ffffffffffffffffffffffffffffffffffffffff161415610b16576040517f08c379a0000000000000000000000000000000000000000000000000000000008152600401610b0d90615807565b60405180910390fd5b8073ffffffffffffffffffffffffffffffffffffffff16610b356131f3565b73ffffffffffffffffffffffffffffffffffffffff161480610b645750610b6381610b5e6131f3565b613067565b5b610ba3576040517f08c379a0000000000000000000000000000000000000000000000000000000008152600401610b9a906156e7565b60405180910390fd5b610bad83836132d1565b505050565b600063150b7a0260e01b9050949350505050565b60008060008084610bd681613265565b610c15576040517f08c379a0000000000000000000000000000000000000000000000000000000008152600401610c0c90615867565b60405180910390fd5b3373ffffffffffffffffffffffffffffffffffffffff166007600088815260200190815260200160002060020160009054906101000a900473ffffffffffffffffffffffffffffffffffffffff1673ffffffffffffffffffffffffffffffffffffffff161415610cba576040517f08c379a0000000000000000000000000000000000000000000000000000000008152600401610cb1906155a7565b60405180910390fd5b6007600087815260200190815260200160002060000160009054906101000a900460ff16610d1d576040517f08c379a0000000000000000000000000000000000000000000000000000000008152600401610d14906157e7565b60405180910390fd5b3460076000888152602001908152602001600020600101541115610d76576040517f08c379a0000000000000000000000000000000000000000000000000000000008152600401610d6d90615847565b60405180910390fd5b60006007600088815260200190815260200160002060020160009054906101000a900473ffffffffffffffffffffffffffffffffffffffff169050600060076000898152602001908152602001600020600101549050610dd58861338a565b60008273ffffffffffffffffffffffffffffffffffffffff1634604051610dfb90615364565b60006040518083038185875af1925050503d8060008114610e38576040519150601f19603f3d011682016040523d82523d6000602084013e610e3d565b606091505b5050905080610e81576040517f08c379a0000000000000000000000000000000000000000000000000000000008152600401610e7890615887565b60405180910390fd5b610e9c30338b604051806020016040528060008152506134ac565b60096040518060a001604052808b81526020013373ffffffffffffffffffffffffffffffffffffffff1681526020018573ffffffffffffffffffffffffffffffffffffffff1681526020018481526020014281525090806001815401808255809150506001900390600052602060002090600502016000909190919091506000820151816000015560208201518160010160006101000a81548173ffffffffffffffffffffffffffffffffffffffff021916908373ffffffffffffffffffffffffffffffffffffffff16021790555060408201518160020160006101000a81548173ffffffffffffffffffffffffffffffffffffffff021916908373ffffffffffffffffffffffffffffffffffffffff16021790555060608201518160030155608082015181600401555050600a60003373ffffffffffffffffffffffffffffffffffffffff1673ffffffffffffffffffffffffffffffffffffffff168152602001908152602001600020600081548092919061101890615bee565b9190505550600a60008473ffffffffffffffffffffffffffffffffffffffff1673ffffffffffffffffffffffffffffffffffffffff168152602001908152602001600020600081548092919061106d90615bee565b919050555033838a349750975097509750505050509193509193565b8061109381613265565b6110d2576040517f08c379a00000000000000000000000000000000000000000000000000000000081526004016110c990615867565b60405180910390fd5b3373ffffffffffffffffffffffffffffffffffffffff166007600084815260200190815260200160002060020160009054906101000a900473ffffffffffffffffffffffffffffffffffffffff1673ffffffffffffffffffffffffffffffffffffffff1614611176576040517f08c379a000000000000000000000000000000000000000000000000000000000815260040161116d906156a7565b60405180910390fd5b61117f8261338a565b61119a303384604051806020016040528060008152506134ac565b5050565b6111af6111a96131f3565b82613508565b6111ee576040517f08c379a00000000000000000000000000000000000000000000000000000000081526004016111e590615827565b60405180910390fd5b6111f98383836135e6565b505050565b6112066131f3565b73ffffffffffffffffffffffffffffffffffffffff16611224612002565b73ffffffffffffffffffffffffffffffffffffffff161461127a576040517f08c379a000000000000000000000000000000000000000000000000000000000815260040161127190615787565b60405180910390fd5b611282612002565b73ffffffffffffffffffffffffffffffffffffffff16ff5b6112b583838360405180602001604052806000815250612e20565b505050565b6112c26131f3565b73ffffffffffffffffffffffffffffffffffffffff166112e0612002565b73ffffffffffffffffffffffffffffffffffffffff1614611336576040517f08c379a000000000000000000000000000000000000000000000000000000000815260040161132d90615787565b60405180910390fd5b80600c908051906020019061134c9291906143c2565b5050565b6000806003600084815260200190815260200160002060009054906101000a900473ffffffffffffffffffffffffffffffffffffffff169050600073ffffffffffffffffffffffffffffffffffffffff168173ffffffffffffffffffffffffffffffffffffffff1614156113f9576040517f08c379a00000000000000000000000000000000000000000000000000000000081526004016113f090615727565b60405180910390fd5b80915050919050565b60008073ffffffffffffffffffffffffffffffffffffffff168273ffffffffffffffffffffffffffffffffffffffff161415611473576040517f08c379a000000000000000000000000000000000000000000000000000000000815260040161146a90615707565b60405180910390fd5b600460008373ffffffffffffffffffffffffffffffffffffffff1673ffffffffffffffffffffffffffffffffffffffff168152602001908152602001600020549050919050565b6114c26131f3565b73ffffffffffffffffffffffffffffffffffffffff166114e0612002565b73ffffffffffffffffffffffffffffffffffffffff1614611536576040517f08c379a000000000000000000000000000000000000000000000000000000000815260040161152d90615787565b60405180910390fd5b6115406000613842565b565b8161154c81613265565b61158b576040517f08c379a000000000000000000000000000000000000000000000000000000000815260040161158290615867565b60405180910390fd5b823373ffffffffffffffffffffffffffffffffffffffff166115ac82611350565b73ffffffffffffffffffffffffffffffffffffffff1614611602576040517f08c379a00000000000000000000000000000000000000000000000000000000081526004016115f9906155c7565b60405180910390fd5b60405180606001604052806001151581526020018481526020013373ffffffffffffffffffffffffffffffffffffffff168152506007600086815260200190815260200160002060008201518160000160006101000a81548160ff0219169083151502179055506020820151816001015560408201518160020160006101000a81548173ffffffffffffffffffffffffffffffffffffffff021916908373ffffffffffffffffffffffffffffffffffffffff160217905550905050600e60008154809291906116d090615bee565b91905055506116f0333086604051806020016040528060008152506134ac565b50505050565b606080606080600061170786611402565b67ffffffffffffffff811115611746577f4e487b7100000000000000000000000000000000000000000000000000000000600052604160045260246000fd5b6040519080825280602002602001820160405280156117745781602001602082028036833780820191505090505b50905061177f613906565b9050600061178c87611402565b67ffffffffffffffff8111156117cb577f4e487b7100000000000000000000000000000000000000000000000000000000600052604160045260246000fd5b6040519080825280602002602001820160405280156117fe57816020015b60608152602001906001900390816117e95790505b509050600061180c88611402565b67ffffffffffffffff81111561184b577f4e487b7100000000000000000000000000000000000000000000000000000000600052604160045260246000fd5b6040519080825280602002602001820160405280156118795781602001602082028036833780820191505090505b509050600061188789611402565b67ffffffffffffffff8111156118c6577f4e487b7100000000000000000000000000000000000000000000000000000000600052604160045260246000fd5b6040519080825280602002602001820160405280156118f45781602001602082028036833780820191505090505b5090506000805b600e54811015611bb65761194e868281518110611941577f4e487b7100000000000000000000000000000000000000000000000000000000600052603260045260246000fd5b6020026020010151611350565b73ffffffffffffffffffffffffffffffffffffffff168b73ffffffffffffffffffffffffffffffffffffffff161415611ba3576119ca8682815181106119bd577f4e487b7100000000000000000000000000000000000000000000000000000000600052603260045260246000fd5b6020026020010151612e82565b858381518110611a03577f4e487b7100000000000000000000000000000000000000000000000000000000600052603260045260246000fd5b602002602001018190525060076000878381518110611a4b577f4e487b7100000000000000000000000000000000000000000000000000000000600052603260045260246000fd5b6020026020010151815260200190815260200160002060010154848381518110611a9e577f4e487b7100000000000000000000000000000000000000000000000000000000600052603260045260246000fd5b60200260200101818152505060076000878381518110611ae7577f4e487b7100000000000000000000000000000000000000000000000000000000600052603260045260246000fd5b6020026020010151815260200190815260200160002060020160009054906101000a900473ffffffffffffffffffffffffffffffffffffffff16838381518110611b5a577f4e487b7100000000000000000000000000000000000000000000000000000000600052603260045260246000fd5b602002602001019073ffffffffffffffffffffffffffffffffffffffff16908173ffffffffffffffffffffffffffffffffffffffff16815250508180611b9f90615bee565b9250505b8080611bae90615bee565b9150506118fb565b5084848484985098509850985050505050509193509193565b6060806060806000600e5467ffffffffffffffff811115611c19577f4e487b7100000000000000000000000000000000000000000000000000000000600052604160045260246000fd5b604051908082528060200260200182016040528015611c475781602001602082028036833780820191505090505b509050611c52613906565b90506000600e5467ffffffffffffffff811115611c98577f4e487b7100000000000000000000000000000000000000000000000000000000600052604160045260246000fd5b604051908082528060200260200182016040528015611ccb57816020015b6060815260200190600190039081611cb65790505b5090506000600e5467ffffffffffffffff811115611d12577f4e487b7100000000000000000000000000000000000000000000000000000000600052604160045260246000fd5b604051908082528060200260200182016040528015611d405781602001602082028036833780820191505090505b5090506000600e5467ffffffffffffffff811115611d87577f4e487b7100000000000000000000000000000000000000000000000000000000600052604160045260246000fd5b604051908082528060200260200182016040528015611db55781602001602082028036833780820191505090505b50905060005b600e54811015611feb57611e0e858281518110611e01577f4e487b7100000000000000000000000000000000000000000000000000000000600052603260045260246000fd5b6020026020010151612e82565b848281518110611e47577f4e487b7100000000000000000000000000000000000000000000000000000000600052603260045260246000fd5b602002602001018190525060076000868381518110611e8f577f4e487b7100000000000000000000000000000000000000000000000000000000600052603260045260246000fd5b6020026020010151815260200190815260200160002060010154838281518110611ee2577f4e487b7100000000000000000000000000000000000000000000000000000000600052603260045260246000fd5b60200260200101818152505060076000868381518110611f2b577f4e487b7100000000000000000000000000000000000000000000000000000000600052603260045260246000fd5b6020026020010151815260200190815260200160002060020160009054906101000a900473ffffffffffffffffffffffffffffffffffffffff16828281518110611f9e577f4e487b7100000000000000000000000000000000000000000000000000000000600052603260045260246000fd5b602002602001019073ffffffffffffffffffffffffffffffffffffffff16908173ffffffffffffffffffffffffffffffffffffffff16815250508080611fe390615bee565b915050611dbb565b508383838397509750975097505050505090919293565b60008060009054906101000a900473ffffffffffffffffffffffffffffffffffffffff16905090565b6120336131f3565b73ffffffffffffffffffffffffffffffffffffffff16612051612002565b73ffffffffffffffffffffffffffffffffffffffff16146120a7576040517f08c379a000000000000000000000000000000000000000000000000000000000815260040161209e90615787565b60405180910390fd5b6000600b60008373ffffffffffffffffffffffffffffffffffffffff1673ffffffffffffffffffffffffffffffffffffffff16815260200190815260200160002060006101000a81548160ff02191690831515021790555050565b60606002805461211190615bbc565b80601f016020809104026020016040519081016040528092919081815260200182805461213d90615bbc565b801561218a5780601f1061215f5761010080835404028352916020019161218a565b820191906000526020600020905b81548152906001019060200180831161216d57829003601f168201915b5050505050905090565b600b60003373ffffffffffffffffffffffffffffffffffffffff1673ffffffffffffffffffffffffffffffffffffffff16815260200190815260200160002060009054906101000a900460ff16612220576040517f08c379a000000000000000000000000000000000000000000000000000000000815260040161221790615647565b60405180910390fd5b6000600d549050600d600081548092919061223a90615bee565b91905055506040518060400160405280848152602001838152506008600083815260200190815260200160002060008201518160000190805190602001906122839291906143c2565b5060208201518160010190805190602001906122a09291906143c2565b509050506122ae8482613a25565b50505050565b6060806060806060806000600a60008973ffffffffffffffffffffffffffffffffffffffff1673ffffffffffffffffffffffffffffffffffffffff1681526020019081526020016000205467ffffffffffffffff81111561233e577f4e487b7100000000000000000000000000000000000000000000000000000000600052604160045260246000fd5b60405190808252806020026020018201604052801561236c5781602001602082028036833780820191505090505b5090506000600a60008a73ffffffffffffffffffffffffffffffffffffffff1673ffffffffffffffffffffffffffffffffffffffff1681526020019081526020016000205467ffffffffffffffff8111156123f0577f4e487b7100000000000000000000000000000000000000000000000000000000600052604160045260246000fd5b60405190808252806020026020018201604052801561241e5781602001602082028036833780820191505090505b5090506000600a60008b73ffffffffffffffffffffffffffffffffffffffff1673ffffffffffffffffffffffffffffffffffffffff1681526020019081526020016000205467ffffffffffffffff8111156124a2577f4e487b7100000000000000000000000000000000000000000000000000000000600052604160045260246000fd5b6040519080825280602002602001820160405280156124d05781602001602082028036833780820191505090505b5090506000600a60008c73ffffffffffffffffffffffffffffffffffffffff1673ffffffffffffffffffffffffffffffffffffffff1681526020019081526020016000205467ffffffffffffffff811115612554577f4e487b7100000000000000000000000000000000000000000000000000000000600052604160045260246000fd5b6040519080825280602002602001820160405280156125825781602001602082028036833780820191505090505b5090506000600a60008d73ffffffffffffffffffffffffffffffffffffffff1673ffffffffffffffffffffffffffffffffffffffff1681526020019081526020016000205467ffffffffffffffff811115612606577f4e487b7100000000000000000000000000000000000000000000000000000000600052604160045260246000fd5b6040519080825280602002602001820160405280156126345781602001602082028036833780820191505090505b5090506000600a60008e73ffffffffffffffffffffffffffffffffffffffff1673ffffffffffffffffffffffffffffffffffffffff1681526020019081526020016000205467ffffffffffffffff8111156126b8577f4e487b7100000000000000000000000000000000000000000000000000000000600052604160045260246000fd5b6040519080825280602002602001820160405280156126e65781602001602082028036833780820191505090505b5090506000805b600980549050811015612c135760098181548110612734577f4e487b7100000000000000000000000000000000000000000000000000000000600052603260045260246000fd5b906000526020600020906005020160010160009054906101000a900473ffffffffffffffffffffffffffffffffffffffff1673ffffffffffffffffffffffffffffffffffffffff168f73ffffffffffffffffffffffffffffffffffffffff1614806128355750600981815481106127d4577f4e487b7100000000000000000000000000000000000000000000000000000000600052603260045260246000fd5b906000526020600020906005020160020160009054906101000a900473ffffffffffffffffffffffffffffffffffffffff1673ffffffffffffffffffffffffffffffffffffffff168f73ffffffffffffffffffffffffffffffffffffffff16145b15612c005780888381518110612874577f4e487b7100000000000000000000000000000000000000000000000000000000600052603260045260246000fd5b602002602001018181525050600981815481106128ba577f4e487b7100000000000000000000000000000000000000000000000000000000600052603260045260246000fd5b906000526020600020906005020160000154878381518110612905577f4e487b7100000000000000000000000000000000000000000000000000000000600052603260045260246000fd5b6020026020010181815250506009818154811061294b577f4e487b7100000000000000000000000000000000000000000000000000000000600052603260045260246000fd5b906000526020600020906005020160010160009054906101000a900473ffffffffffffffffffffffffffffffffffffffff168683815181106129b6577f4e487b7100000000000000000000000000000000000000000000000000000000600052603260045260246000fd5b602002602001019073ffffffffffffffffffffffffffffffffffffffff16908173ffffffffffffffffffffffffffffffffffffffff168152505060098181548110612a2a577f4e487b7100000000000000000000000000000000000000000000000000000000600052603260045260246000fd5b906000526020600020906005020160020160009054906101000a900473ffffffffffffffffffffffffffffffffffffffff16858381518110612a95577f4e487b7100000000000000000000000000000000000000000000000000000000600052603260045260246000fd5b602002602001019073ffffffffffffffffffffffffffffffffffffffff16908173ffffffffffffffffffffffffffffffffffffffff168152505060098181548110612b09577f4e487b7100000000000000000000000000000000000000000000000000000000600052603260045260246000fd5b906000526020600020906005020160030154848381518110612b54577f4e487b7100000000000000000000000000000000000000000000000000000000600052603260045260246000fd5b60200260200101818152505060098181548110612b9a577f4e487b7100000000000000000000000000000000000000000000000000000000600052603260045260246000fd5b906000526020600020906005020160040154838381518110612be5577f4e487b7100000000000000000000000000000000000000000000000000000000600052603260045260246000fd5b6020026020010181815250508180612bfc90615bee565b9250505b8080612c0b90615bee565b9150506126ed565b508686868686869c509c509c509c509c509c505050505050505091939550919395565b6060600080612c4484612e82565b60076000868152602001908152602001600020600101546007600087815260200190815260200160002060020160009054906101000a900473ffffffffffffffffffffffffffffffffffffffff169250925092509193909250565b612ca76131f3565b73ffffffffffffffffffffffffffffffffffffffff168273ffffffffffffffffffffffffffffffffffffffff161415612d15576040517f08c379a0000000000000000000000000000000000000000000000000000000008152600401612d0c90615687565b60405180910390fd5b8060066000612d226131f3565b73ffffffffffffffffffffffffffffffffffffffff1673ffffffffffffffffffffffffffffffffffffffff16815260200190815260200160002060008473ffffffffffffffffffffffffffffffffffffffff1673ffffffffffffffffffffffffffffffffffffffff16815260200190815260200160002060006101000a81548160ff0219169083151502179055508173ffffffffffffffffffffffffffffffffffffffff16612dcf6131f3565b73ffffffffffffffffffffffffffffffffffffffff167f17307eab39ab6107e8899845ad3d59bd9653f200f220920489ca2b5937696c3183604051612e149190615511565b60405180910390a35050565b612e31612e2b6131f3565b83613508565b612e70576040517f08c379a0000000000000000000000000000000000000000000000000000000008152600401612e6790615827565b60405180910390fd5b612e7c848484846134ac565b50505050565b6060612e8d82613265565b612ecc576040517f08c379a0000000000000000000000000000000000000000000000000000000008152600401612ec3906157c7565b60405180910390fd5b613060612ed7613a43565b600860008581526020019081526020016000206000018054612ef890615bbc565b80601f0160208091040260200160405190810160405280929190818152602001828054612f2490615bbc565b8015612f715780601f10612f4657610100808354040283529160200191612f71565b820191906000526020600020905b815481529060010190602001808311612f5457829003601f168201915b50505050506040518060400160405280600181526020017f2f00000000000000000000000000000000000000000000000000000000000000815250600860008781526020019081526020016000206001018054612fcd90615bbc565b80601f0160208091040260200160405190810160405280929190818152602001828054612ff990615bbc565b80156130465780601f1061301b57610100808354040283529160200191613046565b820191906000526020600020905b81548152906001019060200180831161302957829003601f168201915b505050505060405180602001604052806000815250613ad5565b9050919050565b6000600660008473ffffffffffffffffffffffffffffffffffffffff1673ffffffffffffffffffffffffffffffffffffffff16815260200190815260200160002060008373ffffffffffffffffffffffffffffffffffffffff1673ffffffffffffffffffffffffffffffffffffffff16815260200190815260200160002060009054906101000a900460ff16905092915050565b6131036131f3565b73ffffffffffffffffffffffffffffffffffffffff16613121612002565b73ffffffffffffffffffffffffffffffffffffffff1614613177576040517f08c379a000000000000000000000000000000000000000000000000000000000815260040161316e90615787565b60405180910390fd5b600073ffffffffffffffffffffffffffffffffffffffff168173ffffffffffffffffffffffffffffffffffffffff1614156131e7576040517f08c379a00000000000000000000000000000000000000000000000000000000081526004016131de90615607565b60405180910390fd5b6131f081613842565b50565b600033905090565b60007f01ffc9a7000000000000000000000000000000000000000000000000000000007bffffffffffffffffffffffffffffffffffffffffffffffffffffffff1916827bffffffffffffffffffffffffffffffffffffffffffffffffffffffff1916149050919050565b60008073ffffffffffffffffffffffffffffffffffffffff166003600084815260200190815260200160002060009054906101000a900473ffffffffffffffffffffffffffffffffffffffff1673ffffffffffffffffffffffffffffffffffffffff1614159050919050565b816005600083815260200190815260200160002060006101000a81548173ffffffffffffffffffffffffffffffffffffffff021916908373ffffffffffffffffffffffffffffffffffffffff160217905550808273ffffffffffffffffffffffffffffffffffffffff1661334483611350565b73ffffffffffffffffffffffffffffffffffffffff167f8c5be1e5ebec7d5bd14f71427d1e84f3dd0314c0f7b2291e5b200ac8c7c3b92560405160405180910390a45050565b8061339481613265565b6133d3576040517f08c379a00000000000000000000000000000000000000000000000000000000081526004016133ca90615867565b60405180910390fd5b604051806060016040528060001515815260200160008152602001600073ffffffffffffffffffffffffffffffffffffffff168152506007600084815260200190815260200160002060008201518160000160006101000a81548160ff0219169083151502179055506020820151816001015560408201518160020160006101000a81548173ffffffffffffffffffffffffffffffffffffffff021916908373ffffffffffffffffffffffffffffffffffffffff160217905550905050600e60008154809291906134a390615b92565b91905055505050565b6134b78484846135e6565b6134c384848484613fea565b613502576040517f08c379a00000000000000000000000000000000000000000000000000000000081526004016134f9906155e7565b60405180910390fd5b50505050565b600061351382613265565b613552576040517f08c379a0000000000000000000000000000000000000000000000000000000008152600401613549906156c7565b60405180910390fd5b600061355d83611350565b90508073ffffffffffffffffffffffffffffffffffffffff168473ffffffffffffffffffffffffffffffffffffffff1614806135cc57508373ffffffffffffffffffffffffffffffffffffffff166135b484610a15565b73ffffffffffffffffffffffffffffffffffffffff16145b806135dd57506135dc8185613067565b5b91505092915050565b8273ffffffffffffffffffffffffffffffffffffffff1661360682611350565b73ffffffffffffffffffffffffffffffffffffffff161461365c576040517f08c379a0000000000000000000000000000000000000000000000000000000008152600401613653906157a7565b60405180910390fd5b600073ffffffffffffffffffffffffffffffffffffffff168273ffffffffffffffffffffffffffffffffffffffff1614156136cc576040517f08c379a00000000000000000000000000000000000000000000000000000000081526004016136c390615667565b60405180910390fd5b6136d7838383614181565b6136e26000826132d1565b6001600460008573ffffffffffffffffffffffffffffffffffffffff1673ffffffffffffffffffffffffffffffffffffffff16815260200190815260200160002060008282546137329190615aa8565b925050819055506001600460008473ffffffffffffffffffffffffffffffffffffffff1673ffffffffffffffffffffffffffffffffffffffff16815260200190815260200160002060008282546137899190615a52565b92505081905550816003600083815260200190815260200160002060006101000a81548173ffffffffffffffffffffffffffffffffffffffff021916908373ffffffffffffffffffffffffffffffffffffffff160217905550808273ffffffffffffffffffffffffffffffffffffffff168473ffffffffffffffffffffffffffffffffffffffff167fddf252ad1be2c89b69c2b068fc378daa952ba7f163c4a11628f55a4df523b3ef60405160405180910390a4505050565b60008060009054906101000a900473ffffffffffffffffffffffffffffffffffffffff169050816000806101000a81548173ffffffffffffffffffffffffffffffffffffffff021916908373ffffffffffffffffffffffffffffffffffffffff1602179055508173ffffffffffffffffffffffffffffffffffffffff168173ffffffffffffffffffffffffffffffffffffffff167f8be0079c531659141344cd1fd0a4f28419497f9722a3daafe3b4186f6b6457e060405160405180910390a35050565b60606000600e5467ffffffffffffffff81111561394c577f4e487b7100000000000000000000000000000000000000000000000000000000600052604160045260246000fd5b60405190808252806020026020018201604052801561397a5781602001602082028036833780820191505090505b5090506000805b600d54811015613a1c576007600082815260200190815260200160002060000160009054906101000a900460ff1615613a0957808383815181106139ee577f4e487b7100000000000000000000000000000000000000000000000000000000600052603260045260246000fd5b6020026020010181815250508180613a0590615bee565b9250505b8080613a1490615bee565b915050613981565b50819250505090565b613a3f828260405180602001604052806000815250614186565b5050565b6060600c8054613a5290615bbc565b80601f0160208091040260200160405190810160405280929190818152602001828054613a7e90615bbc565b8015613acb5780601f10613aa057610100808354040283529160200191613acb565b820191906000526020600020905b815481529060010190602001808311613aae57829003601f168201915b5050505050905090565b606060008690506000869050600086905060008690506000869050600081518351855187518951613b069190615a52565b613b109190615a52565b613b1a9190615a52565b613b249190615a52565b67ffffffffffffffff811115613b63577f4e487b7100000000000000000000000000000000000000000000000000000000600052604160045260246000fd5b6040519080825280601f01601f191660200182016040528015613b955781602001600182028036833780820191505090505b50905060008190506000805b8851811015613c7557888181518110613be3577f4e487b7100000000000000000000000000000000000000000000000000000000600052603260045260246000fd5b602001015160f81c60f81b838380613bfa90615bee565b945081518110613c33577f4e487b7100000000000000000000000000000000000000000000000000000000600052603260045260246000fd5b60200101907effffffffffffffffffffffffffffffffffffffffffffffffffffffffffffff1916908160001a9053508080613c6d90615bee565b915050613ba1565b5060005b8751811015613d4d57878181518110613cbb577f4e487b7100000000000000000000000000000000000000000000000000000000600052603260045260246000fd5b602001015160f81c60f81b838380613cd290615bee565b945081518110613d0b577f4e487b7100000000000000000000000000000000000000000000000000000000600052603260045260246000fd5b60200101907effffffffffffffffffffffffffffffffffffffffffffffffffffffffffffff1916908160001a9053508080613d4590615bee565b915050613c79565b5060005b8651811015613e2557868181518110613d93577f4e487b7100000000000000000000000000000000000000000000000000000000600052603260045260246000fd5b602001015160f81c60f81b838380613daa90615bee565b945081518110613de3577f4e487b7100000000000000000000000000000000000000000000000000000000600052603260045260246000fd5b60200101907effffffffffffffffffffffffffffffffffffffffffffffffffffffffffffff1916908160001a9053508080613e1d90615bee565b915050613d51565b5060005b8551811015613efd57858181518110613e6b577f4e487b7100000000000000000000000000000000000000000000000000000000600052603260045260246000fd5b602001015160f81c60f81b838380613e8290615bee565b945081518110613ebb577f4e487b7100000000000000000000000000000000000000000000000000000000600052603260045260246000fd5b60200101907effffffffffffffffffffffffffffffffffffffffffffffffffffffffffffff1916908160001a9053508080613ef590615bee565b915050613e29565b5060005b8451811015613fd557848181518110613f43577f4e487b7100000000000000000000000000000000000000000000000000000000600052603260045260246000fd5b602001015160f81c60f81b838380613f5a90615bee565b945081518110613f93577f4e487b7100000000000000000000000000000000000000000000000000000000600052603260045260246000fd5b60200101907effffffffffffffffffffffffffffffffffffffffffffffffffffffffffffff1916908160001a9053508080613fcd90615bee565b915050613f01565b50819850505050505050505095945050505050565b600061400b8473ffffffffffffffffffffffffffffffffffffffff166141e1565b15614174578373ffffffffffffffffffffffffffffffffffffffff1663150b7a026140346131f3565b8786866040518563ffffffff1660e01b81526004016140569493929190615394565b602060405180830381600087803b15801561407057600080fd5b505af19250505080156140a157506040513d601f19601f8201168201806040525081019061409e91906147ed565b60015b614124573d80600081146140d1576040519150601f19603f3d011682016040523d82523d6000602084013e6140d6565b606091505b5060008151141561411c576040517f08c379a0000000000000000000000000000000000000000000000000000000008152600401614113906155e7565b60405180910390fd5b805181602001fd5b63150b7a0260e01b7bffffffffffffffffffffffffffffffffffffffffffffffffffffffff1916817bffffffffffffffffffffffffffffffffffffffffffffffffffffffff191614915050614179565b600190505b949350505050565b505050565b61419083836141f4565b61419d6000848484613fea565b6141dc576040517f08c379a00000000000000000000000000000000000000000000000000000000081526004016141d3906155e7565b60405180910390fd5b505050565b600080823b905060008111915050919050565b600073ffffffffffffffffffffffffffffffffffffffff168273ffffffffffffffffffffffffffffffffffffffff161415614264576040517f08c379a000000000000000000000000000000000000000000000000000000000815260040161425b90615747565b60405180910390fd5b61426d81613265565b156142ad576040517f08c379a00000000000000000000000000000000000000000000000000000000081526004016142a490615627565b60405180910390fd5b6142b960008383614181565b6001600460008473ffffffffffffffffffffffffffffffffffffffff1673ffffffffffffffffffffffffffffffffffffffff16815260200190815260200160002060008282546143099190615a52565b92505081905550816003600083815260200190815260200160002060006101000a81548173ffffffffffffffffffffffffffffffffffffffff021916908373ffffffffffffffffffffffffffffffffffffffff160217905550808273ffffffffffffffffffffffffffffffffffffffff16600073ffffffffffffffffffffffffffffffffffffffff167fddf252ad1be2c89b69c2b068fc378daa952ba7f163c4a11628f55a4df523b3ef60405160405180910390a45050565b8280546143ce90615bbc565b90600052602060002090601f0160209004810192826143f05760008555614437565b82601f1061440957805160ff1916838001178555614437565b82800160010185558215614437579182015b8281111561443657825182559160200191906001019061441b565b5b5090506144449190614448565b5090565b5b80821115614461576000816000905550600101614449565b5090565b6000614478614473846158f3565b6158c2565b90508281526020810184848401111561449057600080fd5b61449b848285615b50565b509392505050565b60006144b66144b184615923565b6158c2565b9050828152602081018484840111156144ce57600080fd5b6144d9848285615b50565b509392505050565b6000813590506144f081615cd5565b92915050565b60008135905061450581615cec565b92915050565b60008135905061451a81615d03565b92915050565b60008151905061452f81615d03565b92915050565b600082601f83011261454657600080fd5b8135614556848260208601614465565b91505092915050565b600082601f83011261457057600080fd5b81356145808482602086016144a3565b91505092915050565b60008135905061459881615d1a565b92915050565b6000602082840312156145b057600080fd5b60006145be848285016144e1565b91505092915050565b600080604083850312156145da57600080fd5b60006145e8858286016144e1565b92505060206145f9858286016144e1565b9150509250929050565b60008060006060848603121561461857600080fd5b6000614626868287016144e1565b9350506020614637868287016144e1565b925050604061464886828701614589565b9150509250925092565b6000806000806080858703121561466857600080fd5b6000614676878288016144e1565b9450506020614687878288016144e1565b935050604061469887828801614589565b925050606085013567ffffffffffffffff8111156146b557600080fd5b6146c187828801614535565b91505092959194509250565b600080604083850312156146e057600080fd5b60006146ee858286016144e1565b92505060206146ff858286016144f6565b9150509250929050565b60008060006060848603121561471e57600080fd5b600061472c868287016144e1565b935050602084013567ffffffffffffffff81111561474957600080fd5b6147558682870161455f565b925050604084013567ffffffffffffffff81111561477257600080fd5b61477e8682870161455f565b9150509250925092565b6000806040838503121561479b57600080fd5b60006147a9858286016144e1565b92505060206147ba85828601614589565b9150509250929050565b6000602082840312156147d657600080fd5b60006147e48482850161450b565b91505092915050565b6000602082840312156147ff57600080fd5b600061480d84828501614520565b91505092915050565b60006020828403121561482857600080fd5b600082013567ffffffffffffffff81111561484257600080fd5b61484e8482850161455f565b91505092915050565b60006020828403121561486957600080fd5b600061487784828501614589565b91505092915050565b6000806040838503121561489357600080fd5b60006148a185828601614589565b92505060206148b285828601614589565b9150509250929050565b60006148c88383614900565b60208301905092915050565b60006148e08383614aa6565b905092915050565b60006148f48383615346565b60208301905092915050565b61490981615adc565b82525050565b61491881615adc565b82525050565b600061492982615983565b61493381856159e1565b935061493e83615953565b8060005b8381101561496f57815161495688826148bc565b9750614961836159ba565b925050600181019050614942565b5085935050505092915050565b60006149878261598e565b61499181856159f2565b9350836020820285016149a385615963565b8060005b858110156149df57848403895281516149c085826148d4565b94506149cb836159c7565b925060208a019950506001810190506149a7565b50829750879550505050505092915050565b60006149fc82615999565b614a068185615a03565b9350614a1183615973565b8060005b83811015614a42578151614a2988826148e8565b9750614a34836159d4565b925050600181019050614a15565b5085935050505092915050565b614a5881615aee565b82525050565b614a6781615afa565b82525050565b6000614a78826159a4565b614a828185615a14565b9350614a92818560208601615b5f565b614a9b81615cc4565b840191505092915050565b6000614ab1826159af565b614abb8185615a30565b9350614acb818560208601615b5f565b614ad481615cc4565b840191505092915050565b6000614aea826159af565b614af48185615a41565b9350614b04818560208601615b5f565b614b0d81615cc4565b840191505092915050565b6000614b25601f83615a41565b91507f43616e206e6f7420707572636861736520796f7572206f776e204e4654732e006000830152602082019050919050565b6000614b65602083615a41565b91507f546f6b656e20646f6573206e6f742062656c6f6e6720746f2073656e6465722e6000830152602082019050919050565b6000614ba5603283615a41565b91507f4552433732313a207472616e7366657220746f206e6f6e20455243373231526560008301527f63656976657220696d706c656d656e74657200000000000000000000000000006020830152604082019050919050565b6000614c0b602683615a41565b91507f4f776e61626c653a206e6577206f776e657220697320746865207a65726f206160008301527f64647265737300000000000000000000000000000000000000000000000000006020830152604082019050919050565b6000614c71601c83615a41565b91507f4552433732313a20746f6b656e20616c7265616479206d696e746564000000006000830152602082019050919050565b6000614cb1602583615a41565b91507f4e6f7420617574686f72697a656420746f2063616c6c20746869732066756e6360008301527f74696f6e2e0000000000000000000000000000000000000000000000000000006020830152604082019050919050565b6000614d17602483615a41565b91507f4552433732313a207472616e7366657220746f20746865207a65726f2061646460008301527f72657373000000000000000000000000000000000000000000000000000000006020830152604082019050919050565b6000614d7d601983615a41565b91507f4552433732313a20617070726f766520746f2063616c6c6572000000000000006000830152602082019050919050565b6000614dbd602383615a41565b91507f4e6f7420746865206f726967696e616c206f776e6572206f662074686973204e60008301527f46542e00000000000000000000000000000000000000000000000000000000006020830152604082019050919050565b6000614e23602c83615a41565b91507f4552433732313a206f70657261746f7220717565727920666f72206e6f6e657860008301527f697374656e7420746f6b656e00000000000000000000000000000000000000006020830152604082019050919050565b6000614e89603883615a41565b91507f4552433732313a20617070726f76652063616c6c6572206973206e6f74206f7760008301527f6e6572206e6f7220617070726f76656420666f7220616c6c00000000000000006020830152604082019050919050565b6000614eef602a83615a41565b91507f4552433732313a2062616c616e636520717565727920666f7220746865207a6560008301527f726f2061646472657373000000000000000000000000000000000000000000006020830152604082019050919050565b6000614f55602983615a41565b91507f4552433732313a206f776e657220717565727920666f72206e6f6e657869737460008301527f656e7420746f6b656e00000000000000000000000000000000000000000000006020830152604082019050919050565b6000614fbb602083615a41565b91507f4552433732313a206d696e7420746f20746865207a65726f20616464726573736000830152602082019050919050565b6000614ffb602c83615a41565b91507f4552433732313a20617070726f76656420717565727920666f72206e6f6e657860008301527f697374656e7420746f6b656e00000000000000000000000000000000000000006020830152604082019050919050565b6000615061602083615a41565b91507f4f776e61626c653a2063616c6c6572206973206e6f7420746865206f776e65726000830152602082019050919050565b60006150a1602983615a41565b91507f4552433732313a207472616e73666572206f6620746f6b656e2074686174206960008301527f73206e6f74206f776e00000000000000000000000000000000000000000000006020830152604082019050919050565b6000615107602f83615a41565b91507f4552433732314d657461646174613a2055524920717565727920666f72206e6f60008301527f6e6578697374656e7420746f6b656e00000000000000000000000000000000006020830152604082019050919050565b600061516d601083615a41565b91507f4e4654206e6f7420666f722073616c65000000000000000000000000000000006000830152602082019050919050565b60006151ad602183615a41565b91507f4552433732313a20617070726f76616c20746f2063757272656e74206f776e6560008301527f72000000000000000000000000000000000000000000000000000000000000006020830152604082019050919050565b6000615213600083615a25565b9150600082019050919050565b600061522d603183615a41565b91507f4552433732313a207472616e736665722063616c6c6572206973206e6f74206f60008301527f776e6572206e6f7220617070726f7665640000000000000000000000000000006020830152604082019050919050565b6000615293602083615a41565b91507f496e73756666696369656e742066756e647320666f722070757263686173652e6000830152602082019050919050565b60006152d3601883615a41565b91507f546f6b656e20494420646f6573206e6f742065786973742e00000000000000006000830152602082019050919050565b6000615313601c83615a41565b91507f4661696c656420746f2073656e642045544820746f2053656c6c6572000000006000830152602082019050919050565b61534f81615b46565b82525050565b61535e81615b46565b82525050565b600061536f82615206565b9150819050919050565b600060208201905061538e600083018461490f565b92915050565b60006080820190506153a9600083018761490f565b6153b6602083018661490f565b6153c36040830185615355565b81810360608301526153d58184614a6d565b905095945050505050565b60006080820190506153f5600083018761490f565b615402602083018661490f565b61540f6040830185615355565b61541c6060830184615355565b95945050505050565b6000608082019050818103600083015261543f81876149f1565b90508181036020830152615453818661497c565b9050818103604083015261546781856149f1565b9050818103606083015261547b818461491e565b905095945050505050565b600060c08201905081810360008301526154a081896149f1565b905081810360208301526154b481886149f1565b905081810360408301526154c8818761491e565b905081810360608301526154dc818661491e565b905081810360808301526154f081856149f1565b905081810360a083015261550481846149f1565b9050979650505050505050565b60006020820190506155266000830184614a4f565b92915050565b60006020820190506155416000830184614a5e565b92915050565b600060208201905081810360008301526155618184614adf565b905092915050565b600060608201905081810360008301526155838186614adf565b90506155926020830185615355565b61559f604083018461490f565b949350505050565b600060208201905081810360008301526155c081614b18565b9050919050565b600060208201905081810360008301526155e081614b58565b9050919050565b6000602082019050818103600083015261560081614b98565b9050919050565b6000602082019050818103600083015261562081614bfe565b9050919050565b6000602082019050818103600083015261564081614c64565b9050919050565b6000602082019050818103600083015261566081614ca4565b9050919050565b6000602082019050818103600083015261568081614d0a565b9050919050565b600060208201905081810360008301526156a081614d70565b9050919050565b600060208201905081810360008301526156c081614db0565b9050919050565b600060208201905081810360008301526156e081614e16565b9050919050565b6000602082019050818103600083015261570081614e7c565b9050919050565b6000602082019050818103600083015261572081614ee2565b9050919050565b6000602082019050818103600083015261574081614f48565b9050919050565b6000602082019050818103600083015261576081614fae565b9050919050565b6000602082019050818103600083015261578081614fee565b9050919050565b600060208201905081810360008301526157a081615054565b9050919050565b600060208201905081810360008301526157c081615094565b9050919050565b600060208201905081810360008301526157e0816150fa565b9050919050565b6000602082019050818103600083015261580081615160565b9050919050565b60006020820190508181036000830152615820816151a0565b9050919050565b6000602082019050818103600083015261584081615220565b9050919050565b6000602082019050818103600083015261586081615286565b9050919050565b60006020820190508181036000830152615880816152c6565b9050919050565b600060208201905081810360008301526158a081615306565b9050919050565b60006020820190506158bc6000830184615355565b92915050565b6000604051905081810181811067ffffffffffffffff821117156158e9576158e8615c95565b5b8060405250919050565b600067ffffffffffffffff82111561590e5761590d615c95565b5b601f19601f8301169050602081019050919050565b600067ffffffffffffffff82111561593e5761593d615c95565b5b601f19601f8301169050602081019050919050565b6000819050602082019050919050565b6000819050602082019050919050565b6000819050602082019050919050565b600081519050919050565b600081519050919050565b600081519050919050565b600081519050919050565b600081519050919050565b6000602082019050919050565b6000602082019050919050565b6000602082019050919050565b600082825260208201905092915050565b600082825260208201905092915050565b600082825260208201905092915050565b600082825260208201905092915050565b600081905092915050565b600082825260208201905092915050565b600082825260208201905092915050565b6000615a5d82615b46565b9150615a6883615b46565b9250827fffffffffffffffffffffffffffffffffffffffffffffffffffffffffffffffff03821115615a9d57615a9c615c37565b5b828201905092915050565b6000615ab382615b46565b9150615abe83615b46565b925082821015615ad157615ad0615c37565b5b828203905092915050565b6000615ae782615b26565b9050919050565b60008115159050919050565b60007fffffffff0000000000000000000000000000000000000000000000000000000082169050919050565b600073ffffffffffffffffffffffffffffffffffffffff82169050919050565b6000819050919050565b82818337600083830152505050565b60005b83811015615b7d578082015181840152602081019050615b62565b83811115615b8c576000848401525b50505050565b6000615b9d82615b46565b91506000821415615bb157615bb0615c37565b5b600182039050919050565b60006002820490506001821680615bd457607f821691505b60208210811415615be857615be7615c66565b5b50919050565b6000615bf982615b46565b91507fffffffffffffffffffffffffffffffffffffffffffffffffffffffffffffffff821415615c2c57615c2b615c37565b5b600182019050919050565b7f4e487b7100000000000000000000000000000000000000000000000000000000600052601160045260246000fd5b7f4e487b7100000000000000000000000000000000000000000000000000000000600052602260045260246000fd5b7f4e487b7100000000000000000000000000000000000000000000000000000000600052604160045260246000fd5b6000601f19601f8301169050919050565b615cde81615adc565b8114615ce957600080fd5b50565b615cf581615aee565b8114615d0057600080fd5b50565b615d0c81615afa565b8114615d1757600080fd5b50565b615d2381615b46565b8114615d2e57600080fd5b5056fea264697066735822122092731eb204fd17dc45bbcb3fb329d40292d8eac1aadfc43c5a4d4f8b0442bb4564736f6c63430008000033687474703a2f2f35342e3135332e3138322e31333a333939382f6170692f6e66742f",
  "immutableReferences": {},
  "source": "// SPDX-License-Identifier: MIT\r\n\r\npragma solidity ^0.8.0;\r\n\r\nimport \"@openzeppelin/contracts/access/Ownable.sol\";\r\nimport \"@openzeppelin/contracts/token/ERC721/ERC721.sol\";\r\nimport \"@openzeppelin/contracts/token/ERC721/IERC721Receiver.sol\";\r\n\r\ncontract AuxiunNFT is Ownable, ERC721, IERC721Receiver {\r\n\r\n    struct Metadata {\r\n        string game_id;\r\n        string item_id;\r\n    }\r\n\r\n    struct MarketDetails {\r\n        bool forSale;\r\n        uint256 price;\r\n        address seller;\r\n    }\r\n\r\n    struct TransactionHistory {\r\n        uint256 tokenId;\r\n        address buyer;\r\n        address seller;\r\n        uint256 price;\r\n        uint256 timestamp;\r\n    }\r\n\r\n    // mapping of tokenId to market details\r\n    mapping(uint256 => MarketDetails) id_to_marketDetails;\r\n\r\n    // mapping of tokenId to metadata\r\n    mapping(uint256 => Metadata) id_to_metadata;\r\n\r\n    // array which stores all transaction data\r\n    TransactionHistory[] transactionHistory;\r\n\r\n    // transactionHistory counter for addresses to determine the multicall memory array size\r\n    mapping(address => uint256) transactionHistoryCount;\r\n\r\n    // list of admin addresses authorized to mint tokens\r\n    mapping(address => bool) admins;\r\n\r\n    // Base URI, aka API link to fetch further metadata of the token\r\n    string private baseURI;\r\n\r\n    // Used as tokenId for a newly minted token and increases by 1\r\n    uint256 private tokenIdCounter = 0;\r\n\r\n    // Number of NFTs on market (Maybe for future use)\r\n    uint256 NFTsOnMarket = 0;\r\n\r\n \r\n    constructor() ERC721(\"AuxiunNFT\", \"AUXN\") {\r\n        // TODO: Setup database api server and set the link here, remember to add the \"/\" at the end of the uri\r\n        baseURI = \"http://54.153.182.13:3998/api/nft/\";\r\n    }\r\n\r\n    function _baseURI() internal view virtual override returns (string memory) {\r\n        return baseURI;\r\n    }\r\n\r\n    function setBaseURI(string memory inputbaseURI) public onlyOwner {\r\n        baseURI = inputbaseURI;\r\n    }\r\n\r\n    // function standard called by NFT marketplaces such as OpenSea\r\n    function tokenURI(uint256 tokenId)\r\n        public\r\n        view\r\n        virtual\r\n        override\r\n        returns (string memory)\r\n    {\r\n        require(_exists(tokenId), \"ERC721Metadata: URI query for nonexistent token\");\r\n        return strConcat(_baseURI(), id_to_metadata[tokenId].game_id, \"/\", id_to_metadata[tokenId].item_id, \"\");\r\n    }\r\n\r\n    function mint(address to, string memory game_id, string memory item_id) external {\r\n        require(admins[msg.sender], \"Not authorized to call this function.\");\r\n        uint256 tokenId = tokenIdCounter;\r\n        tokenIdCounter++;\r\n        id_to_metadata[tokenId] = Metadata(game_id, item_id);\r\n        _safeMint(to, tokenId);\r\n    }\r\n\r\n    // functions to handle admins array\r\n    function addAdminAddress(address _address) external onlyOwner() {\r\n        admins[_address] = true;\r\n    }\r\n\r\n    function removeAdminAddress(address _address) external onlyOwner() {\r\n        admins[_address] = false;\r\n    }\r\n\r\n    function isAdminAddress(address _address) external view returns (bool) {\r\n        return admins[_address];\r\n    }\r\n\r\n    // String concatenation function\r\n    // original source: https://github.com/provable-things/ethereum-api/blob/master/oraclizeAPI_0.5.sol\r\n    // stack overflow topic: https://ethereum.stackexchange.com/questions/729/how-to-concatenate-strings-in-solidity\r\n    // Notes: reduce the parameters if necessary\r\n    function strConcat(string memory _a, string memory _b, string memory _c, string memory _d, string memory _e) internal pure returns (string memory){\r\n        bytes memory _ba = bytes(_a);\r\n        bytes memory _bb = bytes(_b);\r\n        bytes memory _bc = bytes(_c);\r\n        bytes memory _bd = bytes(_d);\r\n        bytes memory _be = bytes(_e);\r\n        string memory abcde = new string(_ba.length + _bb.length + _bc.length + _bd.length + _be.length);\r\n        bytes memory babcde = bytes(abcde);\r\n        uint k = 0;\r\n        for (uint i = 0; i < _ba.length; i++) babcde[k++] = _ba[i];\r\n        for (uint i = 0; i < _bb.length; i++) babcde[k++] = _bb[i];\r\n        for (uint i = 0; i < _bc.length; i++) babcde[k++] = _bc[i];\r\n        for (uint i = 0; i < _bd.length; i++) babcde[k++] = _bd[i];\r\n        for (uint i = 0; i < _be.length; i++) babcde[k++] = _be[i];\r\n        return string(babcde);\r\n    }\r\n\r\n    // Modifers\r\n    modifier tokenExists(uint256 tokenId) {\r\n        require(_exists(tokenId), \"Token ID does not exist.\");\r\n        _;\r\n    }\r\n\r\n    modifier belongsToSender(uint256 tokenId){\r\n        require(ownerOf(tokenId) == msg.sender, \"Token does not belong to sender.\");\r\n        _;\r\n    }\r\n\r\n    // Helper Functions for NFTs on the market.\r\n    function _removeNFTfromMarket(uint tokenId) private tokenExists(tokenId) {\r\n        id_to_marketDetails[tokenId] = MarketDetails(false, 0, address(0));\r\n        NFTsOnMarket--;\r\n    }\r\n  \r\n\r\n    // Functions for market place interactions.\r\n    function listNFTOnMarket(uint256 tokenId, uint256 price) external payable tokenExists(tokenId) belongsToSender(tokenId){\r\n        id_to_marketDetails[tokenId] = MarketDetails(true, price, msg.sender);\r\n        NFTsOnMarket++;\r\n\r\n        // transfer ownership of tokenId to this contract\r\n        _safeTransfer(msg.sender, address(this), tokenId, \"\");\r\n    }\r\n\r\n    function removeNFTFromMarket(uint256 tokenId) external tokenExists(tokenId) {\r\n        require(id_to_marketDetails[tokenId].seller == msg.sender, \"Not the original owner of this NFT.\");\r\n        _removeNFTfromMarket(tokenId);\r\n\r\n        // transfer token back to owner\r\n        _safeTransfer(address(this), msg.sender, tokenId, \"\");\r\n    }\r\n\r\n\r\n   // Source: https://ethereum.stackexchange.com/questions/19341/address-send-vs-address-transfer-best-practice-usage/74007#74007\r\n    function purchaseNFT(uint256 tokenId) public payable tokenExists(tokenId) returns(address, address, uint256, uint256) {\r\n        require(id_to_marketDetails[tokenId].seller != msg.sender, \"Can not purchase your own NFTs.\");\r\n        require(id_to_marketDetails[tokenId].forSale, \"NFT not for sale\");\r\n        require(id_to_marketDetails[tokenId].price <= msg.value, \"Insufficient funds for purchase.\");\r\n\r\n        // Get seller Id\r\n        address seller = id_to_marketDetails[tokenId].seller;\r\n\r\n        // get price\r\n        uint256 price = id_to_marketDetails[tokenId].price;\r\n\r\n        // Remove NFT from market - do this before transferring ETH to prevent reentrancy\r\n        _removeNFTfromMarket(tokenId);\r\n\r\n        // Transfer fund from NFT buyer to NFT Seller\r\n        (bool success, ) =  seller.call{value: msg.value}(\"\");\r\n        require(success, \"Failed to send ETH to Seller\");\r\n\r\n        // Transfer token to buyer\r\n        _safeTransfer(address(this), msg.sender, tokenId, \"\");\r\n\r\n        // push transaction data into transactionHistory\r\n        transactionHistory.push(TransactionHistory(tokenId, msg.sender, seller, price, block.timestamp));\r\n\r\n        // increase transactionHistoryCount for both buyer and seller\r\n        transactionHistoryCount[msg.sender]++;\r\n        transactionHistoryCount[seller]++;\r\n        \r\n        // Return some info about the transfer\r\n        return (msg.sender, seller, tokenId, msg.value);\r\n    }\r\n \r\n    // returns an array of token ids which are listed as forSale\r\n    function _fetchTokenIdsOnMarket() internal view returns(uint256[] memory) {\r\n        // initialize result's array length\r\n        uint256[] memory result = new uint256[](NFTsOnMarket);\r\n        // for loop to fetch all tokenIds where id_to_marketDetails[i].forSale == true\r\n        uint256 counter = 0;\r\n        for (uint256 i = 0; i < tokenIdCounter; i++) {\r\n            // only tokenIds which are for sale will be pushed into the result array\r\n            if (id_to_marketDetails[i].forSale) {\r\n                result[counter] = i;\r\n                counter++;\r\n            }\r\n        }\r\n        return result;\r\n    }\r\n\r\n    // fetch by order: tokenURI, token price, token seller's address\r\n    function fetchNFTDataById(uint256 tokenId) external view returns(string memory, uint256, address) {\r\n        return (tokenURI(tokenId), id_to_marketDetails[tokenId].price, id_to_marketDetails[tokenId].seller);\r\n    }\r\n\r\n    /**\r\n    * Multicall function to fetch all NFTs listed for sale on the market\r\n    * Returns 4 arrays of all tokens for sale which are:\r\n    * 1. array of tokenIds\r\n    * 2. array of tokenURIs\r\n    * 3. array of token prices\r\n    * 4. array of token sellers\r\n    */\r\n    function multiCallNFTsOnMarket() external view returns(uint256[] memory, string[] memory, uint256[] memory, address[] memory) {\r\n        // initialize tokenIds' array length\r\n        uint256[] memory tokenIds = new uint256[](NFTsOnMarket);\r\n        // fetch the tokenIds on the market\r\n        tokenIds = _fetchTokenIdsOnMarket();\r\n\r\n        // initialize array for tokenURIs, prices and sellers\r\n        string[] memory tokenURIs = new string[](NFTsOnMarket);\r\n        uint256[] memory tokenPrices = new uint256[](NFTsOnMarket);\r\n        address[] memory tokenSellers = new address[](NFTsOnMarket);\r\n\r\n        // for loop to fetch all data of tokenIds and push into the 3 arrays\r\n        for (uint256 i = 0; i < NFTsOnMarket; i++) {\r\n            tokenURIs[i] = tokenURI(tokenIds[i]);\r\n            tokenPrices[i] = id_to_marketDetails[tokenIds[i]].price;\r\n            tokenSellers[i] = id_to_marketDetails[tokenIds[i]].seller;\r\n        }\r\n        \r\n        return (tokenIds, tokenURIs, tokenPrices, tokenSellers);\r\n    }\r\n\r\n    // overloaded Multicall function to fetch NFTs listed on sale for a specific user's address\r\n    function multiCallNFTsOnMarket(address seller) external view returns(uint256[] memory, string[] memory, uint256[] memory, address[] memory) {\r\n        // initialize tokenIds' array length\r\n        uint256[] memory tokenIds = new uint256[](balanceOf(seller));\r\n        // fetch the tokenIds on the market\r\n        tokenIds = _fetchTokenIdsOnMarket();\r\n\r\n        // initialize array for tokenURIs, prices and sellers\r\n        string[] memory tokenURIs = new string[](balanceOf(seller));\r\n        uint256[] memory tokenPrices = new uint256[](balanceOf(seller));\r\n        address[] memory tokenSellers = new address[](balanceOf(seller));\r\n\r\n        // for loop to fetch all data of tokenIds and push into the 3 arrays\r\n        uint256 counter = 0;\r\n        for (uint256 i = 0; i < NFTsOnMarket; i++) {\r\n            if (seller == ownerOf(tokenIds[i])) {\r\n                tokenURIs[counter] = tokenURI(tokenIds[i]);\r\n                tokenPrices[counter] = id_to_marketDetails[tokenIds[i]].price;\r\n                tokenSellers[counter] = id_to_marketDetails[tokenIds[i]].seller;\r\n                counter++;\r\n            }\r\n        }\r\n        \r\n        return (tokenIds, tokenURIs, tokenPrices, tokenSellers);\r\n    }\r\n\r\n    // Multicall functions to fetch transaction data\r\n    // fetch transaction data by user's address\r\n    function multiCallTransactionDataByUser(address user) external view returns(uint256[] memory, uint256[] memory, address[] memory, address[] memory, uint256[] memory, uint256[] memory) {\r\n        // initialize array for tokenURIs, prices and sellers\r\n        uint256[] memory transactionIds = new uint256[](transactionHistoryCount[user]);\r\n        uint256[] memory tokenIds = new uint256[](transactionHistoryCount[user]);\r\n        address[] memory buyers = new address[](transactionHistoryCount[user]);\r\n        address[] memory sellers = new address[](transactionHistoryCount[user]);\r\n        uint256[] memory prices = new uint256[](transactionHistoryCount[user]);\r\n        uint256[] memory timestamps = new uint256[](transactionHistoryCount[user]);\r\n\r\n        // for loop to fetch all data of tokenIds and push into the 3 arrays\r\n        uint256 counter = 0;\r\n        for (uint256 i = 0; i < transactionHistory.length; i++) {\r\n            if (user == transactionHistory[i].buyer || user == transactionHistory[i].seller) {\r\n                transactionIds[counter] = i;\r\n                tokenIds[counter] = transactionHistory[i].tokenId;\r\n                buyers[counter] = transactionHistory[i].buyer;\r\n                sellers[counter] = transactionHistory[i].seller;\r\n                prices[counter] = transactionHistory[i].price;\r\n                timestamps[counter] = transactionHistory[i].timestamp;\r\n\r\n                counter++;\r\n            }\r\n        }\r\n        \r\n        return (transactionIds, tokenIds, buyers, sellers, prices, timestamps);\r\n    }\r\n\r\n    function kill() public onlyOwner {\r\n        selfdestruct(payable(owner()));\r\n    }\r\n\r\n    receive() external payable {\r\n        // this function enables the contract to receive funds\r\n        // Nothing needed here\r\n    }\r\n\r\n    /** Needed for calling safeTransferFrom */\r\n    function onERC721Received(address, address, uint256, bytes memory) public virtual override returns (bytes4) {\r\n        return this.onERC721Received.selector;\r\n    }\r\n}\r\n",
  "sourcePath": "C:/Users/flooofy/sem_2_2021/PP1/axiun-contracts/contracts/AuxiunNFT.sol",
  "compiler": {
    "name": "solc",
    "version": "0.8.0+commit.c7dfd78e.Emscripten.clang"
  },
  "schemaVersion": "3.4.1",
  "updatedAt": "2021-08-11T01:30:45.159Z",
  "networkType": "ethereum",
  "devdoc": {
    "kind": "dev",
    "methods": {
      "approve(address,uint256)": {
        "details": "See {IERC721-approve}."
      },
      "balanceOf(address)": {
        "details": "See {IERC721-balanceOf}."
      },
      "getApproved(uint256)": {
        "details": "See {IERC721-getApproved}."
      },
      "isApprovedForAll(address,address)": {
        "details": "See {IERC721-isApprovedForAll}."
      },
      "name()": {
        "details": "See {IERC721Metadata-name}."
      },
      "owner()": {
        "details": "Returns the address of the current owner."
      },
      "ownerOf(uint256)": {
        "details": "See {IERC721-ownerOf}."
      },
      "renounceOwnership()": {
        "details": "Leaves the contract without owner. It will not be possible to call `onlyOwner` functions anymore. Can only be called by the current owner. NOTE: Renouncing ownership will leave the contract without an owner, thereby removing any functionality that is only available to the owner."
      },
      "safeTransferFrom(address,address,uint256)": {
        "details": "See {IERC721-safeTransferFrom}."
      },
      "safeTransferFrom(address,address,uint256,bytes)": {
        "details": "See {IERC721-safeTransferFrom}."
      },
      "setApprovalForAll(address,bool)": {
        "details": "See {IERC721-setApprovalForAll}."
      },
      "supportsInterface(bytes4)": {
        "details": "See {IERC165-supportsInterface}."
      },
      "symbol()": {
        "details": "See {IERC721Metadata-symbol}."
      },
      "tokenURI(uint256)": {
        "details": "See {IERC721Metadata-tokenURI}."
      },
      "transferFrom(address,address,uint256)": {
        "details": "See {IERC721-transferFrom}."
      },
      "transferOwnership(address)": {
        "details": "Transfers ownership of the contract to a new account (`newOwner`). Can only be called by the current owner."
      }
    },
    "version": 1
  },
  "userdoc": {
    "kind": "user",
    "methods": {
      "multiCallNFTsOnMarket()": {
        "notice": "Multicall function to fetch all NFTs listed for sale on the market Returns 4 arrays of all tokens for sale which are: 1. array of tokenIds 2. array of tokenURIs 3. array of token prices 4. array of token sellers"
      },
      "onERC721Received(address,address,uint256,bytes)": {
        "notice": "Needed for calling safeTransferFrom "
      }
    },
    "version": 1
  }
}