{
  "contractName": "AuxiunNFT",
  "abi": [
    {
      "inputs": [],
      "stateMutability": "nonpayable",
      "type": "constructor"
    },
    {
      "anonymous": false,
      "inputs": [
        {
          "indexed": true,
          "internalType": "address",
          "name": "owner",
          "type": "address"
        },
        {
          "indexed": true,
          "internalType": "address",
          "name": "approved",
          "type": "address"
        },
        {
          "indexed": true,
          "internalType": "uint256",
          "name": "tokenId",
          "type": "uint256"
        }
      ],
      "name": "Approval",
      "type": "event"
    },
    {
      "anonymous": false,
      "inputs": [
        {
          "indexed": true,
          "internalType": "address",
          "name": "owner",
          "type": "address"
        },
        {
          "indexed": true,
          "internalType": "address",
          "name": "operator",
          "type": "address"
        },
        {
          "indexed": false,
          "internalType": "bool",
          "name": "approved",
          "type": "bool"
        }
      ],
      "name": "ApprovalForAll",
      "type": "event"
    },
    {
      "anonymous": false,
      "inputs": [
        {
          "indexed": true,
          "internalType": "address",
          "name": "previousOwner",
          "type": "address"
        },
        {
          "indexed": true,
          "internalType": "address",
          "name": "newOwner",
          "type": "address"
        }
      ],
      "name": "OwnershipTransferred",
      "type": "event"
    },
    {
      "anonymous": false,
      "inputs": [
        {
          "indexed": true,
          "internalType": "address",
          "name": "from",
          "type": "address"
        },
        {
          "indexed": true,
          "internalType": "address",
          "name": "to",
          "type": "address"
        },
        {
          "indexed": true,
          "internalType": "uint256",
          "name": "tokenId",
          "type": "uint256"
        }
      ],
      "name": "Transfer",
      "type": "event"
    },
    {
      "inputs": [],
      "name": "NFTsOnMarket",
      "outputs": [
        {
          "internalType": "uint256",
          "name": "",
          "type": "uint256"
        }
      ],
      "stateMutability": "view",
      "type": "function"
    },
    {
      "inputs": [
        {
          "internalType": "address",
          "name": "",
          "type": "address"
        }
      ],
      "name": "NFTsOnMarketByAddress",
      "outputs": [
        {
          "internalType": "uint256",
          "name": "",
          "type": "uint256"
        }
      ],
      "stateMutability": "view",
      "type": "function"
    },
    {
      "inputs": [
        {
          "internalType": "address",
          "name": "",
          "type": "address"
        }
      ],
      "name": "admins",
      "outputs": [
        {
          "internalType": "bool",
          "name": "",
          "type": "bool"
        }
      ],
      "stateMutability": "view",
      "type": "function"
    },
    {
      "inputs": [
        {
          "internalType": "address",
          "name": "to",
          "type": "address"
        },
        {
          "internalType": "uint256",
          "name": "tokenId",
          "type": "uint256"
        }
      ],
      "name": "approve",
      "outputs": [],
      "stateMutability": "nonpayable",
      "type": "function"
    },
    {
      "inputs": [
        {
          "internalType": "address",
          "name": "owner",
          "type": "address"
        }
      ],
      "name": "balanceOf",
      "outputs": [
        {
          "internalType": "uint256",
          "name": "",
          "type": "uint256"
        }
      ],
      "stateMutability": "view",
      "type": "function"
    },
    {
      "inputs": [
        {
          "internalType": "uint256",
          "name": "tokenId",
          "type": "uint256"
        }
      ],
      "name": "getApproved",
      "outputs": [
        {
          "internalType": "address",
          "name": "",
          "type": "address"
        }
      ],
      "stateMutability": "view",
      "type": "function"
    },
    {
      "inputs": [
        {
          "internalType": "uint256",
          "name": "",
          "type": "uint256"
        }
      ],
      "name": "id_to_marketDetails",
      "outputs": [
        {
          "internalType": "bool",
          "name": "forSale",
          "type": "bool"
        },
        {
          "internalType": "uint256",
          "name": "price",
          "type": "uint256"
        },
        {
          "internalType": "address",
          "name": "seller",
          "type": "address"
        }
      ],
      "stateMutability": "view",
      "type": "function"
    },
    {
      "inputs": [
        {
          "internalType": "uint256",
          "name": "",
          "type": "uint256"
        }
      ],
      "name": "id_to_metadata",
      "outputs": [
        {
          "internalType": "string",
          "name": "game_id",
          "type": "string"
        },
        {
          "internalType": "string",
          "name": "item_id",
          "type": "string"
        }
      ],
      "stateMutability": "view",
      "type": "function"
    },
    {
      "inputs": [
        {
          "internalType": "address",
          "name": "owner",
          "type": "address"
        },
        {
          "internalType": "address",
          "name": "operator",
          "type": "address"
        }
      ],
      "name": "isApprovedForAll",
      "outputs": [
        {
          "internalType": "bool",
          "name": "",
          "type": "bool"
        }
      ],
      "stateMutability": "view",
      "type": "function"
    },
    {
      "inputs": [],
      "name": "name",
      "outputs": [
        {
          "internalType": "string",
          "name": "",
          "type": "string"
        }
      ],
      "stateMutability": "view",
      "type": "function"
    },
    {
      "inputs": [],
      "name": "owner",
      "outputs": [
        {
          "internalType": "address",
          "name": "",
          "type": "address"
        }
      ],
      "stateMutability": "view",
      "type": "function"
    },
    {
      "inputs": [
        {
          "internalType": "uint256",
          "name": "tokenId",
          "type": "uint256"
        }
      ],
      "name": "ownerOf",
      "outputs": [
        {
          "internalType": "address",
          "name": "",
          "type": "address"
        }
      ],
      "stateMutability": "view",
      "type": "function"
    },
    {
      "inputs": [],
      "name": "renounceOwnership",
      "outputs": [],
      "stateMutability": "nonpayable",
      "type": "function"
    },
    {
      "inputs": [
        {
          "internalType": "address",
          "name": "from",
          "type": "address"
        },
        {
          "internalType": "address",
          "name": "to",
          "type": "address"
        },
        {
          "internalType": "uint256",
          "name": "tokenId",
          "type": "uint256"
        }
      ],
      "name": "safeTransferFrom",
      "outputs": [],
      "stateMutability": "nonpayable",
      "type": "function"
    },
    {
      "inputs": [
        {
          "internalType": "address",
          "name": "from",
          "type": "address"
        },
        {
          "internalType": "address",
          "name": "to",
          "type": "address"
        },
        {
          "internalType": "uint256",
          "name": "tokenId",
          "type": "uint256"
        },
        {
          "internalType": "bytes",
          "name": "_data",
          "type": "bytes"
        }
      ],
      "name": "safeTransferFrom",
      "outputs": [],
      "stateMutability": "nonpayable",
      "type": "function"
    },
    {
      "inputs": [
        {
          "internalType": "address",
          "name": "operator",
          "type": "address"
        },
        {
          "internalType": "bool",
          "name": "approved",
          "type": "bool"
        }
      ],
      "name": "setApprovalForAll",
      "outputs": [],
      "stateMutability": "nonpayable",
      "type": "function"
    },
    {
      "inputs": [
        {
          "internalType": "bytes4",
          "name": "interfaceId",
          "type": "bytes4"
        }
      ],
      "name": "supportsInterface",
      "outputs": [
        {
          "internalType": "bool",
          "name": "",
          "type": "bool"
        }
      ],
      "stateMutability": "view",
      "type": "function"
    },
    {
      "inputs": [],
      "name": "symbol",
      "outputs": [
        {
          "internalType": "string",
          "name": "",
          "type": "string"
        }
      ],
      "stateMutability": "view",
      "type": "function"
    },
    {
      "inputs": [],
      "name": "tokenIdCounter",
      "outputs": [
        {
          "internalType": "uint256",
          "name": "",
          "type": "uint256"
        }
      ],
      "stateMutability": "view",
      "type": "function"
    },
    {
      "inputs": [
        {
          "internalType": "uint256",
          "name": "",
          "type": "uint256"
        }
      ],
      "name": "transactionHistory",
      "outputs": [
        {
          "internalType": "uint256",
          "name": "tokenId",
          "type": "uint256"
        },
        {
          "internalType": "address",
          "name": "buyer",
          "type": "address"
        },
        {
          "internalType": "address",
          "name": "seller",
          "type": "address"
        },
        {
          "internalType": "uint256",
          "name": "price",
          "type": "uint256"
        },
        {
          "internalType": "uint256",
          "name": "timestamp",
          "type": "uint256"
        }
      ],
      "stateMutability": "view",
      "type": "function"
    },
    {
      "inputs": [
        {
          "internalType": "address",
          "name": "",
          "type": "address"
        }
      ],
      "name": "transactionHistoryCount",
      "outputs": [
        {
          "internalType": "uint256",
          "name": "",
          "type": "uint256"
        }
      ],
      "stateMutability": "view",
      "type": "function"
    },
    {
      "inputs": [
        {
          "internalType": "address",
          "name": "from",
          "type": "address"
        },
        {
          "internalType": "address",
          "name": "to",
          "type": "address"
        },
        {
          "internalType": "uint256",
          "name": "tokenId",
          "type": "uint256"
        }
      ],
      "name": "transferFrom",
      "outputs": [],
      "stateMutability": "nonpayable",
      "type": "function"
    },
    {
      "inputs": [
        {
          "internalType": "address",
          "name": "newOwner",
          "type": "address"
        }
      ],
      "name": "transferOwnership",
      "outputs": [],
      "stateMutability": "nonpayable",
      "type": "function"
    },
    {
      "stateMutability": "payable",
      "type": "receive"
    },
    {
      "inputs": [
        {
          "internalType": "string",
          "name": "inputbaseURI",
          "type": "string"
        }
      ],
      "name": "setBaseURI",
      "outputs": [],
      "stateMutability": "nonpayable",
      "type": "function"
    },
    {
      "inputs": [
        {
          "internalType": "uint256",
          "name": "tokenId",
          "type": "uint256"
        }
      ],
      "name": "tokenURI",
      "outputs": [
        {
          "internalType": "string",
          "name": "",
          "type": "string"
        }
      ],
      "stateMutability": "view",
      "type": "function"
    },
    {
      "inputs": [
        {
          "internalType": "address",
          "name": "to",
          "type": "address"
        },
        {
          "internalType": "string",
          "name": "game_id",
          "type": "string"
        },
        {
          "internalType": "string",
          "name": "item_id",
          "type": "string"
        }
      ],
      "name": "mint",
      "outputs": [],
      "stateMutability": "nonpayable",
      "type": "function"
    },
    {
      "inputs": [],
      "name": "getTransactionHistoryLength",
      "outputs": [
        {
          "internalType": "uint256",
          "name": "",
          "type": "uint256"
        }
      ],
      "stateMutability": "view",
      "type": "function"
    },
    {
      "inputs": [
        {
          "internalType": "address",
          "name": "_address",
          "type": "address"
        }
      ],
      "name": "addAdminAddress",
      "outputs": [],
      "stateMutability": "nonpayable",
      "type": "function"
    },
    {
      "inputs": [
        {
          "internalType": "address",
          "name": "_address",
          "type": "address"
        }
      ],
      "name": "removeAdminAddress",
      "outputs": [],
      "stateMutability": "nonpayable",
      "type": "function"
    },
    {
      "inputs": [
        {
          "internalType": "address",
          "name": "_address",
          "type": "address"
        }
      ],
      "name": "isAdminAddress",
      "outputs": [
        {
          "internalType": "bool",
          "name": "",
          "type": "bool"
        }
      ],
      "stateMutability": "view",
      "type": "function"
    },
    {
      "inputs": [
        {
          "internalType": "uint256",
          "name": "tokenId",
          "type": "uint256"
        },
        {
          "internalType": "uint256",
          "name": "price",
          "type": "uint256"
        }
      ],
      "name": "listNFTOnMarket",
      "outputs": [],
      "stateMutability": "payable",
      "type": "function"
    },
    {
      "inputs": [
        {
          "internalType": "uint256",
          "name": "tokenId",
          "type": "uint256"
        }
      ],
      "name": "removeNFTFromMarket",
      "outputs": [],
      "stateMutability": "nonpayable",
      "type": "function"
    },
    {
      "inputs": [
        {
          "internalType": "uint256",
          "name": "tokenId",
          "type": "uint256"
        }
      ],
      "name": "purchaseNFT",
      "outputs": [],
      "stateMutability": "payable",
      "type": "function"
    },
    {
      "inputs": [
        {
          "internalType": "uint256",
          "name": "tokenId",
          "type": "uint256"
        }
      ],
      "name": "fetchNFTDataById",
      "outputs": [
        {
          "internalType": "string",
          "name": "",
          "type": "string"
        },
        {
          "internalType": "uint256",
          "name": "",
          "type": "uint256"
        },
        {
          "internalType": "address",
          "name": "",
          "type": "address"
        }
      ],
      "stateMutability": "view",
      "type": "function"
    },
    {
      "inputs": [],
      "name": "kill",
      "outputs": [],
      "stateMutability": "nonpayable",
      "type": "function"
    },
    {
      "inputs": [
        {
          "internalType": "address",
          "name": "",
          "type": "address"
        },
        {
          "internalType": "address",
          "name": "",
          "type": "address"
        },
        {
          "internalType": "uint256",
          "name": "",
          "type": "uint256"
        },
        {
          "internalType": "bytes",
          "name": "",
          "type": "bytes"
        }
      ],
      "name": "onERC721Received",
      "outputs": [
        {
          "internalType": "bytes4",
          "name": "",
          "type": "bytes4"
        }
      ],
      "stateMutability": "nonpayable",
      "type": "function"
    }
  ],
  "bytecode": "0x60806040526000600d556000600e553480156200001b57600080fd5b506040518060400160405280600981526020017f41757869756e4e465400000000000000000000000000000000000000000000008152506040518060400160405280600481526020017f4155584e00000000000000000000000000000000000000000000000000000000815250620000a86200009c6200011460201b60201c565b6200011c60201b60201c565b8160019080519060200190620000c0929190620001e0565b508060029080519060200190620000d9929190620001e0565b50505060405180606001604052806022815260200162004e7f60229139600c90805190602001906200010d929190620001e0565b50620002f5565b600033905090565b60008060009054906101000a900473ffffffffffffffffffffffffffffffffffffffff169050816000806101000a81548173ffffffffffffffffffffffffffffffffffffffff021916908373ffffffffffffffffffffffffffffffffffffffff1602179055508173ffffffffffffffffffffffffffffffffffffffff168173ffffffffffffffffffffffffffffffffffffffff167f8be0079c531659141344cd1fd0a4f28419497f9722a3daafe3b4186f6b6457e060405160405180910390a35050565b828054620001ee9062000290565b90600052602060002090601f0160209004810192826200021257600085556200025e565b82601f106200022d57805160ff19168380011785556200025e565b828001600101855582156200025e579182015b828111156200025d57825182559160200191906001019062000240565b5b5090506200026d919062000271565b5090565b5b808211156200028c57600081600090555060010162000272565b5090565b60006002820490506001821680620002a957607f821691505b60208210811415620002c057620002bf620002c6565b5b50919050565b7f4e487b7100000000000000000000000000000000000000000000000000000000600052602260045260246000fd5b614b7a80620003056000396000f3fe6080604052600436106102125760003560e01c806370a08231116101185780639f71c3c9116100a0578063c4e2152b1161006f578063c4e2152b146107c7578063c87b56dd14610804578063e985e9c514610841578063eabb37721461087e578063f2fde38b146108bc57610219565b80639f71c3c91461070d578063a22cb46514610738578063b7cde64114610761578063b88d4fde1461079e57610219565b806395101181116100e7578063951011811461062657806395d89b411461064f57806398bdf6f51461067a57806399071190146106a55780639a819303146106ce57610219565b806370a082311461058b578063715018a6146105c8578063741e0320146105df5780638da5cb5b146105fb57610219565b80631684fd241161019b57806342842e0e1161016a57806342842e0e14610494578063429b62e5146104bd57806355f804b3146104fa5780636352211e146105235780636e0668301461056057610219565b80631684fd24146103ea57806323b872dd14610413578063243e7a871461043c57806341c0e1b51461047d57610219565b8063081812fc116101e2578063081812fc146102ec578063095ea7b31461032957806311e6820a14610352578063150b7a0214610391578063150bde03146103ce57610219565b80624fba001461021e57806301ffc9a7146102475780630236bb5a1461028457806306fdde03146102c157610219565b3661021957005b600080fd5b34801561022a57600080fd5b50610245600480360381019061024091906136a9565b6108e5565b005b34801561025357600080fd5b5061026e600480360381019061026991906138cf565b6109bc565b60405161027b919061431f565b60405180910390f35b34801561029057600080fd5b506102ab60048036038101906102a691906136a9565b610a9e565b6040516102b8919061431f565b60405180910390f35b3480156102cd57600080fd5b506102d6610af4565b6040516102e3919061438c565b60405180910390f35b3480156102f857600080fd5b50610313600480360381019061030e9190613962565b610b86565b60405161032091906142b8565b60405180910390f35b34801561033557600080fd5b50610350600480360381019061034b9190613893565b610c0b565b005b34801561035e57600080fd5b5061037960048036038101906103749190613962565b610d23565b6040516103889392919061433a565b60405180910390f35b34801561039d57600080fd5b506103b860048036038101906103b3919061375d565b610d7a565b6040516103c59190614371565b60405180910390f35b6103e860048036038101906103e39190613962565b610d8e565b005b3480156103f657600080fd5b50610411600480360381019061040c9190613962565b611272565b005b34801561041f57600080fd5b5061043a6004803603810190610435919061370e565b611388565b005b34801561044857600080fd5b50610463600480360381019061045e9190613962565b6113e8565b60405161047495949392919061473e565b60405180910390f35b34801561048957600080fd5b5061049261146e565b005b3480156104a057600080fd5b506104bb60048036038101906104b6919061370e565b61150a565b005b3480156104c957600080fd5b506104e460048036038101906104df91906136a9565b61152a565b6040516104f1919061431f565b60405180910390f35b34801561050657600080fd5b50610521600480360381019061051c9190613921565b61154a565b005b34801561052f57600080fd5b5061054a60048036038101906105459190613962565b6115e0565b60405161055791906142b8565b60405180910390f35b34801561056c57600080fd5b50610575611692565b6040516105829190614723565b60405180910390f35b34801561059757600080fd5b506105b260048036038101906105ad91906136a9565b611698565b6040516105bf9190614723565b60405180910390f35b3480156105d457600080fd5b506105dd611750565b005b6105f960048036038101906105f4919061398b565b6117d8565b005b34801561060757600080fd5b506106106119e1565b60405161061d91906142b8565b60405180910390f35b34801561063257600080fd5b5061064d600480360381019061064891906136a9565b611a0a565b005b34801561065b57600080fd5b50610664611ae1565b604051610671919061438c565b60405180910390f35b34801561068657600080fd5b5061068f611b73565b60405161069c9190614723565b60405180910390f35b3480156106b157600080fd5b506106cc60048036038101906106c79190613814565b611b79565b005b3480156106da57600080fd5b506106f560048036038101906106f09190613962565b611c99565b604051610704939291906143e5565b60405180910390f35b34801561071957600080fd5b50610722611d02565b60405161072f9190614723565b60405180910390f35b34801561074457600080fd5b5061075f600480360381019061075a91906137d8565b611d0f565b005b34801561076d57600080fd5b50610788600480360381019061078391906136a9565b611e90565b6040516107959190614723565b60405180910390f35b3480156107aa57600080fd5b506107c560048036038101906107c0919061375d565b611ea8565b005b3480156107d357600080fd5b506107ee60048036038101906107e991906136a9565b611f0a565b6040516107fb9190614723565b60405180910390f35b34801561081057600080fd5b5061082b60048036038101906108269190613962565b611f22565b604051610838919061438c565b60405180910390f35b34801561084d57600080fd5b50610868600480360381019061086391906136d2565b612107565b604051610875919061431f565b60405180910390f35b34801561088a57600080fd5b506108a560048036038101906108a09190613962565b61219b565b6040516108b39291906143ae565b60405180910390f35b3480156108c857600080fd5b506108e360048036038101906108de91906136a9565b6122cf565b005b6108ed6123c7565b73ffffffffffffffffffffffffffffffffffffffff1661090b6119e1565b73ffffffffffffffffffffffffffffffffffffffff1614610961576040517f08c379a000000000000000000000000000000000000000000000000000000000815260040161095890614603565b60405180910390fd5b6001600b60008373ffffffffffffffffffffffffffffffffffffffff1673ffffffffffffffffffffffffffffffffffffffff16815260200190815260200160002060006101000a81548160ff02191690831515021790555050565b60007f80ac58cd000000000000000000000000000000000000000000000000000000007bffffffffffffffffffffffffffffffffffffffffffffffffffffffff1916827bffffffffffffffffffffffffffffffffffffffffffffffffffffffff19161480610a8757507f5b5e139f000000000000000000000000000000000000000000000000000000007bffffffffffffffffffffffffffffffffffffffffffffffffffffffff1916827bffffffffffffffffffffffffffffffffffffffffffffffffffffffff1916145b80610a975750610a96826123cf565b5b9050919050565b6000600b60008373ffffffffffffffffffffffffffffffffffffffff1673ffffffffffffffffffffffffffffffffffffffff16815260200190815260200160002060009054906101000a900460ff169050919050565b606060018054610b03906149cf565b80601f0160208091040260200160405190810160405280929190818152602001828054610b2f906149cf565b8015610b7c5780601f10610b5157610100808354040283529160200191610b7c565b820191906000526020600020905b815481529060010190602001808311610b5f57829003601f168201915b5050505050905090565b6000610b9182612439565b610bd0576040517f08c379a0000000000000000000000000000000000000000000000000000000008152600401610bc7906145e3565b60405180910390fd5b6005600083815260200190815260200160002060009054906101000a900473ffffffffffffffffffffffffffffffffffffffff169050919050565b6000610c16826115e0565b90508073ffffffffffffffffffffffffffffffffffffffff168373ffffffffffffffffffffffffffffffffffffffff161415610c87576040517f08c379a0000000000000000000000000000000000000000000000000000000008152600401610c7e90614683565b60405180910390fd5b8073ffffffffffffffffffffffffffffffffffffffff16610ca66123c7565b73ffffffffffffffffffffffffffffffffffffffff161480610cd55750610cd481610ccf6123c7565b612107565b5b610d14576040517f08c379a0000000000000000000000000000000000000000000000000000000008152600401610d0b90614563565b60405180910390fd5b610d1e83836124a5565b505050565b60076020528060005260406000206000915090508060000160009054906101000a900460ff16908060010154908060020160009054906101000a900473ffffffffffffffffffffffffffffffffffffffff16905083565b600063150b7a0260e01b9050949350505050565b80610d9881612439565b610dd7576040517f08c379a0000000000000000000000000000000000000000000000000000000008152600401610dce906146e3565b60405180910390fd5b3373ffffffffffffffffffffffffffffffffffffffff166007600084815260200190815260200160002060020160009054906101000a900473ffffffffffffffffffffffffffffffffffffffff1673ffffffffffffffffffffffffffffffffffffffff161415610e7c576040517f08c379a0000000000000000000000000000000000000000000000000000000008152600401610e7390614423565b60405180910390fd5b6007600083815260200190815260200160002060000160009054906101000a900460ff16610edf576040517f08c379a0000000000000000000000000000000000000000000000000000000008152600401610ed690614663565b60405180910390fd5b3460076000848152602001908152602001600020600101541115610f38576040517f08c379a0000000000000000000000000000000000000000000000000000000008152600401610f2f906146c3565b60405180910390fd5b60006007600084815260200190815260200160002060020160009054906101000a900473ffffffffffffffffffffffffffffffffffffffff169050600060076000858152602001908152602001600020600101549050610fce846007600087815260200190815260200160002060020160009054906101000a900473ffffffffffffffffffffffffffffffffffffffff1661255e565b60008273ffffffffffffffffffffffffffffffffffffffff1634604051610ff4906142a3565b60006040518083038185875af1925050503d8060008114611031576040519150601f19603f3d011682016040523d82523d6000602084013e611036565b606091505b505090508061107a576040517f08c379a000000000000000000000000000000000000000000000000000000000815260040161107190614703565b60405180910390fd5b611095303387604051806020016040528060008152506126d6565b60096040518060a001604052808781526020013373ffffffffffffffffffffffffffffffffffffffff1681526020018573ffffffffffffffffffffffffffffffffffffffff1681526020018481526020014281525090806001815401808255809150506001900390600052602060002090600502016000909190919091506000820151816000015560208201518160010160006101000a81548173ffffffffffffffffffffffffffffffffffffffff021916908373ffffffffffffffffffffffffffffffffffffffff16021790555060408201518160020160006101000a81548173ffffffffffffffffffffffffffffffffffffffff021916908373ffffffffffffffffffffffffffffffffffffffff16021790555060608201518160030155608082015181600401555050600a60003373ffffffffffffffffffffffffffffffffffffffff1673ffffffffffffffffffffffffffffffffffffffff168152602001908152602001600020600081548092919061121190614a01565b9190505550600a60008473ffffffffffffffffffffffffffffffffffffffff1673ffffffffffffffffffffffffffffffffffffffff168152602001908152602001600020600081548092919061126690614a01565b91905055505050505050565b8061127c81612439565b6112bb576040517f08c379a00000000000000000000000000000000000000000000000000000000081526004016112b2906146e3565b60405180910390fd5b3373ffffffffffffffffffffffffffffffffffffffff166007600084815260200190815260200160002060020160009054906101000a900473ffffffffffffffffffffffffffffffffffffffff1673ffffffffffffffffffffffffffffffffffffffff161461135f576040517f08c379a000000000000000000000000000000000000000000000000000000000815260040161135690614523565b60405180910390fd5b611369823361255e565b611384303384604051806020016040528060008152506126d6565b5050565b6113996113936123c7565b82612732565b6113d8576040517f08c379a00000000000000000000000000000000000000000000000000000000081526004016113cf906146a3565b60405180910390fd5b6113e3838383612810565b505050565b600981815481106113f857600080fd5b90600052602060002090600502016000915090508060000154908060010160009054906101000a900473ffffffffffffffffffffffffffffffffffffffff16908060020160009054906101000a900473ffffffffffffffffffffffffffffffffffffffff16908060030154908060040154905085565b6114766123c7565b73ffffffffffffffffffffffffffffffffffffffff166114946119e1565b73ffffffffffffffffffffffffffffffffffffffff16146114ea576040517f08c379a00000000000000000000000000000000000000000000000000000000081526004016114e190614603565b60405180910390fd5b6114f26119e1565b73ffffffffffffffffffffffffffffffffffffffff16ff5b61152583838360405180602001604052806000815250611ea8565b505050565b600b6020528060005260406000206000915054906101000a900460ff1681565b6115526123c7565b73ffffffffffffffffffffffffffffffffffffffff166115706119e1565b73ffffffffffffffffffffffffffffffffffffffff16146115c6576040517f08c379a00000000000000000000000000000000000000000000000000000000081526004016115bd90614603565b60405180910390fd5b80600c90805190602001906115dc9291906134cd565b5050565b6000806003600084815260200190815260200160002060009054906101000a900473ffffffffffffffffffffffffffffffffffffffff169050600073ffffffffffffffffffffffffffffffffffffffff168173ffffffffffffffffffffffffffffffffffffffff161415611689576040517f08c379a0000000000000000000000000000000000000000000000000000000008152600401611680906145a3565b60405180910390fd5b80915050919050565b600e5481565b60008073ffffffffffffffffffffffffffffffffffffffff168273ffffffffffffffffffffffffffffffffffffffff161415611709576040517f08c379a000000000000000000000000000000000000000000000000000000000815260040161170090614583565b60405180910390fd5b600460008373ffffffffffffffffffffffffffffffffffffffff1673ffffffffffffffffffffffffffffffffffffffff168152602001908152602001600020549050919050565b6117586123c7565b73ffffffffffffffffffffffffffffffffffffffff166117766119e1565b73ffffffffffffffffffffffffffffffffffffffff16146117cc576040517f08c379a00000000000000000000000000000000000000000000000000000000081526004016117c390614603565b60405180910390fd5b6117d66000612a6c565b565b816117e281612439565b611821576040517f08c379a0000000000000000000000000000000000000000000000000000000008152600401611818906146e3565b60405180910390fd5b823373ffffffffffffffffffffffffffffffffffffffff16611842826115e0565b73ffffffffffffffffffffffffffffffffffffffff1614611898576040517f08c379a000000000000000000000000000000000000000000000000000000000815260040161188f90614443565b60405180910390fd5b60405180606001604052806001151581526020018481526020013373ffffffffffffffffffffffffffffffffffffffff168152506007600086815260200190815260200160002060008201518160000160006101000a81548160ff0219169083151502179055506020820151816001015560408201518160020160006101000a81548173ffffffffffffffffffffffffffffffffffffffff021916908373ffffffffffffffffffffffffffffffffffffffff160217905550905050600f60003373ffffffffffffffffffffffffffffffffffffffff1673ffffffffffffffffffffffffffffffffffffffff16815260200190815260200160002060008154809291906119a390614a01565b9190505550600e60008154809291906119bb90614a01565b91905055506119db333086604051806020016040528060008152506126d6565b50505050565b60008060009054906101000a900473ffffffffffffffffffffffffffffffffffffffff16905090565b611a126123c7565b73ffffffffffffffffffffffffffffffffffffffff16611a306119e1565b73ffffffffffffffffffffffffffffffffffffffff1614611a86576040517f08c379a0000000000000000000000000000000000000000000000000000000008152600401611a7d90614603565b60405180910390fd5b6000600b60008373ffffffffffffffffffffffffffffffffffffffff1673ffffffffffffffffffffffffffffffffffffffff16815260200190815260200160002060006101000a81548160ff02191690831515021790555050565b606060028054611af0906149cf565b80601f0160208091040260200160405190810160405280929190818152602001828054611b1c906149cf565b8015611b695780601f10611b3e57610100808354040283529160200191611b69565b820191906000526020600020905b815481529060010190602001808311611b4c57829003601f168201915b5050505050905090565b600d5481565b600b60003373ffffffffffffffffffffffffffffffffffffffff1673ffffffffffffffffffffffffffffffffffffffff16815260200190815260200160002060009054906101000a900460ff16611c05576040517f08c379a0000000000000000000000000000000000000000000000000000000008152600401611bfc906144c3565b60405180910390fd5b6000600d549050600d6000815480929190611c1f90614a01565b9190505550604051806040016040528084815260200183815250600860008381526020019081526020016000206000820151816000019080519060200190611c689291906134cd565b506020820151816001019080519060200190611c859291906134cd565b50905050611c938482612b30565b50505050565b6060600080611ca784611f22565b60076000868152602001908152602001600020600101546007600087815260200190815260200160002060020160009054906101000a900473ffffffffffffffffffffffffffffffffffffffff169250925092509193909250565b6000600980549050905090565b611d176123c7565b73ffffffffffffffffffffffffffffffffffffffff168273ffffffffffffffffffffffffffffffffffffffff161415611d85576040517f08c379a0000000000000000000000000000000000000000000000000000000008152600401611d7c90614503565b60405180910390fd5b8060066000611d926123c7565b73ffffffffffffffffffffffffffffffffffffffff1673ffffffffffffffffffffffffffffffffffffffff16815260200190815260200160002060008473ffffffffffffffffffffffffffffffffffffffff1673ffffffffffffffffffffffffffffffffffffffff16815260200190815260200160002060006101000a81548160ff0219169083151502179055508173ffffffffffffffffffffffffffffffffffffffff16611e3f6123c7565b73ffffffffffffffffffffffffffffffffffffffff167f17307eab39ab6107e8899845ad3d59bd9653f200f220920489ca2b5937696c3183604051611e84919061431f565b60405180910390a35050565b600a6020528060005260406000206000915090505481565b611eb9611eb36123c7565b83612732565b611ef8576040517f08c379a0000000000000000000000000000000000000000000000000000000008152600401611eef906146a3565b60405180910390fd5b611f04848484846126d6565b50505050565b600f6020528060005260406000206000915090505481565b6060611f2d82612439565b611f6c576040517f08c379a0000000000000000000000000000000000000000000000000000000008152600401611f6390614643565b60405180910390fd5b612100611f77612b4e565b600860008581526020019081526020016000206000018054611f98906149cf565b80601f0160208091040260200160405190810160405280929190818152602001828054611fc4906149cf565b80156120115780601f10611fe657610100808354040283529160200191612011565b820191906000526020600020905b815481529060010190602001808311611ff457829003601f168201915b50505050506040518060400160405280600181526020017f2f0000000000000000000000000000000000000000000000000000000000000081525060086000878152602001908152602001600020600101805461206d906149cf565b80601f0160208091040260200160405190810160405280929190818152602001828054612099906149cf565b80156120e65780601f106120bb576101008083540402835291602001916120e6565b820191906000526020600020905b8154815290600101906020018083116120c957829003601f168201915b505050505060405180602001604052806000815250612be0565b9050919050565b6000600660008473ffffffffffffffffffffffffffffffffffffffff1673ffffffffffffffffffffffffffffffffffffffff16815260200190815260200160002060008373ffffffffffffffffffffffffffffffffffffffff1673ffffffffffffffffffffffffffffffffffffffff16815260200190815260200160002060009054906101000a900460ff16905092915050565b60086020528060005260406000206000915090508060000180546121be906149cf565b80601f01602080910402602001604051908101604052809291908181526020018280546121ea906149cf565b80156122375780601f1061220c57610100808354040283529160200191612237565b820191906000526020600020905b81548152906001019060200180831161221a57829003601f168201915b50505050509080600101805461224c906149cf565b80601f0160208091040260200160405190810160405280929190818152602001828054612278906149cf565b80156122c55780601f1061229a576101008083540402835291602001916122c5565b820191906000526020600020905b8154815290600101906020018083116122a857829003601f168201915b5050505050905082565b6122d76123c7565b73ffffffffffffffffffffffffffffffffffffffff166122f56119e1565b73ffffffffffffffffffffffffffffffffffffffff161461234b576040517f08c379a000000000000000000000000000000000000000000000000000000000815260040161234290614603565b60405180910390fd5b600073ffffffffffffffffffffffffffffffffffffffff168173ffffffffffffffffffffffffffffffffffffffff1614156123bb576040517f08c379a00000000000000000000000000000000000000000000000000000000081526004016123b290614483565b60405180910390fd5b6123c481612a6c565b50565b600033905090565b60007f01ffc9a7000000000000000000000000000000000000000000000000000000007bffffffffffffffffffffffffffffffffffffffffffffffffffffffff1916827bffffffffffffffffffffffffffffffffffffffffffffffffffffffff1916149050919050565b60008073ffffffffffffffffffffffffffffffffffffffff166003600084815260200190815260200160002060009054906101000a900473ffffffffffffffffffffffffffffffffffffffff1673ffffffffffffffffffffffffffffffffffffffff1614159050919050565b816005600083815260200190815260200160002060006101000a81548173ffffffffffffffffffffffffffffffffffffffff021916908373ffffffffffffffffffffffffffffffffffffffff160217905550808273ffffffffffffffffffffffffffffffffffffffff16612518836115e0565b73ffffffffffffffffffffffffffffffffffffffff167f8c5be1e5ebec7d5bd14f71427d1e84f3dd0314c0f7b2291e5b200ac8c7c3b92560405160405180910390a45050565b8161256881612439565b6125a7576040517f08c379a000000000000000000000000000000000000000000000000000000000815260040161259e906146e3565b60405180910390fd5b604051806060016040528060001515815260200160008152602001600073ffffffffffffffffffffffffffffffffffffffff168152506007600085815260200190815260200160002060008201518160000160006101000a81548160ff0219169083151502179055506020820151816001015560408201518160020160006101000a81548173ffffffffffffffffffffffffffffffffffffffff021916908373ffffffffffffffffffffffffffffffffffffffff160217905550905050600f60008373ffffffffffffffffffffffffffffffffffffffff1673ffffffffffffffffffffffffffffffffffffffff16815260200190815260200160002060008154809291906126b4906149a5565b9190505550600e60008154809291906126cc906149a5565b9190505550505050565b6126e1848484612810565b6126ed848484846130f5565b61272c576040517f08c379a000000000000000000000000000000000000000000000000000000000815260040161272390614463565b60405180910390fd5b50505050565b600061273d82612439565b61277c576040517f08c379a000000000000000000000000000000000000000000000000000000000815260040161277390614543565b60405180910390fd5b6000612787836115e0565b90508073ffffffffffffffffffffffffffffffffffffffff168473ffffffffffffffffffffffffffffffffffffffff1614806127f657508373ffffffffffffffffffffffffffffffffffffffff166127de84610b86565b73ffffffffffffffffffffffffffffffffffffffff16145b8061280757506128068185612107565b5b91505092915050565b8273ffffffffffffffffffffffffffffffffffffffff16612830826115e0565b73ffffffffffffffffffffffffffffffffffffffff1614612886576040517f08c379a000000000000000000000000000000000000000000000000000000000815260040161287d90614623565b60405180910390fd5b600073ffffffffffffffffffffffffffffffffffffffff168273ffffffffffffffffffffffffffffffffffffffff1614156128f6576040517f08c379a00000000000000000000000000000000000000000000000000000000081526004016128ed906144e3565b60405180910390fd5b61290183838361328c565b61290c6000826124a5565b6001600460008573ffffffffffffffffffffffffffffffffffffffff1673ffffffffffffffffffffffffffffffffffffffff168152602001908152602001600020600082825461295c91906148bb565b925050819055506001600460008473ffffffffffffffffffffffffffffffffffffffff1673ffffffffffffffffffffffffffffffffffffffff16815260200190815260200160002060008282546129b39190614865565b92505081905550816003600083815260200190815260200160002060006101000a81548173ffffffffffffffffffffffffffffffffffffffff021916908373ffffffffffffffffffffffffffffffffffffffff160217905550808273ffffffffffffffffffffffffffffffffffffffff168473ffffffffffffffffffffffffffffffffffffffff167fddf252ad1be2c89b69c2b068fc378daa952ba7f163c4a11628f55a4df523b3ef60405160405180910390a4505050565b60008060009054906101000a900473ffffffffffffffffffffffffffffffffffffffff169050816000806101000a81548173ffffffffffffffffffffffffffffffffffffffff021916908373ffffffffffffffffffffffffffffffffffffffff1602179055508173ffffffffffffffffffffffffffffffffffffffff168173ffffffffffffffffffffffffffffffffffffffff167f8be0079c531659141344cd1fd0a4f28419497f9722a3daafe3b4186f6b6457e060405160405180910390a35050565b612b4a828260405180602001604052806000815250613291565b5050565b6060600c8054612b5d906149cf565b80601f0160208091040260200160405190810160405280929190818152602001828054612b89906149cf565b8015612bd65780601f10612bab57610100808354040283529160200191612bd6565b820191906000526020600020905b815481529060010190602001808311612bb957829003601f168201915b5050505050905090565b606060008690506000869050600086905060008690506000869050600081518351855187518951612c119190614865565b612c1b9190614865565b612c259190614865565b612c2f9190614865565b67ffffffffffffffff811115612c6e577f4e487b7100000000000000000000000000000000000000000000000000000000600052604160045260246000fd5b6040519080825280601f01601f191660200182016040528015612ca05781602001600182028036833780820191505090505b50905060008190506000805b8851811015612d8057888181518110612cee577f4e487b7100000000000000000000000000000000000000000000000000000000600052603260045260246000fd5b602001015160f81c60f81b838380612d0590614a01565b945081518110612d3e577f4e487b7100000000000000000000000000000000000000000000000000000000600052603260045260246000fd5b60200101907effffffffffffffffffffffffffffffffffffffffffffffffffffffffffffff1916908160001a9053508080612d7890614a01565b915050612cac565b5060005b8751811015612e5857878181518110612dc6577f4e487b7100000000000000000000000000000000000000000000000000000000600052603260045260246000fd5b602001015160f81c60f81b838380612ddd90614a01565b945081518110612e16577f4e487b7100000000000000000000000000000000000000000000000000000000600052603260045260246000fd5b60200101907effffffffffffffffffffffffffffffffffffffffffffffffffffffffffffff1916908160001a9053508080612e5090614a01565b915050612d84565b5060005b8651811015612f3057868181518110612e9e577f4e487b7100000000000000000000000000000000000000000000000000000000600052603260045260246000fd5b602001015160f81c60f81b838380612eb590614a01565b945081518110612eee577f4e487b7100000000000000000000000000000000000000000000000000000000600052603260045260246000fd5b60200101907effffffffffffffffffffffffffffffffffffffffffffffffffffffffffffff1916908160001a9053508080612f2890614a01565b915050612e5c565b5060005b855181101561300857858181518110612f76577f4e487b7100000000000000000000000000000000000000000000000000000000600052603260045260246000fd5b602001015160f81c60f81b838380612f8d90614a01565b945081518110612fc6577f4e487b7100000000000000000000000000000000000000000000000000000000600052603260045260246000fd5b60200101907effffffffffffffffffffffffffffffffffffffffffffffffffffffffffffff1916908160001a905350808061300090614a01565b915050612f34565b5060005b84518110156130e05784818151811061304e577f4e487b7100000000000000000000000000000000000000000000000000000000600052603260045260246000fd5b602001015160f81c60f81b83838061306590614a01565b94508151811061309e577f4e487b7100000000000000000000000000000000000000000000000000000000600052603260045260246000fd5b60200101907effffffffffffffffffffffffffffffffffffffffffffffffffffffffffffff1916908160001a90535080806130d890614a01565b91505061300c565b50819850505050505050505095945050505050565b60006131168473ffffffffffffffffffffffffffffffffffffffff166132ec565b1561327f578373ffffffffffffffffffffffffffffffffffffffff1663150b7a0261313f6123c7565b8786866040518563ffffffff1660e01b815260040161316194939291906142d3565b602060405180830381600087803b15801561317b57600080fd5b505af19250505080156131ac57506040513d601f19601f820116820180604052508101906131a991906138f8565b60015b61322f573d80600081146131dc576040519150601f19603f3d011682016040523d82523d6000602084013e6131e1565b606091505b50600081511415613227576040517f08c379a000000000000000000000000000000000000000000000000000000000815260040161321e90614463565b60405180910390fd5b805181602001fd5b63150b7a0260e01b7bffffffffffffffffffffffffffffffffffffffffffffffffffffffff1916817bffffffffffffffffffffffffffffffffffffffffffffffffffffffff191614915050613284565b600190505b949350505050565b505050565b61329b83836132ff565b6132a860008484846130f5565b6132e7576040517f08c379a00000000000000000000000000000000000000000000000000000000081526004016132de90614463565b60405180910390fd5b505050565b600080823b905060008111915050919050565b600073ffffffffffffffffffffffffffffffffffffffff168273ffffffffffffffffffffffffffffffffffffffff16141561336f576040517f08c379a0000000000000000000000000000000000000000000000000000000008152600401613366906145c3565b60405180910390fd5b61337881612439565b156133b8576040517f08c379a00000000000000000000000000000000000000000000000000000000081526004016133af906144a3565b60405180910390fd5b6133c46000838361328c565b6001600460008473ffffffffffffffffffffffffffffffffffffffff1673ffffffffffffffffffffffffffffffffffffffff16815260200190815260200160002060008282546134149190614865565b92505081905550816003600083815260200190815260200160002060006101000a81548173ffffffffffffffffffffffffffffffffffffffff021916908373ffffffffffffffffffffffffffffffffffffffff160217905550808273ffffffffffffffffffffffffffffffffffffffff16600073ffffffffffffffffffffffffffffffffffffffff167fddf252ad1be2c89b69c2b068fc378daa952ba7f163c4a11628f55a4df523b3ef60405160405180910390a45050565b8280546134d9906149cf565b90600052602060002090601f0160209004810192826134fb5760008555613542565b82601f1061351457805160ff1916838001178555613542565b82800160010185558215613542579182015b82811115613541578251825591602001919060010190613526565b5b50905061354f9190613553565b5090565b5b8082111561356c576000816000905550600101613554565b5090565b600061358361357e846147c2565b614791565b90508281526020810184848401111561359b57600080fd5b6135a6848285614963565b509392505050565b60006135c16135bc846147f2565b614791565b9050828152602081018484840111156135d957600080fd5b6135e4848285614963565b509392505050565b6000813590506135fb81614ae8565b92915050565b60008135905061361081614aff565b92915050565b60008135905061362581614b16565b92915050565b60008151905061363a81614b16565b92915050565b600082601f83011261365157600080fd5b8135613661848260208601613570565b91505092915050565b600082601f83011261367b57600080fd5b813561368b8482602086016135ae565b91505092915050565b6000813590506136a381614b2d565b92915050565b6000602082840312156136bb57600080fd5b60006136c9848285016135ec565b91505092915050565b600080604083850312156136e557600080fd5b60006136f3858286016135ec565b9250506020613704858286016135ec565b9150509250929050565b60008060006060848603121561372357600080fd5b6000613731868287016135ec565b9350506020613742868287016135ec565b925050604061375386828701613694565b9150509250925092565b6000806000806080858703121561377357600080fd5b6000613781878288016135ec565b9450506020613792878288016135ec565b93505060406137a387828801613694565b925050606085013567ffffffffffffffff8111156137c057600080fd5b6137cc87828801613640565b91505092959194509250565b600080604083850312156137eb57600080fd5b60006137f9858286016135ec565b925050602061380a85828601613601565b9150509250929050565b60008060006060848603121561382957600080fd5b6000613837868287016135ec565b935050602084013567ffffffffffffffff81111561385457600080fd5b6138608682870161366a565b925050604084013567ffffffffffffffff81111561387d57600080fd5b6138898682870161366a565b9150509250925092565b600080604083850312156138a657600080fd5b60006138b4858286016135ec565b92505060206138c585828601613694565b9150509250929050565b6000602082840312156138e157600080fd5b60006138ef84828501613616565b91505092915050565b60006020828403121561390a57600080fd5b60006139188482850161362b565b91505092915050565b60006020828403121561393357600080fd5b600082013567ffffffffffffffff81111561394d57600080fd5b6139598482850161366a565b91505092915050565b60006020828403121561397457600080fd5b600061398284828501613694565b91505092915050565b6000806040838503121561399e57600080fd5b60006139ac85828601613694565b92505060206139bd85828601613694565b9150509250929050565b6139d0816148ef565b82525050565b6139df81614901565b82525050565b6139ee8161490d565b82525050565b60006139ff82614822565b613a098185614838565b9350613a19818560208601614972565b613a2281614ad7565b840191505092915050565b6000613a388261482d565b613a428185614854565b9350613a52818560208601614972565b613a5b81614ad7565b840191505092915050565b6000613a73601f83614854565b91507f43616e206e6f7420707572636861736520796f7572206f776e204e4654732e006000830152602082019050919050565b6000613ab3602083614854565b91507f546f6b656e20646f6573206e6f742062656c6f6e6720746f2073656e6465722e6000830152602082019050919050565b6000613af3603283614854565b91507f4552433732313a207472616e7366657220746f206e6f6e20455243373231526560008301527f63656976657220696d706c656d656e74657200000000000000000000000000006020830152604082019050919050565b6000613b59602683614854565b91507f4f776e61626c653a206e6577206f776e657220697320746865207a65726f206160008301527f64647265737300000000000000000000000000000000000000000000000000006020830152604082019050919050565b6000613bbf601c83614854565b91507f4552433732313a20746f6b656e20616c7265616479206d696e746564000000006000830152602082019050919050565b6000613bff602583614854565b91507f4e6f7420617574686f72697a656420746f2063616c6c20746869732066756e6360008301527f74696f6e2e0000000000000000000000000000000000000000000000000000006020830152604082019050919050565b6000613c65602483614854565b91507f4552433732313a207472616e7366657220746f20746865207a65726f2061646460008301527f72657373000000000000000000000000000000000000000000000000000000006020830152604082019050919050565b6000613ccb601983614854565b91507f4552433732313a20617070726f766520746f2063616c6c6572000000000000006000830152602082019050919050565b6000613d0b602383614854565b91507f4e6f7420746865206f726967696e616c206f776e6572206f662074686973204e60008301527f46542e00000000000000000000000000000000000000000000000000000000006020830152604082019050919050565b6000613d71602c83614854565b91507f4552433732313a206f70657261746f7220717565727920666f72206e6f6e657860008301527f697374656e7420746f6b656e00000000000000000000000000000000000000006020830152604082019050919050565b6000613dd7603883614854565b91507f4552433732313a20617070726f76652063616c6c6572206973206e6f74206f7760008301527f6e6572206e6f7220617070726f76656420666f7220616c6c00000000000000006020830152604082019050919050565b6000613e3d602a83614854565b91507f4552433732313a2062616c616e636520717565727920666f7220746865207a6560008301527f726f2061646472657373000000000000000000000000000000000000000000006020830152604082019050919050565b6000613ea3602983614854565b91507f4552433732313a206f776e657220717565727920666f72206e6f6e657869737460008301527f656e7420746f6b656e00000000000000000000000000000000000000000000006020830152604082019050919050565b6000613f09602083614854565b91507f4552433732313a206d696e7420746f20746865207a65726f20616464726573736000830152602082019050919050565b6000613f49602c83614854565b91507f4552433732313a20617070726f76656420717565727920666f72206e6f6e657860008301527f697374656e7420746f6b656e00000000000000000000000000000000000000006020830152604082019050919050565b6000613faf602083614854565b91507f4f776e61626c653a2063616c6c6572206973206e6f7420746865206f776e65726000830152602082019050919050565b6000613fef602983614854565b91507f4552433732313a207472616e73666572206f6620746f6b656e2074686174206960008301527f73206e6f74206f776e00000000000000000000000000000000000000000000006020830152604082019050919050565b6000614055602f83614854565b91507f4552433732314d657461646174613a2055524920717565727920666f72206e6f60008301527f6e6578697374656e7420746f6b656e00000000000000000000000000000000006020830152604082019050919050565b60006140bb601083614854565b91507f4e4654206e6f7420666f722073616c65000000000000000000000000000000006000830152602082019050919050565b60006140fb602183614854565b91507f4552433732313a20617070726f76616c20746f2063757272656e74206f776e6560008301527f72000000000000000000000000000000000000000000000000000000000000006020830152604082019050919050565b6000614161600083614849565b9150600082019050919050565b600061417b603183614854565b91507f4552433732313a207472616e736665722063616c6c6572206973206e6f74206f60008301527f776e6572206e6f7220617070726f7665640000000000000000000000000000006020830152604082019050919050565b60006141e1602083614854565b91507f496e73756666696369656e742066756e647320666f722070757263686173652e6000830152602082019050919050565b6000614221601883614854565b91507f546f6b656e20494420646f6573206e6f742065786973742e00000000000000006000830152602082019050919050565b6000614261601c83614854565b91507f4661696c656420746f2073656e642045544820746f2053656c6c6572000000006000830152602082019050919050565b61429d81614959565b82525050565b60006142ae82614154565b9150819050919050565b60006020820190506142cd60008301846139c7565b92915050565b60006080820190506142e860008301876139c7565b6142f560208301866139c7565b6143026040830185614294565b818103606083015261431481846139f4565b905095945050505050565b600060208201905061433460008301846139d6565b92915050565b600060608201905061434f60008301866139d6565b61435c6020830185614294565b61436960408301846139c7565b949350505050565b600060208201905061438660008301846139e5565b92915050565b600060208201905081810360008301526143a68184613a2d565b905092915050565b600060408201905081810360008301526143c88185613a2d565b905081810360208301526143dc8184613a2d565b90509392505050565b600060608201905081810360008301526143ff8186613a2d565b905061440e6020830185614294565b61441b60408301846139c7565b949350505050565b6000602082019050818103600083015261443c81613a66565b9050919050565b6000602082019050818103600083015261445c81613aa6565b9050919050565b6000602082019050818103600083015261447c81613ae6565b9050919050565b6000602082019050818103600083015261449c81613b4c565b9050919050565b600060208201905081810360008301526144bc81613bb2565b9050919050565b600060208201905081810360008301526144dc81613bf2565b9050919050565b600060208201905081810360008301526144fc81613c58565b9050919050565b6000602082019050818103600083015261451c81613cbe565b9050919050565b6000602082019050818103600083015261453c81613cfe565b9050919050565b6000602082019050818103600083015261455c81613d64565b9050919050565b6000602082019050818103600083015261457c81613dca565b9050919050565b6000602082019050818103600083015261459c81613e30565b9050919050565b600060208201905081810360008301526145bc81613e96565b9050919050565b600060208201905081810360008301526145dc81613efc565b9050919050565b600060208201905081810360008301526145fc81613f3c565b9050919050565b6000602082019050818103600083015261461c81613fa2565b9050919050565b6000602082019050818103600083015261463c81613fe2565b9050919050565b6000602082019050818103600083015261465c81614048565b9050919050565b6000602082019050818103600083015261467c816140ae565b9050919050565b6000602082019050818103600083015261469c816140ee565b9050919050565b600060208201905081810360008301526146bc8161416e565b9050919050565b600060208201905081810360008301526146dc816141d4565b9050919050565b600060208201905081810360008301526146fc81614214565b9050919050565b6000602082019050818103600083015261471c81614254565b9050919050565b60006020820190506147386000830184614294565b92915050565b600060a0820190506147536000830188614294565b61476060208301876139c7565b61476d60408301866139c7565b61477a6060830185614294565b6147876080830184614294565b9695505050505050565b6000604051905081810181811067ffffffffffffffff821117156147b8576147b7614aa8565b5b8060405250919050565b600067ffffffffffffffff8211156147dd576147dc614aa8565b5b601f19601f8301169050602081019050919050565b600067ffffffffffffffff82111561480d5761480c614aa8565b5b601f19601f8301169050602081019050919050565b600081519050919050565b600081519050919050565b600082825260208201905092915050565b600081905092915050565b600082825260208201905092915050565b600061487082614959565b915061487b83614959565b9250827fffffffffffffffffffffffffffffffffffffffffffffffffffffffffffffffff038211156148b0576148af614a4a565b5b828201905092915050565b60006148c682614959565b91506148d183614959565b9250828210156148e4576148e3614a4a565b5b828203905092915050565b60006148fa82614939565b9050919050565b60008115159050919050565b60007fffffffff0000000000000000000000000000000000000000000000000000000082169050919050565b600073ffffffffffffffffffffffffffffffffffffffff82169050919050565b6000819050919050565b82818337600083830152505050565b60005b83811015614990578082015181840152602081019050614975565b8381111561499f576000848401525b50505050565b60006149b082614959565b915060008214156149c4576149c3614a4a565b5b600182039050919050565b600060028204905060018216806149e757607f821691505b602082108114156149fb576149fa614a79565b5b50919050565b6000614a0c82614959565b91507fffffffffffffffffffffffffffffffffffffffffffffffffffffffffffffffff821415614a3f57614a3e614a4a565b5b600182019050919050565b7f4e487b7100000000000000000000000000000000000000000000000000000000600052601160045260246000fd5b7f4e487b7100000000000000000000000000000000000000000000000000000000600052602260045260246000fd5b7f4e487b7100000000000000000000000000000000000000000000000000000000600052604160045260246000fd5b6000601f19601f8301169050919050565b614af1816148ef565b8114614afc57600080fd5b50565b614b0881614901565b8114614b1357600080fd5b50565b614b1f8161490d565b8114614b2a57600080fd5b50565b614b3681614959565b8114614b4157600080fd5b5056fea264697066735822122079d3d930b2b1a161447011c8300111e8074e20ab414fcd116f739d65e3c50bae64736f6c63430008000033687474703a2f2f35342e3135332e3138322e31333a333939382f6170692f6e66742f",
  "immutableReferences": {},
  "source": "// SPDX-License-Identifier: MIT\r\n\r\npragma solidity ^0.8.0;\r\n\r\nimport \"@openzeppelin/contracts/access/Ownable.sol\";\r\nimport \"@openzeppelin/contracts/token/ERC721/ERC721.sol\";\r\nimport \"@openzeppelin/contracts/token/ERC721/IERC721Receiver.sol\";\r\n\r\ncontract AuxiunNFT is Ownable, ERC721, IERC721Receiver {\r\n\r\n    struct Metadata {\r\n        string game_id;\r\n        string item_id;\r\n    }\r\n\r\n    struct MarketDetails {\r\n        bool forSale;\r\n        uint256 price;\r\n        address seller;\r\n    }\r\n\r\n    struct TransactionHistory {\r\n        uint256 tokenId;\r\n        address buyer;\r\n        address seller;\r\n        uint256 price;\r\n        uint256 timestamp;\r\n    }\r\n\r\n    // mapping of tokenId to market details\r\n    mapping(uint256 => MarketDetails) public id_to_marketDetails;\r\n\r\n    // mapping of tokenId to metadata\r\n    mapping(uint256 => Metadata) public id_to_metadata;\r\n\r\n    // array which stores all transaction data\r\n    TransactionHistory[] public transactionHistory;\r\n\r\n    // transactionHistory counter for addresses to determine the multicall memory array size\r\n    mapping(address => uint256) public transactionHistoryCount;\r\n\r\n    // list of admin addresses authorized to mint tokens\r\n    mapping(address => bool) public admins;\r\n\r\n    // Base URI, aka API link to fetch further metadata of the token\r\n    string private baseURI;\r\n\r\n    // Used as tokenId for a newly minted token and increases by 1\r\n    uint256 public tokenIdCounter = 0;\r\n\r\n    // Number of NFTs on market (Maybe for future use)\r\n    uint256 public NFTsOnMarket = 0;\r\n\r\n    // Number of NFTs on market by address\r\n    mapping(address => uint256) public NFTsOnMarketByAddress;\r\n \r\n    constructor() ERC721(\"AuxiunNFT\", \"AUXN\") {\r\n        // TODO: Setup database api server and set the link here, remember to add the \"/\" at the end of the uri\r\n        baseURI = \"http://54.153.182.13:3998/api/nft/\";\r\n    }\r\n\r\n    function _baseURI() internal view virtual override returns (string memory) {\r\n        return baseURI;\r\n    }\r\n\r\n    function setBaseURI(string memory inputbaseURI) public onlyOwner {\r\n        baseURI = inputbaseURI;\r\n    }\r\n\r\n    // function standard called by NFT marketplaces such as OpenSea\r\n    function tokenURI(uint256 tokenId)\r\n        public\r\n        view\r\n        virtual\r\n        override\r\n        returns (string memory)\r\n    {\r\n        require(_exists(tokenId), \"ERC721Metadata: URI query for nonexistent token\");\r\n        return strConcat(_baseURI(), id_to_metadata[tokenId].game_id, \"/\", id_to_metadata[tokenId].item_id, \"\");\r\n    } \r\n\r\n    function mint(address to, string memory game_id, string memory item_id) external {\r\n        require(admins[msg.sender], \"Not authorized to call this function.\");\r\n        uint256 tokenId = tokenIdCounter;\r\n        tokenIdCounter++;\r\n        id_to_metadata[tokenId] = Metadata(game_id, item_id);\r\n        _safeMint(to, tokenId);\r\n    }\r\n\r\n    // get transactionHistory length for multicall function\r\n    function getTransactionHistoryLength() public view returns (uint256) {\r\n        return transactionHistory.length;\r\n    }\r\n\r\n    // functions to handle admins array\r\n    function addAdminAddress(address _address) external onlyOwner() {\r\n        admins[_address] = true;\r\n    }\r\n\r\n    function removeAdminAddress(address _address) external onlyOwner() {\r\n        admins[_address] = false;\r\n    }\r\n\r\n    function isAdminAddress(address _address) external view returns (bool) {\r\n        return admins[_address];\r\n    }\r\n\r\n    // String concatenation function\r\n    // original source: https://github.com/provable-things/ethereum-api/blob/master/oraclizeAPI_0.5.sol\r\n    // stack overflow topic: https://ethereum.stackexchange.com/questions/729/how-to-concatenate-strings-in-solidity\r\n    // Notes: reduce the parameters if necessary\r\n    function strConcat(string memory _a, string memory _b, string memory _c, string memory _d, string memory _e) internal pure returns (string memory){\r\n        bytes memory _ba = bytes(_a);\r\n        bytes memory _bb = bytes(_b);\r\n        bytes memory _bc = bytes(_c);\r\n        bytes memory _bd = bytes(_d);\r\n        bytes memory _be = bytes(_e);\r\n        string memory abcde = new string(_ba.length + _bb.length + _bc.length + _bd.length + _be.length);\r\n        bytes memory babcde = bytes(abcde);\r\n        uint k = 0;\r\n        for (uint i = 0; i < _ba.length; i++) babcde[k++] = _ba[i];\r\n        for (uint i = 0; i < _bb.length; i++) babcde[k++] = _bb[i];\r\n        for (uint i = 0; i < _bc.length; i++) babcde[k++] = _bc[i];\r\n        for (uint i = 0; i < _bd.length; i++) babcde[k++] = _bd[i];\r\n        for (uint i = 0; i < _be.length; i++) babcde[k++] = _be[i];\r\n        return string(babcde);\r\n    }\r\n\r\n    // Modifers\r\n    modifier tokenExists(uint256 tokenId) {\r\n        require(_exists(tokenId), \"Token ID does not exist.\");\r\n        _;\r\n    }\r\n\r\n    modifier belongsToSender(uint256 tokenId){\r\n        require(ownerOf(tokenId) == msg.sender, \"Token does not belong to sender.\");\r\n        _;\r\n    }\r\n\r\n    // Helper Functions for NFTs on the market.\r\n    function _removeNFTfromMarket(uint tokenId, address _address) private tokenExists(tokenId) {\r\n        id_to_marketDetails[tokenId] = MarketDetails(false, 0, address(0));\r\n        // decrease the number of NFTs on market of the user\r\n        NFTsOnMarketByAddress[_address]--;\r\n        NFTsOnMarket--;\r\n    }\r\n  \r\n\r\n    // Functions for market place interactions.\r\n    function listNFTOnMarket(uint256 tokenId, uint256 price) external payable tokenExists(tokenId) belongsToSender(tokenId){\r\n        id_to_marketDetails[tokenId] = MarketDetails(true, price, msg.sender);\r\n        // increase the number of NFTs on market of the user\r\n        NFTsOnMarketByAddress[msg.sender]++;\r\n        NFTsOnMarket++;\r\n\r\n        // transfer ownership of tokenId to this contract\r\n        _safeTransfer(msg.sender, address(this), tokenId, \"\");\r\n    }\r\n\r\n    function removeNFTFromMarket(uint256 tokenId) external tokenExists(tokenId) {\r\n        require(id_to_marketDetails[tokenId].seller == msg.sender, \"Not the original owner of this NFT.\");\r\n        _removeNFTfromMarket(tokenId, msg.sender);\r\n\r\n        // transfer token back to owner\r\n        _safeTransfer(address(this), msg.sender, tokenId, \"\");\r\n    }\r\n\r\n\r\n   // Source: https://ethereum.stackexchange.com/questions/19341/address-send-vs-address-transfer-best-practice-usage/74007#74007\r\n    function purchaseNFT(uint256 tokenId) public payable tokenExists(tokenId) {\r\n        require(id_to_marketDetails[tokenId].seller != msg.sender, \"Can not purchase your own NFTs.\");\r\n        require(id_to_marketDetails[tokenId].forSale, \"NFT not for sale\");\r\n        require(id_to_marketDetails[tokenId].price <= msg.value, \"Insufficient funds for purchase.\");\r\n\r\n        // Get seller Id\r\n        address seller = id_to_marketDetails[tokenId].seller;\r\n\r\n        // get price\r\n        uint256 price = id_to_marketDetails[tokenId].price;\r\n\r\n        // Remove NFT from market - do this before transferring ETH to prevent reentrancy\r\n        _removeNFTfromMarket(tokenId, id_to_marketDetails[tokenId].seller);\r\n\r\n        // Transfer fund from NFT buyer to NFT Seller\r\n        (bool success, ) =  seller.call{value: msg.value}(\"\");\r\n        require(success, \"Failed to send ETH to Seller\");\r\n\r\n        // Transfer token to buyer\r\n        _safeTransfer(address(this), msg.sender, tokenId, \"\");\r\n\r\n        // push transaction data into transactionHistory\r\n        transactionHistory.push(TransactionHistory(tokenId, msg.sender, seller, price, block.timestamp));\r\n\r\n        // increase transactionHistoryCount for both buyer and seller\r\n        transactionHistoryCount[msg.sender]++;\r\n        transactionHistoryCount[seller]++;\r\n    }\r\n\r\n    // fetch by order: tokenURI, token price, token seller's address\r\n    function fetchNFTDataById(uint256 tokenId) external view returns(string memory, uint256, address) {\r\n        return (tokenURI(tokenId), id_to_marketDetails[tokenId].price, id_to_marketDetails[tokenId].seller);\r\n    }\r\n\r\n    function kill() public onlyOwner {\r\n        selfdestruct(payable(owner()));\r\n    }\r\n\r\n    receive() external payable {\r\n        // this function enables the contract to receive funds\r\n        // Nothing needed here\r\n    }\r\n\r\n    /** Needed for calling safeTransferFrom */\r\n    function onERC721Received(address, address, uint256, bytes memory) public virtual override returns (bytes4) {\r\n        return this.onERC721Received.selector;\r\n    }\r\n}\r\n\r\ncontract AuxiunNFTMulticall {\r\n    AuxiunNFT auxiunNFTContract;\r\n\r\n    function setNFTContractAddress(address _address) public {\r\n        auxiunNFTContract = AuxiunNFT(payable(_address));\r\n    }\r\n\r\n    // returns an array of token ids which are listed as forSale\r\n    function _fetchTokenIdsOnMarket() internal view returns(uint256[] memory) {\r\n        // initialize result's array length\r\n        uint256[] memory result = new uint256[](auxiunNFTContract.NFTsOnMarket());\r\n        // for loop to fetch all tokenIds where id_to_marketDetails[i].forSale == true\r\n        uint256 counter = 0;\r\n        for (uint256 i = 0; i < auxiunNFTContract.tokenIdCounter(); i++) {\r\n            // only tokenIds which are for sale will be pushed into the result array\r\n            bool forSale;\r\n            (forSale,,) = auxiunNFTContract.id_to_marketDetails(i);\r\n            if (forSale) {\r\n                result[counter] = i;\r\n                counter++;\r\n            }\r\n        }\r\n        return result;\r\n    }\r\n\r\n    /**\r\n    * Multicall function to fetch all NFTs owned by an address\r\n    * Returns 2 arrays which are:\r\n    * 1. array of tokenIds owned by the address\r\n    * 2. array of tokenURIs of the respective tokenIds\r\n    */\r\n    function multiCallNFTsOwnedByAddress(address _address) external view returns(uint256[] memory, string[] memory) {\r\n        require(auxiunNFTContract.tokenIdCounter() > 0, \"No NFTs exist\");\r\n\r\n        // initialize array lengths\r\n        uint256[] memory tokenIds = new uint256[](auxiunNFTContract.balanceOf(_address));\r\n        string[] memory tokenURIs = new string[](auxiunNFTContract.balanceOf(_address));\r\n\r\n        // since tokenIdCounter increments after each new mint we don't need to + 1\r\n        uint256 totalNumberOfNFTs = auxiunNFTContract.tokenIdCounter();\r\n\r\n        uint256 counter = 0;\r\n\r\n        // for loop to fetch all data of tokenIds and push into the 3 arrays\r\n        for (uint256 i = 0; i < totalNumberOfNFTs; i++) {\r\n            if (_address == auxiunNFTContract.ownerOf(i)) {\r\n                tokenIds[counter] = i;\r\n                tokenURIs[counter] = auxiunNFTContract.tokenURI(i);\r\n                counter++;\r\n            }\r\n        }\r\n        \r\n        return (tokenIds, tokenURIs);\r\n    }\r\n\r\n    /**\r\n    * Multicall function to fetch all NFTs listed for sale on the market\r\n    * Returns 4 arrays which are:\r\n    * 1. array of tokenIds\r\n    * 2. array of tokenURIs\r\n    * 3. array of token prices\r\n    * 4. array of token sellers\r\n    */\r\n    function multiCallNFTsOnMarket() external view returns(uint256[] memory, string[] memory, uint256[] memory, address[] memory) {\r\n        // initialize tokenIds' array length\r\n        uint256[] memory tokenIds = new uint256[](auxiunNFTContract.NFTsOnMarket());\r\n        // fetch the tokenIds on the market\r\n        tokenIds = _fetchTokenIdsOnMarket();\r\n\r\n        // initialize array for tokenURIs, prices and sellers\r\n        string[] memory tokenURIs = new string[](auxiunNFTContract.NFTsOnMarket());\r\n        uint256[] memory tokenPrices = new uint256[](auxiunNFTContract.NFTsOnMarket());\r\n        address[] memory tokenSellers = new address[](auxiunNFTContract.NFTsOnMarket());\r\n\r\n        // for loop to fetch all data of tokenIds and push into the 3 arrays\r\n        for (uint256 i = 0; i < auxiunNFTContract.NFTsOnMarket(); i++) {\r\n            uint256 _price;\r\n            address _seller;\r\n            (,_price, _seller) = auxiunNFTContract.id_to_marketDetails(tokenIds[i]);\r\n            tokenURIs[i] = auxiunNFTContract.tokenURI(tokenIds[i]);\r\n            tokenPrices[i] = _price;\r\n            tokenSellers[i] = _seller;\r\n        }\r\n        \r\n        return (tokenIds, tokenURIs, tokenPrices, tokenSellers);\r\n    }\r\n\r\n    // overloaded Multicall function to fetch NFTs listed on sale for a specific user's address\r\n    function multiCallNFTsOnMarket(address seller) external view returns(uint256[] memory, string[] memory, uint256[] memory, address[] memory) {\r\n        // initialize tokenIds' array length\r\n        uint256[] memory tokenIdsOnMarket = new uint256[](auxiunNFTContract.NFTsOnMarket());\r\n        // fetch the tokenIds on the market\r\n        tokenIdsOnMarket = _fetchTokenIdsOnMarket();\r\n\r\n        // initialize array for tokenIdsSeller, tokenURIs, prices and sellers\r\n        uint256[] memory tokenIds = new uint256[](auxiunNFTContract.NFTsOnMarketByAddress(seller));\r\n        string[] memory tokenURIs = new string[](auxiunNFTContract.NFTsOnMarketByAddress(seller));\r\n        uint256[] memory tokenPrices = new uint256[](auxiunNFTContract.NFTsOnMarketByAddress(seller));\r\n        address[] memory tokenSellers = new address[](auxiunNFTContract.NFTsOnMarketByAddress(seller));\r\n\r\n        // for loop to fetch all data of tokenIdsOnMarket and push into the 3 arrays\r\n        uint256 counter = 0;\r\n        for (uint256 i = 0; i < auxiunNFTContract.NFTsOnMarket(); i++) {\r\n            uint256 _price;\r\n            address _seller;\r\n            (,_price, _seller) = auxiunNFTContract.id_to_marketDetails(tokenIdsOnMarket[i]);\r\n            if (seller == _seller) {\r\n                tokenIds[counter] = tokenIdsOnMarket[i];\r\n                tokenURIs[counter] = auxiunNFTContract.tokenURI(tokenIdsOnMarket[i]);\r\n                tokenPrices[counter] = _price;\r\n                tokenSellers[counter] = _seller;\r\n                counter++;\r\n            }\r\n        }\r\n        return (tokenIds, tokenURIs, tokenPrices, tokenSellers);\r\n    }\r\n\r\n  \r\n\r\n    function multiCallTransactionDataByUser(address user) external view \r\n    returns(uint256[] memory, string[] memory, address[] memory, address[] memory,\r\n             uint256[] memory, uint256[] memory, bool[] memory) {\r\n        return (singleCallTransactionDataByUserTokenIds(user),\r\n                singleCallTransactionDataByUserTokenURIs(user),\r\n                singleCallTransactionDataByUserBuyers(user), \r\n                singleTransactionDataByUserSellers(user), \r\n                singleCallTransactionDataByUserPrices(user), \r\n                singleCallTransactionDataByUserTimestamps(user), \r\n                singleCallTransactionDataByUserTransactionType(user));\r\n    }\r\n\r\n    // single functions to be combined in the multiCallTransactionDataByUser() multicall function\r\n    function singleCallTransactionDataByUserTokenIds(address user) internal view returns(uint256[] memory) {\r\n        // initialize return array\r\n        uint256[] memory tokenIds = new uint256[](auxiunNFTContract.transactionHistoryCount(user));\r\n\r\n        // for loop to fetch all data of tokenIds and push into the arrays\r\n        uint256 counter = 0;\r\n        for (uint256 i = 0; i < auxiunNFTContract.getTransactionHistoryLength(); i++) {\r\n            uint256 _tokenId;\r\n            address _buyer;\r\n            address _seller;\r\n            (_tokenId, _buyer, _seller,,) = auxiunNFTContract.transactionHistory(i);\r\n            if (user == _buyer|| user == _seller) {\r\n                tokenIds[counter] = _tokenId;\r\n                counter++;\r\n            }\r\n        }\r\n        return tokenIds;\r\n    }\r\n\r\n    function singleCallTransactionDataByUserTokenURIs(address user) internal view returns(string[] memory) {\r\n        // initialize return array\r\n        string[] memory tokenURIs = new string[](auxiunNFTContract.transactionHistoryCount(user));\r\n\r\n        // for loop to fetch all data of tokenIds and push into the arrays\r\n        uint256 counter = 0;\r\n        for (uint256 i = 0; i < auxiunNFTContract.getTransactionHistoryLength(); i++) {\r\n            uint256 _tokenId;\r\n            address _buyer;\r\n            address _seller;\r\n            (_tokenId, _buyer, _seller,,) = auxiunNFTContract.transactionHistory(i);\r\n            if (user == _buyer|| user == _seller) {\r\n                tokenURIs[counter] = auxiunNFTContract.tokenURI(_tokenId);\r\n                counter++;\r\n            }\r\n        }\r\n        return tokenURIs;\r\n    }\r\n\r\n    function singleCallTransactionDataByUserBuyers(address user) internal view returns(address[] memory) {\r\n        // initialize return array\r\n        address[] memory buyers = new address[](auxiunNFTContract.transactionHistoryCount(user));\r\n\r\n        // for loop to fetch all data of tokenIds and push into the arrays\r\n        uint256 counter = 0;\r\n        for (uint256 i = 0; i < auxiunNFTContract.getTransactionHistoryLength(); i++) {\r\n            uint256 _tokenId;\r\n            address _buyer;\r\n            address _seller;\r\n            (_tokenId, _buyer, _seller,,) = auxiunNFTContract.transactionHistory(i);\r\n            if (user == _buyer|| user == _seller) {\r\n                buyers[counter] = _buyer;\r\n                counter++;\r\n            }\r\n        }\r\n        return buyers;\r\n    }\r\n\r\n    function singleTransactionDataByUserSellers(address user) internal view returns(address[] memory) {\r\n        // initialize return array\r\n        address[] memory sellers = new address[](auxiunNFTContract.transactionHistoryCount(user));\r\n\r\n        // for loop to fetch all data of tokenIds and push into the arrays\r\n        uint256 counter = 0;\r\n        for (uint256 i = 0; i < auxiunNFTContract.getTransactionHistoryLength(); i++) {\r\n            uint256 _tokenId;\r\n            address _buyer;\r\n            address _seller;\r\n            (_tokenId, _buyer, _seller,,) = auxiunNFTContract.transactionHistory(i);\r\n            if (user == _buyer|| user == _seller) {\r\n                sellers[counter] = _seller;\r\n                counter++;\r\n            }\r\n        }\r\n        return sellers;\r\n    }\r\n\r\n    function singleCallTransactionDataByUserPrices(address user) internal view returns(uint256[] memory) {\r\n        // initialize return arrays\r\n        uint256[] memory prices = new uint256[](auxiunNFTContract.transactionHistoryCount(user));\r\n\r\n        // for loop to fetch all data of tokenIds and push into the arrays\r\n        uint256 counter = 0;\r\n        for (uint256 i = 0; i < auxiunNFTContract.getTransactionHistoryLength(); i++) {\r\n            address _buyer;\r\n            address _seller;\r\n            uint256 _price;\r\n            (, _buyer, _seller, _price,) = auxiunNFTContract.transactionHistory(i);\r\n            if (user == _buyer|| user == _seller) {\r\n                prices[counter] = _price;\r\n                counter++;\r\n            }\r\n        }\r\n        return (prices);\r\n    }\r\n\r\n    function singleCallTransactionDataByUserTimestamps(address user) internal view returns(uint256[] memory) {\r\n        // initialize return array\r\n        uint256[] memory timestamps = new uint256[](auxiunNFTContract.transactionHistoryCount(user));\r\n\r\n        // for loop to fetch all data of tokenIds and push into the arrays\r\n        uint256 counter = 0;\r\n        for (uint256 i = 0; i < auxiunNFTContract.getTransactionHistoryLength(); i++) {\r\n            address _buyer;\r\n            address _seller;\r\n            uint256 _timestamp;\r\n            (, _buyer, _seller,, _timestamp) = auxiunNFTContract.transactionHistory(i);\r\n            if (user == _buyer|| user == _seller) {\r\n                timestamps[counter] = _timestamp;\r\n                counter++;\r\n            }\r\n        }\r\n        return timestamps;\r\n    }\r\n\r\n    function singleCallTransactionDataByUserTransactionType(address user) internal view returns(bool[] memory) {\r\n        // initialize return array\r\n        // transactionType = true: it is a buy transaction for the user\r\n        // transacitonType = false: it is a sell transaction for the user\r\n        bool[] memory transactionType = new bool[](auxiunNFTContract.transactionHistoryCount(user));\r\n\r\n        // for loop to fetch all data of tokenIds and push into the arrays\r\n        uint256 counter = 0;\r\n        for (uint256 i = 0; i < auxiunNFTContract.getTransactionHistoryLength(); i++) {\r\n            address _buyer;\r\n            address _seller;\r\n            (, _buyer, _seller,,) = auxiunNFTContract.transactionHistory(i);\r\n            if (user == _buyer|| user == _seller) {\r\n                // determine transactionType\r\n                if (user == _buyer) {\r\n                    transactionType[counter] = true;\r\n                }\r\n                else {\r\n                    transactionType[counter] = false;\r\n                }\r\n                counter++;\r\n            }\r\n        }\r\n        return transactionType;\r\n    }\r\n}\r\n\r\n  /**\r\n    * Multicall functions to fetch transaction data\r\n    * fetch transaction data by user's address\r\n    * Returns 6 arrays sale which are:\r\n    * 1. array of tokenIds\r\n    * 2. array of buyers\r\n    * 3. array of sellers\r\n    * 4. array of prices\r\n    * 5. array of timestamps\r\n    * 6. array of transacitonType - true: buy ; false: sell\r\n    */\r\n    // function multiCallTransactionDataByUser(address user) external view returns(uint256[] memory, address[] memory, address[] memory, uint256[] memory, uint256[] memory, bool[] memory) {\r\n    //     // initialize return arrays\r\n    //     uint256[] memory tokenIds = new uint256[](auxiunNFTContract.transactionHistoryCount(user));\r\n    //     address[] memory buyers = new address[](auxiunNFTContract.transactionHistoryCount(user));\r\n    //     address[] memory sellers = new address[](auxiunNFTContract.transactionHistoryCount(user));\r\n    //     uint256[] memory prices = new uint256[](auxiunNFTContract.transactionHistoryCount(user));\r\n    //     uint256[] memory timestamps = new uint256[](auxiunNFTContract.transactionHistoryCount(user));\r\n    //     // transactionType = true: it is a buy transaction for the user\r\n    //     // transacitonType = false: it is a sell transaction for the user\r\n    //     bool[] memory transactionType = new bool[](auxiunNFTContract.transactionHistoryCount(user));\r\n\r\n    //     // for loop to fetch all data of tokenIds and push into the arrays\r\n    //     uint256 counter = 0;\r\n    //     for (uint256 i = 0; i < auxiunNFTContract.getTransactionHistoryLength(); i++) {\r\n    //         uint256 _tokenId;\r\n    //         address _buyer;\r\n    //         address _seller;\r\n    //         uint256 _price;\r\n    //         uint256 _timestamp;\r\n    //         (_tokenId, _buyer, _seller, _price, _timestamp) = auxiunNFTContract.transactionHistory(i);\r\n    //         if (user == _buyer|| user == _seller) {\r\n    //             tokenIds[counter] = _tokenId;\r\n    //             buyers[counter] = _buyer;\r\n    //             sellers[counter] = _seller;\r\n    //             prices[counter] = _price;\r\n    //             timestamps[counter] = _timestamp;\r\n\r\n    //             // determine transactionType\r\n    //             if (user == _buyer) {\r\n    //                 transactionType[counter] = true;\r\n    //             }\r\n    //             else {\r\n    //                 transactionType[counter] = false;\r\n    //             }\r\n    //             counter++;\r\n    //         }\r\n    //     }\r\n        \r\n    //     return (tokenIds, buyers, sellers, prices, timestamps, transactionType);\r\n    // }\r\n\r\n\r\n    // function multiCallTransactionDataByUserPartA(address user) internal view returns(uint256[] memory,  address[] memory, address[] memory) {\r\n    //     // initialize return arrays\r\n    //     uint256[] memory tokenIds = new uint256[](auxiunNFTContract.transactionHistoryCount(user));\r\n    //     address[] memory buyers = new address[](auxiunNFTContract.transactionHistoryCount(user));\r\n    //     address[] memory sellers = new address[](auxiunNFTContract.transactionHistoryCount(user));\r\n\r\n    //     // for loop to fetch all data of tokenIds and push into the arrays\r\n    //     uint256 counter = 0;\r\n    //     for (uint256 i = 0; i < auxiunNFTContract.getTransactionHistoryLength(); i++) {\r\n    //         uint256 _tokenId;\r\n    //         address _buyer;\r\n    //         address _seller;\r\n    //         (_tokenId, _buyer, _seller,,) = auxiunNFTContract.transactionHistory(i);\r\n    //         if (user == _buyer|| user == _seller) {\r\n    //             tokenIds[counter] = _tokenId;\r\n    //             buyers[counter] = _buyer;\r\n    //             sellers[counter] = _seller;\r\n    //             counter++;\r\n    //         }\r\n    //     }\r\n    //     return (tokenIds, buyers, sellers);\r\n    // }\r\n\r\n    // function multiCallTransactionDataByUserPartB(address user) internal view returns(uint256[] memory, uint256[] memory, bool[] memory) {\r\n    //     // initialize return arrays\r\n    //     uint256[] memory prices = new uint256[](auxiunNFTContract.transactionHistoryCount(user));\r\n    //     uint256[] memory timestamps = new uint256[](auxiunNFTContract.transactionHistoryCount(user));\r\n    //     // transactionType = true: it is a buy transaction for the user\r\n    //     // transacitonType = false: it is a sell transaction for the user\r\n    //     bool[] memory transactionType = new bool[](auxiunNFTContract.transactionHistoryCount(user));\r\n\r\n    //     // for loop to fetch all data of tokenIds and push into the arrays\r\n    //     uint256 counter = 0;\r\n    //     for (uint256 i = 0; i < auxiunNFTContract.getTransactionHistoryLength(); i++) {\r\n    //         address _buyer;\r\n    //         address _seller;\r\n    //         uint256 _price;\r\n    //         uint256 _timestamp;\r\n    //         (, _buyer, _seller, _price, _timestamp) = auxiunNFTContract.transactionHistory(i);\r\n    //         if (user == _buyer|| user == _seller) {\r\n    //             prices[counter] = _price;\r\n    //             timestamps[counter] = _timestamp;\r\n\r\n    //             // determine transactionType\r\n    //             if (user == _buyer) {\r\n    //                 transactionType[counter] = true;\r\n    //             }\r\n    //             else {\r\n    //                 transactionType[counter] = false;\r\n    //             }\r\n    //             counter++;\r\n    //         }\r\n    //     }\r\n    //     return (prices, timestamps, transactionType);\r\n    // }",
  "sourcePath": "C:/Users/flooofy/sem_2_2021/PP1/axiun-contracts/contracts/AuxiunNFT.sol",
  "compiler": {
    "name": "solc",
    "version": "0.8.0+commit.c7dfd78e.Emscripten.clang"
  },
  "schemaVersion": "3.4.1",
  "updatedAt": "2021-08-27T04:56:29.636Z",
  "devdoc": {
    "kind": "dev",
    "methods": {
      "approve(address,uint256)": {
        "details": "See {IERC721-approve}."
      },
      "balanceOf(address)": {
        "details": "See {IERC721-balanceOf}."
      },
      "getApproved(uint256)": {
        "details": "See {IERC721-getApproved}."
      },
      "isApprovedForAll(address,address)": {
        "details": "See {IERC721-isApprovedForAll}."
      },
      "name()": {
        "details": "See {IERC721Metadata-name}."
      },
      "owner()": {
        "details": "Returns the address of the current owner."
      },
      "ownerOf(uint256)": {
        "details": "See {IERC721-ownerOf}."
      },
      "renounceOwnership()": {
        "details": "Leaves the contract without owner. It will not be possible to call `onlyOwner` functions anymore. Can only be called by the current owner. NOTE: Renouncing ownership will leave the contract without an owner, thereby removing any functionality that is only available to the owner."
      },
      "safeTransferFrom(address,address,uint256)": {
        "details": "See {IERC721-safeTransferFrom}."
      },
      "safeTransferFrom(address,address,uint256,bytes)": {
        "details": "See {IERC721-safeTransferFrom}."
      },
      "setApprovalForAll(address,bool)": {
        "details": "See {IERC721-setApprovalForAll}."
      },
      "supportsInterface(bytes4)": {
        "details": "See {IERC165-supportsInterface}."
      },
      "symbol()": {
        "details": "See {IERC721Metadata-symbol}."
      },
      "tokenURI(uint256)": {
        "details": "See {IERC721Metadata-tokenURI}."
      },
      "transferFrom(address,address,uint256)": {
        "details": "See {IERC721-transferFrom}."
      },
      "transferOwnership(address)": {
        "details": "Transfers ownership of the contract to a new account (`newOwner`). Can only be called by the current owner."
      }
    },
    "version": 1
  },
  "userdoc": {
    "kind": "user",
    "methods": {
      "onERC721Received(address,address,uint256,bytes)": {
        "notice": "Needed for calling safeTransferFrom "
      }
    },
    "version": 1
  }
}